:020000040000FA
:10000000E80D0020D9000000E7000000CD2100002D
:1000100000000000000000000000000000000000E0
:10002000000000000000000000000000EB000000E5
:100030000000000000000000ED000000F945000095
:100040003D46000065460000F1000000F1000000A0
:10005000F1000000F1000000F10000005521000057
:10006000F10000002D060000A1030000F1000000D7
:10007000F1000000F100000000000000000000009E
:100080000000000000000000000000000000000070
:100090000000000000000000000000000000000060
:1000A0000000000000000000000000000000000050
:1000B0000000000000000000000000000000000040
:1000C0000448854600F00EF90048004779560000C4
:1000D000C046C046E80D0020064880F30888064860
:1000E000804706480047FEE7FEE7FEE7FEE7FEE73B
:1000F000FEE70000E80D0020FD450000C100000003
:1001000030B50B46014600202022012409E00D46AF
:10011000D5409D4205D31D469540491B2546954037
:1001200040191546521E002DF1DC30BD70B500247B
:100130002546002801DA01244042002901DA012580
:100140004942FFF7DDFFAC4200D04042002C00D016
:10015000494270BDF8B500242546002904DA0E4650
:10016000012400214042B141002B04DA1E46002345
:1001700052420125B34100F084F88C4617461E46D2
:10018000AC4203D0002540428D41AC46002C02D049
:10019000002657429E4161463A46334601B0F0BDC3
:1001A000F0B51FB486B00020009001900290069830
:1001B000069980B204900798090C020400141143B8
:1001C00007900027089D099806913E463C460390FB
:1001D0000398A9B20204000C039004982D0C154357
:1001E00048430021224600F018F8C7197141103425
:1001F0000E46402CECDB3846029A00F00EF8009ACE
:10020000019B801800905941029801911030029092
:100210004028CCDB00980BB0F0BD10B5202A04DBE1
:100220000146203A9140002010BD914020239C1AA5
:100230000346E3401943904010BD03460B439B0720
:1002400003D009E008C9121F08C0042AFAD203E04B
:100250000B780370401C491C521EF9D27047D2B271
:1002600001E00270401C491EFBD270470022F6E7F5
:1002700010B513460A4604461946FFF7F0FF20461C
:1002800010BDF0B51FB40646002082B005464024DC
:10029000019100901BE0019922460F46304600F084
:1002A00033F8049A059B801A994110D310461946D9
:1002B0002246FFF7B2FF361A8F41019722460120EE
:1002C0000021009FFFF7A9FF38184D4100902046FC
:1002D000641E0028DFDC019B00982946324607B0E7
:1002E000F0BD0000064C0125064E05E0E36807CC92
:1002F0002B430C3C98471034B442F7D3FFF7E4FE8D
:10030000286200004862000010B5202A04DB08467D
:10031000203AD040002110BD0B46D340D0402024CD
:10032000A21A91400843194610BD000000B589B0DB
:10033000684600F0BDF800206A4610810A2111824B
:10034000508290800121D181508151800C201080F9
:100350006946074800F040F80648FF21C16241693C
:10036000C2141143416100F007F809B000BD00005C
:10037000000401404004014043210648C9010160D6
:10038000FF2136314160DC21816004490248088048
:10039000704700004004014088FAFFFF2007014039
:1003A00010B50B48C16A03221143C16200F0A8F8DE
:1003B000002004F063FD074C2080002004F042FE82
:1003C000608004222146012003F0DCFD10BD000006
:1003D000400401400C000020F8B50C460546012100
:1003E000080203F0F1FE6088A866217AE08989029C
:1003F00008432179A2790903D20211430843A18954
:1004000009010843A17A0902084380B26865618A3C
:10041000208A09010843A18AE28A090212031143D2
:10042000084328651E48A18B0163618B4163218BC2
:1004300081631D481B4981622088042802D9001F5E
:1004400085B200E00025208C184FC1074020060629
:10045000002931690CD001433161FF20AD3003F038
:1004600043FC7862FF20A93003F03EFC38620BE0C9
:1004700081433161FF20A53003F036FC7862FF2014
:10048000A13003F031FC38622802B0617069E18B61
:10049000890108437061044800218162F8BD0000B1
:1004A00000040140837A00008000004040040140C5
:1004B0000021018041808180C18001814181818151
:1004C000C181018241828182C18201834183818312
:1004D000C18301847047704702490A884280898835
:1004E00081807047000401400149098BC182704737
:1004F000000401400149098AC1817047000401409C
:1005000010B506480649C0680A8842808A888280F9
:10051000098AC181002000F0A7FF10BD140200204D
:1005200000040140028880784A4302411046704727
:100530000289807A4A430241104670478288807956
:100540004A4302411046704714211D4A414389180D
:10055000E4221C4B424310B4D218C4239C580223FB
:10056000E35E194C4000245E6343184CDB13205EAD
:100570001BB2584340230013D35E00B2C31A0B6171
:100580004C89088863430204CC688888E318000417
:10059000CB60934201DD134602E0834200DA03465A
:1005A000CB600C6909894C4321015918914201DD46
:1005B000104602E0814200DB084610BC0014704780
:1005C000A009002018080020420000204000002060
:1005D00010B504F0D1FF10BDCA680004831A1B11C6
:1005E0009A181314CA600A69801A401280180214FB
:1005F0000861981A030448691B1A1B1118184861EE
:100600000623CB5E0014934208DD002800DA404246
:1006100008228A5E904201DA012000E00020887200
:1006200070470004C8600861486170477047000067
:10063000F8B50446454944488862CA055069444BA8
:100640001840A36B1B031843237BDB021843A369E9
:100650001B0218432369DB011843E36B1B0118439A
:10066000E3699B001843506100278F6225462035BF
:10067000297D101403F0A8FD0120217D400303F023
:10068000A3FD26464036707A002802D1687A0028F9
:1006900004D00121082003F0B9FD03E00021082067
:1006A00003F0B4FD317828784902084369787278FC
:1006B00009025200114308432649086020790028A6
:1006C00037D022681201C0000243A06802438A604A
:1006D000606C327AC00192011043727A5201104369
:1006E000E26C12011043626AD20010432A7A92002F
:1006F00010436A7A52001043E26A1043C860307CAB
:10070000727CC00192011043B27C52011043F27C12
:10071000120110432A7CD20010436A7C92001043DD
:10072000AA7C52001043EA7C104308610320486011
:10073000F8BD707A002802D1687A002802D008201B
:100740008860C5E78F60C3E7837A000080000040BF
:10075000438000000002014000210122016002717B
:1007600081600273024620320161034611754033F5
:1007700059701970416419725972C1648163C163FF
:10078000197459749974D97401751170517041625A
:1007900011725172C1628161C1611174517491749D
:1007A000D174704700B595B06846FFF7D5FF0120BA
:1007B0006B461875022208AB0792069058721870A3
:1007C00000210B91197510AB0F920E905970597250
:1007D00013916B46049118710F20009002926846A5
:1007E000FFF726FF15B000BDE42250430A4A0B0470
:1007F00080188030406C018042689B1A5B109A1808
:10080000426041800122054952060A620222825E4C
:100810004A62896A8160704718080020000B014015
:10082000F1B588B00898E4214843FE49461830687D
:100830000190304680307568816B0691C16B0591DF
:10084000006C0490AA6A3446D317039302920C34C6
:100850006421E86904F0DEF9039B029AFFF77AFC51
:100860006060696A286A04F0D5F903910290EE4944
:10087000E86904F0CFF9039B029AFFF76BFC206054
:100880006A8B642042436868D317C11787088907B9
:1008900039438007FFF75EFC0905000B0843A0847D
:1008A00064216868FFF742FC4004698BFFF73EFC57
:1008B000E084EA680292D317039319214904A868D7
:1008C00004F0A8F9039B029AFFF744FC6A8B00230B
:1008D000FFF740FC0121C903081AA0606421686881
:1008E000FFF724FCD14904F095F96A8B0023FFF748
:1008F00031FCEA680292D3170393296904F08AF95C
:10090000039B029AFFF726FC009004F005FA0246CA
:1009100000990F3A1141E1601C21081A60752068A6
:100920000290C01703906068C14AC1170723FFF700
:1009300037FC039B029AFFF70DFC03910290E868D5
:100940006A8BC1170023FFF72BFC02460B46039965
:100950000298FFF7FFFB009004F0DEF902460099D1
:100960000F3A114121611E21081AA0750198E42156
:10097000028808984843AB4940188C300090002A00
:1009800053D020680023C117FFF70AFCEA68D31789
:10099000FFF706FC420FC9001143FF23626887334B
:1009A0005A43C000D317FFF7D5FB00990291896A1B
:1009B00080B2088001996F8B498804F044F90A22BB
:1009C0000023FFF7EDFB3A460023FFF7C3FB029934
:1009D0000023896A48802068019AC1171288FFF7AE
:1009E000DFFB2A69D317FFF7DBFB420FC900114376
:1009F000FF23626887335A43C000D317FFF7AAFB6F
:100A0000029980B2896A88806A8B01990392498829
:100A100004F019F90A220023FFF7C2FB0023039A0E
:100A2000FFF798FB0299896A49E0E8686A8BC11769
:100A30000023FFF7B5FB2268D317FFF7B1FB0923AB
:100A400062689B015A43D317FFF784FB009A029216
:100A5000916A0880A868216804F0DCF8C20C490398
:100A60001143744B626840035A43D317FFF772FB7C
:100A7000029A0023916A4880E8686A8BC117FFF7E1
:100A80008FFB2268D317FFF78BFB092362689B015A
:100A90005A43D317FFF75EFB029A916A8880A868D1
:100AA000216804F0B7F8C20C49031143614B626836
:100AB00040035A43D317FFF74DFB029A916AC8804F
:100AC000009FB86A018806980181B86A4188069833
:100AD0004181B86A018805980181B86A4188059802
:100AE00041813068C18BB86A01813068018CB86A75
:100AF00041810A216868FFF719FB024668694E497F
:100B00004243D31700931646606804F083F83246D8
:100B1000009BFFF71FFB0146B86A642381610498BC
:100B20000499483000900020086048608860C860E0
:100B300048618861C8610862009A0E461060506082
:100B40009060D060106150619061D06110626C362D
:100B500030607060B060F06030617061B061F06111
:100B600030627D228B80D2000A800B810B61276866
:100B70000A204743384604F0CFF801460F380741B2
:100B8000009807801E20411A009841806768384607
:100B900004F0C2F801460F380741009887801E20F4
:100BA000411A0098C1806F68384604F0B5F80146D4
:100BB0000F380741009807811E20411A0098418193
:100BC0006168206804F026F864220023FFF7E8FA41
:100BD0001A4A0023FFF7BEFA074604F09DF80146C3
:100BE0003A460F380241009802611E20411A0098CF
:100BF000818221680A2041434007FFF797FA0746A0
:100C000004F08AF801460F3807411E20411A378048
:100C10007180012080076168FFF788FA074604F0B9
:100C20007BF80DE01808002000E1F50510C9000070
:100C3000000020A1850B0000F0BE1B038E160000F3
:100C400001460F3807411E20411AB780F18001206C
:100C500080076968FFF76AFA054604F05DF8014607
:100C60000F38054135811E20411A174D71812846E4
:100C700004F052F801460F38C5401E207583401A13
:100C8000B083012080076168FFF750FA054604F041
:100C900043F801460F390D411E21F583081A3084AF
:100CA000019801693046FFF743FC6067019841698C
:100CB0003046FFF73DFCA067019881693046FFF799
:100CC00037FCE06709B0F0BD2B1A0900F0B5E4214C
:100CD0004E4A41438E184E4A41018C184D4900013D
:100CE000401800687568C289818983B0D0030C36CA
:100CF000FFF71CFA4849884200DB0846A0836A686F
:100D00004649D31700931746706803F083FF3A46AD
:100D1000009BFFF71FFA32687D21D3170746C900F1
:100D20000193009203F076FF019B009AFFF712FAFD
:100D300000906869FB17C117020D090311430003F6
:100D40003A46FFF707FA074603F0E6FF1B21081AA9
:100D500000B260820C2802DA0C21081A07412782AF
:100D6000E868C117020D09031143009A0003D31765
:100D70000193FFF7EFF9074603F0CEFF1B21081A96
:100D800000B2E0820C2802DA0C21081A0741A7827F
:100D90002869019BC117020D090311430003009A42
:100DA000FFF7D8F9074603F0B7FF1B21081A00B276
:100DB00060830C2802DA0C21081A07412783326865
:100DC0001749D31700931746706803F023FF3A467C
:100DD000009BFFF7BFF9AB68D9171A0D0903114340
:100DE0001D030246C3172846FFF7B4F9054603F072
:100DF00093FF1B21081A00B2E0810C2802DA0C21B3
:100E0000081A0541A58103B0F0BD000018080020B4
:100E1000B409002040090020FF7F00002B3E0000A5
:100E200010270000F8B51646E4222D4B4243D21895
:100E300014468032556C0C344A88628500228A5EE2
:100E4000A2852A21615E524349438A1825490A63D3
:100E5000254B02224000AA5E185EE78C4243D01365
:100E600022468032D36892681B6812687B439A18C6
:100E70004B6B00B21BB2A38683420EDDC003086237
:100E80004B62886A2A21615E80B24143C913618541
:100E90002C21615E4143C813A0851014694603F0FC
:100EA00093FC2A20205EA9682C22A25E48434A4374
:100EB00091126C46002202238012A25EE35E00B211
:100EC00009B242434B43D21AD21332800222A25EAD
:100ED00042430020205E48431018C0137080F8BDC4
:100EE00018080020000B014042000020F0B40CB2B2
:100EF000A446CF03414A424B4C42002846DBC5037F
:100F000006B2002923DB884213DB002808D01762D1
:100F10005662906A0004C00D4000185EF0BC704735
:100F2000002903D0F0BC012080037047F0BC0020F2
:100F30007047156260465062906A0004C00D400020
:100F4000195A0120F0BC8003401A00B27047A04239
:100F500010DB00280BD0E00310625662906A000498
:100F6000C00D4000185A4042F0BC00B27047F0BCBF
:100F700024487047156220B25062906A0004C00D88
:100F80004000195A01208003081AEDE7012540426C
:100F9000ED03002918DB884209DB176200B25062BA
:100FA000906A0004C00D4000185A281ADCE7C003FC
:100FB000106260465062906A0004C00D4000195AE9
:100FC000012080030818CFE7A0420ADBE103116289
:100FD00000B25062906A0004C00D4000185A401BD5
:100FE000C2E7C003106220B25062906A0004C00DD4
:100FF0004000195A0348401AB6E70000000B0140B0
:101000000860000000C0FFFF70470000F8B504460C
:101010000546074606468034A06C30354088783750
:10102000002802D1E16B02204871E06B05230179B1
:1010300000290DD0A26C0020105E002814D00221DF
:10104000515E884214D10621A9850121297316E039
:1010500001210171E16B4448C880A16C0020088027
:10106000AB85022129732EE0AB850121297306E0AF
:101070004900884203D10721A98501212973A26C67
:101080000221515E0020105E4B00C918884203DA2D
:10109000401C1080012104E0884204D1401C1080D3
:1010A000022129730FE0E06B4179002902D0012968
:1010B00014D008E00020A88502212973E16BC880C4
:1010C000F08D002804D0E06B407902280BD01CE0A2
:1010D0000820A885E16B0120487134E0F18D0029DA
:1010E00031D102214171F08D00280CD1304603F03E
:1010F00027F9208B802108432083E06B0321417175
:10110000E16B0220087102212973E06B407903280A
:1011100019D102212973217E30462646C90712D0F3
:1011200001F030FB00280ED0308BC1070BD08007B8
:1011300009D5E16B00200871A16C0880E16BC880C3
:10114000E06B04214171E08A012189020843E082B9
:10115000E06BC08868850020A8703988082081432A
:1011600001433980F8BD0000CC0400000248416909
:1011700010221143416170478007014010B503F010
:10118000D5FD002806D0FFF723FA03F0BDFE0028A6
:1011900000D0012010BD028880784A4302411046E9
:1011A00070470289807A4A430241104670470269BB
:1011B000007D4A43024110467047828880794A4345
:1011C0000241104670472021020C01D01021104628
:1011D000020A01D010460839020901D01046091F41
:1011E000820801D01046891E420801D0881E70472F
:1011F000081A7047F8B500242A4800940099491C41
:1012000000918142FAD3002003F0F8FD816807467F
:101210000E8C9C370021244802F00AFC23494C61C3
:101220004C61052008614869CA1410434861204890
:10123000086003234B601F4D00940098401C0090F1
:10124000A842FAD300202546002E1ED91A4A8A61E8
:10125000CA6AD207FCD0CA6A03231A43CA624A691F
:101260000123DB021A434A61144A0023D35EE418C7
:101270000C23D35EED180423D35E0823D35E102322
:10128000D35E401C80B2B042E0D3FFF74FF8314646
:101290002046FEF74BFFF88031462846FEF746FF12
:1012A0003881F8BDFFFF06000007014040040140FF
:1012B00010820000FFFF0700A55A00000004014053
:1012C00010B4C26801690389511A5943438909015D
:1012D00053435918836959188161838A1C04036830
:1012E00061188B4202DB43688B4202DD19461B1BEF
:1012F00083610261091410BC0846704770B504464A
:101300000121C80202F060FF01208007416861707E
:101310001D491C4A8A62426923785B001A43426174
:101320001A488862FF216078C131194D0E1D0128CD
:1013300013D0022810D1A078002818D001280BD192
:1013400003202870084602F0CFFC00146880304665
:1013500002F0CAFC0014A88070BD01202870084665
:1013600002F0C2FC6880304602F0BEFCF3E70220C7
:101370002870084602F0B8FC6880304602F0B4FCE1
:10138000A88070BD837A000080000040FFFF00004D
:1013900000000020FF2800D3FF20094902228A5EB6
:1013A000898842435012401800B2002801DA002018
:1013B00002E0FF2800DDFF2001218907C862704795
:1013C0000000002000210170417081707047000012
:1013D0000649FF20044A01308A62CA690243CA6191
:1013E0000020886270470000837A0000800000407F
:1013F000024A10625162906A00B27047000B0140CD
:10140000104A0F49116310490128098804D00228A5
:1014100009D003280BD010E00C48084310620C20C0
:101420000143516209E00A480143116205E009489D
:101430000843106208200143516200201063704786
:10144000ADDE0000800701400A000020080C00000B
:101450000C0800000C0C000010B50146014802F019
:10146000E7FA10BD00070140F1B584B0049854219B
:101470004843BA494418049888214843B849451854
:101480002846083002906169019121462C312F468F
:10149000009103906837216BAE1C00988847009933
:1014A0008868008A308000998868408A7080009936
:1014B00014208968085EB0800221715E081AA9496B
:1014C0004843011403984180039831880180207AB1
:1014D000002808D000202072E0680E21415E0498A8
:1014E000FFF782F901E001202072217A049804F0CC
:1014F000DBF901988678092E7ED230007844007995
:10150000001887440423DE2D2D2D2DA6D00001992F
:101510002A20085EA16B898948430001010C606C98
:1015200002F0A9FEA069904942890A8082898A80D6
:10153000C2880A8102898A81028A0A82C2898A82D1
:101540008A4902880A8040888880BAE0049804F0BA
:10155000E7F9207A002808D1049802F019FA04E08B
:10156000012E02D0049804F0D1F9A8696861001432
:10157000394603F029F902990220085E0021795EBC
:101580000022484302998A5E0221795E4A43801A0A
:10159000C013288202990020085E0021795E022291
:1015A000484302998A5E0221795E4A438018C0133B
:1015B0006882287854210246484368494018007AD6
:1015C00000281ED1104603F021FC00283DD00C213C
:1015D0001022695EAA5E891A29650E211222695EAF
:1015E000AA5E891A696328464430FFF769FE2F46D0
:1015F00040373884284600E063E02830FFF760FE7B
:1016000078842A46643228781746111FFFF70AFCAF
:101610003946049802F01EFDA069534942890A80A8
:1016200082898A80C2880A8102898A81028A0A8222
:10163000C2898A824D4902880A804088888029466A
:101640001031049802F05AFA3BE0002068632865E4
:10165000C9E701992A20085EA16B8A8950430013CB
:1016600000B2824201DC0C20085E81B2606C02F0A4
:1016700002FEA0693C4942890A8082898A80C28828
:101680000A8102898A81028A0A82C2898A8237494A
:1016900002880A8040888880049801F023F9049821
:1016A00001F0A2FA0DE001983149808D884202D004
:1016B000491C884205D1E078002814D021692D48C2
:1016C0004884254620352E72216DE068496A884796
:1016D00060690227017B284E01291FD02030007A43
:1016E000002830D033E072B60021244841614169BE
:1016F000C21411434161049800F036FE206D006A67
:101700008047049803F0EEFBA080049803F0F2FBFE
:10171000E07062B61A4821694884D2E72178725C89
:10172000521CD2B27254022A0BD32030007A002805
:1017300003D1206D816901208847012068722078DB
:10174000375405B0F0BD206D8169002088476F7265
:1017500021780020705405B0F0BD00001402002074
:1017600068020020CE9300000007014020070140DE
:101770000108000004080000180000204004014097
:1017800003080000F0B5054640682C468034217EF1
:1017900083689C3083B009077ED52A46C032182161
:1017A000515E9446052901DA491C00E001211183AC
:1017B000E97B002904D0216D02260A8832430A8081
:1017C0000622825E002A00DA5242598C8A4214DADA
:1017D0000822825E002A00DA52428A420DDA0A2288
:1017E000825E002A00DA52428A4206DA0C22825EC7
:1017F000002A00DA52428A4205DB206DFF2201886E
:10180000013211430180686882681E20285E00282A
:1018100000DA4042636D0021595E88420DDC2020D1
:10182000285E002800DA4042884206DC2220285E3A
:10183000002800DA404288420FDD216F0020085E58
:10184000FF32431C0B808132D189884208DB206D36
:10185000012201881143018002E0216F00200880ED
:101860001E22AA5E216EE06D002A00DA524216B2F4
:101870002022AA5E002A00DA524213B22222AA5E75
:10188000002A00DA52420027CF5F12B2B74200DAD4
:101890000E800227CF5F00E0ACE19F4200DA4B8070
:1018A0000427CF5F974200DA8A8041881927BF0159
:1018B000B9420ED8491C41804168B14200D246600D
:1018C0008168994200D28360C16891420CD2C260A3
:1018D0000AE0818801820189418281898182002117
:1018E00041608160C160418061461820085E062821
:1018F00047D201007944097949188F44420243C50F
:10190000FDFB6868666D142302278268EB5EF75F53
:10191000216D606E9F4203DC03885B1D038009E03C
:101920000427F75F9F4202DD43885B1D01E000232F
:1019300003804380FF3200238132C35E1688B342A6
:1019400005DB002303800B88042633430B8002262B
:10195000865F57880823BE4204DB002646800E8837
:101960001E430E80D679002E03D146800E889E43FA
:101970000E809279002A04D10280088804229043C4
:10198000088031E1207F08286FD16868E66E87689B
:10199000606D0090206C8068002800DA4042029060
:1019A000287803F0DDFA0146FF20F230C05D0128FF
:1019B0000AD0206D102201889143018000990020F7
:1019C0004884308070800FE10620FF37305EC137D9
:1019D0000197BA89904202DA401DF08004E1009834
:1019E0004069884203DA00990120088406E00098E3
:1019F0008069884202DD0099002008840098008CEC
:101A000001281FD03088401F00B23080002801DA42
:101A100000203080287803F029FB0746287803F05F
:101A20007DFA00994743C969F813414308120299A6
:101A3000814226DD01990220305EC989884215DA8B
:101A4000401D1FE001990020305EC989884201DAFB
:101A5000401DDEE700203080206D102201881143F8
:101A60000180009801214184D4E75CE0002070806F
:101A7000206D1022018811430180009902204884C2
:101A8000B2E000207080AFE0207F08284BD168686A
:101A9000FF228168F132525C2023A06E012A06D019
:101AA00000210180206D0188994301809CE0FF2680
:101AB0000136725F002A00DA5242666D0A27F75F2C
:101AC000BA4209DA2A69002A00DA5242F668B242BA
:101AD00002DD0288521D00E00022FF310280C13188
:101AE000898B12B28A427FDB00210180206D018840
:101AF0001943DAE762E0FFE7207F082874D16B68BA
:101B0000FF269B68F436F65CE26D216EA06F012E15
:101B10000AD0002202804280206D40230188994330
:101B20000180606D02855FE0FF330026C133865F70
:101B30009F8CBE4202DA761D06801EE000260680DB
:101B40008E5FB446B71002268E5FB74207DCB7102F
:101B500004268E5FB74202DCB610664509DD276DAC
:101B6000BC463E8840273E4367463E80676D01265F
:101B70003E8500260E804E808E80676D2621168A57
:101B8000795E8E4205DB568A8E4202DB928A8A4259
:101B900011DA0221415E9A8C914201DA491D0BE073
:101BA00000214180206D4022018811430180616D38
:101BB0000220088518E00021418015E0207F0828D8
:101BC00012D16A68FF239268F3339B5C216EE06F49
:101BD000012B11D00022C280206D012301885B02FD
:101BE00099430180606D8284206D008828810020E7
:101BF000E872A87203B0F0BDFF320623C132C35EA3
:101C0000168DB342F0DA5B1DC380676D002610238A
:101C10008E5FFB5E9E4207DC02268E5F9E4203DCE7
:101C200004268E5F9E4208DD216D01260B88760218
:101C300033430B80636D03219984E16B497F002955
:101C4000D2D10621415E508D8142CDDD206D012231
:101C50000188520211430180616D04208884C3E72A
:101C6000F8B5054647682C468034BE68616E002092
:101C70000880616EFF364880013678373846316F0C
:101C8000FEF75CFC616D48803846B16FFEF756FC8C
:101C9000616D8880284600F001F8F8BDF8B504466B
:101CA000406885680746FF35783781353846A9682A
:101CB000FEF738FC8034616D00260880A06E068037
:101CC0003846696DFEF72EFC616D48813846A96D76
:101CD000FEF72EFC616DC860E06E0680E06E468007
:101CE000E06EC6803846A96BFEF71CFC616D088269
:101CF0003846E96BFEF716FC616D48613846296C81
:101D0000FEF710FC616D8861616D686CC861606D83
:101D10004684606D0684A06F06803846296EFEF703
:101D200001FC616DC884E06D066046608660C66037
:101D300006614661206E02F0A6FF606F0680E06FCC
:101D400002F09AFFF8BD0000F8B5044641688034FF
:101D5000256D8E682988676D4A0701D40A071AD550
:101D60001422825E0820385E824211DB0620385E33
:101D700082420DDC636EFF2204208532185E925B86
:101D8000904202DA401C988005E00C2081432980B3
:101D9000616E002088802888810701D4C10726D081
:101DA000FF2191318A5B56498A4220D0236F04215A
:101DB000595E914202DA491C998018E0810706D5E4
:101DC000022188432880208BC90208432083288869
:101DD000C10705D0400840002880216F00200880FE
:101DE000206F0189491C0181216F0020888029888A
:101DF000C80616D5FF20D130825B4148824210D000
:101E0000E36E0420185E904202DA401C988008E0DD
:101E1000102081432980002078843884E06E02F00D
:101E20002BFF2878800617D5FF20DF30825B3448EF
:101E3000824211D0A16E0420085E904202DA401C5A
:101E4000888009E0206D2022018891430180A16EE5
:101E500000208880A16E08802988480615D5FF20BB
:101E6000E730835B264883420FD0A26F0420105EC8
:101E7000984202DA401C908007E04020814329808C
:101E8000A16F00208880A16F08802B8818061BD5C1
:101E90003146FF31FF228131B132888C925D801A48
:101EA0002222A25E00B282420BDC626F0420105E2E
:101EB000898E884202DA401C908005E080208343AE
:101EC0002B80616F002088802B8898050CD5FF3609
:101ED000C136B28D0A48824206D0E16F0420085E06
:101EE000904202DA401C8880F8BD01204002834302
:101EF0002B800020B884E06F02F0BEFEF8BD000029
:101F0000FFFF000070B5044646688034216D002054
:101F1000B5680880A16EFF358880E16E0135888044
:101F2000216F78368880216F0881616E8880616FAB
:101F300088803046696FFEF701FB616DC8803046CE
:101F4000E96FFEF7FBFA616D088170BD10B5FEF711
:101F500067FC10BD70B4002301252A460C689A4026
:101F60001440944231D10C79002C04D0012C0AD0B9
:101F7000022C10D015E0046816462643066044681B
:101F8000944344600DE0046894430460446816463A
:101F90002643466005E00468944304604468944323
:101FA00044604C79012C02D0002C05D007E0046974
:101FB00016462643066102E004699443046184697D
:101FC0008E68012E06D0944384615B1C102BC4D311
:101FD00070BC70471443F7E7102917D20B007B44FD
:101FE0001B79DB189F44070C131A21262D343B4024
:101FF000474E555A6168016A334B1940891812E0FF
:10200000016A324B12011940511801627047016A8E
:102010002F4B12021940511801627047016A1203D6
:102020000905090D511801627047416A264B194094
:10203000891812E0416A254B12011940511841627A
:102040007047416A224B1202194051184162704791
:10205000416A12030905090D511841627047816AEE
:10206000194B1940891812E0816A184B1201194066
:10207000511881627047816A154B1202194051183C
:1020800081627047816A12030905090D5118816246
:102090007047C16A0C4B1940891812E0C16A0B4B9A
:1020A000120119405118C1627047C16A084B1202EF
:1020B00019405118C1627047C16A12030905090D20
:1020C0005118C16270470000F0FF00000FFF0000D0
:1020D000FFF00000002101600171417181607047D3
:1020E00010B584B06846FFF7F5FF01206946087116
:1020F0003F208002124C00902046FFF72BFF032266
:102100000A212046FFF768FF03220B212046FFF734
:1021100063FF03220C212046FFF75EFF03220D21FF
:102120002046FFF759FF03220E212046FFF754FFF8
:1021300003220F212046FFF74FFF04B010BD00001F
:102140000008014002494969C906C90F017070477A
:10215000800701407047000010B5044601210220AD
:1021600002F054F8A078218800040143E078227935
:102170000005120610430143607940060143A0792F
:1021800080060143E07900070143207A40070143BC
:10219000207C8007014303480160E168C1600021A1
:1021A000416010BD0003014007490180002181709A
:1021B0000122C2700271C271417181717D2201726E
:1021C000D200C26001747047FF0300007047000036
:1021D00070B55C4896B05A49816281680214114317
:1021E000816000F0C7FA012109040868CA001043A1
:1021F0000860FFF7EDF8684602F08AFB4B204002CA
:102200000024009001946846047369464E4802F029
:1022100029FB6846FEF74CF9684604810A210182D1
:10222000448284800125C581448145800C21018040
:1022300069464648FEF7D0F84548FF21C16241692A
:10224000C21411434161FEF797F800F0E7FE6846BB
:1022500002F066FA3F48059003940B9404203E4E2A
:102260000D94079415900E94089411946946304685
:1022700002F004FA0121304602F0F5F9FFF730FFD1
:10228000002002F0B1FDFF268D36865F6846FFF71D
:1022900099F868460470FFF731F830493002FDF7CD
:1022A00045FFFFF777F8002002F09EFD467C684668
:1022B00001F03EFB6946002000960195029401F072
:1022C00001FB0021084601F01BFBFEF76BFA012120
:1022D000022001F09BFF6846FFF766FF690268462F
:1022E00001808470C4700571C47104721C4803902D
:1022F0006846FFF731FF02F04BFA6420009400BFFC
:102300000099491C00918142F9D30021082002F074
:10231000C7FC01210A2002F0C3FC0221072002F0C1
:10232000BFFC0221084602F0BBFC0221002002F0A3
:10233000B7FC01210B4889020160056016B070BD31
:10234000837A000080000040000901400004014041
:102350004004014080BB000000050140B80B0000B4
:10236000007C920000E100E0F8B5054622225043CF
:102370001A4E01218419A17000271949E7702A011A
:1023800089580B7C237589893152212007551448BF
:1023900011182A46204600F09DF8E420114A4543D2
:1023A000AB1818468030816D0F4E898DB14207D130
:1023B0005159A288098F891842690904516009E0BE
:1023C0000A4EB14206D15259A188128F891A426928
:1023D00009045160406940681866F8BD7C09002016
:1023E0004009002018080020010800000208000031
:1023F000F8B5044608260A220C25077D865F825E12
:10240000455F0E2010231221205EE35E615E012FE6
:1024100005D0B218281812B200B2591804E0B21A46
:10242000281A12B200B2591A0BB216000546194604
:1024300001D5564236B2002D01DA45422DB20029AF
:1024400001DA594209B2AE4202DB8E4200DB0127BB
:10245000B54202DB8D4200DB0227B14202DBA9421A
:1024600000DB0327F9B2012911D002291CD0111A6F
:102470005B009A1A101A144D144A69435043C91349
:10248000C013FEF733FD11494018A080F8BDC11AF2
:102490005200101A0C4D0D4AC01A69435043C9131B
:1024A000C013FEF723FDF0E7991A4000801A064D8D
:1024B000064AC01A69435043C913C013FEF716FDFC
:1024C00003494018A080F8BDE7490000ABAA00000E
:1024D00055550000F0B50446E4204243864885B0D7
:1024E0001618019680360496306900900020B76C6B
:1024F0000290204620300D460390A07801287DD11F
:10250000E07807287AD2401CE0700C21A868FDF71B
:10251000ADFEE07807281AD20100794409794918FC
:102520008F441503070B0F129000A968208848807C
:102530000DE0A9682088C88006E0A9682088C880C6
:1025400005E0A96820884880A96820880881A868D3
:10255000418849420180A868C18849428180A868B1
:10256000018949424181F16CF06D49698847644AAB
:102570006248106364496348086064481063F06C03
:102580008169012088476248002101610199096839
:10259000096B5F4800698842FBD3207D012822D067
:1025A000A96800204880A9680880A968C880A9682F
:1025B0008880A9680881A9684881F16CF06D496933
:1025C00088474F494D4808634F4A4E4810600920DC
:1025D000504AC04390634D4808634D480021016153
:1025E0000169C829FCD34C484169C21411434161B7
:1025F0004A4B8361C16AC907FCD000E073E0C16A3D
:1026000003221143C16241690122D2021143416197
:102610008361C16AC907FCD0C16A03221143C16248
:10262000F06C816900208847394900200861F16C0D
:10263000306D09688847207D012807D03848394621
:10264000786006E0A9682088488076E735483946F2
:102650007860084679688847B868018A00980180E0
:10266000B868418A00984180B868818A0098818062
:102670000498022102690020105E515E237DE278F9
:10268000012B0AD0072A1BD213007B441B79DB18CD
:102690009F441607090B0D0F130051000919C8803C
:1026A0000EE020810CE060810AE0A18108E0E18178
:1026B00006E040184042208202E040184142618218
:1026C0000198134A0068406B11698142FCD3E0789D
:1026D000062808D10020E070A0702046FFF788FE91
:1026E0000398012141700298401CC0B20290062854
:1026F00000D202E705B0F0BD18080020ADDE0000F2
:1027000080070140FFFF000040070140CDAB000003
:10271000000301400007014040040140A55A0000A9
:1027200035400000154000000346002010B4012190
:1027300089030246401800B20446444364009C42A8
:1027400001DD401A00B2521C491092B20E2AF1D398
:10275000411C09B20A464A4354001A1B00D5E21A2A
:102760000446444364001B1B9A4200DA084610BC2E
:10277000704700000F200249800248607047000047
:10278000000C0140F8B5044605468034208B002635
:102790000106402700290EDA40060CD5E88D0028F6
:1027A00009D1686803F0E4F8208B80218843B8439E
:1027B000022188432083208B810717D442062846B4
:1027C00000213030002AEA8D08DB012A02D00121E5
:1027D00081850EE08185208B384305E0002A08D1F1
:1027E0008185208B02210843208302E0000600D46B
:1027F00001263046F8BD0000F8B50F4605461349DE
:10280000000144181646591C1148FDF78FFC01467B
:10281000002020706780A680E08021810D49E06063
:102820006A008B5A14212E460B4C4E4331190B81F2
:102830000A4B9A5A4A81A051E420454308480C2289
:102840004059825E50424860F8BD0000D409002023
:10285000FF7F00003C000020A00900203E00002077
:102860001808002070B5044602F014FF2546803594
:102870000646002812D0204601F062FD288B400554
:102880000CD52046FFF7ECF92046FFF73BFB288BE1
:10289000012189028843082108432883204602F049
:1028A00003FCE88A3034C00B01D0012000E0022094
:1028B0002073A88C60850520E0810020A070304640
:1028C00070BD000010B572B6FDF730FD00F0A6FB3C
:1028D00003484169C2141143416162B610BD000052
:1028E00040040140F8B55421344A41438C188821F2
:1028F000334A414389182822002313558B62CB6247
:102900000B634B638B63CB638E180B64226A0D469B
:1029100012880A86226A443552884A86226C528975
:1029200012047260226C1289120432602B606B6098
:10293000AB60EB602B616B61AB61226A92882A818C
:10294000226AD2886A81226CD28812046A60226C60
:10295000928812042A602A1F538413844B618B616E
:10296000CB6117465385174A3A854B820B824B62DF
:102970000B62CB818B81BB84FB84E370A16B626CA7
:102980008989C00049085180626CD180626C1181D4
:10299000626C49421180626C9180626C51810A497B
:1029A0000A4A0B504018828002F074FAA16C088029
:1029B00002F078FAA16C4880F8BD000014020020F3
:1029C00068020020FF7F00001C000020820200003F
:1029D000F8B5E4212B4A41438D1822212A4A41436C
:1029E0008C182A49000141180120A070E070A868E5
:1029F000007C2075A86880892080400006B2207D78
:102A0000012821D028683146006BFEF7F1FCE082F6
:102A100029687043098E081AA9688989081A2083D1
:102A2000E08A401CE08228683146456B2846FEF764
:102A3000DFFC60837043281A00B2A083002802DD07
:102A4000608B401C6083F8BD08680821415E4089A6
:102A500008182968096B471831463846FEF7C8FC44
:102A6000E082A9687043381A898900B2814206DC85
:102A7000401A081A2083E08A401CE082D3E74042D3
:102A80002083D0E7180800207C090020400900209E
:102A900010B502F0BFFE002802D0002002F092FD27
:102AA00010BD0000F8B5494C4A480026484D267034
:102AB0002E700178617081680246897BA1709C321A
:102AC0001346E26018320146EC31A261616124399B
:102AD0002161BC39E16141683F4861622063971D13
:102AE00067643E48A26420620846E1633030A06318
:102AF00044316363216402F0CDF9A16C088002F0D7
:102B0000D1F9A16C48803648E0643046216C01F070
:102B1000B3F929461431304601F072F929462031C3
:102B2000304601F0B1F92A460832A91C304601F0BE
:102B3000B5F92A461032111F304601F06BF92A46CA
:102B4000294644322831304601F050F92946603197
:102B5000304601F0B7F93046E16901F0A9F9304695
:102B6000216A01F061F93046A16B01F0CFF93046DE
:102B7000E16B01F033F921462C310D46304601F06E
:102B8000B3F92946304601F0A7F93046A26C616CD2
:102B900001F0B4F9304602F09DF90146304601F0EB
:102BA00057F93046A269E16801F048F930462269D8
:102BB000616901F057F90B48206506480A218068D1
:102BC000415E002002F096FEF8BD000014020020D5
:102BD00068020020C400002035400000D40200201C
:102BE00004600000D45D0000F0B4E421204A4143B9
:102BF0008E18314680360C31B446B36BF26B0E46FC
:102C000080361C4FB56A7C425F601C605760146060
:102C100000249C6194619C8294822F881F816F881C
:102C20005F81AB881381EB8853818C61CC61F26842
:102C30000D4652688A65F268603553681360CC644B
:102C40000C650C638C866C710C672C721C210A4A13
:102C5000AC714143EC718A186646B263074A891821
:102C6000F1630C214843064940187064F0BC70477A
:102C70001808002000000180FC080020180900202E
:102C80003409002070B5144C58212046FDF7EEFAA7
:102C900000252846257002F0B1F8606020462030FB
:102CA000057761688968497FC177616889688A7F2B
:102CB000214640310A7462689268D28C8A826268C6
:102CC0009268527E0A706168FD228968C97F8177A7
:102CD000417F1140417770BD880500208030807DA4
:102CE0004006C00F7047000070B5074D2C46803479
:102CF000E18B002901D0491EE1832846FEF742FD01
:102D0000284602F0EBF970BD000300200949428912
:102D10000A8082898A80C2880A8102898A81028A1D
:102D20000A82C2898A82044902880A80408888808F
:102D3000704700000007014020070140F8B50C462D
:102D400005460121102001F061FA2B46AD48803381
:102D500018636179207989000843A17AE27A090130
:102D6000520111430843A17989010843E179C9015E
:102D70000843217B09020843617B49020843E86755
:102D80002088286360886863E08B2862208C6862F2
:102D9000608CA862A08CE8622089286720462030D9
:102DA000C17A827A49000A43214640318E78E78A07
:102DB000B601FF013E433243067B36023243467B77
:102DC00076023243CE78B6033243268BF603324383
:102DD000867C76013243C67C36013243067D76031B
:102DE0003243467D36033243867EF6003243C67E4A
:102DF000B6003243067FF6023243467FB6023243C4
:102E00001A62C67B827B760032430E79678BB601ED
:102E1000FF013E433243067C36023243467C760253
:102E200032434E79B6033243A68BF6033243867D96
:102E300076013243C67D36013243867FC07FF6007D
:102E40003243800002430878C0020243487880027F
:102E500002435A628A7C087C920010438A7BCE7BB4
:102E600012017601324310434A7C52001043CA7C5F
:102E7000D20010430A7DD20110430A7F1202104390
:102E8000CA7E520210438A7F920210434A7FD202C6
:102E9000104322466032167836033043CE7F7603E5
:102EA000304398624E7EC87DB60030434E7D8F7DA4
:102EB00036017F013E4330430E7E760030438E7EE6
:102EC000F60030430E7DF60130435678360230432B
:102ED000967876023043D8620E7A8879360130438C
:102EE0004E7A0F7B7601BF013E433043CE793602E6
:102EF00030438E7A36033043CE7A497B76033043B3
:102F0000890308436867E08C2865208D6865204642
:102F10008030C188A967E189A964218AE964122106
:102F2000615EA9631421615EE9631479D17864005C
:102F3000214354799679A400F60034432143D4798F
:102F400024012143147A64012143547AA4012143CA
:102F5000947AE4012143D47A24022143147B64024D
:102F60002143547BA4022143947BE4022143D47B7C
:102F700024032143147C64032143547CA403214390
:102F80001960D47C917C64002143147D567D240219
:102F9000760234432143947D24032143D47D64038A
:102FA0002143147EA4032143996041788478090168
:102FB00064012143C478A40121430479E40121433D
:102FC0001961947E517E64002143D47E167FA40053
:102FD000F60034432143547F24012143947FD27F60
:102FE00064012143920111430278D2011143996196
:102FF000007AD861044828645860D8605861034852
:103000001863F8BDADDE0000FFFF0000FECA00003F
:1030100010B58A21FDF72AF910BD000070B5A4B0E3
:10302000002001F0E1FE064601F0EAFF04463046CA
:1030300001F018FF0546B0798607B60F6846FFF71E
:10304000E7FF6B461E7101225A719A71DA710021F5
:10305000D98219835983204820ABD8800C206B4635
:10306000187258721C8014205C80001BD8831920B1
:103070004001001B1884DD841D8508AB9A72D9724B
:103080001A7359739A73D97310AB9970D9701971F7
:10309000D9761A7759779A77D97718AB1A7010AB17
:1030A0001A751A7259729A72D97218ABD97020AB0C
:1030B000597010AB9A731A74997420AB997010AB55
:1030C000D9735A74D97469460448FFF737FE02F081
:1030D00097FB24B070BD0000FF1F000000070140F7
:1030E000F8B5844C60692578818D204600690229F5
:1030F0000ED0012922D0032930D004293BD07E4AAA
:10310000914242D1428C4B1C9A423ED0428482E092
:10311000428C022A7ED02846FEF718FF2846FDF78B
:10312000D5FD284601F082FF002803D0014628463D
:1031300002F0ACFB2169022048846CE0428C012A39
:1031400068D02846FFF7CEFB2846FFF74DFD2846FE
:1031500000F0F4FB2169012048845CE0428C032AE2
:1031600058D02846FFF7BEFB2846FFF73DFD2169F2
:10317000032048844FE0428C042A4BD02846FFF7B6
:1031800027FC21690420488445E05A4A0529126D2C
:1031900008D0062910D0072918D0082920D00929DD
:1031A00027D037E0438C052B34D0D16901208847E4
:1031B0002169052048842EE0438C062B2AD0D16952
:1031C0000220884721690620488424E0438C072B8D
:1031D00020D0D169032088472169072048841AE05C
:1031E000438C082B16D0106A804721690820488438
:1031F00011E0438C092B0DD0906A8047216DE06867
:10320000496A8847E0680078002804D121690920CC
:10321000488400E041846069818D0020002901D14B
:10322000216948843348354F40692546C188F98172
:103230008188B9818068786220352169687A8870D0
:103240002069297A203001702678304601F034FE5A
:1032500021694860E0682169C0890881882070433D
:10326000C01922694188518222698188918221692D
:10327000C088C882304601F091FE2169088230463C
:1032800001F0ACFE2169C881304601F069FE216978
:103290000883304601F042FE21694883304601F040
:1032A00087FE21698883287A012804D1304601F0FD
:1032B0009FFE21694860E06821690078C870304647
:1032C00001F0DEFE21698881304601F0E3FE2169CC
:1032D0004881002000F0C2FB204602F04DFC6069EE
:1032E0008078012804D0064A0649002002F026FD15
:1032F000F8BD000014020020010800006802002050
:10330000C0020020A4020020F8B5064601F0FEFD30
:103310004468A0687834816E2046FDF709F90849B1
:10332000B5004851FF212D31064F002E204603D015
:10333000FDF704F97851F8BDFDF700F93860F8BDE4
:103340002400002028000020F0B5014683B0783129
:1033500005460646019140682C4601468034876840
:10336000206C00234360206C78318C468362A16C12
:1033700004200622085E8A5E303690420BDA401C3A
:103380008880FF205130C1596046FDF7CBF80146D7
:10339000E06C016016E008228A5E90420BDA401C65
:1033A0008880FF205530C1596046FDF7BBF80146C3
:1033B000E06C016006E0E18A012040020143E18205
:1033C000A06C8380E06C02F0E2F9E06C018AE81DF9
:1033D000F93000904180C18009B2890281600621E4
:1033E000415E287800F050FF2846FFF777FC002860
:1033F00006D1FF370137F86C0104287802F05EFA35
:10340000E08A012189020843E0820098082241886D
:103410000088F180B080012030730320B0700198E3
:10342000018891431143018003B0F0BD30B40146DF
:1034300002468030C38B012430317832A402002B45
:1034400016D05B1E1B041B0C0546C38310D0C38A19
:10345000A343EB82022008730023CB808B808B6018
:103460008B701088082188430843108030BC704757
:10347000C38A2343C382EDE7F0B5054687B03030F9
:1034800003902846783005902C4680346B6804946D
:10349000E16B266C088B1A22401C00B20883E16B9A
:1034A000EF1D8A5EF937783390427DDB0020088378
:1034B0001846696EFDF73CF83060216C08680028FA
:1034C00000DA40420860A17D890702D5216C4042A4
:1034D000086068680146783100918068E0210290B8
:1034E000415E5548491C41430191E06B01680098D9
:1034F000FDF71EF80146206C4068002800DA4042C3
:103500008142029819DD016F0098FDF711F80199C9
:1035100001F080FB0906000A0843216C086202984A
:10352000416F0098FDF704F8019901F073FB09065B
:10353000000A0843216C48621AE080300290016F53
:103540000098FCF7F5FF019901F064FB0906000AF9
:103550000843216C08620298416F0098FCF7E8FF6D
:10356000019901F057FB0906000A0843216C4862E3
:10357000206C01688161206C183002F008F9B06A93
:1035800070603146287816224031336800F08CFB99
:10359000E06B407F012805D1002030647064E16B4E
:1035A00002204877287800E00FE001F055FD002860
:1035B00002D0E16B03204877B26871683046891AFF
:1035C0003030F16300F068FEB880287801F028FC04
:1035D000F880B968E36B8A12801A10229A5E42431F
:1035E0008818B860801278800421F868795E8212A9
:1035F000891AE36B12229A5E4A438018F86080129F
:103600003880284601F050FD039879883A88C180B7
:10361000828004980399006C0822406888600398AF
:103620000121017303980621817005980188914357
:103630001143018007B0F0BD89410000F8B507468D
:103640008037F98A04464908064649000546303461
:103650007836F982FEF778FBF88AC00B01D001209A
:1036600000E002202073B88C60850520E0810020F6
:10367000A07030880221884308433080A97B01294B
:1036800000D0002108229043C90008433080F8BDD3
:103690000146034630B43031783302468032947D9F
:1036A000A40701D40F4C00E00F4C8C850124282581
:1036B0006C540C7308248C701C880825AC432C4374
:1036C0001C80C38D094C8020A34206D1D38A0343BA
:1036D000D3820020888530BC7047D18A8143D18253
:1036E00030BC704701080000020800000408000018
:1036F000F8B5044606460746014680342420085E95
:1037000030367837A56C616CFCF766FF606C01237E
:10371000807A9B02002100281BD016201822285EE8
:10372000AA5E904204DA401CE882606C817214E068
:103730001220285E002802DD401E68820DE0206C09
:103740004160206C0160606C8172E982E08A1843FC
:1037500002E0E982E08A9843E082E06B4177A08C46
:10376000708501203073B1850720B070388808213A
:10377000884308433880F8BD0146034630B43031F1
:1037800078338030C26B01245477026C15699560E0
:10379000026C1569AD02D560026C95685560026CCB
:1037A00095689562C28AA502AA43C2820C73006C16
:1037B000406888600620887018880821884308437C
:1037C000188030BC7047F0B50646074683B07830A5
:1037D00002907068344601467831019180688034E7
:1037E0000090A16C354648893037401C00B24881B2
:1037F000A26C0C21515EA0350023884251DB0020D1
:103800005081706831695430FDF7CBFC616CFF3634
:103810000860A17D02238907C90F0136002911D054
:103820003DD0E26B91684942884230DA009880309E
:10383000816B0198FCF776FE00B23080A17D89078C
:1038400013D414E0E26BD1684942884227DB9168C7
:1038500088421FDB00988030816B0198FCF762FE84
:1038600000B23080A17D890701D540423080206CB4
:1038700001698160206C01698902C160206C8168E6
:103880004160206C816881620120E8760AE0D1689D
:10389000884204DAA06C818A4182EB7602E0002043
:1038A000F3E7EB76E08A012189028843E082012078
:1038B0003873B8700298082201889143114301803F
:1038C00003B0F0BD30B40C4C0A4AA262E5052A6987
:1038D000002809D109480240086810438A6853014A
:1038E0000343486842021A432A610020A06230BCA8
:1038F00070470000837A000080000040DCFDFFFF7D
:1039000010B40A4B084A9A62DC050422002908D048
:10391000002802D12069104320610020986210BC69
:10392000704720699043F7E7837A000080000040E9
:103930000321016000218160416070472C21114A00
:1039400041438918E42250430F4A8218002008603E
:1039500048608860C860086148618861C861086221
:10396000486288625068428B084802627D22D20019
:103970004262806A0884032008850520C8840820E4
:10398000888470475009002018080020000B01406F
:103990002C21254A41438918E4225043234A30B45C
:1039A0008018034680339A69403014685A6B008847
:1039B00092698882030408698D8C1B1A2B411818A0
:1039C000086122232025CB5E4D5F0014AB4206DA4E
:1039D0005B1C4B8488690019886130BC70470023E8
:1039E0004B84CD698C69641B0D8D2C41CD696419A4
:1039F000CC618B61CB69002B00DA40425043C0138D
:103A0000C217030C12041A4303044860C868C417A1
:103A10001B1AA241D4065A0922431018C860001488
:103A2000886030BC70470000500900201808002052
:103A3000074A803002630129816A05D0054A114096
:103A4000816205490163704740221143F8E7000095
:103A5000ADDE0000BFFF0000FECA0000E421F0B4AC
:103A600048432549401805468C35876EEA680C3076
:103A7000002F00DA7F42014660318B79002B06D09F
:103A800001230B721468546000242C604B7153683E
:103A9000002B01DB1C4600E05C42466FA64204DCC2
:103AA000002B00DA76422E6000E02B60C36FA34249
:103AB00001DC012300E000230B728B79002B18D16D
:103AC0004B795268002BC36D09D0534305D4426F24
:103AD000A24202DA806FB8420BDB002008E05343B9
:103AE00007D4426FA24204DC806FB84201DC01209F
:103AF0004871F0BC70470000180800208C46F0B5F3
:103B0000E4214143E423674A5843664B8918C518AA
:103B10002E46E0220C46525C0C360C344C35803676
:103B20000F6887B0002A66D08031886B0190C86B1F
:103B3000009038200222205EAA5E831A2269A07DAE
:103B4000534306900341E16CA06805904143C813BC
:103B5000C1183E23E35EE06D04904343E068DB134D
:103B600003905843637D02931841401886463A20DB
:103B70000423205EEB5E6146C31A53430698226D10
:103B80000341059849884243D013C2183C23E35EA1
:103B9000049843430398DB135843029BA187614673
:103BA00009881841E187101A206570463C21E064BD
:103BB000615E411A0198C1600198FDF781FB688040
:103BC0003E21615E206D411A0098C1600098FDF7AA
:103BD00077FBA880F1680968002906DB0222AA5E4B
:103BE0005142FDF783F9E88505E00221695E404214
:103BF000FDF77CF9E885206FE98D8212891ABA8B6E
:103C000009B24A4380182067B16A8012498900B21C
:103C1000E26941435118E161A26909125118A16199
:103C2000217FE161B16A098941430813A1698913C0
:103C30004118204660308279002A11D14279002A49
:103C400003D1A26122671146E261C279002A07D03E
:103C50003368A2699B03D21AA2610022E261C27199
:103C600030684018E065E18C4843616D401860653C
:103C7000B1684860B88B0121E26D8902091A42439C
:103C8000A06D89B2484310188012A065F1680860E1
:103C9000688D2087A88D6087608D6885A08DA88538
:103CA00007B0F0BD1808002070B50D460C490001A2
:103CB00044182078002811D10A48002B205E06DA2B
:103CC0004042C117FCF7A9FA6960286004E0C117F7
:103CD000FCF7A3FA696028600120207070BD000025
:103CE000D409002004000000014689088900FF2053
:103CF0009130814202D31348814207D9932080003A
:103D000081421CD34B20C000814218D801200004FE
:103D100000680123DB0218435B011860592000068C
:103D2000586018464160C2689520000658601846E1
:103D300000685B1198435B011860104670470020D3
:103D4000FCE70000FF0100004A1ED2B2002906D0A5
:103D5000002102C01346521ED2B2002BF9D1704787
:103D600000B5144812498162134941620821134881
:103D7000FFF7EAFF0C211248FFF7E6FF0621114882
:103D8000FFF7E2FF12211048FFF7DEFF0C210F487A
:103D9000FFF7DAFF0C210E48FFF7D6FF06210D488A
:103DA000FFF7D2FF05210C48FFF7CEFF00BD000052
:103DB000837A000080000040FF0F000010000040E8
:103DC0004004014068040140000A0140000801402D
:103DD000400801408008014000020140E4225043B5
:103DE000014A80184160704718080020E4235843B6
:103DF000024BC01880308262416270471808002070
:103E0000E4225043024A801880304161704700002C
:103E100018080020E4235843024BC0188030026287
:103E2000C161704718080020E4225043024A8018FC
:103E3000803041637047000018080020E423584395
:103E4000024BC0188030C265016570471808002019
:103E5000E4225043024A80188030C1647047000059
:103E600018080020E4235843024BC01880304265F4
:103E70008165704718080020E4225043014A115020
:103E80007047000018080020E4225043024A8018BE
:103E9000803081617047000018080020E4235843F7
:103EA000024BC0188030C2620161704718080020C0
:103EB000E4225043024A80188030016470470000B9
:103EC00018080020E4225043024A80188030016321
:103ED0007047000018080020024A00018018C160E5
:103EE0007047000040090020E4225043024A801835
:103EF00080308164704700001808002003010248E8
:103F0000181842608160704740090020E422044B89
:103F10004243D2189160034A0001115070470000DB
:103F20001808002040090020FFB50446144881B05D
:103F300000780A9D1E461746002801D100F0D4FDE6
:103F40000F48032C18D2EFF31081012282F310885E
:103F50001822624310181830002C06D0029A026012
:103F60004760866000220261C2604561C8B280F38A
:103F70001088002005B0F0BD0020C04305B0F0BDA2
:103F8000E0060020F8B507460A48154600780E46B8
:103F9000002801D100F0A8FDEFF31084012080F388
:103FA00010882A463146384600F006F8E1B281F31F
:103FB0001088F8BDE006002070B50E461821484371
:103FC000134914464518E86A1835002804D001281A
:103FD00008D0022818D111E0284600F0BBFDA0420D
:103FE00012D305E0284600F0B5FDA04200D20446F9
:103FF00022463146284600F0ECFD06E031462846D0
:1040000000F0B7FD044600E00024204670BD00002B
:10401000E006002081684A888B89D21A0A8281686A
:104020008A898B88D21A4A828068018A8918494213
:10403000818270478168CA884B88D21A0A82816857
:104040000A898B88D21A4A828068018A8918494273
:1040500081827047F8B5584B0201D3181C689A68E2
:10406000A646E4246043554C00190C308446488829
:104070000024404200B248800C5F51494843A103EC
:1040800040184042C117490C0818C01305B2601906
:10409000404200B2AC4209DC844204DC2646854240
:1040A00009DD29460DE0064629460AE0854206DC80
:1040B0002E46844201DC014603E0214601E006462B
:1040C00021467618F70FBE197610801B07B2881BA1
:1040D00000B2A41BAD1B009071460C20085E0126A7
:1040E00024B2B603A1191C684143A489C9132DB297
:1040F0008C4201DA214602E0002900DA00215180D9
:104100001C68A9194143A489C9138C4201DA2146CC
:1041100002E0002900DA0021D1801C68B91941436E
:10412000A489C9138C4201DA214602E0002900DA91
:104130000021118100991C6889194143C913A48980
:1041400009B28C4201DA214602E0002900DA00219E
:10415000754600242C5F09B2A1421FDDE503194C0E
:1041600025626162A16A548865464C436400240C50
:104170005480D4884C436400240CD48014894C436C
:104180006400240C14812A242C5F4C43E4136C85B6
:104190002C242C5F4C43E1136446A185518849428D
:1041A0001180D18849429180118949425181602111
:1041B000081A59680880F8BD400900201808002036
:1041C000DA6E0000000B014010B40F4C0D4AA262E1
:1041D00023151A0501290CD0410503D5116919438E
:1041E000116118431169814311610020A06210BC64
:1041F0007047410503D511699943116198431169CD
:104200000143F1E7837A000080000040074A064B33
:1042100093620029D16901D0014300E08143D1615B
:104220000020906270470000837A00008000004008
:1042300070B50546FF20D530FFF756FD000C03286A
:104240000FD3FF2099300124A407061D002D09D0AB
:10425000FFF74AFD80B260623046FFF745FD80B24D
:10426000A06270BDFFF740FD000C60623046FFF7B2
:104270003BFD000CF4E74180C1800181494201808F
:104280008180418170470000024A00018018C90303
:10429000C1607047D4090020F0B501680446C81712
:1042A00085B08A0A800510438B05029303906068ED
:1042B0000023C117820A89051143800501910090EE
:1042C000E0682289C71705463946FBF769FFC20C2B
:1042D0004903114342032069666912180490714131
:1042E000A261E161029B03989B1A884106DA039957
:1042F0000298E161A061002D0ADB18E00098019BA3
:10430000101A994104DA0098E361A061002D0EDDD6
:104310002846628900233946FBF742FF020E090254
:104320001143049A000210184E4166612061217FFA
:10433000A0698902800D084300B205B0F0BD0000FD
:10434000F1B584B00498049C40688034014678310B
:10435000009180680190E08A012149028843E0824F
:1043600004980025FF30013085800580C580458098
:104370008560C5600198E16B006E0860E06B457771
:10438000E06B0583019FE16BFF370137F86A8860B6
:10439000E16B386BC860796B0098FCF7C3F8616C0F
:1043A000C880B96B0098FCF7BDF8616C0881606C3F
:1043B00002210560606C8580E08A8843E082E06BC2
:1043C0000571E06B4571019E8036F06C01B20520ED
:1043D000C0020A31FBF7AAFEE16B0882306D01B220
:1043E0000520C0020A31FBF7A1FEE16B4882396E5D
:1043F0000098FCF797F85A4900F00CFC0906000AEF
:104400000843E16C8860796E0098FCF78BF854499A
:1044100000F000FC0906000A0843E16CC860206C4B
:104420004560206C0560316F0098FCF781F87D21B4
:104430000004C900FBF77AFE216C0865716F0098D3
:10444000FCF776F87D210004C900FBF76FFE216CB4
:104450004865206C183001F0CDF9E06C01F0CAF924
:10446000716A0520C0020A31FBF760FE216C002250
:1044700088820498B0231A50803042635D202087E0
:104480000198C0300290216C808C08870298216CC2
:10449000C08C4887206C002101644164B16E009893
:1044A000FCF740F8216C0863F16E0098FCF73AF8CD
:1044B000216C4863206CC563206C0561206C8560AD
:1044C000206CC560206C8565206CC565206C403013
:1044D00085840298018B206C4030C1840298E16B86
:1044E000008C488371680098FCF71CF800B20290B9
:1044F000B1680098FCF716F80246019812B24030F5
:10450000C18F04980BB200780299FEF775F9A06C80
:1045100005800198A16C808C4880A06C85800198F2
:10452000A26CFF304130018BD180018B408B081889
:10453000A16C0881A06C4581A16C388D8881A06C2C
:104540004582A16CF88F8882A06CC582A16CB88F5F
:10455000088304980078FEF7D7FE05B0F0BD000090
:1045600089410000F8B505460646406878368768F8
:10457000284601F08FF82C468034009000281BD08C
:104580002846FFF7DDFE208B400528460AD5FDF7BB
:1045900067FB2846FDF7B6FC208B01218902884382
:1045A000208301E0FDF77AFB208B0821084320835C
:1045B000E08A09020843E082284600F075FDE08A9F
:1045C0003035C00B01D0012100E002212973A08CFD
:1045D00068850521E9810021A970787F012800D034
:1045E00002202873E08AC00B04D031880820814360
:1045F000014331800098F8BD7047000038B5FFF7DF
:10460000AFFB0C4C0A48A0620120FFF711FEE00549
:104610000169C2131143016164200021009100BFB0
:10462000491C00918142FAD30348206038BD000044
:10463000837A000080000040FF0100000748016A03
:104640000422114301620648C178491CC170818867
:10465000491C8180C188491CC18070470005014008
:10466000F002002070470029016803D00122D20720
:10467000114301E0490049080160704770B50546E3
:1046800025480C46854203D101212020FFF7BEFDBD
:104690002248854203D101214020FFF7B7FD207851
:1046A0002179C00689060843217A09060843A189B1
:1046B00009050843218A09040843A169090308433D
:1046C000E169C9020843216A89020843616A490213
:1046D0000843A16A09020843216B09010843616B81
:1046E000C9000843A16B89000843E16B49000843F6
:1046F000216C0843286060696860A06CA860606CE9
:10470000E860E06A2861E06C6861206DA861606D16
:10471000E8610720286270BD0005014000060140E5
:104720000021016041608160C160016101228261FC
:104730004161016241628162C162C2610163816360
:10474000C163016441648164C16401654263416580
:104750007047000070B50D4D0024E878022806D39C
:10476000EC70FEF7BDFC00F067F8FEF7BDFAA88814
:10477000142800D3AC80E9887D20C000814200D39A
:10478000EC80A878002800D0AC7070BDF00200204A
:1047900010B50B4909488862C805016982141143A4
:1047A0000161FF20C930FFF79FFA064C2080FF20EF
:1047B000CD30FFF799FA608010BD0000837A0000C9
:1047C00080000040060000200204920F8011194B67
:1047D000002A0FD0012A16D0022A1FD0032A1CD18A
:1047E000C2431206D20D9A5A000652424A80C00DA8
:1047F000185A11E00206D20DC0439A5A00064A80A8
:10480000C00D185A08E0C2431206D20D9A5A00068B
:104810004A80C00D185A4042088070470206D20DE7
:104820009A5AC043524200064A80C00D185A40426C
:10483000F2E70000005E000010B5084C204601F0D1
:1048400003F9204600F073F80548007F022803D0E2
:10485000002000F06DFA10BD0120FAE78805002065
:10486000A8050020F0B50C46064683B001210420BF
:10487000FFF7CCFC00252B46224829462268FBF78F
:1048800069FC0122002300910190FBF763FC1E4F9D
:10489000B84208D9AA1C00236D1C00990198FBF7A7
:1048A00059FCB842F6D819498D61401EC1B2B160B9
:1048B0000004000E7060E079012802D002281DD0AB
:1048C00000200021637922795B001A43A379C90093
:1048D0009B000B431A4300010243207A400102432C
:1048E0003260E17BA07B49000843706260893061DF
:1048F000607BB061207BF06103B0F0BD0120014618
:10490000E0E70000006CDC02FFFF000080000040D8
:104910004B21C90101600021017141718171C17197
:1049200001724173418101738173C1737047F8B59E
:104930000546044640680127FF300130818E20354E
:10494000394381866068FF3035304EC84EC54268B5
:10495000016880686A602960A86060680026FF308E
:104960000130818EB9438186A968103D002905D1A7
:104970002888820702D46A7F520702D503222A7749
:1049800003E04006C00F00D12E77287F00281AD000
:1049900001281DD0022840D0032870D02E776068EF
:1049A0002146FF300130878308312EC96068FF300F
:1049B0001D302EC0E269A169426001606068FF306D
:1049C00001308683F8BD28784006C00F43D1E6E762
:1049D000687FC10619D5C107C90F16D0800703D556
:1049E00083202146A07202E081202146A072084661
:1049F00001F098F9204600F06BFA208328784007F0
:104A0000C00FCCD002202877C9E7A672204601F05B
:104A100089F9204600F0E6F95FE000F073F900281C
:104A200005D0687F20210843410849006977687FE5
:104A3000C10603D5C107C917491C0ED0204600F096
:104A400045FAE072A672204601F06CF928888108C8
:104A500038468843A3D02F77A1E7800703D583206A
:104A60002146A07202E081202146A072084601F092
:104A700059F9204600F02CFA208390E7FFE76A7F7F
:104A8000500701D4002908D0204600F01FFAE07238
:104A9000A672204601F046F981E729888807C30FEE
:104AA00020464030002B1CD08B083946994316D045
:104AB000017C012901D0110789D5418A491C89B29D
:104AC0004182828A91429FD342822020A072204656
:104AD00001F028F9204600F0F9F9E0725FE746821C
:104AE0005DE746822F775AE710B5124C032020610C
:104AF000606111A0A0611348E06180202062002164
:104B0000A1626162E1620CA020660F48606610201D
:104B1000A0662167E16661675220E071542020722F
:104B20006072A172204609A100F0B2F82020A071A5
:104B300010BD0000E00600205465726D696E616C66
:104B40000000000088070020080800205345474760
:104B5000455200008268002A06D00169C06881427F
:104B600004D8101A401802E000207047081A401EAE
:104B70007047F7B5054682B000200090EC681646F5
:104B80002869A04201D9071B02E0A968201A0F1A60
:104B9000A8687F1E001BB84200D80746B74200D362
:104BA000374668683A4600190399FBF746FB0098B8
:104BB000F61BC01900900398E419C0190390A86867
:104BC000A04200D10024EC60002ED9D1009805B09D
:104BD000F0BDF7B50446C7688068E168C51B60682A
:104BE00016464018B54206D90199FBF726FBB819BD
:104BF000E06003B0F0BD2A460199FBF71EFB019867
:104C00006368761B411932461846FBF716FBE660CF
:104C100003B0F0BDF0B404148BB2264682B25E43FA
:104C20000D14104637145843360480190021794179
:104C300016466E43371436048019794126466E4372
:104C40008919F0BC7047F0B4040C8BB2264682B2CE
:104C50005E430D0C1046370C584336048019002172
:104C6000794116466E43370C360480197941264641
:104C70006E438919F0BC704700210180418081801A
:104C8000C18001817047002101804180818070478F
:104C90000A6802608B8883808A798271704700007D
:104CA0008307FF22DB0E9A408907090E99400028EE
:104CB00008DB830809489B001818036893430B43DB
:104CC000036070470007000F0838830804489B0002
:104CD0001818C36993430B43C361704700E400E0B5
:104CE00000ED00E002E008C8121F08C1002AFAD156
:104CF00070477047002001E001C1121F002AFBD15C
:104D00007047000003480078022801D00020704757
:104D1000012070471400002010B5FCF754FA112848
:104D200002DA2021081A10BD0F2010BD01207047A3
:104D3000F0B4294A294F11464C881578611C8BB272
:104D4000274900260978002D04D0012D16D0022D08
:104D50003FD12AE0432902D0542908D00CE0442056
:104D600038705380642B00D35680F0BC7047002C01
:104D700002D001201070F7E73E70F5E7542902D009
:104D8000592907D025E0532038705380642BEBD28B
:104D9000F0BC7047002C1CD0002802D17D2080017F
:104DA000508002201070F0BC7047592903D0167053
:104DB0003E70F0BC7047002802D05680642005E0A9
:104DC0007D20800153808342F3D365203870F0BC8E
:104DD000704716705680EBE714000020FF0F00208C
:104DE000FE0F002000207047002801D000207047EF
:104DF0000148806870470000C4000020002801D0EE
:104E00000020704700487047C4000020E421484358
:104E1000024940186030007D7047000018080020EB
:104E200010B50E4A01018C18E4210D4A414389183E
:104E30006031497C002902D0FBF786FB00E06088E6
:104E4000E08001B2E068C213891A0822A25E5143D1
:104E50000818E060C01300B210BD0000D4090020A3
:104E60001808002010B502218289415E4A437D2145
:104E70001046C900FBF75AF980B210BDE42148433F
:104E800003494018803040694068000C70470000BA
:104E9000180800200248006B6421081A00B270470D
:104EA000000701400348006B19214901081A00B2AC
:104EB000704700000007014088214843024940181C
:104EC000008C00B27047000068020020002070478C
:104ED000C82070472C214843014940187047000002
:104EE000D45D000022214843014940188088704762
:104EF0007C09002022214843024940182030407894
:104F0000704700007C09002001207047002801D074
:104F100000207047004870470003002070B5064627
:104F200000F03CF80446304600F038F8254645438A
:104F3000304600F053F80446304600F04FF8444342
:104F40002819FDF7F1FB04494843044980138842BE
:104F500000DD084600B270BD825A0000FF7F0000ED
:104F6000882148430A4910B5401808210A22415EA9
:104F7000825E494352438818FDF7D6FB05494843F2
:104F800005498013884200DD084600B210BD0000CC
:104F900068020020825A0000FF7F0000E42148439D
:104FA000024941187620085E70470000180800206A
:104FB000E4214843084936224018A0210958022319
:104FC000825ECB5E5A433823C35E0020085E4343B3
:104FD0009818C01300B2704718080020E421484315
:104FE000024941187820085E704700001808002028
:104FF0002C2148430149401880687047500900201F
:1050000010B5827981889207920F91400222825EC8
:105010004C0005491046FFF7FDFD2246E317FBF75C
:1050200099F880B210BD000040420F00FF215131BD
:1050300048430349401881689E20085E704700007D
:10504000C400002088214843024941180220085E1C
:105050007047000068020020E421484302494018DC
:105060006030407C7047000018080020E42148436D
:10507000024940188030406B806970471808002052
:1050800088214843024941181220085E70470000F9
:105090006802002088214843024941181020085E18
:1050A000704700006802002010B50446406881681F
:1050B0007830896EFBF73CFA02468034206C8068B9
:1050C000002800DA4042012189029042E08A01DC96
:1050D000084300E08843E08210BD0000F0B50546BB
:1050E00085B0783000270390AF67EF678760C760AF
:1050F0000761476187612F636F63AF63EF632F645D
:105100006F64AF64EF642F656F65AF65EF656968C5
:105110000120C031088168680C350146C8305CC880
:105120005CC55CC85CC500682860C0310F812C3D3F
:1051300069680A46FF310131888B002809D1084689
:105140001C3059C82F46603759C7C86A096B696750
:10515000286728469168603001238C468278DB03FB
:105160002C4699108034802A7ED006DC002A7CD020
:10517000202A06D0402A04D1A6E0812A76D0832AAC
:1051800075D0E28A01235204520C1B039A430A434E
:1051900051084900E182C078A0766046E16B807ECC
:1051A000087769682F4688680090206C2A69026138
:1051B0005431206C8C46C1680C378B12D21A838A0A
:1051C0005343C918C160206C891281601C21795E2B
:1051D0006046FBF7ECFF844628468030036B426B49
:1051E000990A900501436046401AE1491F46164658
:1051F000615EFFF70FFD324638184A41294680317B
:105200004A6308639105820A00980A43FF3001301F
:1052100017460290406A3946FFF7FCFC3A46FB17F6
:10522000FAF7BEFF64220023FAF794FF0090019181
:1052300002983946006AFFF7EDFC009A019B82183C
:1052400002985941C069C31780184B411905000BDA
:105250000843A0622889002845D0E08AC00440D5D0
:10526000A07E00283FD003E00EE005E014E01FE040
:10527000E87A002835D036E0E08A40084000400453
:10528000400CE08200201DE0E18A194349084900F2
:10529000E182C078A07680E70126E676E28A1A43AA
:1052A00032438A43B1038A43E282C078A07674E72E
:1052B0000126E676E28A1A4332438A43B1030A435F
:1052C000E282C078A07668E7E28A530401225B0C90
:1052D000120313438B4359084900E182C078A0763A
:1052E0005BE7A97AA176287AA24F8007208B01D5A7
:1052F000384304E0010503D5012109030843208355
:1053000028890A210926002802D1E08AC00405D58F
:10531000E08A400501D5617700E06677607F2077FD
:105320000B2871D202007A4412799218974405EF43
:10533000EFEF1D2D428B9EB2BD002846FDF792FA7D
:10534000002870D0686881687830FF310131C96FFA
:10535000FBF7F4F81421695E00B2814263DB284652
:1053600000F09CFA04206077D2E02846FFF7FAF8B4
:10537000002858D0E08AC10703D0C00B01D0052017
:1053800011E0284600F08AFAC2E02846FBF73EFE0C
:10539000E08AC10706D0C00B04D0E06B4079042836
:1053A00003D0B5E004206077B2E00020BA21485570
:1053B0000620F8E72E46A036B07E06283DD2010032
:1053C0007944097949188F440238201A282FA07D82
:1053D000C006C00F1FD02846FEF7F5F9F07E012861
:1053E00002D0022803D028E00320B07625E0242054
:1053F000285E616CFBF715F90220B0761DE02846A7
:10540000FEF7BAF9082017E081E02846FEF770F9A8
:10541000E08A400511D50420E7E7A07D4006C00FD3
:1054200009D00520E1E762E02846FEF731F9A07DCA
:105430000006C00F01D007206077E08AC1072FD097
:10544000C00B65D12CE0E08AC005C00F06D028460D
:10545000FDF77AFFE08A8005C00F01D00820607751
:10546000E08AC1071CD0C00B52D119E02846FEF7D4
:1054700003F8E08AC10704D0C00B02D0208BC00B18
:1054800046D0208CE0832420285E616CFBF7C9F8AD
:1054900066773DE02846FDF7C9FFE08A410537D52C
:1054A000284600F0FBF904207DE72846FEF7C6F801
:1054B000686881687830FF310131C96FFBF73EF8C9
:1054C0001421695E00B2814222DB2889002802D1C2
:1054D000E08AC1040CD5208BC104C90F18D0010586
:1054E000C90F0CD0E98D092908D05C2046530FE084
:1054F00081040DD50005C00FD2D154E7B843012176
:105500000903884320835C200021415300E0617738
:10551000284600F0CBFA69680120C0318885294609
:1055200030311EC96868EC301EC0294640311EC9A2
:105530001EC0294650311EC91EC069680020C031F6
:1055400088856868FF300130818EC9070DD10399C5
:10555000EB6FAA6F06463436CD688C683CC64B6943
:105560000A69896983644264C16405B0F0BD0000C2
:105570003800000000080000F8B50E4F0024FF209E
:10558000513026464643F51901462846FAF76EFE85
:105590000948E10108186860FF20F53007496043B9
:1055A0004018A8600648005D641C2406B855240E07
:1055B000E5D0F8BDC400002044000020087E0000B3
:1055C00000600000F8B5FF2111314843294902224B
:1055D000461834468034218B402391438022114366
:1055E00019430423994303231B0219434908490023
:1055F000202319431027394308239943D300194323
:10560000E38A70689343032285685203E3829143DF
:10561000218300F085FA706800F0AAF9706800F044
:1056200003FB687D002802D1A87C002802D0E08A14
:10563000384301E0E08AB843E08240218843297D75
:10564000C907490E0843FF21E08201318843A97D43
:10565000C907C90D0843E082687EE076012802D1BF
:10566000E16BA87E0877E07E022802D1E16BE87E3C
:105670000877F8BD00030020FBF780FD002808D064
:1056800072B6FCF7A5FD00F057F962B6FFF762F8B5
:10569000FCE7FEE7F8B5044606468034208B002779
:1056A00081060DD5C0060BD5F08D002808D1706895
:1056B00000F036FA208B30218843410849002183CD
:1056C000208B3546C107303500290ED0800600D426
:1056D0000127380058D0208B0027810524D5C0052C
:1056E00022D5F08D002817D01EE0C006F08D0BD417
:1056F000022802D00220A885EBE70020A885208B95
:10570000102108432083E4E70028E2D1A885208BFC
:10571000012108432083DCE7706800F085FA208BC4
:10572000C121890088432083208B410717D4C005FD
:10573000F08D0CD4032802D00320A88515E00020AA
:10574000A885208BFF210131084320830DE000282C
:105750000BD1A885208B04210843208305E000207D
:10576000A885208B800500D4012738000CD0304656
:10577000FDF708F8002807D0208BC10705D0810766
:1057800003D5400701D50120F8BD0020F8BDF0B4D5
:105790000469016800258C4226D082680026002A10
:1057A00020D0A14204DB43689A180125426003E03F
:1057B000C3684268D21A4260002A01DB134600E047
:1057C0005342002A02DB1F14E41901E01F14E41BFA
:1057D0009BB20461002A00DA5B424360002D05D0D1
:1057E0008C4201DD46600161F0BC70478C42F9DB00
:1057F000F0BC70470021016001614160704700000A
:105800000248006A02490880704700008007014092
:105810000A000020F8B51B4DFF2101260027113199
:105820002846FAF723FD18482C462F70803401468D
:1058300027772031E1633031216468316164A064ED
:105840001831E164603121652C3961652039E165E9
:1058500018312166363161660A31A1660A31E16686
:105860000A3121670A3161670A31FF306F30A16761
:10587000E0673846FFF7C2FA6860002800D10026CA
:105880003046F8BD0003002010040020024A400109
:105890008018818370470000B40900208030018B9C
:1058A0008022114301837047E4225043024A80184A
:1058B000E03001707047000018080020E4225043D7
:1058C000054A82181046803043695960436919605F
:1058D000406940681066704718080020E423584368
:1058E000034BC0188030436B1981406B4281704775
:1058F00018080020034A914200DB1146024A40008A
:10590000115270475555000042000020E4225043D8
:10591000024A002180186030817470471808002006
:10592000E4225043034A0121801860308174C1741D
:10593000704700001808002008B5FDF7B3F8FDF720
:10594000A7F8FDF79FF9FBF755FC0020FF23009017
:105950000133034A03A10120FEF7E6FA08BD000067
:10596000E00500204A53636F70655F693269320059
:1059700070B50446A1686568C031898844352980BE
:10598000A1687830C031C9886980A1688031898F69
:10599000A980A1688031C98FE980A168C0310988D8
:1059A0002981A168C03149886981A268C821515EF6
:1059B0000A225143FAF7B6FDA881A068A021006E23
:1059C0002861A068406E6861A068C06EA861A06888
:1059D0000A5880887D215043C900FAF7A7FB01B21D
:1059E0000520C0020A31FAF7A1FBA883A068FF21B5
:1059F0008030008DE883A06849318030408D288454
:105A0000A06800228030808D6884A0688030C08DBE
:105A1000A884A0688030008EE884A0688030408E22
:105A20002885A068095A825E51432963A068FF2136
:105A30004B310022095A825E51436963A068FF30EE
:105A40000130406C288770BD30B4164A012351786C
:105A5000002400290AD09188134D491C09B2918075
:105A6000A94204DB117800290DD01470948091684C
:105A7000416414782030EF22417F002C05D010249F
:105A80002143194304E01370F0E71140490849002D
:105A90004177C9B28B0603D51140490849004177C7
:105AA00030BC70472C00002010270000F8B5476874
:105AB0000446064614210546415E543778340C36B8
:105AC0003846FBF77AFB60601A21715E3846FBF7B7
:105AD00074FBE0601821715E3846FBF75CFBA06048
