:020000040000FA
:1000000008030020D9000000E7000000E90000001C
:1000100000000000000000000000000000000000E0
:10002000000000000000000000000000EB000000E5
:100030000000000000000000ED0000007908000052
:1000400087080000890800008B0800008D08000068
:100050007D0100007F0100003D04000081010000DF
:1000600083080000ED0300004D0800004901000076
:10007000F100000041040000850800004B01000071
:10008000F1000000F1000000F1000000F1000000AC
:10009000F10000000000000000000000000000006F
:1000A0000000000000000000000000000000000050
:1000B0000000000000000000000000000000000040
:1000C0000448854600F02EF800480047D708000095
:1000D000C046C04608030020064880F3088806484A
:1000E000804706480047FEE7FEE7FEE7FEE7FEE73B
:1000F000FEE70000080300207B080000C1000000AC
:10010000D2B201E00270401C491EFBD270470022AF
:10011000F6E710B513460A4604461946FFF7F0FF06
:10012000204610BD064C0125064E05E0E36807CCCD
:100130002B430C3C98471034B442F7D3FFF7C4FF6D
:10014000E8080000080900007047704707480849A0
:100150000863C805406B074908438907486304489A
:10016000006805490843024908607047837A000027
:100170008000004001800000FF01000070477047D0
:100180007047F0B50B46002200240025002100BF77
:1001900060E00126964034461E6826403546A5425A
:1001A00057D11E79002E0CD10168012696403143AB
:1001B00001604168012696400F46B74339464160C9
:1001C00018E01E79012E0BD1016896400F46B74307
:1001D000394601604168012696403143416009E09B
:1001E0001E79022E06D14168012696400F46B7437C
:1001F000394641605E79012E04D101699640314350
:10020000016119E05E79022E05D14169012696400F
:100210003143416110E05E79002E0DD10169012664
:1002200096400F46B7433946016141690126964021
:100230000F46B7433946416181699E68012E02D15C
:100240009640314304E0012696400F46B7433946B5
:100250008161521C102A9CD3F0BD000030B50C46C1
:10026000230000F014FB10090F171E252B333A4111
:10027000474F565D636B7279016A394D29408B187F
:1002800003626AE0016A364DE13D294013015B18C3
:10029000036262E0016A334D294013025B18036276
:1002A0005BE0036A1905090D13035B18036254E050
:1002B000416A2B4D29408B1843624EE0416A284D1C
:1002C000E13D294013015B18436246E0416A254D38
:1002D000294013025B1843623FE0436A1905090D88
:1002E00013035B18436238E0816A1D4D29408B1867
:1002F000836232E0816A1A4DE13D294013015B18A7
:1003000083622AE0816A174D294013025B188362D9
:1003100023E0836A1905090D13035B1883621CE04F
:10032000C16A0F4D29408B18C36216E0C16A0C4D9B
:10033000E13D294013015B18C3620EE0C16A094D1B
:10034000294013025B18C36207E0C36A1905090D4F
:1003500013035B18C36200E000BF00BF30BD0000A4
:10036000F0FF0000FFF00000002101600171417109
:10037000816070470EB56846FFF7F6FF01216846B9
:100380000171FF200001009000216846417169461B
:100390001548FFF7F6FE032204211348FFF75EFF1E
:1003A000032205211048FFF759FF032206210E48BA
:1003B000FFF754FF032207210B48FFF74FFF0322EB
:1003C00008210948FFF74AFF032209210648FFF7E1
:1003D00045FF03220A210448FFF740FF03220B21B7
:1003E0000148FFF73BFF0EBD402001407047000071
:1003F00010B572B60D480E4908630E480068C91260
:1004000008430C490860FFF7B5FF00F04BF90D20D9
:100410000121814042099200074BD218116000BFB0
:10042000002100F0B9F962B610BD0000837A000027
:10043000800000400004004000E100E07047000040
:100440000E48C06B04210840002805D001200C494B
:10045000086000200B4908600848C06B082108406C
:10046000002805D0002006490860012005490860E1
:100470000248C06B0149C86370470000001C01407E
:10048000000000200400002010B5044601210820CF
:1004900000F0DEF97B487C494863A078E178890068
:1004A00008432179C9000843617909020843A17909
:1004B0000903084374490862208873494039086376
:1004C000208A0862608A4862A08A8862E08AC862DC
:1004D0002820005D2921095D490008433821095D74
:1004E000890108432189C90108432A21095D0902BC
:1004F00008432B21095D490208433921095D89031D
:1005000008436189C90308433021095D4901084353
:100510003121095D090108433221095D490308437E
:100520003321095D09030843574908612C20005D08
:100530002D21095D490008433A21095D89010843DD
:10054000A189C90108432E21095D090208432F2111
:10055000095D490208433B21095D89030843E1899C
:10056000C90308433421095D490108433521095D68
:1005700009010843444948614220005D4421095D66
:10058000890008434021095D090108434121095DB3
:10059000490108434321095D490008434521095D9C
:1005A000C90008434621095DC90108434721095D87
:1005B000090208434821095D490208434921095DB0
:1005C000890208434A21095DC90208434B21095D9C
:1005D000090308434C21095D490308434D21095D86
:1005E000890308434E21095DC9030843264948622F
:1005F0003C20005D3D21095D090108433E21095D64
:10060000490108433F21095D890108431E4988616A
:10061000208B1D4940310860608B4860A08B88604A
:10062000E08BC860208C0861608C4861A08C886178
:10063000E08CC8611548144948604F20005D502186
:10064000095D490008435121095D8902084352218F
:10065000095DC90208430C49403988635320005D95
:1006600000015421095D4901084307490860074812
:1006700005494039486300204863054802494863FA
:1006800010BD0000ADDE0000401C0140FFFF000077
:10069000FECA000010B5044656212046FFF737FD7C
:1006A00010BD000000B597B001A8FFF7F3FF0021CF
:1006B000684681710121C171017200218181C1816E
:1006C000018241820C21417281722E4981802E4922
:1006D00081822C49491EC18260218183C1830184AA
:1006E00041848184C18401854185002108A801736A
:1006F00041738173C173017441748174C174017752
:1007000041778177817710A8C1720121017300219F
:100710004173012181730021C17301210174002102
:100720004174012181748172417000218170012125
:100730000175C175002101710121817100210172D2
:10074000012101764171C171002141720121C17401
:1007500001A8FFF799FE0D480D4908600D48486053
:100760000A4888600B48C860084808610948486121
:10077000064888610748C861012000F049F817B0B1
:1007800000BD0000C05D00004AA2000090E800002B
:10079000001C01407017000010B5002819DA1A4A31
:1007A00003071B0F083B9B089B00D2588307DC0EF6
:1007B000FF23A3409A438B071B0E8407E40EA3403C
:1007C0001A43114B0407240F083CA408A4001A5133
:1007D00018E00E4A03231B02D21883089B00D2584C
:1007E0008307DC0EFF23A3409A438B071B0E84076D
:1007F000E40EA3401A43054B032424021B1984086A
:10080000A4001A5110BD00001CED00E000E100E062
:100810000A490B4A5163012806D11146496A402210
:100820001143074A516205E00549496A054A1140EA
:10083000034A51620449024A51637047ADDE000029
:10084000401C0140BFFF0000FECA000070470000CE
:10085000074A084B1A63002904D01A46D26902439A
:10086000DA6104E0034AD2698243024BDA617047DD
:10087000837A000080000040704700B5FFF766FCF7
:1008800000BD70477047704770477047704730B47D
:100890007446641E2578641CAB4204D3635D5B0020
:1008A000E31830BC18471D46F8E702E008C8121FDD
:1008B00008C1002AFAD170477047002001E001C149
:1008C000121F002AFBD17047002101E000BF491C24
:1008D0008142FBD37047FFF78BFD03E0012000044A
:1008E000FFF7F2FFFAE7000008090000000000200F
:1008F00008000000AA0800001009000008000020FD
:1009000000030000BA080000000000000000000022
:04000005000000C136
:00000001FF
