:020000040000FA
:1000000010030020D9000000E7000000E900000014
:1000100000000000000000000000000000000000E0
:10002000000000000000000000000000EB000000E5
:100030000000000000000000ED000000710600005C
:100040007F06000081060000830600008506000090
:100050008701000089010000350400008B010000C9
:100060007B060000E5030000B1040000250100004C
:10007000F1000000370400007D06000027010000A9
:10008000F1000000F100000059010000F100000043
:10009000F10000000000000000000000000000006F
:1000A0000000000000000000000000000000000050
:1000B0000000000000000000000000000000000040
:1000C0000448854600F01CF800480047C1060000BF
:1000D000C046C04610030020064880F30888064842
:1000E000804706480047FEE7FEE7FEE7FEE7FEE73B
:1000F000FEE700001003002073060000C1000000AE
:10010000064C0125064E05E0E36807CC2B430C3C6A
:1001100098471034B442F7D3FFF7D6FFF406000037
:100120001407000070477047074808490863C8056E
:10013000406B07490843890748630448006805493C
:100140000843024908607047837A0000800000403D
:1001500001800000FF0100000648406802210840BD
:10016000002802D002200349486004200149486069
:100170007047000040300140002101E000BF491CF1
:100180008142FBD37047704770477047F0B50B460C
:10019000002200240025002100BF60E001269640D7
:1001A00034461E6826403546A54257D11E79002E9A
:1001B0000CD1016801269640314301604168012657
:1001C00096400F46B7433946416018E01E79012E2C
:1001D0000BD1016896400F46B7433946016041682C
:1001E000012696403143416009E01E79022E06D176
:1001F0004168012696400F46B743394641605E7913
:10020000012E04D1016996403143016119E05E7904
:10021000022E05D14169012696403143416110E02B
:100220005E79002E0DD10169012696400F46B74335
:10023000394601614169012696400F46B743394668
:10024000416181699E68012E02D19640314304E0EC
:10025000012696400F46B74339468161521C102A49
:100260009CD3F0BD30B50C46230000F00CFA100909
:100270000F171E252B333A41474F565D636B72793A
:10028000016A394D29408B1803626AE0016A364DD4
:10029000E13D294013015B18036262E0016A334DBE
:1002A000294013025B1803625BE0036A1905090D1C
:1002B00013035B18036254E0416A2B4D29408B18ED
:1002C00043624EE0416A284DE13D294013015B182D
:1002D000436246E0416A254D294013025B184362A0
:1002E0003FE0436A1905090D13035B18436238E0C8
:1002F000816A1D4D29408B18836232E0816A1A4D54
:10030000E13D294013015B1883622AE0816A174DA1
:10031000294013025B18836223E0836A1905090DE3
:1003200013035B1883621CE0C16A0F4D29408B18D0
:10033000C36216E0C16A0C4DE13D294013015B1810
:10034000C3620EE0C16A094D294013025B18C36203
:1003500007E0C36A1905090D13035B18C36200E0C7
:1003600000BF00BF30BD0000F0FF0000FFF0000044
:100370000021016001714171816070470EB56846CE
:10038000FFF7F6FF6846FFF7F3FF012168460171AA
:100390001248009069461248FFF7F8FE0522012135
:1003A0000F48FFF75FFF05220A210D48FFF75AFFAC
:1003B000052203210A48FFF755FF00216846017115
:1003C00001200090694606484038FFF7DFFE05220D
:1003D000002103484038FFF745FF0EBD0A04000026
:1003E000802001407047000010B572B60D480E49DC
:1003F00008630E480068C91208430C490860FFF7FB
:10040000BDFF00F0F5F80A20012181404209920069
:10041000074BD218116000BF012100F00DF862B641
:1004200010BD0000837A00008000004000040040FE
:1004300000E100E07047704710B5002819DA1A4A49
:1004400003071B0F083B9B089B00D2588307DC0E59
:10045000FF23A3409A438B071B0E8407E40EA3409F
:100460001A43114B0407240F083CA408A4001A5196
:1004700018E00E4A03231B02D21883089B00D258AF
:100480008307DC0EFF23A3409A438B071B0E8407D0
:10049000E40EA3401A43054B032424021B198408CD
:1004A000A4001A5110BD00001CED00E000E100E0C6
:1004B0002548006810210840002822D022484068C2
:1004C00004210840002804D01F48406808431E4902
:1004D00048601D48406802210840002804D01A489E
:1004E000406808431849486017484068C007C00F73
:1004F000002828D014484068012108431249486068
:1005000021E01148406804210840002804D00E482A
:10051000406808430C4948600B4840680221084085
:10052000002804D008484068084307494860064846
:100530004068C007C00F002805D00348406801216B
:1005400008430149486070470000014070B5054606
:100550000C460121080200F077F8207AC000E1790A
:1005600008436860A07A617AC9010843A860E07A0C
:100570006861A079617949000843217989000843BD
:10058000E178C9000843A17809010843617849016D
:100590000843217889010843286070BD0146002086
:1005A00001220A4B5A611A46D16000BF074A5268BD
:1005B00004231A40002AF9D0044A1269D0B2034A2F
:1005C00052681A43014B5A60704700000000014016
:1005D00000210170417081700171C17041718171A0
:1005E000C17101724172032181720021C172704791
:1005F0000EB51348C06AFF21013108431049C86293
:100600000846C06A891588430D49C8626846FFF7E5
:10061000DFFF002168460170012181708171417204
:10062000002101724171C17001711E21817200218E
:10063000C172C17169460348FFF788FF0EBD000013
:100640008000004000000140074A084B1A6300295F
:1006500004D01A46D2690243DA6104E0034AD2693F
:100660008243024BDA617047837A000080000040C9
:10067000704700B5FFF758FD00BD704770477047E1
:1006800070477047704730B47446641E2578641C08
:10069000AB4204D3635D5B00E31830BC18471D46D2
:1006A000F8E702E008C8121F08C1002AFAD1704713
:1006B0007047002001E001C1121F002AFBD17047E2
:1006C0000024FFF791FE0EE0002407E00649085DD4
:1006D000FFF764FF05490855601CC4B2082CF5DB20
:1006E0000348FFF749FDEFE7000000200800002065
:1006F000FF0F0000140700000000002010000000A1
:10070000A2060000240700001000002000030000E3
:10071000B2060000F33F1122234456680000000097
:0407200000000000D5
:04000005000000C136
:00000001FF
