:020000040000FA
:10000000F0130020D9000000E7000000DD2100000F
:1000100000000000000000000000000000000000E0
:10002000000000000000000000000000EB000000E5
:100030000000000000000000ED000000AB400000E8
:10004000CD450000F5450000F7450000F100000037
:10005000F1000000F1000000F1000000F1000000DC
:10006000EF420000A1200000F10000003D0300006D
:10007000F1000000F1000000F1420000B5060000B0
:10008000F1000000F1000000F1000000F1000000AC
:10009000F10000000000000000000000000000006F
:1000A0000000000000000000000000000000000050
:1000B0000000000000000000000000000000000040
:1000C0000448854600F028F9004800470551000023
:1000D000C046C046F0130020064880F30888064852
:1000E000804706480047FEE7FEE7FEE7FEE7FEE73B
:1000F000FEE70000F0130020AD400000C10000004A
:1001000030B50B46014600202022012409E00D46AF
:10011000D5409D4205D31D469540491B2546954037
:1001200040191546521E002DF1DC30BD70B500247B
:100130002546002801DA01244042002901DA012580
:100140004942FFF7DDFFAC4200D04042002C00D016
:10015000494270BDF0B51FB40646002082B0054686
:100160004024019100901BE0019922460F46304641
:1001700000F0C0F8049A059B801A994110D31046EC
:100180001946224600F079F8361A8F410197224627
:1001900001200021009F00F070F838184D410090B8
:1001A0002046641E0028DFDC019B00982946324669
:1001B00007B0F0BDF8B500242546002904DA0E4644
:1001C000012400214042B141002B04DA1E460023E5
:1001D00052420125B341FFF7BDFF8C4617461E462C
:1001E000AC4203D0002540428D41AC46002C02D0E9
:1001F000002657429E4161463A46334601B0F0BD63
:10020000F0B51FB486B000200090019002900698CF
:10021000069980B204900798090C02040014114357
:1002200007900027089D099806913E463C4603909A
:100230000398A9B20204000C039004982D0C1543F6
:1002400048430021224600F018F8C71971411034C4
:100250000E46402CECDB3846029A00F00EF8009A6D
:10026000019B801800905941029801911030029032
:100270004028CCDB00980BB0F0BD10B5202A04DB81
:100280000146203A9140002010BD914020239C1A45
:100290000346E3401943904010BD03460B439B07C0
:1002A00003D009E008C9121F08C0042AFAD203E0EB
:1002B0000B780370401C491C521EF9D27047D2B211
:1002C00001E00270401C491EFBD270470022F6E795
:1002D00010B513460A4604461946FFF7F0FF2046BC
:1002E00010BD03460A780270401C491C002AF9D14F
:1002F0001846704710B5202A04DB0846203AD04043
:10030000002110BD0B46D340D0402024A21A9140BA
:100310000843194610BD0000064C0125064E05E0B5
:10032000E36807CC2B430C3C98471034B442F7D316
:10033000FFF7CAFEC85B0000E85B000070B51B4811
:10034000416B032211434163194CE088401CE0805B
:10035000184D0020286100F017F9286920802088B6
:1003600060800420205E0221615E884202DA022061
:10037000205E01E00420205EA080002004F096FBB7
:100380000B4C08342080002004F084FB60800020A7
:1003900004F064FCA080002004F06AFCE0800822E5
:1003A0002146012003F02CF970BD000080140140AB
:1003B000040000200010014000B589B0684600F03C
:1003C000BBF800206A46508010810621518190813F
:1003D00001219182508211806946064800F020F880
:1003E00004488030416BFF221143416300F004F860
:1003F00009B000BD00140140074806490161416190
:10040000C321890081610549C161F12109010162AE
:100410007047000001020000401401400711000075
:10042000F8B50D4606460121084603F0D9FA414ABF
:100430003F481063D005416A2B8CDB0019434162B1
:10044000A9880901C16300201063344628888034DC
:100450002063298B68884900084380B2A063E98A39
:10046000A88A09010843297AAA7C090212031143C8
:100470000843A9798903084380B2E063A9896889A0
:1004800009020843B067298AE88909020843F0672E
:10049000688B6064A88BA060E88BE060312168887D
:1004A00009010D1D2E1D371D0028084622D002F01F
:1004B000FFFE2061284602F0FBFE6061304602F03C
:1004C000F7FEA061384602F0F3FEE061381D02F04D
:1004D000EFFE2062C920800002F0EAFE6062652023
:1004E000C00002F0E5FEA062CB20800002F0E0FE3A
:1004F000E062F8BD02F0DCFE00012061284602F057
:10050000D7FE00016061304602F0D2FEA06138469D
:1005100002F0CEFEE0611920400102F0C9FE0001A8
:100520002062C920800002F0C3FE0001D6E700006F
:10053000837A000080000040002101804180C1805A
:10054000018141818181C181018241828182C18297
:1005500001838183C18301848180704770470000DB
:1005600002490A88428089888180704700140140CE
:100570000149098BC1827047001401400149098A71
:10058000C18170470014014010B506480649C06893
:100590000A8842808A888280098AC181002000F00E
:1005A000AFFF10BD140200200014014002888078C3
:1005B0004A430241104670470289807A4A43024109
:1005C00010467047828880794A430241104670473E
:1005D00014211D4A41438918E4221C4B424310B4A4
:1005E000D218C4239C580223E35E194C4000245EB9
:1005F0006343184CDB13205E1BB2584340230013A7
:10060000D35E00B2C31A0B614C89088863430204AD
:10061000CC688888E3180004CB60934201DD134660
:1006200002E0834200DA0346CB600C6909894C433F
:1006300021015918914201DD104602E0814200DBA0
:10064000084610BC00147047A8100020180F0020A6
:10065000420000204000002010B504F09BFC10BDBB
:10066000CA680004831A1B119A181314CA600A6915
:10067000801A4012801802140861981A030448690D
:100680001B1A1B11181848610623CB5E00149342F5
:1006900008DD002800DA404208228A5E904201DA32
:1006A000012000E00020887270470004C8600861E3
:1006B000486170477047000070B505460446203514
:1006C000297D802003F08CF9217D402003F088F9FA
:1006D000384A37481063E0698100E06B000101434C
:1006E000A06900020143A06B000301432069C0011F
:1006F0000143D005C36A1943C162416A237B194390
:100700004162217D2B7D8901DB011943436B194334
:100710004163002313632046403001784A00297862
:100720000A4325490A602279002A06D023681B0162
:10073000D2001343A268134308E0427A002A02D190
:100740006A7A002A02D008228A6000E08B60626C1C
:10075000037AD2019B011A43437A5B011A43E36C8B
:100760001B011A43636ADB001A432B7A9B001A436E
:100770006B7A5B001A43E36A1A43CA60027C437CCB
:10078000D2019B011A43837CC07C5B011A430001A8
:100790000243287CC0000243687C80000243A87C9E
:1007A00040000243E87C02430A610320486070BDB8
:1007B000837A000080000040000C014010B55421F5
:1007C000FFF784FD10BD00B595B06846FFF7F6FF52
:1007D00001206A461075022106900791002008AAA0
:1007E0005072107010750F9110AA0E905072107008
:1007F0000F216A46009110716846FFF75DFF15B042
:1008000000BD0000E42250430A4A0B0480188030E7
:10081000406C018042689B1A5B109A1842604180CC
:100820000122054952060A620222825E4A62896AF0
:1008300081607047180F002000500140F1B588B06A
:100840000898E4214843FE49461830680190304634
:1008500080307568816B0691C16B0591006C0490C6
:10086000AA6A3446D317039302920C346421E869D0
:1008700003F0BFFF039B029AFFF79CFC6060696A6C
:10088000286A03F0B6FF03910290EE49E86903F08D
:10089000B0FF039B029AFFF78DFC20606A8B6420F7
:1008A00042436868D317C11787088907394380070F
:1008B000FFF780FC0905000B0843A08464216868E9
:1008C000FFF734FC4004698BFFF730FCE084EA68F2
:1008D0000292D317039319214904A86803F089FFF2
:1008E000039B029AFFF766FC6A8B0023FFF762FC0A
:1008F0000121C903081AA06064216868FFF716FC8B
:10090000D14903F076FF6A8B0023FFF753FCEA68B6
:100910000292D3170393296903F06BFF039B029A9A
:10092000FFF748FC009003F0EBFF024600990F3AF6
:100930001141E1601C21081A607520680290C017FF
:1009400003906068C14AC1170723FFF759FC039B56
:10095000029AFFF72FFC03910290E8686A8BC11797
:100960000023FFF74DFC02460B4603990298FFF760
:1009700021FC009003F0C4FF024600990F3A114198
:1009800021611E21081AA0750198E42102880898A7
:100990004843AB4940188C300090002A53D020685F
:1009A0000023C117FFF72CFCEA68D317FFF728FCD8
:1009B000420FC9001143FF23626887335A43C000C6
:1009C000D317FFF7F7FB00990291896A80B208807C
:1009D00001996F8B498803F025FF0A220023FFF756
:1009E0000FFC3A460023FFF7E5FB02990023896AD2
:1009F00048802068019AC1171288FFF701FC2A6914
:100A0000D317FFF7FDFB420FC9001143FF236268B4
:100A100087335A43C000D317FFF7CCFB029980B24B
:100A2000896A88806A8B01990392498803F0FAFEEB
:100A30000A220023FFF7E4FB0023039AFFF7BAFB27
:100A40000299896A49E0E8686A8BC1170023FFF7B9
:100A5000D7FB2268D317FFF7D3FB092362689B01FA
:100A60005A43D317FFF7A6FB009A0292916A0880B7
:100A7000A868216803F0BDFEC20C49031143744B02
:100A8000626840035A43D317FFF794FB029A00238E
:100A9000916A4880E8686A8BC117FFF7B1FB22684A
:100AA000D317FFF7ADFB092362689B015A43D317A5
:100AB000FFF780FB029A916A8880A868216803F09A
:100AC00098FEC20C49031143614B626840035A43CC
:100AD000D317FFF76FFB029A916AC880009FB86A2C
:100AE000018806980181B86A418806984181B86AF0
:100AF000018805980181B86A41880598418130686C
:100B0000C18BB86A01813068018CB86A41810A21C1
:100B10006868FFF70BFB024668694E494243D317EA
:100B200000931646606803F064FE3246009BFFF7B0
:100B300041FB0146B86A64238161049804994830F6
:100B400000900020086048608860C8604861886143
:100B5000C8610862009A0E46106050609060D060D4
:100B6000106150619061D06110626C3630607060CD
:100B7000B060F06030617061B061F06130627D2220
:100B80008B80D2000A800B810B6127680A204743C3
:100B9000384603F0B5FE01460F380741009807803C
:100BA0001E20411A009841806768384603F0A8FE6D
:100BB00001460F380741009887801E20411A00988F
:100BC000C1806F68384603F09BFE01460F3807412D
:100BD000009807811E20411A0098418161682068B1
:100BE00003F007FE64220023FFF70AFB1A4A0023E2
:100BF000FFF7E0FA074603F083FE01463A460F3856
:100C00000241009802611E20411A009881822168E9
:100C10000A2041434007FFF789FA074603F070FEB8
:100C200001460F3807411E20411A3780718001208C
:100C300080076168FFF77AFA074603F061FE0DE06E
:100C4000180F002000E1F50510C90000000020A1E8
:100C5000850B0000F0BE1B038E16000001460F3806
:100C600007411E20411AB780F18001208007696882
:100C7000FFF75CFA054603F043FE01460F380541D5
:100C800035811E20411A174D7181284603F038FE28
:100C900001460F38C5401E207583401AB0830120DD
:100CA00080076168FFF742FA054603F029FE014616
:100CB0000F390D411E21F583081A3084019801690E
:100CC0003046FFF779FC6067019841693046FFF7CD
:100CD00073FCA067019881693046FFF76DFCE067FF
:100CE00009B0F0BD2B1A0900F0B5E4214E4A41438A
:100CF0008E184E4A41018C184D4900014018006879
:100D00007568C289818983B0D0030C36FFF70EFA6B
:100D10004849884200DB0846A0836A684649D317E1
:100D200000931746706803F064FD3A46009BFFF796
:100D300041FA32687D21D3170746C900019300921A
:100D400003F057FD019B009AFFF734FA00906869A1
:100D5000FB17C117020D0903114300033A46FFF7C1
:100D600029FA074603F0CCFD1B21081A00B2608265
:100D70000C2802DA0C21081A07412782E868C117FB
:100D8000020D09031143009A0003D3170193FFF7E3
:100D900011FA074603F0B4FD1B21081A00B2E082E5
:100DA0000C2802DA0C21081A0741A7822869019B46
:100DB000C117020D090311430003009AFFF7FAF966
:100DC000074603F09DFD1B21081A00B260830C2822
:100DD00002DA0C21081A0741278332681749D31712
:100DE00000931746706803F004FD3A46009BFFF736
:100DF000E1F9AB68D9171A0D090311431D03024627
:100E0000C3172846FFF7D6F9054603F079FD1B21E5
:100E1000081A00B2E0810C2802DA0C21081A0541F8
:100E2000A58103B0F0BD0000180F0020BC10002009
:100E300048100020FF7F00002B3E0000102700001C
:100E4000F0B4E4232D4C43431C19234680340C3367
:100E5000646C4D885D8500254D5F9D852A21595E16
:100E60006D4349434D1926490D63264E0225400026
:100E7000655F305EDF8C4543E8131D468035EE68C4
:100E8000AD6836682D687E4375194E6B00B236B278
:100E90009E8686420EDDC00308624E62886A2A265C
:100EA0009E5F80B24643F6135E852C269E5F4643C6
:100EB000F01398850868042630430860280C4860C1
:100EC0002A255D5FA0684543AC122C255D5F24B2E6
:100ED0004543A81203B24869096900B209B2054640
:100EE0000E4665435E43AD1BED136143584308183E
:100EF0001580C0135080F0BC70470000180F002010
:100F00000050014042000020F8B54C1C6410A64679
:100F1000CA030CB20092A446684A694B4C420028AE
:100F200068DB451C6F10C50306B2002932DB88421E
:100F30001BDB002812D00098C01910625662906A1C
:100F4000C1094900CA185288595A4006521A400E1F
:100F500042434032D009081800B2F8BD002902D03F
:100F600001208003F8BD0020F8BD704628181062EB
:100F700060465062906AC1094900CA185288595A9D
:100F80004006521A400E42434032D009081801214F
:100F9000890390E0A04216DB002812D0E003C019BC
:100FA00010625662906AC1094900CA185288595A9B
:100FB0004006521A400E42434032D00908184042BF
:100FC000CAE74048F8BD601C40102818106220B2E3
:100FD0005062906AC1094900CA185288595A40069D
:100FE000521A400E42434032D009081801218903A9
:100FF000401AB1E701254042ED0300292EDB88426B
:1010000015DB441C009964100919116200B250628A
:10101000906AC1094900CA185288595A4006521AA2
:10102000400E42434032D0090818281A94E7C10301
:1010300070460818106260465062906AC109490003
:10104000CA185288595A4006521A400E424340323A
:10105000D00908180121890340187DE7A04215DB5B
:10106000411CE40349106118116200B25062906A99
:10107000C1094900CA185288595A4006521A400EEE
:1010800042434032D0090818401B65E7C103601C89
:1010900040100818106220B25062906AC1094900DD
:1010A000CA185288595A4006521A400E42434032DA
:1010B000D00908180349081A4EE700000050014003
:1010C000A659000000C0FFFF00790749002805D09D
:1010D000012805D0022806D1012002E0034800E0E3
:1010E000022008614861704740140140010200007D
:1010F00070B50546064604463035783602F03CFDAC
:101100008034E08A012189020843E082E06B0121FA
:10111000C08868850020A870304604F081F970BD51
:1011200000B5094A07481063D005416BC313194342
:101130004163642002F091FC106804490843106088
:1011400000BD0000837A000080000040FF01000025
:101150008030018B0122120391430183704700000C
:10116000024841681022114341607047401C014011
:1011700010B503F0CFFB002806D0FFF76DFA03F09F
:10118000C7FC002800D0012010BD028880784A43A7
:101190000241104670470289807A4A430241104654
:1011A00070470269007D4A430241104670478288B9
:1011B00080794A430241104670472021020C01D039
:1011C00010211046020A01D010460839020901D048
:1011D0001046091F820801D01046891E420801D01E
:1011E000881E7047081A704730B5DC31002306C9E5
:1011F000C35E002B00DA5B421CB20223C35E002BED
:1012000000DA5B420425455F1BB2002D00DA6D4217
:1012100028B20025555FA54200DA14800225555FEB
:101220009D4200DA53800425555F854200DA9080A4
:101230004A881925AD01AA420ED8521C4A804A6834
:10124000A24200D24C608A689A4200D28B60CA687F
:10125000824200D2C86030BD8888088208894882EE
:1012600088898882002048608860C860488030BDD6
:1012700008B50020009007480099491C0091814260
:10128000FAD3002003F0C6FB81689C30098C00F083
:1012900003F808BDFFFF0600F0B585B00E46054611
:1012A00072B63448344948633348002440380480D7
:1012B00084800481848104828482FF2242632F48D7
:1012C0004863204601F096FE2D48C463C4632C4A4F
:1012D0000421403A9163836B0B438363294904944F
:1012E000049B5B1C04938B42FAD3274911610321B1
:1012F00009025161049400940194029403942049DA
:101300000324224F8039049A1FE01D4A403217609F
:10131000426BD207FCD0426B2243426300228A5EBA
:10132000009BD218009204228A5E019BD21801927F
:1013300008228A5E029BD21802920C228A5E039BCC
:10134000D2180392049A521C0492B242DDD3FFF7E2
:1013500033F831460098FEF7E9FEE88031460198FF
:10136000FEF7E4FE288131460298FEF7DFFE688131
:1013700005B0F0BDADDE0000401C0140FECA00001B
:1013800080140140FFFF070001020000A55A000081
:1013900010B5C26801690389511A5943438909018B
:1013A00053435918836959188161838A1C0403685F
:1013B00061188B4202DB43688B4202DD19461B1B1E
:1013C000836109140261084610BD000070B5002059
:1013D00003F016FBFF268D36865F0121080302F01D
:1013E000FFFA254D23482863E805416AC02291434E
:1013F0004162416A402211434162416A0906890FF4
:10140000012909D0416A890989070FD0406A00067D
:10141000800F022813D01DE04B24D120240180002E
:1014200001F046FFA863CD20800010E00D20134C92
:10143000800101F03DFFA8633320000107E069202F
:101440000F4CC00001F034FFA8636720C00001F01A
:101450002FFF686330032146FEF768FE0949884282
:1014600001DD084602E0002800DA00200249403988
:10147000C86370BD837A000080000040B80B000094
:10148000F2120000FF0F000000B50121402002F021
:10149000B9FA00BD024A10625162906A00B2704708
:1014A00000500140104A0F49516310490128098832
:1014B00004D0022807D0032809D00FE00C480843C5
:1014C00010610C2008E00B480143116106E0084858
:1014D000001D084310610820014351610020506342
:1014E00070470000ADDE0000401C014014000020E9
:1014F000080C00000C08000010B501F07BFD10BDC9
:10150000F1B584B00498542148439B494418049889
:101510008821484399494518284608300190616957
:10152000029121462C312E46009103906836216BA2
:10153000AF1C0098884700998868008A3880009915
:101540008868408A7880009914208968085EB8808D
:101550000221795E081A8A494843011403984180A0
:10156000039839880180207A002808D00020207252
:10157000E0680E21415E0498FFF744F901E0012084
:101580002072217A049803F029FF02985421877869
:1015900004983B004843784940182030009003F0FD
:1015A0005AF908051DBD2727272796BD02982A212D
:1015B000415EA06B808941430801010C606C02F020
:1015C00033FAA06900F0B8FDA16900200871216D0F
:1015D000A069096988476B4820639FE0049803F07D
:1015E00031FF207A002808D1049801F08BFC04E038
:1015F000012F02D0049803F01BFFA96962486961BA
:10160000026804231A430260090C41604169318079
:101610000069022100B27080019A019B515E002294
:10162000B25E514300229A5E4243881AC013288258
:1016300001990020085E0021715E019A4843022151
:10164000515E0222B25E51434018C013688228786E
:101650005421494A41438918097A00291BD103F0D2
:10166000E1F900282FD00C211022695EAA5E891AA8
:1016700029650E211222695EAA5E891A69632846CD
:101680004430FFF785FE2E46403630842846283009
:10169000FFF77EFE70842A46643228781646111FB2
:1016A000FFF7CEFB3146049801F0F2FFA06900F08D
:1016B00043FD216DA06909698847294610310498C6
:1016C00001F000FD2AE0002068632865D7E7029951
:1016D0002A20085EA16B8A895043001300B282421F
:1016E00001DC0C20085E81B2606C02F09DF9A069FB
:1016F00000F022FDA169002008710098012101730A
:1017000002214173216DA069096988471D48206342
:10171000049800F07DFE049800F0DAFF009D2F721F
:10172000216DE068496A88476069184E017B01298C
:1017300004D02030007A002813D016E02178725CA3
:10174000521CD2B27254022A14D32030007A0028DC
:1017500003D1206D81690120884701206872022031
:1017600006E0206D81690020884702206872002011
:101770002178705405B0F0BD1402002068020020EA
:10178000CE93000079390000005001401A0000207B
:10179000F8B50446406825468035297E83689C302C
:1017A00009076CD52646C0361821715E052901DA75
:1017B000491C00E001213183E17B002904D0296D1F
:1017C00002270A883A430A800622825E002A00DA4B
:1017D0005242598C8A4214DA0822825E002A00DAC8
:1017E00052428A420DDA0A22825E002A00DA52420E
:1017F0008A4206DA0C22825E002A00DA52428A42CB
:1018000005DB286DFF22018801321143018020464B
:101810001E302146074600F033F821463846FFF7D0
:10182000E3FC1820305E030003F015F806230408DB
:101830000F161D23204600F007FB1AE0287F08281A
:1018400017D1204600F040FA13E0287F082810D175
:10185000204600F044F80CE0287F082809D12046F3
:1018600000F0D0F805E0287F082802D1204600F0DB
:10187000A4FA286D008820810020E072A072F8BDD3
:1018800030B54A680023C35E9568002B00DA5B42DE
:1018900080314A6D0024145F0A6FA3420DDC0223DD
:1018A000C35E002B00DA5B42A34206DC0423C35E66
:1018B000002B00DA5B42A3420EDD0020105EFF35F4
:1018C000431C13808135EA89904204DB086D0122B4
:1018D00001881143018030BD0020108030BDF0B57B
:1018E0004168FF248B680246F1348032E45C0025B5
:1018F000916E012C06D00D80106D2022018891433D
:101900000180F0BDFF260136345E002C00DA64420F
:10191000566D0A27F75FBC420ADA0069002800DA30
:101920004042F468A04203DD0888401D088000E0C2
:101930000D80FF330020C133085E9B8B9842E0DBB3
:101940000D80106D202201881143D9E710B504469F
:1019500002F090FE204600F001F810BDF8B50446F4
:10196000406885680746FF35783781353846A9686D
:10197000FEF71CFE8034616D00260880A06E068094
:101980003846696DFEF712FE616D48813846A96DD3
:10199000FEF712FE616DC860E06E0680E06E468064
:1019A000E06EC6803846A96BFEF700FE616D0882C6
:1019B0003846E96BFEF7FAFD616D48613846296CDF
:1019C000FEF7F4FD616D8861616D686CC861606DE2
:1019D0004684606D0684A06F06803846296EFEF747
:1019E000E5FD616DC8841821E06DFEF76FFC0621EE
:1019F000206EFEF76BFC606F0A210680E06FFEF739
:101A000065FCF8BDF0B50146406880318068FF256F
:101A1000F4352D5CCC6D0B6E8A6F40270026012DAE
:101A200008D016805680086D0288BA430280486D3F
:101A30000685F0BDFF30C13000258646555F808C9D
:101A4000854202DA6D1D15801AE016800020185EAE
:101A5000022584465D5F8010A84207DCA81004259B
:101A60005D5FA84202DCAD10654506DD0D6D28887E
:101A700038432880486D012505851E805E809E8044
:101A8000486D2623258AC35E9D4205DB608A984205
:101A900002DBA08A984211DA02207346105E9B8C0A
:101AA000984202DA401D5080F0BD5680086D0288D1
:101AB0003A430280496D02200885F0BD5680F0BD92
:101AC000F8B5044641688034256D8E682988676DB5
:101AD0004A0701D40A071AD51422825E0820385E0C
:101AE000824211DB0620385E82420DDC636EFF22EB
:101AF00004208532185E925B904202DA401C988086
:101B000005E00C2081432980616E002088802888B0
:101B1000810701D4C10726D0FF2191318A5B574943
:101B20008A4220D0236F0421595E914202DA491C77
:101B3000998018E0810706D5022188432880208BF0
:101B4000C902084320832888C10705D04008400007
:101B50002880216F00200880206F0189491C0181A5
:101B6000216F002088802988C80617D5FF20D13032
:101B7000825B4248824211D0E36E0420185E90429C
:101B800002DA401C988009E010208143298000205F
:101B9000788438840A21E06EFEF798FB2878800666
:101BA00017D5FF20DF30825B3448824211D0A16E0E
:101BB0000420085E904202DA401C888009E0206D13
:101BC0002022018891430180A16E00208880A16EAF
:101BD00008802988480615D5FF20E730835B274811
:101BE00083420FD0A26F0420105E984202DA401C9C
:101BF000908007E0402081432980A16F00208880E9
:101C0000A16F08802B8818061BD53146FF31FF22B3
:101C10008131B132888C925D801A2222A25E00B29C
:101C200082420BDC626F0420105E898E884202DAE9
:101C3000401C908005E0802083432B80616F002052
:101C400088802B8898050CD5FF36C136B28D0B489D
:101C5000824206D0E16F0420085E904202DA401C06
:101C60008880F8BD0120400283432B800020B88487
:101C70000A21E06FFEF72AFBF8BD0000FFFF00001D
:101C800070B5044646688034216D0020B568088030
:101C9000A16EFF358880E16E01358880216F78362E
:101CA0008880216F0881616E8880616F88803046EE
:101CB000696FFEF787FC616DC8803046E96FFEF7FB
:101CC00081FC616D088170BDF1B582B00298029E01
:101CD000406880368768306C756D8068F46E0028C7
:101CE00000DA404201900298007802F03DFFFF21A7
:101CF000F231C95D012908D0306D102102888A4374
:101D0000028000206884208038E00621FF37615E71
:101D1000C1370097BA89914202DA491DE180FEBDC0
:101D20006A690121824201DA298404E0AA698242B7
:101D300001DD00202884288C012821D02088401F24
:101D400000B22080002801DA00202080029800786C
:101D500002F0A2FF07460298007802F0E3FE474334
:101D6000E969F813414308120199814223DD009982
:101D70000220205EC989884213DA401D6080FEBDC2
:101D8000009A0020205ED289904201DA401DDCE7F3
:101D900000202080306D102302881A43028069845D
:101DA000D4E700206080306D10220188114301804B
:101DB00002206884FEBD0020E0E7F0B501464068DF
:101DC000FF2480688031F334245C01250B6ECA6FD8
:101DD0006D02012C08D00023D380086D0288AA432D
:101DE0000280486D8384F0BDFF300624C130145F4B
:101DF000068DB442F7DA641DD4804F6D002610249E
:101E00009E5F3C5FA64207DC02269E5FA64203DC83
:101E100004269E5FA64206DD0B6D1C882C431C80A9
:101E20004C6D0323A384CB6B5B7F002BDBD106239C
:101E3000D35E408D8342D6DD086D02882A4302803E
:101E4000496D04208884F0BDF0B5416804468034B3
:101E50008B68226D616E646D14250226455FA65F56
:101E60000020AE4203DC0C88641D0C8009E00426CF
:101E7000A65FAE4203DD4C88641D4C8001E0088003
:101E80004880FF33002481330C5F1E880425B44250
:101E900003DB088014882C43148002240C5F5F88C5
:101EA0000826BC4203DB4880148834431480DC7964
:101EB000002C03D148801488B44314809B79002BF4
:101EC00003D108801088A8431080F0BD10B5FEF73C
:101ED000B5FC10BD70B5002301252A460C689A4058
:101EE000144094422ED10C79002C04D0012C07D040
:101EF000022C0DD012E004681646264306600AE064
:101F0000046894430460446816462643466005E02E
:101F10000468944304604468944344604C79012C01
:101F200002D0002C05D007E004691646264306615E
:101F300002E004699443046184698E68012E05D02F
:101F4000944384615B1C102BC7D370BD1443F8E726
:101F5000F0B5324F1601150214030B0002F07BFCA2
:101F600010090D13181E22282D33373D42484C52BC
:101F7000571D016A394089180EE0016A274AE13A83
:101F80001140711808E0016A254A1140691803E000
:101F9000016A0905090D61180162F0BD416A394005
:101FA00089180EE0416A1D4AE13A1140711808E0B3
:101FB000416A1B4A1140691803E0416A0905090D8D
:101FC00061184162F0BD816A394089180EE0816A6A
:101FD000124AE13A1140711808E0816A104A114032
:101FE000691803E0816A0905090D61188162F0BD75
:101FF000C16A394089180EE0C16A084AE13A1140C5
:10200000711808E0C16A064A1140691803E0C16A04
:102010000905090D6118C162F0BD0000F0FF000064
:10202000FFF0000000210160017141718160704783
:102030003EB56846FFF7F6FF0120694608713F206C
:102040000001124C00902046FFF744FF03220421B8
:102050002046FFF77DFF032205212046FFF778FF8A
:10206000032206212046FFF773FF032207212046A3
:10207000FFF76EFF032208212046FFF769FF0322C6
:1020800009212046FFF764FF3EBD000040200140CB
:1020900002494968C906C90F01707047401C0140D8
:1020A0007047000010B504460121022001F0AAFC8F
:1020B000A078218800040143E07822790005120607
:1020C00010430143607900070143A07940070143B1
:1020D000207B8007014303480160A168C1600021A3
:1020E000416010BD001001401FB5684600F014F8B3
:1020F000012040026946088000208870C8700120D5
:10210000087148718871034802906846FFF7CAFF5A
:102110001FBD0000007C92000649018000218170F3
:102120000122C270027142717D228171D2008260EF
:1021300001737047FF030000094942890A808289C0
:102140008A80C2880A8102898A81028A0A82C289B7
:102150008A820349028820310A804088888070473B
:10216000001C0140F8B50446406880340746856885
:10217000E020465F1848761C4643E06B78370168DC
:102180003846FEF719FA0146206C4068002800DA4C
:102190004042814200DC80353846296FFEF70CFA58
:1021A000314602F026FB0906000A0843216C08624A
:1021B0003846696FFEF700FA314602F01AFB09064D
:1021C000000A0843216C4862206C01688161206C20
:1021D000183003F071F8F8BD894100007047000025
:1021E00010B572B61F482049086320480168C21222
:1021F00011430160FFF748F902F0FAF8FEF7DCF846
:1022000000F069FC02F0F8F9FFF712FFFFF7DEF8C3
:1022100000F0C8FEFEF7D7FAFFF766FF02F030F8CD
:10222000642001F01AFC12490220086000210820F5
:1022300002F02AFB01210B2002F026FB02210920DB
:1022400002F022FB02210D2002F01EFB02210020E1
:1022500002F01AFB0B2002F00BFB002002F008FB3F
:1022600010BD0000837A00008000004000040040A0
:10227000005001400346002010B4012189030246AA
:10228000401800B20446444364009C4201DD401AF9
:1022900000B2521C491092B20E2AF1D3411C09B26D
:1022A0000A464A4354001A1B00D5E21A0446444326
:1022B00064001B1B9A4200DA084610BC7047F8B550
:1022C000054604468034208B29460C31002702063F
:1022D0000091002A0DDA40060BD5084602F08CFC6E
:1022E000002806D0686803F0DDF8208BC2218843FF
:1022F0002083208B81071BD42E46400630360028D1
:102300000ADBE88D012802D00120B08513E000200F
:10231000B085208B402108E0009802F06DFC002879
:1023200009D00020B085208B02210843208302E0E1
:10233000000600D401273846F8BD0000F8B50F4666
:1023400005461349000144181646591C1148FDF76B
:10235000EDFE0146002020706780A680E08021818C
:102360000D49E0606A008B5A14212E460B4C4E43F7
:1023700031190B810A4B9A5A4A81A051E4204543F6
:1023800008480C224059825E50424860F8BD000067
:10239000DC100020FF7F00003C000020A81000207F
:1023A0003E000020180F002070B5064602F0CEFE59
:1023B000050014D0304601F0BDFC34468034208B3B
:1023C00040050CD53046FFF7C1FA3046FFF758FC00
:1023D000208B01218902884308210843208330464D
:1023E00002F078FC304601F027FB284670BD000063
:1023F00010B572B6FDF7E0FF00F06DFB0348816B8E
:1024000004221143816362B610BD000080140140B4
:10241000F1B582B00298542148433249002644184D
:102420000298882148432F495431451828200655E1
:102430002F182846443000901C213846FDF746FFEF
:10244000206A1C2100883881206A40887881206CAD
:10245000408900047860206C00890004386000988E
:10246000FDF734FF206A224A818800980181206AA2
:10247000C18800984181206CC088010400984160A7
:10248000206C808801040098016028464030468412
:1024900006846E61AE61EE614685134901856E82E8
:1024A0002E826E622E62EE81AE818684C684E670D4
:1024B000A06B616C808940084880616CC880616C49
:1024C0000881616C40420880616C8880616C488141
:1024D00002980649C0000E5040188280204600F045
:1024E00088F9FEBD14020020FF7F00001C000020C0
:1024F00082020000F8B5E4212B4A41438D182221C5
:102500002A4A41438C182A49000141180120A07031
:10251000E070A868007C2075A86880892080400051
:1025200006B2207D012821D028683146006BFEF7D5
:10253000B1FFE08229687043098E081AA968898969
:10254000081A2083E08A401CE08228683146456BE7
:102550002846FEF79FFF60837043281A00B2A083CD
:10256000002802DD608B401C6083F8BD08680821EC
:10257000415E408908182968096B4718314638467A
:10258000FEF788FFE082A9687043381A898900B293
:10259000814206DC401A081A2083E08A401CE0824F
:1025A000D3E740422083D0E7180F0020841000209A
:1025B0004810002010B502F06DFD10BD10B51F4C85
:1025C000002021462070543108701D490878607041
:1025D00088680A46807BA070B4320846A2619C30AD
:1025E000E0605030606124382061BC38E0614868A8
:1025F0006062144820632046921D4264014682694D
:10260000C03182640162416A30318163416AC163D1
:1026100044310164C168416300F0EBF80A48E064AA
:10262000002000F0DDFE0948206505480A21806889
:10263000415E002002F0E8FE10BD00001402002000
:10264000C400002079390000985900006859000042
:10265000F8B5054604468034208B29460C31002706
:1026600082060091002A0FDAC0060DD5084602F056
:10267000C3FA002808D0686803F038F8208B3021AE
:102680008843400840002083208BC10704D0800687
:1026900000D401273846F8BD2E46C0063036002843
:1026A0000ADBE88D022802D00220B085F2E7002084
:1026B000B085208B102108E0009802F09DFA0028D8
:1026C000E8D00020B085208B012108432083E1E77A
:1026D000F0B4E421204A41438E18314680360C3153
:1026E000B446B36BF26B0E4680361C4FB56A7C4223
:1026F0005F601C605760146000249C6194619C8240
:1027000094822F881F816F885F81AB881381EB884B
:1027100053818C61CC61F2680D4652688A65F2681B
:10272000603553681360CC640C650C638C866C71E7
:102730000C672C721C210A4AAC714143EC718A1857
:102740006646B263074A8918F1630C21484306497B
:1027500040187064F0BC7047180F00200000018022
:1027600004100020201000203C100020FEB506467A
:102770000020344680340190208B31460C31820594
:102780000091002A0EDAC0050CD5084602F034FA92
:10279000002807D0706803F029F8208BC121890038
:1027A00088432083208B3546410700273035002998
:1027B00017DBC0050AD4F08D032802D00320A885BA
:1027C00015E0AF85FF21208B013107E0009802F072
:1027D00013FA00280BD0AF85208B042108432083F7
:1027E00005E0AF85208B800501D401200190019880
:1027F000FEBD10B5044602F063F9A16C088002F03A
:1028000067F9A16C488010BD10B502F04DFC10BDF9
:102810000189002903D18030C08AC00401D501207C
:102820007047002070478030C08AC10703D0C00BBA
:1028300001D00120704700207047000010B5074C00
:1028400021468031C88B002801D0401EC883204615
:10285000FEF79EFF204602F056FA10BD000300204E
:10286000094942890A8082898A80C2880A8102894C
:102870008A81028A0A82C2898A82034902882031B7
:102880000A80408888807047001C0140F8B50546E2
:102890000121082001F0B6F8894988484863EA78A0
:1028A000A878920010432A796B79D2001B021A4350
:1028B0001043AA79120310430862814B2888403BD9
:1028C00018637F482A8A203802806A8A8280AA8A0E
:1028D0000281EA8A828128462030447A027A6400A2
:1028E0002243447E067EA400F60034432243447C07
:1028F00024012243047C640122432C464034267880
:10290000B60132432E89F6013243867A36023243CB
:10291000C67A76023243C67EB6023243867EF6021D
:102920003243C67C36033243867C76033243667874
:10293000B60332436E89F60332430A61467B027B5B
:1029400076003243467F077FB600FF003E433243A6
:10295000467D36013243067D76013243A678B601C4
:102960003243AE89F6013243867B36023243C67B60
:1029700076023243C67FB6023243867FF602324386
:10298000C67D807D3603324340030243E0788003F6
:102990000243E889C00302434A6128466030467A10
:1029A000027A76003243867AC77AB600FF003E4349
:1029B0003243CA60E67AA27A76003243267B677B8E
:1029C000B600FF003E433243267A36013243667A30
:1029D00076013243A67BF6013243E67B3602324370
:1029E000267C76023243667CB6023243A67CF6022F
:1029F0003243E67C36033243267D76033243667DDE
:102A0000B6033243A67DF60332434A6266792279E1
:102A100036013243A679E7797601BF013E4332435E
:102A20008A61274A2E8B403216606E8B5660AE8BC1
:102A30009660EE8BD6602E8C16616E8C5661AE8CD5
:102A40009661ED8CD5611F4D4D60267EE27D76004E
:102A50003243667EA77EB600FF003E433243E67EE9
:102A600036013243267F76013243667FB601324318
:102A7000A67FE47FF60132432402224304786402F5
:102A800022434478A40222438478E4022243C47897
:102A9000240322430479640322434479A403224398
:102AA0009A638279C0791201400102430A605D6332
:102AB0000020586304484863F8BD0000ADDE000004
:102AC000401C0140FFFF0000FECA000010B56C2151
:102AD000FDF7FCFB10BD70B59CB0002001F090FF2D
:102AE000064602F099F80546304601F0C7FF044655
:102AF000B0798607B60F6846FFF7E8FF6B469E7011
:102B00000122DA701A7100211981598199810C20F2
:102B10005871987128201D80401B18826D1E5D829F
:102B20001C835C839C83DC831C845C8408AB1A72EA
:102B300059729A72D9721A73597310AB197059700D
:102B40009970D9731A7459749A74D9741A759A73DE
:102B50005A719971D97518AB997110AB1A729A7232
:102B6000197318ABD97110AB5972DA725973684680
:102B7000FFF78CFE02F0D6FB1CB070BD70B50446AA
:102B800005784069818D206902290ED001291FD066
:102B900003292BD0042934D0424A914239D1428CA6
:102BA0004B1C9A4235D0428474E0428C022A70D089
:102BB0002846FFF78BF92846FEF796F8284602F0DC
:102BC00041F8010002D0284602F0F2FB02205DE04D
:102BD000428C012A5DD02846FFF71AFC2846FFF7F1
:102BE00077FD284600F064F901204FE0428C032A6B
:102BF0004FD02846FFF70CFC2846FFF769FD03205D
:102C000044E0428C042A44D02846FFF773FC042099
:102C10003CE0052908D006290FD0072916D008293D
:102C20001DD0092923D034E0428C052A31D0206DF3
:102C3000C16901208847052028E0428C062A28D057
:102C4000206DC1690220884706201FE0428C072AB8
:102C50001FD0206DC16903208847072016E0428CF1
:102C6000082A16D0206D006A804708200EE0428CAA
:102C7000092A0ED0206D806A8047216DE068496A7C
:102C80008847E0680078002804D109202169488439
:102C900000E041846069808D002801D12169488469
:102CA00070BD00000108000010B5154C2046FFF76C
:102CB00065FF204640691349C288CA8182888A819B
:102CC00080684862204620302269417A9170017AFA
:102CD000206920300170204602F0BCFC002000F08A
:102CE000A1F9204602F02EFD60698078012806D007
:102CF000044A0020583211461C3902F0E9FD10BD8B
:102D00001402002068020020F8B5064601F002FF18
:102D10004468A0687834816E2046FDF74DFC09496F
:102D2000B5004851074FFF212D313F1D002E204691
:102D300003D0FDF747FC7851F8BDFDF743FC386040
:102D4000F8BD00002400002070B501460346803025
:102D5000C28B012430317833A402002A14D0521ED1
:102D60001204120C0546C2830ED0C28AA243EA8224
:102D7000022008730020C880888088608870012144
:102D8000184602F04DFB70BDC28A2243C282EFE7B3
:102D900070B50446064605463034783601F0DCF856
:102DA000284601F097FFE91DF93148880988E0803D
:102DB000A1808035286C01214068A060012020732B
:102DC0000620A070304602F02BFB70BDF8B5064619
:102DD0008036F18A044649080746490005463034E2
:102DE0007837F182FEF76CFEF08AC00B01D001202B
:102DF00000E002202073B08C60850520E081002077
:102E0000A0700121384602F0DBFAA87B012804D02B
:102E10000021384602F004FBF8BD0121F9E770B546
:102E20000446064605463034783600F072FE80359A
:102E3000E96B00204877A98C618501212173A08569
:102E40000720A070304602F0EBFA70BDF8B50446DA
:102E50008034E16B054606460127303578364F77DA
:102E600002F089F8E08AB9028843E0822F73206C6F
:102E700001214068A8600620A870304602F0D0FA10
:102E8000F8BD70B50546064604463035783600F084
:102E9000FBFE8034E08A012189028843E082012020
:102EA0002873A8700146304602F0BAFA70BD0000DF
:102EB0002C21114A41438918E42250430F4A8218B9
:102EC0000020086048608860C860086148618861C7
:102ED000C8610862486288625068428B0848026292
:102EE0007D22D2004262806A088403200885052082
:102EF000C88408208884704758100020180F0020CC
:102F0000005001402C21254A41438918E4225043B6
:102F1000234A30B48018034680339A6940301468DD
:102F20005A6B008892698882030408698D8C1B1A89
:102F30002B411818086122232025CB5E4D5F001419
:102F4000AB4206DA5B1C4B8488690019886130BC8F
:102F5000704700234B84CD698C69641B0D8D2C4117
:102F6000CD696419CC618B61CB69002B00DA4042DA
:102F70005043C013C217030C12041A4303044860E1
:102F8000C868C4171B1AA241D4065A092243101854
:102F9000C8600014886030BC7047000058100020E2
:102FA000180F002010B5002001F02AFD447C0121FB
:102FB000042000F015FD0121082000F011FD012181
:102FC000102000F00DFD0121202000F009FD08492E
:102FD00006480863A000204322011043A2011043C9
:102FE000CA0510620020086310BD0000837A00004B
:102FF000800000400849074A4A630128486A05D012
:10300000064A104048620648486370474022104311
:10301000F8E70000ADDE0000401C0140BFFF0000EB
:10302000FECA0000E421F0B4484325494018054693
:103030008C35876EEA680C30002F00DA7F4201463B
:1030400060318B79002B06D001230B721468546019
:1030500000242C604B715368002B01DB1C4600E000
:103060005C42466FA64204DC002B00DA76422E60FA
:1030700000E02B60C36FA34201DC012300E00023CA
:103080000B728B79002B18D14B795268002BC36DD2
:1030900009D0534305D4426FA24202DA806FB8428E
:1030A0000BDB002008E0534307D4426FA24204DC4C
:1030B000806FB84201DC01204871F0BC704700000D
:1030C000180F00208C46F0B5E4214143E423674A01
:1030D0005843664B8918C5182E46E0220C46525CB0
:1030E0000C360C344C3580360F6887B0002A66D019
:1030F0008031886B0190C86B009038200222205EDE
:10310000AA5E831A2269A07D534306900341E16CB5
:10311000A06805904143C813C1183E23E35EE06DEB
:1031200004904343E068DB1303905843637D0293AC
:103130001841401886463A200423205EEB5E614623
:10314000C31A53430698226D0341059849884243A8
:10315000D013C2183C23E35E049843430398DB1367
:103160005843029BA187614609881841E187101ADC
:10317000206570463C21E064615E411A0198C1609F
:103180000198FEF705F968803E21615E206D411AC5
:103190000098C1600098FEF7FBF8A880F168096804
:1031A000002906DB0222AA5E5142FDF7ADFEE8854A
:1031B00005E00221695E4042FDF7A6FEE885206F2A
:1031C000E98D8212891ABA8B09B24A4380182067A6
:1031D000B16A8012498900B2E26941435118E16144
:1031E000A26909125118A161217FE161B16A0989BF
:1031F00041430813A1698913411820466030827940
:10320000002A11D14279002A03D1A2612267114616
:10321000E261C279002A07D03368A2699B03D21AFF
:10322000A2610022E261C27130684018E065E18C61
:103230004843616D40186065B1684860B88B0121F2
:10324000E26D8902091A4243A06D89B24843101801
:103250008012A065F1680860688D2087A88D60875E
:10326000608D6885A08DA88507B0F0BD180F00207F
:1032700070B50D460C49000144182078002811D182
:103280000A48002B205E06DA4042C117FCF7F5FF22
:103290006960286004E0C117FCF7EFFF69602860EF
:1032A0000120207070BD0000DC1000200400000030
:1032B00010B50D4A0B49936ACA14012B0B460B68D3
:1032C0000DD013430B6059231B064B604860C86840
:1032D00095231B064B600B6893430B6010BD934313
:1032E000F0E700000004004080000040002200E001
:1032F00004C00B46491EC9B2002BF9D1704700002B
:1033000000B51D481B4901631C49C1621A480821C8
:103310006038FFF7EBFF0C211948FFF7E7FF18486B
:1033200002213830FFF7E2FF154806216030FFF731
:10333000DDFF12211348FFF7D9FF0C211248FFF7D8
:10334000D5FF11480C214030FFF7D0FF0E480C216B
:103350008030FFF7CBFF0C480C21C030FFF7C6FFD1
:1033600006210A48FFF7C2FF05210948FFF7BEFF03
:1033700000BD0000837A000080000040FF0F0000C5
:103380005014014000300140002001400021014064
:10339000000C0140E4225043014A8018416070470C
:1033A000180F0020E4235843024BC018803082627B
:1033B00041627047180F0020E4225043024A8018EF
:1033C0008030416170470000180F0020E42358430B
:1033D000024BC01880300262C1617047180F002094
:1033E00070B5064688202F49704345185420704315
:1033F000543944183046216C00F07EF829461431C7
:103400003046FFF7D9FF29462031304600F07CF8DE
:103410002A460832A91C304600F080F82A461032AD
:10342000111F3046FFF7D2FF2A4629464432283181
:103430003046FFF7B7FF29466031304600F082F88A
:103440003046E16900F074F83046216A00F02CF84B
:103450003046A16B00F09AF83046E16BFFF79AFF17
:1034600021462C310D46304600F07EF82946304684
:1034700000F072F83046A26C616C00F07FF83046C4
:1034800001F03EFB0146304600F022F83046A269CA
:10349000E16800F013F830462269616900F022F813
:1034A00070BD000068020020E4225043024A8018E8
:1034B0008030416370470000180F0020E423584318
:1034C000024BC0188030C26501657047180F00209C
:1034D000E4225043024A80188030C16470470000E3
:1034E000180F0020E4235843024BC0188030426577
:1034F00081657047180F0020E4225043014A1150A3
:1035000070470000180F0020E4225043024A801840
:103510008030816170470000180F0020E423584379
:10352000024BC0188030C26201617047180F002042
:10353000E4225043024A8018803001647047000042
:10354000180F0020E4225043024A801880300163A3
:1035500070470000180F0020024A00018018C16067
:103560007047000048100020E4225043024A8018AF
:103570008030816470470000180F0020030102486A
:10358000181842608160704748100020E422044B04
:103590004243D2189160034A000111507047000065
:1035A000180F002048100020F8B5044613481D46A7
:1035B000007816460F46002801D101F089F80F481F
:1035C000032C17D2EFF31081012282F31088182206
:1035D000624310181830002C05D0076046608560E3
:1035E00000220261C260069A4261C8B280F310886C
:1035F0000020F8BD0020C043F8BD0000E00D002011
:10360000F8B507460A48154600780E46002801D14D
:1036100001F05EF8EFF31084012080F310882A4651
:103620003146384600F006F8E1B281F31088F8BD63
:10363000E00D002070B50E4618214843134914468A
:103640004518E86A1835002804D001280FD0022850
:1036500005D113E0284601F06FF8A04201D2002402
:1036600011E022463146284601F0A5F80BE0284635
:1036700001F062F8A042F4D20446F2E7314628464F
:1036800001F069F80446204670BD0000E00D0020FE
:10369000F0B5B14A000182184D88D4686D422DB250
:1036A000136890684D8000268E5FAC494D43B1038E
:1036B00069184942CD176D0C6918C9130FB2F11979
:1036C0004942BC460DB266450FDCAE420ADCB64646
:1036D000AC4503DC012767702F4617E002276770AF
:1036E000674613E0AE4603210FE0AC450ADCE64630
:1036F000AE4203DC042767702F4607E0052767709A
:10370000374603E0AE463746062161707146C91957
:10371000CF0F79184910761A67467F1A691A09B2CD
:103720008E46012136B289039D8971184D43E913F4
:1037300015683FB2AD898D4201DA294602E00029C1
:1037400000DA002189B241808C4639460127BF0347
:103750009D89C9194D43E9131568AD898D4201DA78
:10376000294602E0002900DA00218EB2C6807146A7
:103770009D89C9194D43E9131568AD898D4201DA58
:10378000294602E0002900DA0021018165466D42E8
:103790000580754285804942418166787049714D46
:1037A000072E2BD237007F443F79FF19BF442603F1
:1037B000274B6C8DB100616001891D88A94203D23D
:1037C0009988536819800CE0C5885E884D1B2DB21E
:1037D000AE4204DADB88591A5368198001E0624965
:1037E000616053680021197111680A238989C35ED9
:1037F0004A42934202DC0122511A4181F0BD6560C8
:10380000C1881D88A94203D29988536819800CE0A9
:1038100005895E884D1B2DB2AE4204DADB88591A49
:103820005368198001E051496160536802211971A0
:10383000116804238989C35E4A429342DEDC012277
:10384000511A8180F0BD6560C1881D88A94203D2EC
:103850009988536819800CE045885E884D1B2DB20D
:10386000AE4204DADB88591A5368198001E03F49F7
:103870006160536802211971116804238989C35E4C
:103880004A429342DBDDF0BD616001891D88A94297
:1038900003D29988536819800CE045885E884D1BD7
:1038A0002DB2AE4204DADB88591A5368198001E060
:1038B0002D49616053680021197111680A238989B3
:1038C000C35E4A42934296DDF0BD2949616041885A
:1038D0001D88A94203D29988536819800CE0058994
:1038E0005E884D1B2DB2AE4204DADB88591A53684C
:1038F000198001E01F496160516801230B71116853
:1039000000248989045F4A429442DDDC591A01800F
:10391000F0BD1749616041881D88A94203D299888A
:10392000536819800CE0C5885E884D1B2DB2AE42ED
:1039300004DADB88591A5368198001E00D49616087
:10394000516801230B71116800248989045F4A4280
:103950009442DBDDF0BD000048100020DA6E00006C
:103960007939000099390000D9390000DB390000AD
:10397000B9390000DD3900008168CA884B88D21A45
:103980000A8281680A898B88D21A4A828068018AF1
:1039900089184942818270478168CA884B88D21A47
:1039A0000A8281684A898B88D21A8A828068018A51
:1039B000891849424182704781680A894B88D21A26
:1039C0004A8281684A898B88D21A8A828068418AB1
:1039D000891849420182704770477047704700005C
:1039E000074B064A1A63DA050029516B01D00143DF
:1039F00000E081435163002018637047837A000020
:103A000080000040074A064B13630029D16901D0AA
:103A1000014300E08143D161002010637047000042
:103A2000837A0000800000404180C18001814942CA
:103A30000180818041817047014630318030C28AE7
:103A4000D20B01D0012200E002220A73808C48854B
:103A50000520C88100208870704708B500210091BA
:103A6000814202D200BF491CF9E708BDF0B50168E8
:103A70000446C81785B08A0A800510438B05029357
:103A8000039060680023C117820A890511438005ED
:103A900001910090E0682289C71705463946FCF776
:103AA000AFFBC20C49031143420320696669121837
:103AB00004907141A261E161029B03989B1A8841C5
:103AC00006DA03990298E161A061002D0ADB18E093
:103AD0000098019B101A994104DA0098E361A061F3
:103AE000002D0EDD2846628900233946FCF788FB4D
:103AF000020E09021143049A000210184E41666139
:103B00002061217FA0698902800D084300B205B0C1
:103B1000F0BD70B5044624228034825EA56C104648
:103B2000616CFCF79DFD606C0122807A002192029D
:103B300000281BD016201823285EEB5E984204DA7A
:103B4000401CE882606C817270BD1220285E0028E3
:103B500002DD401E688270BD206C4160206C0160F7
:103B6000606C8172E982E08A104302E0E982E08AB7
:103B70009043E08270BD0000F8B5044606468034EC
:103B8000A06C4088002802D1E16B02204871E06BF4
:103B900035460279052100273035002A09D0A26C6C
:103BA000D05F00280ED00221515E88420CD1062041
:103BB0000EE001220271E26B3248D080A06C0780D7
:103BC000A98519E0A98504E04900884203D10720AE
:103BD000A88501202873A16C02228A5E0020085E5D
:103BE0005300D218904203DA401C0880012004E000
:103BF000904204D1401C0880022028730EE0E06B44
:103C00004179002902D0012911D007E0AF850220B7
:103C10002873E06BC780F08D002804D0E06B4079FA
:103C2000022809D019E00820A885012027E0F18D9D
:103C3000002926D102214171F08D00280BD1304698
:103C400000F078F8304601F0C2FBE16B03204871C8
:103C5000E16B0220087102202873E06B4079032891
:103C60000FD102202873304601F05AFA002808D0FC
:103C7000E06B0771A06C0780E06BC7800420E16BEC
:103C80004871F8BDCC040000FEB5064640683446D5
:103C9000014678310191806880340090A06C0C223C
:103CA00041893546491C09B24181A06CA035825E2C
:103CB000002391422DDB002141817068316954302D
:103CC000FDF769FA616CF71D0860A17D0223890781
:103CD000C90FF937002911D028D0E16B8A68524208
:103CE000904220DA00988030816B0198FCF75EFCEE
:103CF00000B23880A17D890712D40CE0E16BCA685C
:103D00005242904212DB89688842EBDAA06C818AC9
:103D10004182EB76FEBD304601F02DF9012006E030
:103D200040423880F7E7C9688842EFDB0020E87638
:103D3000FEBD0000F1B584B00498049C4068803456
:103D400001467831009181680191E08A01214902A0
:103D50008843E08204980025FF300130858005808B
:103D6000C58045808560C5600199086EE16B08607B
:103D7000E06B4577E06B0583019FE16BFF3701370F
:103D8000F86A8860E16B386BC860796B0098FCF763
:103D90000DFC616CC880B96B0098FCF707FC616C86
:103DA0000881606C02210560606C8580E08A884330
:103DB000E082E06B0571E06B4571019E8036F06C2E
:103DC00001B20520C0020A31FCF7B0F9E16B0882AC
:103DD000306D01B20520C0020A31FCF7A7F9E16B92
:103DE0004882396E0098FCF7E1FB5A4900F001FD6A
:103DF0000906000A0843E16C8860796E0098FCF7B8
:103E0000D5FB544900F0F5FC0906000A0843E16CB3
:103E1000C860206C4560206C0560316F0098FCF72D
:103E2000CBFB7D210004C900FCF780F9216C0865FB
:103E3000716F0098FCF7C0FB7D210004C900FCF7FE
:103E400075F9216C4865206C183001F066FAE06C59
:103E500001F063FA716A0520C0020A31FCF766F9C5
:103E6000216C002288820498B0231A50803042636B
:103E70005D2020870199C0310291888C216C0887D0
:103E80000299C88C216C4887206C00210164416430
:103E9000B16E0098FCF78AFB216C0863F16E009804
:103EA000FCF784FB216C4863206CC563206C0561C2
:103EB000206C8560206CC560206C8565206CC565B4
:103EC000206C403085840299206C098B4030C1847D
:103ED0000299088CE16B488371680098FCF766FBD7
:103EE00000B20290B1680098FCF760FB0199049A57
:103EF0004031C98F16780BB202B230460299FEF7F4
:103F00001DFAA06C05800199888CA16C4880A06C7A
:103F100085800199A26CFF314131088BD080088BDC
:103F2000498B4018A16C0881A06C4581A16C388D2B
:103F30008881A06C4582A16CF88F8882A06CC582B4
:103F4000A16CB88F088304980078FEF7DDFE05B0F9
:103F5000F0BD000089410000F8B5044607468034F2
:103F60004268E06B256C018B1A23491C09B201835E
:103F7000E06BFE1DC35EF9367832994239DB0021D1
:103F800001831046796EFCF717FB2860216C0868E6
:103F9000002800DA40420860A17D890702D5216C23
:103FA000404208603846FEF7DDF8A86A6860294696
:103FB0003878162240312B68FFF75AF9E06B407FC2
:103FC000012805D1002028646864E16B022048774D
:103FD000387800F057FE002802D0E16B03204877C4
:103FE000AA6869682846891A3030E963FFF73EFD00
:103FF000B080387800F020FDF080B168E36B8A1261
:10400000801A10229A5E42438818B0608012708035
:104010000421F068715E8212891AE36B12229A5EA3
:104020004A438018F06080123080F8BDF8B505462C
:104030007830009068688768284601F087F82C4639
:104040008034064600281BD02846FFF773FE208BDD
:10405000400528460AD5FDF779FC2846FDF710FEF5
:10406000208B012189028843208301E0FDF776FC43
:10407000208B082108432083E08A09020843E0825C
:10408000284600F027FE2846FFF7D6FC787F30351B
:10409000012800D002202873E08AC00B03D0012140
:1040A000009801F0BDF93046F8BD704700B5FFF744
:1040B00027F9FDF735F800BDF0B51E4D1D4E1D4F1B
:1040C0001C4A1024A03D2023803EC03F002918D068
:1040D000B84202D1106B204303E0A84203D1106B19
:1040E00018431063F0BDB04203D1116B402001436F
:1040F00016E0104960398842F4D1106B80210843E2
:10410000EFE7B84202D1106BA043EAE7A84202D120
:10411000106B9843E5E7B04204D1116B4020814316
:104120001163F0BD034960398842FAD1106B8021D8
:104130008843D6E7C0180140F8B50C460546012172
:104140000420FFF75FFC2168606889000843A168CC
:104150002269C900120111430843E168890108433B
:104160006169C9010843E16A090208432860A0693E
:104170006860E069E860206A28612848416BA08C8B
:10418000264F0207208D254B0007FF26120F000F38
:10419000C03F403B3602BD4209D1CD08216BED0046
:1041A0001C6A294334401443000120430FE01B4F95
:1041B000A03FBD420DD10D46216B3826B543C90045
:1041C0001C6A29431202E4B222430003104318621E
:1041D00021E0124F803FBD420CD10D46FF27C13771
:1041E000216BBD4389015C6A2943344014430001BB
:1041F00020430FE0094E603EB5420CD107256D0209
:10420000246BA943640221435C6A1202E4B2224394
:1042100000031043586201484163F8BDC0180140D3
:10422000002141600160816001617D22C160D20096
:10423000826141615210C26141628162C162026267
:104240000163704770B50D4D0024E878022806D34D
:10425000EC70FEF729FD00F02FF8FEF7EFFAA888C2
:10426000142800D3AC80E8887D21C900884200D39F
:10427000EC80A878002800D0AC7070BDF00200205F
:1042800010B50B4909480863C805416B4214114336
:1042900041637320C000FFF70BF8064C2080E72035
:1042A0008000FFF705F8608010BD0000837A0000F1
:1042B000800000400000002010B5064C204601F0B0
:1042C0005DF9204600F0CEF800F03CFB00F044FB26
:1042D00010BD00008805002010B5044600F00CFC5D
:1042E000E0720020A072204601F0E6FA10BD70478F
:1042F0000648C169C906C16901D5102203E08906D3
:1043000003D5C16920221143C1617047002C0140CF
:10431000FEB5054629480C46854202D101211020F0
:1043200004E02748854203D101212020FFF76AFBE2
:1043300000263346234831462268FBF73BFF012223
:10434000002300910190FBF735FF1F4F06E0B21CE0
:104350000023761C00990198FBF72CFFB842F6D891
:104360001A498E61401EC1B2A9600004000E686047
:10437000E079012802D002281DD0002000216379B5
:1043800022795B001A43A379C9009B000B431A43AF
:1043900000010243207A40010243607A8001024317
:1043A0002A60A07B617B4000084328626089286105
:1043B000207BA861FEBD01200146E0E70028014006
:1043C000002C014000D8B805FFFF0000800000402D
:1043D0004B21C90101600021017141718171C171DD
:1043E0000172417241810173417381737047000012
:1043F0001FB56846FFF7ECFFE12040020090002067
:1044000001900220694608730148FFF781FF1FBD34
:104410000028014010B502468032D38A074C23435E
:10442000A410A3436400D382002901D0234300E0F9
:10443000A343D3826030C078907610BD0180000025
:1044400010B504462030407F800701D5832000E06E
:104450008120A072204601F02FFA204600F04EFB8A
:10446000208310BDF8B50546044640680127FF309B
:104470000130818E20343943818669681C22FF31E6
:1044800020463531FBF709FF68680026FF30013010
:10449000818EB9438186A269002A05D120888107CF
:1044A00002D4617F490702D50321217703E040064A
:1044B000C00F00D12677207F002817D0012819D0FF
:1044C00002282FD0032852D0267768682946FF306B
:1044D0000130878368681822FF3008311D30FBF7F0
:1044E000DCFE6868FF3001308683F8BD2078400626
:1044F000C00F34E0607FC1060CD5C007C00F09D0E3
:104500002846FFF79DFF20784007C00FDDD002202E
:104510002077DAE7AE72284601F0CEF9284600F09F
:104520006DFA4DE000F0E2F9002805D0607F20210F
:104530000843410849006177607FC10603D5C00781
:10454000C017401C0FD0284600F0D6FAE872AE72B1
:10455000284601F0B1F920888108384688430028B0
:10456000B3D02777B1E72846FFF76AFFADE7617F51
:10457000480701D4002A03D02846FFF7ADFEA4E780
:1045800022889007C30F28464030002B1CD0930888
:104590003A469A4316D0027C012A01D0090794D5E5
:1045A000418A491C89B24182828A91428DD34282DA
:1045B0002020A872284601F07FF9284600F09CFAD6
:1045C000E87282E7468280E74682CAE70748816B45
:1045D0000122114381630648C178491CC17081885A
:1045E000491C8180C188491CC1807047C0180140A6
:1045F000F002002070477047F0B51C4F8DB00121CC
:104600003846FFF759FD194801216030FFF754FD86
:104610006846FFF705FE0024154E029470100790BF
:10462000FF20009401940394F530049406960594B9
:104630000125089009940A9469460C950B94384614
:10464000FFF77AFD6846FFF7EBFD032001900B9022
:104650000C900F2105480095099106960A94694629
:104660006030FFF769FD0DB0F0BD0000001801409B
:1046700080BB000070B5466804468034B568606E43
:1046800000210180606EFF3541800135783630466B
:10469000296FFBF797FF616D48803046A96FFBF7E4
:1046A00091FF616D888070BD10B5044640688168D7
:1046B0007830FF310131C96FFBF784FF1421615E4F
:1046C00000B2814201DB012010BD002010BD0000BE
:1046D00010B5114C03202061606110A0A06120463C
:1046E000A830E061802020620021A1626162E16265
:1046F0000AA020660C4860661020A0662167E1666B
:1047000061670AA1E01DFBF7ECFD09A12046FBF75C
:10471000E8FD2020A07110BDE00D00205465726DF1
:10472000696E616C00000000080F002052545400B4
:1047300053454747455200008268002A06D0016968
:10474000C068814204D8101A401802E00020704767
:10475000081A401E7047F7B5054682B00020009049
:10476000EC6817462869A04201D9061B02E0A96837
:10477000201A0E1AA868761E001BB04200D8064602
:10478000BE4200D33E466868324600190399FBF7E3
:1047900084FD0098BF1B801900900398A41980190C
:1047A0000390A868A04200D10024EC60002FD9D16A
:1047B000009805B0F0BDF7B50446C7688068E168A9
:1047C000C51B606816464018B54205D90199FBF72C
:1047D00064FDB819E060FEBD2A460199FBF75DFD56
:1047E0000199761B606849193246FBF756FDE66071
:1047F000FEBDF0B404148BB2264682B25E430D14A3
:104800001046371458433604801900217941164662
:104810006E43371436048019794126466E43891950
:10482000F0BC7047F0B4040C8BB2264682B25E43F3
:104830000D0C1046370C584336048019002179417D
:1048400016466E43370C36048019794126466E436E
:104850008919F0BC704730B47446641E2578641C16
:10486000AB4200D21D46635D5B00E31830BC1847C5
:10487000002805DBC106C90E0120884001490860F7
:104880007047000000E100E08307FF22DB0E9A4042
:104890008907090E9940002808DB830809489B0016
:1048A0001818036893430B43036070470007000F19
:1048B0000838830804489B001818C36993430B43C6
:1048C000C361704700E400E000ED00E002E008C8CA
:1048D000121F08C1002AFAD170477047002001E07A
:1048E00001C1121F002AFBD1704700000348007865
:1048F000022801D0002070470120704716000020D8
:1049000010B5FCF75AFC112802DA2021081A10BD54
:104910000F2010BD0A48017880290ED141780A295C
:104920000BD18178042908D1C178012905D1817979
:10493000012902D1C079012800D000207047000071
:1049400000FE00000348007F022801D000207047CD
:1049500001207047A8050020F0B5254A254C1146D6
:104960004E881778711C8DB2234900230978002FD7
:1049700004D0012F12D0022F37D124E0432902D0D6
:10498000542904D008E044200EE05380F0BD002EEE
:1049900002D001201070F8E72370F6E7542902D006
:1049A000592906D021E0532020705580642DECD287
:1049B000F0BD002E19D0002802D17D20800150804A
:1049C00002201070F0BD592902D013702370F0BD81
:1049D000002802D05380642005E07D2080015580AE
:1049E0008542F4D365202070F0BD13705380EDE74D
:1049F0001600002001100020001000200020704749
:104A0000002801D0002070470148806870470000EE
:104A1000C4000020002801D00020704700487047E3
:104A2000C4000020E4214843024940186030007D62
:104A300070470000180F002010B50E4A01018C18B5
:104A4000E4210D4A414389186031497C002902D094
:104A5000FBF7BEFD00E06088E08001B2E068C213B1
:104A6000891A0822A25E51430818E060C01300B200
:104A700010BD0000DC100020180F002010B501460A
:104A800002228A5E80897D215043C900FBF74EFBDC
:104A900080B210BDE421484303494018803040698A
:104AA0004068000C70470000180F0020E4214843C4
:104AB00002494018806E00B270470000180F0020B5
:104AC0000248006B6421081A00B27047001C0140C4
:104AD0000348006B19214901081A00B27047000011
:104AE000001C01408821484302494018008C00B254
:104AF000704700006802002000207047C8207047FF
:104B00002C214843014940187047000068590000B3
:104B100001207047002801D00020704700487047EE
:104B20000003002070B5064600F03CF8044630460D
:104B300000F038F825464543304600F053F8044667
:104B4000304600F04FF844432819FDF793FB044921
:104B5000484304498013884200DD084600B270BD16
:104B6000825A0000FF7F0000882148430A4910B59F
:104B7000401808210A22415E825E49435243881848
:104B8000FDF778FB0549484305498013884200DD5D
:104B9000084600B210BD000068020020825A0000E2
:104BA000FF7F0000E4214843024941187620085E57
:104BB00070470000180F0020E421484308493622BE
:104BC0004018A02109580223825ECB5E5A43382345
:104BD000C35E0020085E43439818C01300B27047BC
:104BE000180F0020E4214843024941187820085E4C
:104BF00070470000180F0020408C002801D00020D2
:104C000070470120704700002C214843014940189B
:104C1000806870475810002010B58279818892070B
:104C2000920F91400222825E4C0005491046FFF728
:104C3000E0FD2246E317FBF7BDFA80B210BD00008D
:104C400040420F00FF215131484303494018816819
:104C50009E20085E70470000C40000208821484361
:104C6000024941180220085E7047000068020020D7
:104C700088214843024941180420085E704700001B
:104C800068020020E4214843024940186030407C1B
:104C900070470000180F0020E421484302494018E3
:104CA0008030406B80697047180F0020882148438E
:104CB000024941181220085E704700006802002077
:104CC00088214843024941181020085E70470000BF
:104CD0006802002010B50446406881687830896E0B
:104CE000FBF76AFC01468034206C8068002800DAFB
:104CF0004042012292028842E08A01DC104300E037
:104D00009043E08210BDFEB5054678301C2101902D
:104D1000FBF7DCFA302168180090FBF7D7FA6968D6
:104D20000120C03108816968284624220C30C8312E
:104D3000FBF7B3FA69680020C0310881FF20696879
:104D40001D30405A002806D12846FF311822603015
:104D50001D31FBF7A2FA284600F06AFA284600F057
:104D600011FA28892C46803400280AD0E08AC00431
:104D700005D5A07E002804D0E87A002801D1A97AC0
:104D8000A176287A8007208B04D50121C902084327
:104D9000208305E0010503D5012109030843208391
:104DA0002846FDF735FD0A21002806D0E08A400597
:104DB00001D5617701E009206077607F2E4620777A
:104DC0000427A0360300FFF746FD0B07B7B7B7155A
:104DD000253759697D87B7002846FDF7E5FA002891
:104DE00017D02846FFF760FC002812D0284600F0B4
:104DF000EEFA1FE02846FFF719F9002809D02846E7
:104E0000FDF711FD002801D0052089E0284600F0BB
:104E1000DEFA92E02846FCF76BF92846FDF703FD21
:104E2000002807D0E06B4079042804D10020B07638
:104E3000062075E0677780E0B07E002804D0022865
:104E40001ED0032824D116E0A07DC006C00F1DD0BF
:104E50002846FEF716F8F07E012802D0022802D07C
:104E600016E0032005E02420285E616CFBF71DFCA2
:104E70000220B0760CE02846FDF7E8FF082006E0A7
:104E80002846FDF7CCFFE08A400501D50720607772
:104E90002846FDF7C8FC0028A8D04EE02846FDF7BC
:104EA00077FF2846FDF7BFFC002802D0208BC00BFF
:104EB00043D0208CE0832420285E616CFBF7F5FB57
:104EC00009202DE02846FDF73FFFE08A40058DD4FC
:104ED0002846FDF7A8FC30E02846FDF777FF284676
:104EE000FFF7E2FB002828D02846FDF791FC0028B8
:104EF0000DD0208BC104C90F1FD00105C90F15D0DB
:104F0000E98D09290ED000980921818515E0E08AF4
:104F1000810412D5C10410D40005C00F00D065E78C
:104F200060770AE00121C902884320832846FCF704
:104F30000FF900210098E8E76177284600F050FB60
:104F400069680120C031888568683022EC3000999A
:104F5000FBF7A3F969680020C0318885FF216868E4
:104F60003531095AC90705D1FF301C223530019966
:104F7000FBF793F9FEBD8030016C0A698A60016C11
:104F80000A699202CA60016C8A684A60006C816892
:104F900081627047F8B50F4F0024FF20513026463C
:104FA0004643F51901462846FBF790F90948E10107
:104FB000803808186860FF20F530074960434018C2
:104FC000A8600648005D641C2406B855240EE4D091
:104FD000F8BD0000C400002008FE00009459000045
:104FE000F8B5FF21113148432949022246183446B9
:104FF0008034218B402391438022114319430423A1
:10500000994303231B0219434908490020231943EC
:105010001027394308239943D3001943E38A706862
:105020009343032285685203E3829143218300F076
:105030005DFB706800F036FA706800F0D7FB687DA1
:10504000002802D1A87C002802D0E08A384301E081
:10505000E08AB843E08240218843297DC907490E90
:105060000843FF21E08201318843A97DC907C90DAA
:105070000843E082687EE076012802D1E16BA87ED9
:105080000877E07E022802D1E16BE87E0877F8BD60
:105090000003002010B500F04FF9040002D00020FA
:1050A000FFF79EFF204610BD70B5154C58212046D5
:1050B000FBF70CF9002528462570FFF7ABFC606074
:1050C00020462030057761688968497FC17761682B
:1050D00089688A7F214640310A7462689268D28C5E
:1050E0008A8262689268527E0A706168FD228968CD
:1050F000C97F8177417F11404177012070BD000059
:1051000088050020FCF734F8002808D072B6FDF7B7
:1051100067F800F0A3F962B6FFF794F8FCE7FEE742
:1051200010B5024614468034217E0020C9070AD0FB
:105130001046FDF7C4F8002805D0208BC10703D026
:10514000800701D5012010BD002010BD10B5044618
:10515000FDF77EFA002812D02046FDF707FB002855
:105160000DD02046FDF7ABF8002808D08034208B06
:10517000C10705D0810703D5400701D5012010BD27
:10518000002010BDF8B5436804469E6800960546A9
:10519000024680340169206C0C320161206CC668C3
:1051A000B712C91B878A4F43F119C160206C89125D
:1051B00081601C211846515E5430FBF7F2FF2946EE
:1051C00080314F6B0E6BBA05B10A1143401A174973
:1051D000615EFFF70EFB30184F41B021485180351A
:1051E0006F63820A009EB9050A43FF3615460136F1
:1051F0002946706AFFF7FDFA2A46EB17FBF700F81D
:1052000064220023FAF7D6FF009107462946306A48
:10521000FFF7EFFA009AC019F3695141DA1718182D
:105220004A411105000B0843A062F8BD3800000098
:10523000F8B54168024660328D68012391781B03FE
:1052400004465E00803480291AD006DC00290FD085
:10525000202907D0402905D124E00127812916D033
:10526000832917D0E08A4004400C984330431EE065
:10527000E08A400840004004400CE082002004E046
:10528000E08A0121C903084311E0A07606E0E77631
:10529000002101E0E7760121FFF7BCF8E16BA87E71
:1052A0000877F8BDE08A4004400C1843B04340083A
:1052B0004000E082D078E8E7F0B504690168002595
:1052C0008C4226D082680026002A20D0A14204DB2E
:1052D00043689A180125426003E0C3684268D21A05
:1052E0004260002A01DB134600E05342002A02DB41
:1052F0001F14E41901E01F14E41B9BB20461002A8F
:1053000000DA5B424360002D04D08C4201DD466030
:105310000161F0BD8C42FADBF0BD0021016001614A
:1053200041607047024800690249088070470000E8
:10533000401C014014000020F8B51C4DFF2101273E
:10534000002628461131FAF7C1FF2C46803420464A
:1053500090302E70014626772031E1633031216490
:1053600068316164A0641831E164603121652C39D1
:1053700061652039E16518312166363161660A318F
:10538000A1660A31E1660A3121670A3161670A3193
:10539000FF306F30A167E0673046FFF73BFB686086
:1053A000002800D100273846F8BD00000003002087
:1053B000024A40018018818370470000BC10002021
:1053C000028802239A4349000A43028070478030D2
:1053D000018B80221143018370470000E422504377
:1053E000024A8018E030017070470000180F00205A
:1053F000E4235843034BC0188030436B1981406B42
:1054000042817047180F0020034A914200DB114689
:10541000024A4000115270475555000042000020DA
:10542000028808239A43C9000A430280704700009B
:10543000E4225043024A0021801860308174704792
:10544000180F0020E4225043034A012180186030E5
:105450008174C17470470000180F002008B5FDF773
:10546000ADF8FDF7A7F8FDF7CFF9FBF701FF074906
:1054700005488860002001230090DB02044A05A152
:105480000120FEF791F808BD9C590000F0020020B1
:10549000E00500204A53636F70655F6932693269C5
:1054A0003269320070B50446A1686568C0318988E8
:1054B00044352980A1687830C031C9886980A168E5
:1054C0008031898FA980A1688031C98FE980A16866
:1054D000C03109882981A168C03149886981A268E1
:1054E000C821515E0A225143FBF760F8A881A068E9
:1054F000A021006E2861A068406E6861A068C06E3F
:10550000A861A0680A5880887D215043C900FAF735
:105510000DFE01B20520C0020A31FAF707FEA8838A
:10552000A068FF218030008DE883A0684931803079
:10553000408D2884A06800228030808D6884A06817
:105540008030C08DA884A0688030008EE884A06878
:105550008030408E2885A068095A825E51432963B5
:10556000A068FF214B310022095A825E51436963D2
:10557000A068FF300130406C288770BD30B5164AF6
:1055800001235178002400290AD09188134D491C29
:1055900009B29180A94204DB117800290DD0147062
:1055A00094809168416414782030EF22417F002C70
:1055B00005D010242143194304E01370F0E7114093
:1055C000490849004177C9B28B0603D51140490803
:1055D0004900417730BD00002C000020102700005A
:1055E000F8B547680446064614210546415E54371F
:1055F00078340C363846FBF7DAFD60601A21715EAC
:105600003846FBF7D4FDE0601821715E3846FBF7A1
:10561000BCFDA06038467168FBF7BDFD206128899C
:10562000A0616220405DA0708035E88A0121800A77
:10563000814320880422904389000843E98A40225C
:105640000905C90F90438901084320218843084375
:105650002080F8BD70B5057804462846FFF742FA69
:1056600021694860E0682169C089088188201E4955
:105670006843401822694188518222698188918259
:105680002169C088C8822846FFF78CFA2169088200
:105690002846FFF7A7FA2169C8812846FFF764FA70
:1056A000216908832846FFF73DFA21694883284687
:1056B000FFF782FA216988832820005D012804D140
:1056C0002846FFF7A1FA21694860E068216900785F
:1056D000C8702846FFF7EAFA216988812846FFF753
:1056E000EFFA2169488170BD680200208268416834
:1056F000403212790A708268403252794A70826868
:10570000926C4A608268126D8A608268526DCA60CB
:105710008268926D0A618268D26D4A61826892885D
:105720004A838268126BCA618268526B0A6282681D
:10573000926B4A628268D26B8A628068006CC8622F
:1057400070470000FEB50546007888212C6C484360
:10575000244928222226A25EA65F4118921BE869EE
:105760000092A28CE38B4830D21A12B20192E28CE2
:10577000238C496AD21A17B2FBF70DFD1A49484328
:10578000C01300D54042B0420CDB801BC00300991F
:10579000FAF7CCFC01994143C9137843C01309B20D
:1057A00000B201E0002108461E23E35E2022A25E33
:1057B00059180EB2101801B22420205EB04200DB4E
:1057C0003046834200DD18462623E35E8B4200DA32
:1057D00019468A4200DD11468AB281B22878FFF765
:1057E00007FEFEBD68020020CC0C0000F8B507469D
:1057F000446880683034807B2074B868C07B6074F3
:10580000B868FFF709FAA081B868FFF737F9E081B7
:10581000B86803468189FF308130828A8E18428AB7
:10582000B24201DB114600E0314650180221595EB8
:10583000FEF7DFFF7D2212010023FAF7BBFC0546CD
:10584000A089FF21401B2080B8689331095A8A192A
:105850000221415E1046FEF7CCFF7D22D2000023DC
:10586000FAF7A8FC6080FF21B86893310A5A022138
:10587000415E1046FEF7BDFF7D22D2000023FAF7FD
:1058800099FC0646BA68FF2097300221805A515E83
:10589000FEF7AFFF7D22D2000023FAF78BFC618870
:1058A000891B0918E180A289A91B891A0818A08000
:1058B000002020816081F8BD416889688031896B52
:1058C0008164426CC260C26C026141617047000039
:1058D000F0B4234C43011B19E4246043214C1025F0
:1058E00000198030C469142764889C80C4692488A6
:1058F000DC80846964681C605D5F9E7C6543354123
:1059000004269E5FDF5F7E439F7D3E417443E61326
:10591000AC1906250C265D5F9E5F75439E7B354165
:105920002C19148004220C249A5E1C5F18256243F3
:105930009C7B5D5F224106241C5F6C439D7E2C4155
:105940001D686543EC13121B446C0220205E1C246E
:105950001C5F6043C01310180880F0BC7047000043
:10596000BC100020180F0020610500007D0500001C
:10597000710500005D050000C910000061280000ED
:10598000F9140000A5140000F1230000912000008C
:105990006111000000000000913600005665725F42
:1059A000312E300000000000290051007A00A300D1
:1059B000CC00F4001D0146016F019701C001E9010F
:1059C00011023A0262028B02B402DC0205032D03CB
:1059D00056037E03A703CF03F70320044804700493
:1059E0009904C104E9041105390561058905B1056A
:1059F000D9050106290651067806A006C806EF0655
:105A000017073E0766078D07B507DC0703082A0856
:105A1000510878089F08C608ED0814093B09610978
:105A20008809AE09D509FB09220A480A6E0A940AB8
:105A3000BA0AE00A060B2C0B510B770B9D0BC20B1D
:105A4000E70B0D0C320C570C7C0CA10CC60CEB0CAC
:105A5000100D340D590D7D0DA20DC60DEA0D0F0E62
:105A6000330E560E7A0E9E0EC20EE50E090F2C0F47
:105A7000500F730F960FB90FDC0FFF0F211044105A
:105A800067108910AB10CE10F0101211341156119E
:105A900077119911BB11DC11FD111F124012611217
:105AA0008212A312C312E4120513251345136613C1
:105AB0008613A613C613E6130514251444146414A0
:105AC0008314A214C114E014FF141E153D155B15B8
:105AD0007A159815B715D515F31511162F164C16FE
