:020000040000FA
:1000000008030020D9000000E7000000E90000001C
:1000100000000000000000000000000000000000E0
:10002000000000000000000000000000EB000000E5
:100030000000000000000000ED000000F9060000D4
:10004000090700001D0700001F070000210700002E
:10005000790100007B0100005D0500002D02000019
:1000600003070000F5040000A105000025010000C1
:10007000F10000008D0500000507000039010000B7
:10008000F100000099050000F1000000F1000000FF
:10009000F10000000000000000000000000000006F
:1000A0000000000000000000000000000000000050
:1000B0000000000000000000000000000000000040
:1000C0000448854600F01CF8004800478D080000F1
:1000D000C046C04608030020064880F3088806484A
:1000E000804706480047FEE7FEE7FEE7FEE7FEE73B
:1000F000FEE7000008030020FB060000C10000002E
:10010000064C0125064E05E0E36807CC2B430C3C6A
:1001100098471034B442F7D3FFF7D6FFCC0800005D
:10012000EC0800000348406B032108430149486381
:1001300070470000801401407047000010B50B4864
:100140000B490863C805406BC9130843C9034863DA
:10015000012000F027FA642000F0B6FA03480449B1
:100160000863044808600020086310BD837A00001B
:1001700080000040FF01000070477047034A904232
:1001800003D101228A40024B9A607047002001404F
:10019000002101400246102901D300207047084881
:1001A00082420AD10748806801238B40184000280A
:1001B00001D00120F2E70020F0E70020EEE7000088
:1001C000002001400021014030B5104B98421BD166
:1001D000102900D930BD08290AD20D4B1B680D4CDF
:1001E00023404D001446AC402343094C23600BE0F0
:1001F000074B5B68074C23400C46083C65001446DF
:10020000AC402343024C636000BFE3E700200140A1
:1002100000210140FCFF000010B50322002102482C
:10022000FFF7D2FF10BD00000020014010B50021F3
:100230000648FFF7AFFF002807D000210348FFF76B
:100240009DFF0821014800F08AF910BD00200140FF
:10025000F0B50B46002200240025002100BF65E018
:100260000126964034461E6826403546A5425CD19C
:100270001E79002E0CD101680126964031430160A1
:100280004168012696400F46B743394641602DE04C
:100290001E79012E0BD1016896400F46B7433946AF
:1002A0000160416801269640314341601EE01E799D
:1002B000022E0ED10168012696400F46B7433946FB
:1002C00001604168012696400F46B74339464160B8
:1002D0000CE01E79032E09D10168012696403143B6
:1002E0000160416801269640314341605E79012EEC
:1002F00004D1016996403143016109E05E79002E25
:1003000006D10169012696400F46B743394601617F
:1003100081699E68012E02D19640314304E0012696
:1003200096400F46B74339468161521C102A97D335
:10033000F0BD000010B50446002C02D001201E497B
:1003400008701D480078002825D00121C9021B48EB
:1003500000F036F8002806D001210903174800F004
:100360002FF8002817D10A2000F0AEF9002012491A
:1003700008700121C902114800F022F8002801D1BB
:10038000012010BD012109030C4800F019F80028D4
:1003900010D10220F5E70121C902084800F010F849
:1003A000012807D10103054800F00AF8012801D10E
:1003B000014908700020E4E700000020802001408F
:1003C0000246002093680B40002B01D0012000E082
:1003D0000020704702460020D3680B40002B01D05C
:1003E000012000E00020704730B504460D46002291
:1003F0002946204600F010F830BD30B504460D46C1
:1004000001222946204600F007F830BD0021016096
:100410000171417181607047002A03D0C3680B43AA
:10042000C36002E0C3688B43C36070470EB5684683
:10043000FFF7ECFF0021684601710120C002009027
:1004400001216846417169462948FFF701FF684666
:10045000FFF7DCFF002168460171012000030090D6
:100460006846417169462248FFF7F2FE6846FFF789
:10047000CDFF0121684601714020009000216846AF
:10048000417169461A488038FFF7E2FE6846FFF777
:10049000BDFF01216846017180200090002168465F
:1004A0004171694612488038FFF7D2FE6846FFF76F
:1004B000ADFF0121684601710820009000216846C7
:1004C000417169460A488038FFF7C2FE6846FFF767
:1004D0009DFF0021684601710120009001216846BE
:1004E0004171694602488038FFF7B2FE0EBD000038
:1004F000802001407047000010B572B613481449BF
:10050000086314480068C912084312490860FFF7DD
:100510008DFFFFF781FE0720002809DB00BF00BF29
:10052000C206D20E012191400B4A116000BF00BFEC
:1005300000BF0021072000F021F9002004490863D2
:10054000012000F06DF862B610BD0000837A000053
:10055000800000400004004000E100E0704770B5FA
:1005600004460D4629462046FFF734FF0646002E76
:1005700005D029462046FFF737FF002070BD2946E9
:100580002046FFF73AFF0120F8E700000320014969
:10059000C8637047001C014010B500F051F810BD51
:1005A0007047000010B50446012C33D11A481B498E
:1005B0000863C805806B032109028843A10788638B
:1005C000642000F08DF8A007806B210208438905A4
:1005D00088630846806BA0438863642000F080F83D
:1005E000A007806B032109028843A1078863642068
:1005F00000F076F8A007806B032109020843A107E9
:100600008863642000F06CF8112000F08BF8002063
:100610000249086310BD0000837A0000800000409A
:1006200010B50446012C07D10021112000F0E2F89A
:10063000112000F093F802E0112000F07FF810BDC7
:10064000112000F07BF8112000F06CF818481949CF
:1006500048630846406A4021884316494862084674
:10066000006A0C218843134908620020486312483D
:1006700012490863FF20C86208460068891588434C
:100680000E490860C805406BC9138843C903486315
:1006900000200A49C862086300BFBFF34F8F0848B3
:1006A0000849C860BFF34F8F00BF00BF00BFFDE720
:1006B000ADDE0000401C0140837A00008000004055
:1006C0000400FA0500ED00E008B50021009103E008
:1006D00000BF0099491C009100998142F8D308BDE0
:1006E00008B50021009103E000BF0099491C00916A
:1006F00000998142F8D308BD704710B5FFF71EFD81
:1007000010BD7047704700000348806B012108430B
:100710000149886370470000C01801407047704766
:1007200070470000002805DBC206D20E012191406F
:10073000014A11607047000080E200E0002809DBF8
:10074000C206D20E01219140034A1160BFF34F8FC0
:10075000BFF36F8F7047000080E100E0002809DBE5
:1007600000BF00BFC206D20E01219140024A1160B3
:1007700000BF00BF7047000000E100E010B5002896
:1007800019DB1A4A03231B02D21883089B00D25894
:100790008307DC0EFF23A3409A438B071B0E8407BD
:1007A000E40EA3401A43114B032424021B198408AE
:1007B000A4001A5118E00E4A03071B0F083B9B08C0
:1007C0009B00D2588307DC0EFF23A3409A438B077C
:1007D0001B0E8407E40EA3401A43054B0407240FA5
:1007E000083CA408A4001A5110BD000000E100E07C
:1007F0001CED00E010B5002819DB1A4A03231B0288
:10080000D21883089B00D2588307DC0EFF23A34035
:100810009A438B071B0E8407E40EA3401A43114B27
:10082000032424021B198408A4001A5118E00E4A5C
:1008300003071B0F083B9B089B00D2588307DC0E65
:10084000FF23A3409A438B071B0E8407E40EA340AB
:100850001A43054B0407240F083CA408A4001A51AE
:1008600010BD000000E100E01CED00E002E008C85F
:10087000121F08C1002AFAD170477047002001E01A
:1008800001C1121F002AFBD1704700000024FFF7AE
:1008900033FE16E00020FFF74DFDC4B2012C02D05C
:1008A000022C0AD104E040210648FFF758FE04E07C
:1008B00080210448FFF753FE00BF00BF0248FFF746
:1008C00003FFE7E700200140FFFF0000EC08000005
:1008D00000000020040000006C080000F008000088
:1008E00004000020040300007C0800000100000058
:04000005000000C136
:00000001FF
