:020000040000FA
:1000000030030020D9000000E7000000E9000000F4
:1000100000000000000000000000000000000000E0
:10002000000000000000000000000000EB000000E5
:100030000000000000000000ED0000006904000066
:10004000A5040000B1040000B3040000B5040000E2
:10005000790100007B010000F90200007D01000031
:1000600075040000B9020000110300002501000022
:10007000F1000000FD020000A104000031010000B9
:10008000F100000009030000F1000000F100000091
:10009000F10000000000000000000000000000006F
:1000A0000000000000000000000000000000000050
:1000B0000000000000000000000000000000000040
:1000C0000448854600F01CF800480047ED06000093
:1000D000C046C04630030020064880F30888064822
:1000E000804706480047FEE7FEE7FEE7FEE7FEE73B
:1000F000FEE70000300300206B040000C100000098
:10010000064C0125064E05E0E36807CC2B430C3C6A
:1001100098471034B442F7D3FFF7D6FF2807000002
:1001200048070000032001494863704780140140DC
:100130000320014948607047000C014010B50B488E
:100140000B490863C805406BC9130843C9034863DA
:10015000012000F0DFF8642000F06EF90348044944
:100160000863044808600020086310BD837A00001B
:1001700080000040FF010000704770477047F0B5F5
:100180000B46002200240025002100BF65E0012667
:10019000964034461E6826403546A5425CD11E79FD
:1001A000002E0CD101680126964031430160416860
:1001B000012696400F46B743394641602DE01E792F
:1001C000012E0BD1016896400F46B74339460160B6
:1001D000416801269640314341601EE01E79022E9F
:1001E0000ED10168012696400F46B743394601609B
:1001F0004168012696400F46B743394641600CE0FE
:100200001E79032E09D10168012696403143016011
:10021000416801269640314341605E79012E04D148
:10022000016996403143016109E05E79002E06D1F3
:100230000169012696400F46B7433946016181693D
:100240009E68012E02D19640314304E0012696407B
:100250000F46B74339468161521C102A97D3F0BD2F
:100260000021016001714171816070470EB56846DF
:10027000FFF7F6FF6846FFF7F3FF002168460171BC
:100280000320C00200906846417169460948FFF7A3
:1002900076FF6846FFF7E4FF012168460171C02040
:1002A0000090002168464171694602488038FFF796
:1002B00066FF0EBD802001407047000010B572B689
:1002C0000A480B4908630B480068C91208430949EA
:1002D0000860FFF7CBFF642000F0AEF8002004496F
:1002E0000863012000F054F862B610BD837A000064
:1002F00080000040000400407047000003200149D6
:10030000C8637047001C014010B500F051F810BDE3
:100310007047000010B50446012C33D11A481B4920
:100320000863C805806B032109028843A10788631D
:10033000642000F08DF8A007806B21020843890536
:1003400088630846806BA0438863642000F080F8CF
:10035000A007806B032109028843A10788636420FA
:1003600000F076F8A007806B032109020843A1077B
:100370008863642000F06CF8112000F09DF80020E4
:100380000249086310BD0000837A0000800000402D
:1003900010B50446012C07D10021112000F0B8F857
:1003A000112000F0A5F802E0112000F091F810BD36
:1003B000112000F08DF8112000F07EF8184819493E
:1003C00048630846406A4021884316494862084607
:1003D000006A0C21884313490862002048631248D0
:1003E00012490863FF20C8620846006889158843DF
:1003F0000E490860C805406BC9138843C9034863A8
:1004000000200A49C862086300BFBFF34F8F084845
:100410000849C860BFF34F8F00BF00BF00BFFDE7B2
:10042000ADDE0000401C0140837A000080000040E7
:100430000400FA0500ED00E008B50021009103E09A
:1004400000BF0099491C009100998142F8D308BD72
:1004500008B50021009103E000BF0099491C0091FC
:1004600000998142F8D308BD704710B5FFF766FECA
:1004700010BD00000948C069C007C00F002802D0A5
:1004800001200649C8610548C069022108400028CA
:1004900002D002200149C8617047000000280140D5
:1004A000704700000120014988637047C01801406F
:1004B0007047704770470000002805DBC206D20E67
:1004C00001219140014A11607047000080E200E084
:1004D000002809DBC206D20E01219140034A1160B7
:1004E000BFF34F8FBFF36F8F7047000080E100E0D4
:1004F000002809DB00BF00BFC206D20E01219140D7
:10050000024A116000BF00BF7047000000E100E038
:1005100010B5002819DB1A4A03231B02D2188308DE
:100520009B00D2588307DC0EFF23A3409A438B071E
:100530001B0E8407E40EA3401A43114B032424022C
:100540001B198408A4001A5118E00E4A03071B0F58
:10055000083B9B089B00D2588307DC0EFF23A34077
:100560009A438B071B0E8407E40EA3401A43054BE6
:100570000407240F083CA408A4001A5110BD000071
:1005800000E100E01CED00E002E008C8121F08C115
:10059000002AFAD170477047002001E001C1121F04
:1005A000002AFBD170470000F0B502460024012369
:1005B0000225012618032F02384337013843124F12
:1005C000786038464068012738430F4F78600F48FD
:1005D000F8600F48B860002901D10020F0BD03E0A9
:1005E0001078094F3870521C0846491E0028F7D170
:1005F000012B04D104480068000C6040EEE702487B
:1006000000886040EAE70000002401400580000007
:10061000FFFF0000FFB502461A4801900020C043CA
:100620000090029001260120039034460398002890
:1006300001D0032000E000200546002320032F0204
:1006400038431F013843104F78603846406801270F
:1006500038430D4F78600198F8600098B860002921
:1006600002D1002004B0F0BD03E01078064F3870CE
:10067000521C0846491E0028F7D103480068029F13
:100680007840EFE7B71DC10400240140F0B50246F1
:10069000002400230025022618032F0238433701C7
:1006A0003843114F786038464068012738430E4F71
:1006B00078600720F8600020B860002900D1F0BD04
:1006C00003E01078084F3870521C0846491E002875
:1006D000F7D1012B04D104480068000E6040EEE71A
:1006E000014800786040EAE700240140FFF7E6FD9A
:1006F0000B210948FFF7CAFF084908700B2106487B
:10070000FFF752FF064908800B210348FFF782FFDD
:100710000449086000BFFEE7000000200B00002035
:1007200016000020240000204807000000000020E0
:100730002C00000088050000740700002C00002039
:1007400004030000980500004C4B585932303233F6
:100750003031000000000000000000000000000038
:100760000000000000000000000000000000000089
:040770000000000085
:04000005000000C136
:00000001FF
