:020000040000FA
:1000000000030020D9000000E7000000E900000024
:1000100000000000000000000000000000000000E0
:10002000000000000000000000000000EB000000E5
:100030000000000000000000ED0000006505000069
:1000400073050000750500007705000079050000C4
:1000500021020000230200006902000025020000C6
:100060006F05000027020000D903000025010000F1
:10007000F10000006B020000710500002701000084
:10008000F100000093030000F1000000F100000007
:10009000F10000000000000000000000000000006F
:1000A0000000000000000000000000000000000050
:1000B0000000000000000000000000000000000040
:1000C0000448854600F01CF8004800476B06000015
:1000D000C046C04600030020064880F30888064852
:1000E000804706480047FEE7FEE7FEE7FEE7FEE73B
:1000F000FEE700000003002067050000C1000000CB
:10010000064C0125064E05E0E36807CC2B430C3C6A
:1001100098471034B442F7D3FFF7D6FF7C060000AF
:100120008C0600007047704710B50B480B490863F8
:10013000C805406BC9130843C9034863012000F098
:1001400067F9642000F0F6F903480449086304489D
:1001500008600020086310BD837A00008000004022
:10016000FF01000010B50121080300F037F929480C
:1001700029490863C805406AC021884301218907CD
:1001800048620846406A402108430906486208461A
:10019000406A0006800F01280CD1D120800000F0B9
:1001A000FDF81D498863CD20800000F0F7F81A495A
:1001B000486326E001208007406A0006800F00287F
:1001C0000CD10D20800100F0E9F813498863332039
:1001D000000100F0E3F81049486312E001208007B5
:1001E000406A0006800F02280BD16920C00000F091
:1001F000D5F8094988636720C00000F0CFF80649A8
:100200004863064804494039C8630020024908632E
:1002100010BD0000837A000080000040AB0A00009F
:10022000704770477047704710B572B60B480C495D
:1002300008630C480068C91208430A490860FFF7C0
:1002400091FF00F096F8642000F074F90020044952
:100250000863012000F01AF962B610BD837A00002D
:1002600080000040000400407047704730B50346EE
:10027000264C274D2C63EC05206A626B002B0BD1BA
:10028000800880000C68204304251446AC432246B5
:100290004C68A400224331E0012B0ED10C2504460A
:1002A000AC4320460C68A400204308251446AC4308
:1002B00022464C68E400224320E0022B0ED1302578
:1002C0000446AC4320460C68240120431025144604
:1002D000AC4322464C68240122430FE0032B0DD18E
:1002E000C0250446AC4320460C68A40120432025C9
:1002F0001446AC4322464C68640122430124A407FF
:10030000206262630024024D2C6330BD837A0000BA
:1003100080000040124A134B1A63002917D00028AE
:1003200003D1012293079A6215E0012803D102222A
:1003300083079A620FE0022803D1032243079A62DF
:1003400009E0032807D1042213079A6203E0002280
:1003500001239B079A620022024B1A637047000038
:10036000837A000080000040032101600021416089
:1003700070471CB56846FFF7F7FF01200190009019
:1003800069460020FFF772FF01210020FFF7C2FF3E
:100390001CBD10B500F08AF810BD000010B50D4A64
:1003A0000B49936ACA14012B0B460B680DD01343FB
:1003B0000B6059231B064B604860C86895231B06D9
:1003C0004B600B6893430B6010BD9343F0E7000054
:1003D0000004004080000040704700000A4A0B4BB8
:1003E0001A63002905D0DA05526B0243DB055A6314
:1003F00006E001229207526B824301239B075A6356
:100400000022024B1A637047837A0000800000408C
:1004100010B50446012C33D11A481B490863C8059E
:10042000806B032109028843A1078863642000F0E0
:100430008DF8A007806B2102084389058863084670
:10044000806BA0438863642000F080F8A007806B75
:10045000032109028843A1078863642000F076F82D
:10046000A007806B032109020843A1078863642069
:1004700000F06CF8112000F081F8002002490863B8
:1004800010BD0000837A00008000004010B50446D3
:10049000012C07D10021112000F09CF8112000F060
:1004A00089F802E0112000F075F810BD112000F06D
:1004B00071F8112000F062F818481949486308469D
:1004C000406A40218843164948620846006A0C2168
:1004D00088431349086200204863124812490863A0
:1004E000FF20C86208460068891588430E490860E5
:1004F000C805406BC9138843C903486300200A49F3
:10050000C862086300BFBFF34F8F08480849C8603E
:10051000BFF34F8F00BF00BF00BFFDE7ADDE00009F
:10052000401C0140837A0000800000400400FA056E
:1005300000ED00E008B50021009103E000BF009944
:10054000491C009100998142F8D308BD08B50021EB
:10055000009103E000BF0099491C0091009981427D
:10056000F8D308BD704710B5FFF7DEFD10BD70472A
:10057000704770477047704770470000002805DBE0
:10058000C206D20E01219140014A1160704700005D
:1005900080E200E0002809DBC206D20E0121914072
:1005A000034A1160BFF34F8FBFF36F8F7047000096
:1005B00080E100E0002809DB00BF00BFC206D20EC8
:1005C00001219140024A116000BF00BF7047000046
:1005D00000E100E010B5002819DB1A4A03231B02D2
:1005E000D21883089B00D2588307DC0EFF23A34058
:1005F0009A438B071B0E8407E40EA3401A43114B4A
:10060000032424021B198408A4001A5118E00E4A7E
:1006100003071B0F083B9B089B00D2588307DC0E87
:10062000FF23A3409A438B071B0E8407E40EA340CD
:100630001A43054B0407240F083CA408A4001A51D0
:1006400010BD000000E100E01CED00E002E008C881
:10065000121F08C1002AFAD170477047002001E03C
:1006600001C1121F002AFBD17047FFF7DDFD03E037
:1006700001200004FFF75EFFFAE700008C0600008F
:0C06800000000020000300005C060000E9
:04000005000000C136
:00000001FF
