:020000040000FA
:10000000F0140020D9000000E70000008125000066
:1000100000000000000000000000000000000000E0
:10002000000000000000000000000000EB000000E5
:100030000000000000000000ED0000008B4B0000FD
:10004000954B0000BD4B0000BF4B0000C14B0000B2
:10005000F1000000F1000000F10000004741000045
:10006000F100000041240000DB4D0000DD4D0000E8
:100070007D170000F507000079030000510400001F
:10008000F1000000F1000000F1000000F1000000AC
:10009000454100002D5100001F440000B93B000005
:1000A000D507000000000000000000000000000074
:1000B0000000000000000000000000000000000040
:1000C0000448854600F016F900480047FD5B000033
:1000D000C046C046F0140020064880F30888064851
:1000E000804706480047FEE7FEE7FEE7FEE7FEE73B
:1000F000FEE70000F01400208D4B0000C10000005E
:1001000030B50B46014600202022012409E00D46AF
:10011000D5409D4205D31D469540491B2546954037
:1001200040191546521E002DF1DC30BD70B500247B
:100130002546002801DA01244042002901DA012580
:100140004942FFF7DDFFAC4200D04042002C00D016
:10015000494270BDF8B500242546002904DA0E4650
:10016000012400214042B141002B04DA1E46002345
:1001700052420125B34100F08DF88C4617461E46C9
:10018000AC4203D0002540428D41AC46002C02D049
:10019000002657429E4161463A46334601B0F0BDC3
:1001A000F0B51FB486B00020009001900290069830
:1001B000069980B204900798090C020400141143B8
:1001C00007900027089D099806913E463C460390FB
:1001D0000398A9B20204000C039004982D0C154357
:1001E00048430021224600F018F8C7197141103425
:1001F0000E46402CECDB3846029A00F00EF8009ACE
:10020000019B801800905941029801911030029092
:100210004028CCDB00980BB0F0BD10B5202A04DBE1
:100220000146203A9140002010BD914020239C1AA5
:100230000346E3401943904010BD03460B439B0720
:1002400003D009E008C9121F08C0042AFAD203E04B
:100250000B780370401C491C521EF9D27047D2B271
:1002600001E00270401C491EFBD270470022F6E7F5
:1002700010B513460A4604461946FFF7F0FF20461C
:1002800010BD03460A780270401C491C002AF9D1AF
:1002900018467047F0B51FB40646002082B00546E8
:1002A0004024019100901BE0019922460F46304600
:1002B00000F032F8049A059B801A994110D3104639
:1002C00019462246FFF7A9FF361A8F4101972246A9
:1002D00001200021009FFFF7A0FF38184D4100903A
:1002E0002046641E0028DFDC019B00982946324628
:1002F00007B0F0BD064C0125064E05E0E36807CCCB
:100300002B430C3C98471034B442F7D3FFF7DCFE84
:10031000C8660000E866000010B5202A04DB084625
:10032000203AD040002110BD0B46D340D0402024BD
:10033000A21A91400843194610BD000010B50C499F
:100340000968491E4A1E9141CA02012149040B68ED
:10035000084C23409A180A60592212064A604860E5
:10036000C868952212064A600A6822400A6010BDD9
:10037000A0000040FFF7FFFF70B51B484169032252
:1003800011434161194CE088401CE080184D002069
:10039000286100F089F92869208020886080042085
:1003A000205E0221615E884202DA0220205E01E0C6
:1003B0000420205EA080002005F0BAF80B4C083421
:1003C0002080002005F0A8F86080002005F0A4F946
:1003D000A080002005F0AAF9E08008222146012033
:1003E00003F068FE70BD000080040140040000209E
:1003F0000003014010B588B0684600F02FF90020D6
:100400006A465080D080108150819081D081012136
:10041000118290801180062151829082D082508377
:1004200090830A4CD0831146204600F0AFF87F211C
:10043000204600F0A8F800F047F804484030416B2F
:10044000C2141143416308B010BD00000004014014
:10045000044841690322114341610349C888401C93
:10046000C8807047800501400400002010B588B0A6
:10047000684600F0F3F800206A465080D080108172
:1004800050819081D08101211182908011800421BE
:1004900051829082D082508390830A4CD08311463F
:1004A000204600F073F87F21204600F06CF800F041
:1004B0000BF804484030416BC2141143416308B04B
:1004C00010BD00000005014010B5224C00230122A0
:1004D0001946204600F042F800230222012120465E
:1004E00000F03CF8002301220221204600F036F8FB
:1004F000002302220321204600F030F800230C22C2
:100500000421204600F02AF800230322052120467A
:1005100000F024F8002307220621204600F01EF8F0
:100520000D4C00230D221946204600F017F8002339
:100530000D220121204600F011F800230C22022197
:10054000204600F00BF800230B220321204600F088
:1005500005F810BD000401400005014010B5012B55
:1005600003D1446E8B401C4344660B079B0F8907E5
:10057000090F9B001818036D0F248C40A3438A4079
:100580001A43026510BD80304161704770B50C465A
:1005900005460121084603F043FF21886088014396
:1005A000284680300161E18AA28A090212011143C2
:1005B000628A11432966218AA967A188E288090312
:1005C00092021143228912021143628912011143DE
:1005D000A289D2001143E28911436967618B4164AA
:1005E000A18B8164E18BC164A1204001FFF7A6FECD
:1005F000124C20601248FFF7A1FE60601048001DF9
:10060000FFF79CFEA0600E480830FFF797FEE06001
:100610000B480C30FFF792FE0A4C2060084810305F
:10062000FFF78CFE606006481430FFF787FEA0607D
:1006300003481830FFF782FEE06070BD800401407F
:100640002414000080050140012902D1024901481B
:10065000C8637047A55A0000400401400021018092
:1006600041808180C180018141818181C18101827C
:10067000012242828282C282018370477047000059
:1006800002490A684280496881807047000401403D
:1006900001498969C1827047000401400149096923
:1006A000C18170470004014010B506480649C06882
:1006B0000A6842804A6882800969C181002001F08D
:1006C000BDF810BD140200200004014002888078AB
:1006D0004A430241104670470289807A4A430241E8
:1006E00010467047828880794A430241104670471D
:1006F00014211D4A41438918E4221C4B424310B483
:10070000D218C4239C580223E35E194C4000245E97
:100710006343184CDB13205E1BB258434023001385
:10072000D35E00B2C31A0B614C890888634302048C
:10073000CC688888E3180004CB60934201DD13463F
:1007400002E0834200DA0346CB600C6909894C431E
:1007500021015918914201DD104602E0814200DB7F
:10076000084610BC00147047A8100020180F002085
:10077000420000204000002010B505F087F910BDB0
:10078000CA680004831A1B119A181314CA600A69F4
:10079000801A4012801802140861981A03044869EC
:1007A0001B1A1B11181848610623CB5E00149342D4
:1007B00008DD002800DA404208228A5E904201DA11
:1007C000012000E00020887270470004C8600861C2
:1007D00048617047704710B5002805D0012805D042
:1007E000022806D1800202E0402000E0802003F0D1
:1007F00017FE10BD70470000F0B54E4C4C49A16289
:10080000E3055969427811435961996902464032BA
:100810001588AD0329439961818CC58C09032D018D
:10082000294305892D0229434589AD0029430578CF
:10083000ED01294355882943DD692943D9615D6A62
:10084000D17CC77EC9020D4301462031CE7DF60121
:10085000BF013E4335435D620023A362537D9C028A
:100860004B7E5B021C43437F1B021C43137D9B009A
:100870001C430B7E5B001C43037F1C432E4B1C6000
:100880000479456C24062D052C43856C2D042C43DE
:10089000856A2D032C43C56A2D022C43C5682D01A2
:1008A0002C4305692C43957CED042C438D7DED0292
:1008B0002C43857EED002C439C60148A957D9289A3
:1008C000A4026D022C4312021443428ED20114433F
:1008D000828E920114438A7E52011443028E1201C9
:1008E0001443C28AD2001443028B92001443827FC5
:1008F00052001443828A1443DC60CA7E0C7FD2010A
:10090000A40122434C7FC07F640122438C7FC0003E
:1009100024012243024308788000024348784000C3
:100920000243887802431A6103205860F0BD00003A
:10093000837A0000800000400002014010B55C2175
:10094000FFF794FC10BD00B597B06846FFF7F6FFBF
:100950000121042003F074FD00206B4601905870C3
:100960000121197004221A8159819882188398777D
:1009700018770222039204929876D8769884DA84C3
:1009800058771886988608AB997618760A920B9253
:100990009975D9756846FFF72FFF01210846FFF7C3
:1009A0001AFF17B000BD0000E42250430A4A0B04AE
:1009B00080188030406C018042689B1A5B109A1846
:1009C000426041800122054952060A620222825E8B
:1009D0004A62896A81607047180F00200030014028
:1009E000F1B588B00898E4214843FE4946183068BC
:1009F0000190304680307568816B0691C16B05911E
:100A0000006C0490AA6A3446D317039302920C3404
:100A10006421E86904F02FFC039B029AFFF79AFB1C
:100A20006060696A286A04F026FC03910290EE492E
:100A3000E86904F020FC039B029AFFF78BFB20601F
:100A40006A8B642042436868D317C11787088907F7
:100A500039438007FFF77EFB0905000B0843A0849C
:100A600064216868FFF762FB4004698BFFF75EFB57
:100A7000E084EA680292D317039319214904A86815
:100A800004F0F9FB039B029AFFF764FB6A8B0023D7
:100A9000FFF760FB0121C903081AA06064216868A0
:100AA000FFF744FBD14904F0E6FB6A8B0023FFF714
:100AB00051FBEA680292D3170393296904F0DBFB28
:100AC000039B029AFFF746FB009004F05BFC024692
:100AD00000990F3A1141E1601C21081A60752068E5
:100AE0000290C01703906068C14AC1170723FFF73F
:100AF00057FB039B029AFFF72DFB03910290E868D6
:100B00006A8BC1170023FFF74BFB02460B46039984
:100B10000298FFF71FFB009004F034FC0246009996
:100B20000F3A114121611E21081AA0750198E42194
:100B3000028808984843AB4940188C300090002A3E
:100B400053D020680023C117FFF72AFBEA68D317A8
:100B5000FFF726FB420FC9001143FF23626887336A
:100B60005A43C000D317FFF7F5FA00990291896A3A
:100B700080B2088001996F8B498804F095FB0A22A6
:100B80000023FFF70DFB3A460023FFF7E3FA029933
:100B90000023896A48802068019AC1171288FFF7EC
:100BA000FFFA2A69D317FFF7FBFA420FC900114376
:100BB000FF23626887335A43C000D317FFF7CAFA8E
:100BC000029980B2896A88806A8B01990392498868
:100BD00004F06AFB0A220023FFF7E2FA0023039ADB
:100BE000FFF7B8FA0299896A49E0E8686A8BC11789
:100BF0000023FFF7D5FA2268D317FFF7D1FA0923AC
:100C000062689B015A43D317FFF7A4FA009A029235
:100C1000916A0880A868216804F02DFBC20C490382
:100C20001143744B626840035A43D317FFF792FA9B
:100C3000029A0023916A4880E8686A8BC117FFF71F
:100C4000AFFA2268D317FFF7ABFA092362689B015A
:100C50005A43D317FFF77EFA029A916A8880A868F0
:100C6000216804F008FBC20C49031143614B626820
:100C700040035A43D317FFF76DFA029A916AC8806E
:100C8000009FB86A018806980181B86A4188069871
:100C90004181B86A018805980181B86A4188059840
:100CA00041813068C18BB86A01813068018CB86AB3
:100CB00041810A216868FFF739FA024668694E499E
:100CC0004243D31700931646606804F0D4FA3246C4
:100CD000009BFFF73FFA0146B86A642381610498DC
:100CE0000499483000900020086048608860C8601F
:100CF00048618861C8610862009A0E4610605060C1
:100D00009060D060106150619061D06110626C366B
:100D100030607060B060F06030617061B061F0614F
:100D200030627D228B80D2000A800B810B612768A4
:100D30000A204743384604F025FB01460F38074197
:100D4000009807801E20411A009841806768384645
:100D500004F018FB01460F380741009887801E20D9
:100D6000411A0098C1806F68384604F00BFB0146B9
:100D70000F380741009807811E20411A00984181D1
:100D80006168206804F077FA64220023FFF708FA0C
:100D90001A4A0023FFF7DEF9074604F0F3FA01468A
:100DA0003A460F380241009802611E20411A00980D
:100DB000818221680A2041434007FFF7B7F90746BF
:100DC00004F0E0FA01460F3807411E20411A37802F
:100DD0007180012080076168FFF7A8F9074604F0D9
:100DE000D1FA0DE0180F002000E1F50510C9000050
:100DF000000020A1850B0000F0BE1B038E16000032
:100E000001460F3807411E20411AB780F1800120AA
:100E100080076968FFF78AF9054604F0B3FA0146CE
:100E20000F38054135811E20411A174D7181284622
:100E300004F0A8FA01460F38C5401E207583401AF9
:100E4000B083012080076168FFF770F9054604F060
:100E500099FA01460F390D411E21F583081A308495
:100E6000019801693046FFF737FC606701984169D6
:100E70003046FFF731FCA067019881693046FFF7E3
:100E80002BFCE06709B0F0BD2B1A0900F0B5E42196
:100E90004E4A41438E184E4A41018C184D4900017B
:100EA000401800687568C289818983B0D0030C3608
:100EB000FFF73CF94849884200DB0846A0836A688E
:100EC0004649D31700931746706804F0D4F93A46A0
:100ED000009BFFF73FF932687D21D3170746C90011
:100EE0000193009204F0C7F9019B009AFFF732F9D1
:100EF00000906869FB17C117020D09031143000335
:100F00003A46FFF727F9074604F03CFA1B21081A76
:100F100000B260820C2802DA0C21081A07412782ED
:100F2000E868C117020D09031143009A0003D317A3
:100F30000193FFF70FF9074604F024FA1B21081A62
:100F400000B2E0820C2802DA0C21081A0741A782BD
:100F50002869019BC117020D090311430003009A80
:100F6000FFF7F8F8074604F00DFA1B21081A00B243
:100F700060830C2802DA0C21081A074127833268A3
:100F80001749D31700931746706804F074F93A466E
:100F9000009BFFF7DFF8AB68D9171A0D090311435F
:100FA0001D030246C3172846FFF7D4F8054604F090
:100FB000E9F91B21081A00B2E0810C2802DA0C21A1
:100FC000081A0541A58103B0F0BD0000180F0020EC
:100FD000BC10002048100020FF7F00002B3E0000C6
:100FE00010270000F0B4E4232D4C43431C19234682
:100FF00080340C33646C4D885D8500254D5F9D8584
:101000002A21595E6D4349434D1926490D63264EE9
:1010100002254000655F305EDF8C4543E8131D46C6
:101020008035EE68AD6836682D687E4375194E6B65
:1010300000B236B29E8686420EDDC00308624E6262
:10104000886A2A269E5F80B24643F6135E852C2668
:101050009E5F4643F0139885086804263043086075
:10106000280C48602A255D5FA0684543AC122C25FA
:101070005D5F24B24543A81203B24869096900B212
:1010800009B205460E4665435E43AD1BED13614351
:10109000584308181580C0135080F0BC70470000FA
:1010A000180F00200030014042000020F8B54C1C11
:1010B0006410A646CA030CB20092A446684A694B63
:1010C0004C42002868DB451C6F10C50306B200299E
:1010D00032DB88421BDB002812D00098C019106256
:1010E0005662906AC1094900CA185288595A400686
:1010F000521A400E42434032D009081800B2F8BDDF
:10110000002902D001208003F8BD0020F8BD704600
:101110002818106260465062906AC1094900CA18D6
:101120005288595A4006521A400E42434032D00962
:1011300008180121890390E0A04216DB002812D094
:10114000E003C01910625662906AC1094900CA18CA
:101150005288595A4006521A400E42434032D00932
:1011600008184042CAE74048F8BD601C40102818E3
:10117000106220B25062906AC1094900CA185288B0
:10118000595A4006521A400E42434032D0090818BC
:1011900001218903401AB1E701254042ED030029EE
:1011A0002EDB884215DB441C00996410091911627A
:1011B00000B25062906AC1094900CA185288595A4F
:1011C0004006521A400E42434032D0090818281AED
:1011D00094E7C10370460818106260465062906A36
:1011E000C1094900CA185288595A4006521A400E7D
:1011F00042434032D00908180121890340187DE795
:10120000A04215DB411CE40349106118116200B2D1
:101210005062906AC1094900CA185288595A40065A
:10122000521A400E42434032D0090818401B65E76D
:10123000C103601C40100818106220B25062906A0E
:10124000C1094900CA185288595A4006521A400E1C
:1012500042434032D00908180349081A4EE70000FB
:1012600000300140A864000000C0FFFF10B5017904
:10127000214C002918D001292FD002292CD100237C
:10128000012219462046FFF769F900231A46012179
:101290002046FFF763F90023012202212046FFF7D1
:1012A0005DF900231A4613E0002301221946204667
:1012B000FFF754F90023022201212046FFF74EF9DF
:1012C0000023012202212046FFF748F900230222D1
:1012D00003212046FFF742F910BD002302221946E0
:1012E0002046FFF73BF900231A4601212046FFF76D
:1012F00035F900230222D0E70004014070B505460D
:10130000064604463035783603F0A6F98034E08A84
:10131000012189020843E082E06B0121C0886885D1
:101320000020A870304604F007FE70BD10B50D4ACD
:101330000B4890620020C043506200245462D113D5
:10134000C8034162816AC0239943816281680904AC
:10135000FCD4642003F0A7F803481060946210BD29
:10136000837A000080000040FF1100008030018B74
:101370000122120391430183704700000248416932
:101380001022114341617047800C014010B504F0F8
:1013900003F8002806D0FFF7EFF904F017F900284A
:1013A00000D0012010BD028880784A4302411046D7
:1013B00070470289807A4A430241104670470269A9
:1013C000007D4A43024110467047828880794A4333
:1013D0000241104670472021020C01D01021104616
:1013E000020A01D010460839020901D01046091F2F
:1013F000820801D01046891E420801D0881E70471D
:10140000081A704730B5DC31002306C9C35E002BD3
:1014100000DA5B421CB20223C35E002B00DA5B429F
:101420000425455F1BB2002D00DA6D4228B200256D
:10143000555FA54200DA14800225555F9D4200DA0F
:1014400053800425555F854200DA90804A8819252B
:10145000AD01AA420ED8521C4A804A68A24200D26C
:101460004C608A689A4200D28B60CA68824200D27D
:10147000C86030BD88880882088948828889888247
:10148000002048608860C860488030BD08B50020F2
:10149000009007480099491C00918142FAD300202E
:1014A00003F0FAFF81689C30098C00F003F808BD56
:1014B000FFFF0600F0B585B00E46044672B6374809
:1014C0003749086036480025C038056045608560AA
:1014D000C56005614561324AFF20803A106131489C
:1014E0000860284602F04EFB2F4FBD63BD63042009
:1014F0003861786BF914084378632C480495049A92
:10150000521C04928242FAD3294838610095019511
:10151000029503950495244D0498403D28E001214F
:101520002846FFF791F8204840304169C907FCD0B0
:101530004169032211434161786B0121C9020843CB
:1015400078632868009900B2401800906868019993
:1015500000B240180190A868029900B240180290A9
:10156000E868039900B2401803900498401C049066
:10157000B042D4D3FEF73EFF31460098FEF7D6FDC9
:10158000E08031460198FEF7D1FD20813146029876
:10159000FEF7CCFD608105B0F0BD0000ADDE0000BF
:1015A000C00C0140FECA000040040140FFFF0700DC
:1015B0002130000010B5C26801690389511A5943EE
:1015C0004389090153435918836959188161838AF2
:1015D0001C04036861188B4202DB43688B4202DD06
:1015E00019461B1B836109140261084610BD10B522
:1015F000002805D0012802D1400202F011FF10BDE1
:1016000001200003F9E70000F8B50C46324F3149DC
:10161000B962FE057269811D01238B409A43726194
:10162000726923788B401A4372612B4D403D00282C
:1016300002D0012824D04AE07069400606D5274828
:10164000FEF77CFEE8622548001F0AE07069800909
:10165000C00709D121480838FEF770FEE8621F482C
:101660000C38FEF76BFEA862E869E17808430221B6
:10167000615609010843E861F0696178C90224E014
:101680007069000607D515481030FEF757FE6863ED
:1016900012480C300AE07069C009C00709D10F4830
:1016A0000830FEF74BFE6863A3204001FEF746FEBC
:1016B000286302202056E178000309020843E96903
:1016C0000843E861F0696178C9030843F0610448A0
:1016D000B862F8BD837A0000800000405C1400000E
:1016E000FFFF00000905090D044A002803D0012866
:1016F00000D1516270471162704700004000004005
:1017000010B50421FEF7B2FD10BD000038B56846E3
:10171000FFF7F6FF002003F0B5FEFF258D35455F8E
:1017200001206946087000204870C8708870FFF773
:101730006BFF69460878012802D0002803D003E037
:101740004B24240100E00B4C28032146FEF7EEFC5D
:101750000949884201DD084602E0002800DA00203D
:1017600001460020FFF7BEFF01210020FFF73FFFE9
:1017700038BD0000F2120000FF0F0000704710B5E6
:101780000121480402F05CFE10BD0000024A106214
:101790005162906A00B27047003001401CB5194B8D
:1017A000174919601849174AFF24403A240209884A
:1017B000012804D002280BD003280DD01DE01348C7
:1017C00008431062506A20406C4620800C200CE0D8
:1017D0000F480143116210E00C48001D08431062DD
:1017E000506A20406C46208008200143A180208858
:1017F000A1880843208020885062002018601CBD0A
:10180000ADDE0000C00C014014000020080C0000F8
:101810000C080000084A0749116007494023403975
:101820000028086B04D0184308630020106070473C
:101830009843F9E7ADDE0000C00C0140F1B584B07B
:10184000049854214843B1494418049888214843D6
:10185000AF494518284668300290606901902046DB
:101860002C302E4600900836216BAF1C884700981C
:101870008068008A388000988068408A7880009864
:1018800081681420085EB8800221795E081AA14997
:1018900048430014708038883080207A002808D0AF
:1018A00000202072E0680E21415E0498FFF77CF86A
:1018B00001E001202072217A049804F00BFB0198CA
:1018C0005421877804983B004843904940182030C1
:1018D000009003F002FD09061ECF2828282898C092
:1018E000CF0001992A20085EA16B89894843000135
:1018F000010C606C02F0B6FDA06900F0F1FDA16979
:1019000000200871216DA069096988478248206319
:10191000B0E0049804F022FB207A002808D1049853
:1019200002F0C2F804E0012F02D0049804F00CFB8E
:10193000A8697A4968610A6804231A430A60000C9E
:1019400048604B692846403001900246038508698B
:10195000002300B25085029A0221D35E715E0022FC
:10196000B25E59434243881AC0132882029900206C
:101970000022305E8A5E022350430222B25ECB5EBA
:1019800054215A438018C013688228785F4A414323
:101990008918097A00291AD103F086FD00282ED073
:1019A0000C211022695EAA5E891A29650E21122275
:1019B000695EAA5E891A696328464430FFF7FAFD1A
:1019C000019E308428462830FFF7F4FD70842A46B3
:1019D000643228781646111FFFF704FB314604983D
:1019E00002F0D2FBA06900F07BFD216DA0690969BE
:1019F000884729461031049802F030F93AE0002077
:101A000068632865D8E701992A20085EA16B8A8956
:101A10005043001300B2824201DC0C20085E81B208
:101A2000606C02F01FFDA06900F05AFDA169002062
:101A3000087100980121017302214173216DA06991
:101A40000969884734482063049801F0C9F804986C
:101A500001F026FA0EE001983149808D884202D0CB
:101A6000491C884206D1E078002813D02C48C01CBD
:101A700021694884009D2F72216DE068496A88477A
:101A80006069284E017B012922D02030007A00288D
:101A900031D034E072B6002123488163426BC11417
:101AA0000A4342632148426B0A434263049800F0B0
:101AB000B5FD206D006A8047049803F06BFDA0809F
:101AC000049803F079FDE07062B61548801CCFE7FA
:101AD0002178725C521CD2B27254022A14D3203084
:101AE000007A002803D1206D8169012088470120F8
:101AF0006872022006E0206D81690020884702207C
:101B0000687200202178705405B0F0BD14020020E6
:101B100068020020CE930000B9430000003001406D
:101B2000010800001A000020400401404005014067
:101B3000F8B50446406825468035297E83689C3088
:101B400009076CD52646C0361821715E052901DAD1
:101B5000491C00E001213183E17B002904D0296D7B
:101B600002270A883A430A800622825E002A00DAA7
:101B70005242598C8A4214DA0822825E002A00DA24
:101B800052428A420DDA0A22825E002A00DA52426A
:101B90008A4206DA0C22825E002A00DA52428A4227
:101BA00005DB286DFF2201880132114301802046A8
:101BB0001E302146074600F033F821463846FFF72D
:101BC00021FC1820305E030003F087FB0623040885
:101BD0000F161D23204600F007FB1AE0287F082877
:101BE00017D1204600F040FA13E0287F082810D1D2
:101BF000204600F044F80CE0287F082809D1204650
:101C000000F0D0F805E0287F082802D1204600F037
:101C1000A4FA286D008820810020E072A072F8BD2F
:101C200030B54A680023C35E9568002B00DA5B423A
:101C300080314A6D0024145F0A6FA3420DDC022339
:101C4000C35E002B00DA5B42A34206DC0423C35EC2
:101C5000002B00DA5B42A3420EDD0020105EFF3550
:101C6000431C13808135EA89904204DB086D012210
:101C700001881143018030BD0020108030BDF0B5D7
:101C80004168FF248B680246F1348032E45C002511
:101C9000916E012C06D00D80106D20220188914399
:101CA0000180F0BDFF260136345E002C00DA64426C
:101CB000566D0A27F75FBC420ADA0069002800DA8D
:101CC0004042F468A04203DD0888401D088000E01F
:101CD0000D80FF330020C133085E9B8B9842E0DB10
:101CE0000D80106D202201881143D9E710B50446FC
:101CF00003F002FA204600F001F810BDF8B50446E2
:101D0000406885680746FF35783781353846A968C9
:101D1000FEF7DCFC8034616D00260880A06E068032
:101D20003846696DFEF7D2FC616D48813846A96D71
:101D3000FEF7D2FC616DC860E06E0680E06E468002
:101D4000E06EC6803846A96BFEF7C0FC616D088264
:101D50003846E96BFEF7BAFC616D48613846296C7C
:101D6000FEF7B4FC616D8861616D686CC861606D7F
:101D70004684606D0684A06F06803846296EFEF7A3
:101D8000A5FC616DC8841821E06DFEF76FFA06218D
:101D9000206EFEF76BFA606F0A210680E06FFEF797
:101DA00065FAF8BDF0B50146406880318068FF25CE
:101DB000F4352D5CCC6D0B6E8A6F40270026012D0B
:101DC00008D016805680086D0288BA430280486D9C
:101DD0000685F0BDFF30C13000258646555F808CFA
:101DE000854202DA6D1D15801AE016800020185E0B
:101DF000022584465D5F8010A84207DCA8100425F8
:101E00005D5FA84202DCAD10654506DD0D6D2888DA
:101E100038432880486D012505851E805E809E80A0
:101E2000486D2623258AC35E9D4205DB608A984261
:101E300002DBA08A984211DA02207346105E9B8C66
:101E4000984202DA401D5080F0BD5680086D02882D
:101E50003A430280496D02200885F0BD5680F0BDEE
:101E6000F8B5044641688034256D8E682988676D11
:101E70004A0701D40A071AD51422825E0820385E68
:101E8000824211DB0620385E82420DDC636EFF2247
:101E900004208532185E925B904202DA401C9880E2
:101EA00005E00C2081432980616E0020888028880D
:101EB000810701D4C10726D0FF2191318A5B5749A0
:101EC0008A4220D0236F0421595E914202DA491CD4
:101ED000998018E0810706D5022188432880208B4D
:101EE000C902084320832888C10705D04008400064
:101EF0002880216F00200880206F0189491C018102
:101F0000216F002088802988C80617D5FF20D1308E
:101F1000825B4248824211D0E36E0420185E9042F8
:101F200002DA401C988009E01020814329800020BB
:101F3000788438840A21E06EFEF798F928788006C4
:101F400017D5FF20DF30825B3448824211D0A16E6A
:101F50000420085E904202DA401C888009E0206D6F
:101F60002022018891430180A16E00208880A16E0B
:101F700008802988480615D5FF20E730835B27486D
:101F800083420FD0A26F0420105E984202DA401CF8
:101F9000908007E0402081432980A16F0020888045
:101FA000A16F08802B8818061BD53146FF31FF2210
:101FB0008131B132888C925D801A2222A25E00B2F9
:101FC00082420BDC626F0420105E898E884202DA46
:101FD000401C908005E0802083432B80616F0020AF
:101FE00088802B8898050CD5FF36C136B28D0B48FA
:101FF000824206D0E16F0420085E904202DA401C63
:102000008880F8BD0120400283432B800020B884E3
:102010000A21E06FFEF72AF9F8BD0000FFFF00007B
:1020200070B5044646688034216D0020B56808808C
:10203000A16EFF358880E16E01358880216F78368A
:102040008880216F0881616E8880616F888030464A
:10205000696FFEF747FB616DC8803046E96FFEF798
:1020600041FB616D088170BDF1B582B00298029E9E
:10207000406880368768306C756D8068F46E002823
:1020800000DA404201900298007803F0CBFAFF2179
:10209000F231C95D012908D0306D102102888A43D0
:1020A000028000206884208038E00621FF37615ECE
:1020B000C1370097BA89914202DA491DE180FEBD1D
:1020C0006A690121824201DA298404E0AA69824214
:1020D00001DD00202884288C012821D02088401F81
:1020E00000B22080002801DA0020208002980078C9
:1020F00003F030FB07460298007803F071FA47437B
:10210000E969F813414308120199814223DD0099DE
:102110000220205EC989884213DA401D6080FEBD1E
:10212000009A0020205ED289904201DA401DDCE74F
:1021300000202080306D102302881A4302806984B9
:10214000D4E700206080306D1022018811430180A7
:1021500002206884FEBD0020E0E7F0B5014640683B
:10216000FF2480688031F334245C01250B6ECA6F34
:102170006D02012C08D00023D380086D0288AA4389
:102180000280486D8384F0BDFF300624C130145FA7
:10219000068DB442F7DA641DD4804F6D00261024FA
:1021A0009E5F3C5FA64207DC02269E5FA64203DCE0
:1021B00004269E5FA64206DD0B6D1C882C431C8006
:1021C0004C6D0323A384CB6B5B7F002BDBD10623F9
:1021D000D35E408D8342D6DD086D02882A4302809B
:1021E000496D04208884F0BDF0B541680446803410
:1021F0008B68226D616E646D14250226455FA65FB3
:102200000020AE4203DC0C88641D0C8009E004262B
:10221000A65FAE4203DD4C88641D4C8001E008805F
:102220004880FF33002481330C5F1E880425B442AC
:1022300003DB088014882C43148002240C5F5F8821
:102240000826BC4203DB4880148834431480DC79C0
:10225000002C03D148801488B44314809B79002B50
:1022600003D108801088A8431080F0BD10B5FEF798
:10227000B7FB10BD70B50D4604460121C80202F03F
:10228000DFF86868002805D001286068296809D04F
:10229000884308E06068296888436060206829688E
:1022A000084304E008436060206829688843206090
:1022B000A86800282069296801D0084300E0884305
:1022C0002061E8680028A069296801D0084300E07F
:1022D0008843A06128690028E069296801D0084383
:1022E00000E08843E06170BDF0B5324F1601150281
:1022F00014030B0002F0F1FF10090D13181E222821
:102300002D33373D42484C52571D016A39408918D8
:102310000EE0016A274AE13A1140711808E0016AAB
:10232000254A1140691803E0016A0905090D611881
:102330000162F0BD416A394089180EE0416A1D4AC8
:10234000E13A1140711808E0416A1B4A11406918CE
:1023500003E0416A0905090D61184162F0BD816A17
:10236000394089180EE0816A124AE13A1140711829
:1023700008E0816A104A1140691803E0816A090582
:10238000090D61188162F0BDC16A394089180EE0FB
:10239000C16A084AE13A1140711808E0C16A064A68
:1023A0001140691803E0C16A0905090D6118C1628D
:1023B000F0BD0000F0FF0000FFF000000021016010
:1023C00041608160C16001617047000010B586B056
:1023D0006846FFF7F3FF154C032204212046FFF760
:1023E00083FF032205212046FFF77EFF03220621FB
:1023F0002046FFF779FF032207212046FFF774FFED
:10240000032208212046FFF76FFF032209212046FF
:10241000FFF76AFF012101913F21090100916946FF
:102420002046FFF727FF06B010BD0000400D014019
:1024300002494969C906C90F01707047800C014003
:10244000704710B50146082001F0FAFF10BD0000EA
:102450008179828809040A43C179037A09051B0638
:1024600019430A43417A09070A43817A49070A4313
:10247000C17A89070A4303490A600068C8600020DE
:102480004860704700030140064981800021817146
:102490000122C271027242727D228172D2000260F8
:1024A000C1727047FF0300000EB56846FFF7ECFFEE
:1024B000012040026A46908000209071D071012175
:1024C000117251729172D072044800906846FFF701
:1024D000BFFF0120FFF7B5FF0EBD0000007C92009A
:1024E000084942890A6082894A60C2888A600289F2
:1024F000CA60028A0A61C2894A6102880A63408806
:1025000048637047000C0140F8B5044640688034C9
:1025100007468568E020465F1848761C4643E06B16
:10252000783701683846FEF7D7F80146206C4068D6
:10253000002800DA4042814200DC80353846296FAD
:10254000FEF7CAF8314602F096FE0906000A084373
:10255000216C08623846696FFEF7BEF8314602F01A
:102560008AFE0906000A0843216C4862206C016853
:102570008161206C183003F01BFCF8BD894100001C
:102580007047000010B572B62248234CA062A068C4
:1025900021140843A060C800016882001143016053
:1025A00000F066FAFFF7EBF802F094FCFDF722FF6B
:1025B000FDF75CFFFFF70AFF00F0AFFF02F07AFDC6
:1025C000FFF7A4F801F0C0FAFEF7BDF9FFF76CFFC2
:1025D00002F0CAFB642001F066FF0221002002F035
:1025E00095FE0221092002F091FE01210E2002F049
:1025F0008DFE01210F2002F089FE0121102002F042
:1026000085FE0E2002F076FE002002F073FE002010
:10261000A06210BD837A000080000040F8B5054636
:10262000222250431A4E01218419A1700027194912
:10263000E7702A0189580B7C237589893152212042
:102640000755144811182A46204600F09DF8E4204A
:10265000114A4543AB1818468030816D0F4E898D65
:10266000B14207D15159A288098F891842690904DA
:10267000516009E00A4EB14206D15259A188128F29
:10268000891A426909045160406940681866F8BDBA
:102690008410002048100020180F002001080000BE
:1026A00002080000F8B5044608260A220C25077D1A
:1026B000865F825E455F0E2010231221205EE35E5E
:1026C000615E012F05D0B218281812B200B2591855
:1026D00004E0B21A281A12B200B2591A0BB216004C
:1026E0000546194601D5564236B2002D01DA45425B
:1026F0002DB2002901DA594209B2AE4202DB8E4204
:1027000000DB0127B54202DB8D4200DB0227B1422C
:1027100002DBA94200DB0327F9B2012911D002290B
:102720001CD0111A5B009A1A101A144D144A6943EE
:102730005043C913C013FEF7B9FC11494018A080DB
:10274000F8BDC11A5200101A0C4D0D4AC01A694347
:102750005043C913C013FEF7A9FCF0E7991A4000D3
:10276000801A064D064AC01A69435043C913C01364
:10277000FEF79CFC03494018A080F8BDE749000023
:10278000ABAA000055550000F0B50446E4204243D2
:10279000964885B0161801968036049630690090E8
:1027A0000020B76C0290204620300D460390A078A0
:1027B00001287DD1E07807287AD2401CE0700C21F6
:1027C000A868FDF753FDE07807281AD20100794484
:1027D000097949188F441503070B0F12AF00A96838
:1027E000208848800DE0A9682088C88006E0A96894
:1027F0002088C88005E0A96820884880A9682088CA
:102800000881A868418849420180A868C188494276
:102810008180A868018949424181F16CF06D496964
:102820008847744A72481060744973480861744854
:102830001060F06C816901208847724800210161B5
:1028400001990968096B6F4800698842FBD3207DB4
:10285000012821D0A96800204880A9680880A968BB
:10286000C880A9688880A9680881A9684881F16C36
:10287000F06D496988475F495D4808605F4A5E4876
:1028800010610920C04390605D4808605D480021E8
:1028900001610169C829FCD35B4A516BD014014323
:1028A00051635A4B596B01435963594BD36300E051
:1028B00092E058484169C907FCD0564A5169032043
:1028C000014351615148C36353484169C907FCD072
:1028D000514A51690320014351614B4A506BD11455
:1028E000084350634948406B084348494863D363F1
:1028F00048484169C907FCD0426903210A43426143
:10290000424AD36344484269D207FCD042690A4331
:102910004261F06C8169002088473A4900200861D3
:10292000F16C306D09688847207D012807D03B484D
:102930003946786006E0A9682088488057E738481B
:1029400039467860084679688847B868018A0098EF
:102950000180B868418A00984180B868818A0098EF
:1029600081800498022102690020105E515E237D5F
:10297000E278012B0AD0072A1BD213007B441B7973
:10298000DB189F441607090B0D0F1300510009199E
:10299000C8800EE020810CE060810AE0A18108E09F
:1029A000E18106E040184142218202E040184142A4
:1029B00061820198134A0068406B11698142FCD31F
:1029C000E078062808D10020E070A0702046FFF7CC
:1029D00069FE0398012141700298401CC0B2029028
:1029E000062800D2E3E605B0F0BD0000180F002075
:1029F000ADDE0000C00C0140FFFF0000400C0140B4
:102A0000CDAB0000000301404004014040050140FF
:102A1000A55A000080040140800501406941000082
:102A2000494100000346002010B4012189030246F9
:102A3000401800B20446444364009C4201DD401A41
:102A400000B2521C491092B20E2AF1D3411C09B2B5
:102A50000A464A4354001A1B00D5E21A044644436E
:102A600064001B1B9A4200DA084610BC7047000045
:102A70000F200249800248607047000000170140A3
:102A8000F8B5054604468034208B29460C310027D2
:102A900002060091002A0DDA40060BD5084602F026
:102AA00009FE002806D0686803F082FA208BC22154
:102AB00088432083208B81071BD42E464006303666
:102AC00000280ADBE88D012802D00120B08513E040
:102AD0000020B085208B402108E0009802F0EAFD3C
:102AE000002809D00020B085208B022108432083D4
:102AF00002E0000600D401273846F8BDF8B50F46BD
:102B000005461349000144181646591C1148FDF7A3
:102B10000DFB0146002020706780A680E0802181A7
:102B20000D49E0606A008B5A14212E460B4C4E432F
:102B300031190B810A4B9A5A4A81A051E42045432E
:102B400008480C224059825E50424860F8BD00009F
:102B5000DC100020FF7F00003C000020A8100020B7
:102B60003E000020180F002070B5064603F06AF8FA
:102B7000050014D0304601F04DFE34468034208BE1
:102B800040050CD53046FFF7B1F83046FFF748FA5C
:102B9000208B012189028843082108432083304685
:102BA00002F0F6FD304601F06DFC284670BD0000D5
:102BB00010B572B6FDF71EFCFDF758FC00F0ADFC39
:102BC0000548426BC1140A4342630448426B0A43FE
:102BD000426362B610BD0000400401404005014060
:102BE000F1B582B002985421484332490026441876
:102BF0000298882148432F4954314518282006550A
:102C00002F182846443000901C213846FDF72EFB33
:102C1000206A1C2100883881206A40887881206CD5
:102C2000408900047860206C0089000438600098B6
:102C3000FDF71CFB206A224A818800980181206AE6
:102C4000C18800984181206CC088010400984160CF
:102C5000206C80880104009801602846403046843A
:102C600006846E61AE61EE614685134901856E8210
:102C70002E826E622E62EE81AE818684C684E670FC
:102C8000A06B616C808940084880616CC880616C71
:102C90000881616C40420880616C8880616C488169
:102CA00002980649C0000E5040188280204600F06D
:102CB00088F9FEBD14020020FF7F00001C000020E8
:102CC00082020000F8B5E4212B4A41438D182221ED
:102CD0002A4A41438C182A49000141180120A0705A
:102CE000E070A868007C2075A8688089208040007A
:102CF00006B2207D012821D028683146006BFEF7FE
:102D000045FDE08229687043098E081AA9688989FF
:102D1000081A2083E08A401CE08228683146456B0F
:102D20002846FEF733FD60837043281A00B2A08363
:102D3000002802DD608B401C6083F8BD0868082114
:102D4000415E408908182968096B471831463846A2
:102D5000FEF71CFDE082A9687043381A898900B229
:102D6000814206DC401A081A2083E08A401CE08277
:102D7000D3E740422083D0E7180F002084100020C2
:102D80004810002010B502F001FF10BD10B51F4C17
:102D9000002021462070543108701D490878607069
:102DA00088680A46807BA070B4320846A2619C30D5
:102DB000E0605030606124382061BC38E0614868D0
:102DC0006062144820632046921D42640146826975
:102DD000C03182640162416A30318163416AC163FA
:102DE00044310164C168416300F0EBF80A48E064D3
:102DF000002001F04FF80948206505480A21806845
:102E0000415E002003F08CF810BD00001402002089
:102E1000C4000020B9430000A464000074640000F2
:102E2000F8B5054604468034208B29460C3100272E
:102E300082060091002A0FDAC0060DD5084602F07E
:102E400039FC002808D0686803F0D6F9208B3021BF
:102E50008843400840002083208BC10704D08006AF
:102E600000D401273846F8BD2E46C006303600286B
:102E70000ADBE88D022802D00220B085F2E70020AC
:102E8000B085208B102108E0009802F013FC002888
:102E9000E8D00020B085208B012108432083E1E7A2
:102EA000F0B4E421204A41438E18314680360C317B
:102EB000B446B36BF26B0E4680361C4FB56A7C424B
:102EC0005F601C605760146000249C6194619C8268
:102ED00094822F881F816F885F81AB881381EB8874
:102EE00053818C61CC61F2680D4652688A65F26844
:102EF000603553681360CC640C650C638C866C7110
:102F00000C672C721C210A4AAC714143EC718A187F
:102F10006646B263074A8918F1630C2148430649A3
:102F200040187064F0BC7047180F0020000001804A
:102F300004100020201000203C100020FEB50646A2
:102F40000020344680340190208B31460C318205BC
:102F50000091002A0EDAC0050CD5084602F0AAFB43
:102F6000002807D0706803F0C7F9208BC1218900C1
:102F700088432083208B35464107002730350029C0
:102F800017DBC0050AD4F08D032802D00320A885E2
:102F900015E0AF85FF21208B013107E0009802F09A
:102FA00089FB00280BD0AF85208B042108432083A8
:102FB00005E0AF85208B800501D4012001900198A8
:102FC000FEBD10B5044602F0BDFAA16C088002F007
:102FD000C1FAA16C488010BD10B502F0E1FD10BD32
:102FE0000189002903D18030C08AC00401D50120A5
:102FF0007047002070478030C08AC10703D0C00BE3
:1030000001D001207047002070478030807D40064D
:10301000C00F704710B5074C21468031C88B00287F
:1030200001D0401EC8832046FEF782FD204602F0F4
:10303000C8FB10BD00030020084942890A6082894C
:103040004A60C2888A600289CA60028A0A61C289AB
:103050004A6102880A63408848637047000C014057
:10306000F8B504460121880201F0EAF9FE48FD495D
:103070000160204620304279817992001143027923
:10308000C378D2001B011A431143827852011143C5
:10309000E27F92011143A27FD2011143427800786E
:1030A0001202114340020143607F80020143207FEE
:1030B000C0020143EC488038C163EB48A18EC038A0
:1030C0000163E18E4163218F8163618FC163E648B3
:1030D0002188803801606188416021466031CA7C66
:1030E000887C120110430A7D4B7D52019B011A43DB
:1030F00010438A7D12021043CA7D120310430A7ED8
:10310000520310434A7E92031043D74A803A5063D9
:10311000D548A28F80380262E28F42622246403256
:10312000138883625388C362CF48D04E40384661CB
:103130002046A030C57883786D002B43057A477A06
:10314000AD00FF003D432B43857A2D012B43C57A0B
:103150006D012B43057BAD012B43457BED012B43DB
:103160000579AD022B434579ED022B4385792D037B
:103170002B43C5796D032B43857BAD032B43BA4DA0
:10318000403D2B60057CC37B6D002B43457D877DD7
:10319000AD00FF003D432B43C57D2D012B43057E34
:1031A0006D012B43457EAD012B43857EED012B4305
:1031B000457CAD022B43857CED022B43C57C2D0362
:1031C0002B43057D6D032B43C57EAD032B43A64DDD
:1031D000403DAB60037F1D01437F5B011D43837F47
:1031E0009B011D43C37FDB011D432346C0339F78F2
:1031F0003F023D43DF787F023D439B4F403F3D61AF
:10320000994D803D2E619688AE61D688EE611E880C
:103210002E631E7E5D7E76003543DE7D9F7DB6008B
:10322000FF003E4335435E7D360135431E7D76010A
:103230003543DE7CB60135439E7CF60135435E7C2A
:10324000360235431E7C76023543DE7BB6023543BB
:103250009E7BF60235435E7B360335431E7B760349
:103260003543DE7AB60335439E7AF60335437E4E08
:10327000403EB5615E791D79760035439E79DF79F0
:10328000B600FF003E4335431E7A5B7A3601354374
:103290005B011D43744B403BDD61557A137A6D0031
:1032A0002B434D780E78AD00F60035432B43557D0A
:1032B0002D012B43157D6D012B430D7BAD012B4360
:1032C000258DED012B43957A2D022B43D57A6D0286
:1032D0002B43CD78AD022B438D78ED022B43D57D6A
:1032E0002D032B43957D6D032B434D7BAD032B436A
:1032F000658DED032B435C4D403D2B62557B137B6D
:103300006D002B434D790E79AD00F60035432B430C
:10331000557E2D012B43157E6D012B438D7BAD0119
:103320002B43A58DED012B43957B2D022B43D57BA4
:103330006D022B43CD79AD022B438D79ED022B43EA
:10334000D57E2D032B43957E6D032B43CD7BAD03A3
:103350002B43E58DED032B43434D403D6B62557C84
:10336000137C6D002B434D7A0E7AAD00F600354389
:103370002B43557F2D012B43157F6D012B430D7C76
:10338000AD012B43258EED012B43957C2D022B4364
:10339000D57C6D022B43CD7AAD022B438D7AED02A5
:1033A0002B43D57F927F2D032B43520313434A7C3B
:1033B00092031343628ED20313432B4A403A936223
:1033C000294AA388C03A1360E38853602389936035
:1033D0006389D360A3891361E3895361238A93616D
:1033E000638AD361A38A1362E38A5362238B936255
:1033F000638BD3628034CA7F23789200DB001A4348
:103400008B7E1B011A43CB7E5B011A436378DB0181
:103410001A434B7F1B021A438B7F097F9B021A437F
:10342000C9030A43104940390A63E179227A8900C5
:10343000D2001143A27812011143E27852011143E4
:10344000627AD2011143627912021143A279920287
:1034500011432279D2031143034A403A5163E17A7E
:10346000A27A05E0ADDE0000C00C0140FFFF0000C5
:1034700052001143627B237B9200DB001A4311430D
:10348000E27B12011143A27B52011143627C920143
:103490001143227CD2011143E27C12021143A27C2F
:1034A00052021143627D92021143227DD2021143E6
:1034B000154A9163E27DA17D52001143227E637E15
:1034C0009200DB001A431143A27E12011143E27EF7
:1034D00052011143227F92011143627FD2011143B5
:1034E000A27F12021143E27F520211430278407818
:1034F00092021143C00201430348C16302480349D9
:1035000040300160F8BD0000800C0140FECA0000A0
:1035100010B5E421FCF7AAFE10BD70B5BAB00020CA
:1035200001F0B0FF064602F0D5F80446304601F03F
:10353000E7FF0546B0798607B60F6846FFF7E8FF54
:1035400008AB9E7101225A710C2030AB1870587074
:10355000901E38906B46DA771C80002119855985BA
:1035600099859D87DD87597708AB597010AB998095
:1035700018AB9974DA74197528205975001B6B46BD
:103580009886641EDC8610AB1A7259729A72D972D0
:103590001A73597318AB19735973997320AB9972D5
:1035A000DA7219735A739973DA7328AB9970D970F8
:1035B000997320AB9A75DA751A765A769A76DA7616
:1035C00018AB997628AB197718AB5A77D977D97693
:1035D00028AB597718AB9A7720AB19705A7018AB93
:1035E0001A776846FFF73CFD02F018FC3AB070BD50
:1035F00070B5044605784069818D206902290ED096
:1036000001291FD003292BD0042934D0424A9142EA
:1036100039D1428C4B1C9A4235D0428474E0428CA2
:10362000022A70D02846FEF721FE2846FDF72EFC20
:10363000284602F065F8010002D0284602F034FC6A
:1036400002205DE0428C012A5DD02846FFF7C8FACF
:103650002846FFF725FC284600F0FCF901204FE042
:10366000428C032A4FD02846FFF7BAFA2846FFF7C4
:1036700017FC032044E0428C042A44D02846FFF77C
:1036800021FB04203CE0052908D006290FD007299A
:1036900016D008291DD0092923D034E0428C052AF0
:1036A00031D0206DC16901208847052028E0428C77
:1036B000062A28D0206DC1690220884706201FE015
:1036C000428C072A1FD0206DC1690320884707203C
:1036D00016E0428C082A16D0206D006A8047082028
:1036E0000EE0428C092A0ED0206D806A8047216D41
:1036F000E068496A8847E0680078002804D109201A
:103700002169488400E041846069808D002801D1EE
:103710002169488470BD00000108000010B5154CF7
:103720002046FFF765FF204640691349C288CA81D9
:1037300082888A8180684862204620302269417AE6
:103740009170017A206920300170204602F008FD56
:10375000002000F033FA204602F07AFD606980789C
:10376000012806D0044A0020583211461C3902F0C4
:1037700035FE10BD1402002068020020F8B5064690
:1037800001F026FF4468A0687834816E2046FCF77B
:10379000A3FF0949B5004851074FFF212D313F1DB7
:1037A000002E204603D0FCF79DFF7851F8BDFCF7B2
:1037B00099FF3860F8BD00002400002070B5054670
:1037C000064604463035783600F0C9FE2046803083
:1037D000C18A012292021143FF34C1820134608800
:1037E0002188E880A980012028730320A870012186
:1037F000304602F0A1FB70BD70B501460346803033
:10380000C28B012430317833A402002A14D0521E16
:103810001204120C0546C2830ED0C28AA243EA8269
:10382000022008730020C880888088608870012189
:10383000184602F081FB70BDC28A2243C282EFE7C4
:1038400070B50446064605463034783601F0F4F883
:10385000284601F09DFFE91DF93148880988E0807C
:10386000A1808035286C01214068A0600120207370
:103870000620A070304602F05FFB70BDF8B506462A
:103880008036F18A04464908074649000546303427
:103890007837F182FEF7E4FAF08AC00B01D00120FC
:1038A00000E002202073B08C60850520E0810020BC
:1038B000A0700121384602F0FFFAA87B012804D04D
:1038C0000021384602F038FBF8BD0121F9E700007D
:1038D00070B5064604463034783035468035A97DCB
:1038E000890701D40E4901E00D49491CA185012138
:1038F0002822115521730821A170012102F01CFB1F
:1039000030460C3001F04EFE80210028E88A04D0B9
:103910000843E8820020A08570BD8843E88270BD1E
:103920000108000070B50446064605463034783676
:1039300000F060FE8035E96B00204877A98C618536
:1039400001212173A0850720A070304602F0F4FA0F
:1039500070BDF8B504468034E16B05460646012784
:10396000303578364F7702F081F8E08AB902884323
:10397000E0822F73206C01214068A8600620A870A7
:10398000304602F0D9FAF8BD70B505460646044641
:103990003035783600F0E8FE8034E08A0121890273
:1039A0008843E08201202873A8700146304602F067
:1039B000C3FA70BD30B5234D214AAA62EC052269D5
:1039C000636A002806D001280DD0022816D00328EB
:1039D00020D02AE090084A688000024304208343F4
:1039E0008868800008E00C20824348688000024319
:1039F000082083438868C000034316E01046302245
:103A000090434A68120102431846102398438B687A
:103A10001B0109E0C0208243486880010243184628
:103A2000202398438B685B010343032000028243F9
:103A3000086800021043206163620020A86230BD64
:103A4000837A000080000040032101604160002172
:103A5000816070472C21114A41438918E422504368
:103A60000F4A82180020086048608860C8600861BA
:103A700048618861C8610862486288625068428B08
:103A8000084802627D22D2004262806A08840320D4
:103A900008850520C88408208884704758100020B5
:103AA000180F0020003001402C21254A414389187D
:103AB000E4225043234A30B48018034680339A6985
:103AC000403014685A6B0088926988820304086940
:103AD0008D8C1B1A2B411818086122232025CB5EE0
:103AE0004D5F0014AB4206DA5B1C4B8488690019F9
:103AF000886130BC704700234B84CD698C69641B9E
:103B00000D8D2C41CD696419CC618B61CB69002B83
:103B100000DA40425043C013C217030C12041A4388
:103B200003044860C868C4171B1AA241D4065A0986
:103B300022431018C8600014886030BC7047000031
:103B400058100020180F00200EB56846FFF77CFFC4
:103B5000002001F097FC407C00210091012102919E
:103B6000019069460020FFF725FF69460120FFF715
:103B700021FF69460220FFF71DFF69460320FFF77A
:103B800019FF0EBD0B4B0A4919600A494022403902
:103B90000028086B07D010430863486B1043486344
:103BA00000201860704790430863486B9043F6E725
:103BB000ADDE0000C00C014070470000E421F0B40D
:103BC00048432549401805468C35876EEA680C3015
:103BD000002F00DA7F42014660318B79002B06D03E
:103BE00001230B721468546000242C604B715368DD
:103BF000002B01DB1C4600E05C42466FA64204DC61
:103C0000002B00DA76422E6000E02B60C36FA342E7
:103C100001DC012300E000230B728B79002B18D10B
:103C20004B795268002BC36D09D0534305D4426FC2
:103C3000A24202DA806FB8420BDB002008E0534357
:103C400007D4426FA24204DC806FB84201DC01203D
:103C50004871F0BC70470000180F00208C46F0B58A
:103C6000E4214143E423674A5843664B8918C51849
:103C70002E46E0220C46525C0C360C344C35803615
:103C80000F6887B0002A66D08031886B0190C86BBE
:103C9000009038200222205EAA5E831A2269A07D4D
:103CA000534306900341E16CA06805904143C8135B
:103CB000C1183E23E35EE06D04904343E068DB13EC
:103CC00003905843637D02931841401886463A207A
:103CD0000423205EEB5E6146C31A53430698226DAF
:103CE0000341059849884243D013C2183C23E35E40
:103CF000049843430398DB135843029BA187614612
:103D000009881841E187101A206570463C21E0645B
:103D1000615E411A0198C1600198FDF74BFC688013
:103D20003E21615E206D411A0098C1600098FDF748
:103D300041FCA880F1680968002906DB0222AA5E1E
:103D40005142FDF7B3F9E88505E00221695E404282
:103D5000FDF7ACF9E885206FE98D8212891ABA8BDC
:103D600009B24A4380182067B16A8012498900B2BB
:103D7000E26941435118E161A26909125118A16138
:103D8000217FE161B16A098941430813A16989135F
:103D90004118204660308279002A11D14279002AE8
:103DA00003D1A26122671146E261C279002A07D0DD
:103DB0003368A2699B03D21AA2610022E261C27138
:103DC00030684018E065E18C4843616D40186065DB
:103DD000B1684860B88B0121E26D8902091A42433B
:103DE000A06D89B2484310188012A065F168086080
:103DF000688D2087A88D6087608D6885A08DA885D7
:103E000007B0F0BD180F002070B50D460C49000139
:103E100044182078002811D10A48002B205E06DAC9
:103E20004042C117FCF7F9F96960286004E0C11746
:103E3000FCF7F3F9696028600120207070BD000074
:103E4000DC10002004000000E4225043014A8018E6
:103E500041607047180F0020E4235843024BC018FC
:103E60008030826241627047180F0020E422504384
:103E7000024A80188030416170470000180F00200E
:103E8000E4235843024BC01880300262C16170477E
:103E9000180F002070B5064688202F49704345183A
:103EA00054207043543944183046216C00F07EF899
:103EB000294614313046FFF7D9FF294620313046D4
:103EC00000F07CF82A460832A91C304600F080F841
:103ED0002A461032111F3046FFF7D2FF2A462946E4
:103EE000443228313046FFF7B7FF2946603130466B
:103EF00000F082F83046E16900F074F83046216A3B
:103F000000F02CF83046A16B00F09AF83046E16BD7
:103F1000FFF79AFF21462C310D46304600F07EF81F
:103F20002946304600F072F83046A26C616C00F011
:103F30007FF8304601F026FB0146304600F022F8BB
:103F40003046A269E16800F013F8304622696169E1
:103F500000F022F870BD000068020020E422504307
:103F6000024A80188030416370470000180F00201B
:103F7000E4235843024BC0188030C2650165704786
:103F8000180F0020E4225043024A80188030C16498
:103F900070470000180F0020E4235843024BC0185C
:103FA0008030426581657047180F0020E42250433D
:103FB000014A115070470000180F0020E4225043BE
:103FC000024A80188030816170470000180F00207D
:103FD000E4235843024BC0188030C262016170472D
:103FE000180F0020E4225043024A801880300164F8
:103FF00070470000180F0020E4225043024A801846
:104000008030016370470000180F0020024A000151
:104010008018C1607047000048100020E42250431F
:10402000024A80188030816470470000180F002019
:104030000301024818184260816070474810002050
:10404000E422044B4243D2189160034A000111500C
:1040500070470000180F002048100020F8B50446F3
:1040600013481D46007816460F46002801D101F07E
:1040700071F80F48032C17D2EFF31081012282F35D
:1040800010881822624310181830002C05D00760E1
:104090004660856000220261C260069A4261C8B231
:1040A00080F310880020F8BD0020C043F8BD000058
:1040B000E00D0020F8B507460A48154600780E4680
:1040C000002801D101F046F8EFF31084012080F3BD
:1040D00010882A463146384600F006F8E1B281F3EE
:1040E0001088F8BDE00D002070B50E461821484339
:1040F000134914464518E86A1835002804D00128E9
:104100000FD0022805D113E0284601F057F8A0424D
:1041100001D2002411E022463146284601F08DF8F4
:104120000BE0284601F04AF8A042F4D20446F2E738
:104130003146284601F051F80446204670BD000083
:10414000E00D00207047704781684A888B89D21A39
:104150000A8281688A898B88D21A4A828068018A99
:1041600089184942818270478168CA884B88D21A6F
:104170000A8281680A898B88D21A4A828068018AF9
:104180008918494281827047F0B5834A000182183C
:104190004D8894686D422DB2D36810684D8000261A
:1041A0008E5F7E494D43B10369184942CD176D0CAE
:1041B0006918C9130FB2F1194942BC460DB26645E0
:1041C0000FDCAE420ADCB646AC4503DC01275F706B
:1041D0002F4617E002275F70674613E0AE460321C3
:1041E0000FE0AC450ADCE646AE4203DC04275F7014
:1041F0002F4607E005275F70374603E0AE46374697
:10420000062159707146C919CF0F79184910761ACD
:1042100067467F1A691A09B28E46012136B28903B0
:10422000858971184D43E91315683FB2AD898D42F8
:1042300001DA294602E0002900DA002189B2618012
:104240008C4639460127BF038589C9194D43E913B7
:104250001568AD898D4201DA294602E0002900DAAD
:1042600000218EB2E68071468589C9194D43E91354
:104270001568AD898D4201DA294602E0002900DA8D
:104280000021218165466D4225807542A580494205
:1042900061815E784249434D072E20D237007F442A
:1042A0003F79FF19BF441B031C3744506B00596012
:1042B00021890688B14203D25168808808800BE0CA
:1042C000E48846880C1B24B2A64204DAC088401A4F
:1042D0005168088000E05D60516800200871F0BD01
:1042E00031495960E1880588A94203D25168808824
:1042F00008800CE0248945880C1B24B2A54204DA0E
:10430000C088401A5168088001E028485860516808
:1043100002200871F0BD24495960E1880588A9424E
:10432000E4D3648845880C1B24B2A542EDDAE7E7A4
:10433000596021890688B142BED3648846880C1B27
:1043400024B2A642C7DAC1E71949596061880588D5
:10435000A94203D25168808808800CE024894588EE
:104360000C1B24B2A54204DAC088401A51680880A8
:1043700001E010485860516801200871F0BD0C49F7
:10438000596061880588A942E4D3E48845880C1BFC
:1043900024B2A542EDDAE7E748100020DA6E00000B
:1043A000B943000019440000D94300001B44000039
:1043B000F94300001D4400008168CA884B88D21A66
:1043C0000A8281680A898B88D21A4A828068018AA7
:1043D00089184942818270478168CA884B88D21AFD
:1043E0000A8281684A898B88D21A8A828068018A07
:1043F000891849424182704781680A894B88D21ADC
:104400004A8281684A898B88D21A8A828068418A66
:10441000891849420182704770477047704770475A
:10442000064B054A9A62DA050029516A01D0014318
:1044300000E0814351627047837A000080000040B1
:10444000074A064B93620129D16904D08143D161A7
:104450000020906270470143F9E70000837A000072
:10446000800000404180C1800181494201808180FB
:1044700041817047024A00018018C903C16070473A
:10448000DC100020014630318030C28AD20B01D0CE
:10449000012200E002220A73808C48850520C88131
:1044A00000208870704708B500210091814202D237
:1044B00000BF491CF9E708BDF0B501680446C817FC
:1044C00085B08A0A800510438B05029303906068CB
:1044D0000023C117820A89051143800501910090CC
:1044E000E0682289C71705463946FBF759FEC20C1A
:1044F000490311434203206966691218049071410F
:10450000A261E161029B03989B1A884106DA039934
:104510000298E161A061002D0ADB18E00098019B80
:10452000101A994104DA0098E361A061002D0EDDB4
:104530002846628900233946FBF732FE020E090243
:104540001143049A000210184E4166612061217FD8
:10455000A0698902800D084300B205B0F0BDF8B52E
:10456000054640682C46024680348668206C002749
:104570004760206C04218762A06C0623415EC35E05
:104580007832994205DA491C8180FF2051308159E7
:1045900008E00823C35E99420ADA491C8180FF20A3
:1045A000553081591046FCF791F8E16C086005E040
:1045B000E18A012252021143E1828780E06C01F01E
:1045C000F7FBE06C008A01B2E81DF9304180C18040
:1045D0008A0282602878FFF74DFF2846FEF715FD16
:1045E000002806D1FF360136F06C0104287801F06E
:1045F0007BFCF8BD70B5044624228034825EA56C35
:104600001046616CFCF7BCF8606C0122807A0021D6
:10461000920200281BD016201823285EEB5E9842D9
:1046200004DA401CE882606C817270BD1220285E42
:10463000002802DD401E688270BD206C4160206C45
:104640000160606C8172E982E08A104302E0E982D5
:10465000E08A9043E08270BDF8B504460646803497
:10466000A06C4088002802D1E16B02204871E06B09
:1046700035460279052100273035002A09D0A26C81
:10468000D05F00280ED00221515E88420CD1062056
:104690000EE001220271E26B3248D080A06C0780EC
:1046A000A98519E0A98504E04900884203D10720C3
:1046B000A88501202873A16C02228A5E0020085E72
:1046C0005300D218904203DA401C0880012004E015
:1046D000904204D1401C0880022028730EE0E06B59
:1046E0004179002902D0012911D007E0AF850220CD
:1046F0002873E06BC780F08D002804D0E06B407910
:10470000022809D019E00820A885012027E0F18DB2
:10471000002926D102214171F08D00280BD13046AD
:1047200000F078F8304601F0CEFBE16B03204871D1
:10473000E16B0220087102202873E06B40790328A6
:104740000FD102202873304601F066FA002808D005
:10475000E06B0771A06C0780E06BC7800420E16B01
:104760004871F8BDCC040000FEB5064640683446EA
:10477000014678310191806880340090A06C0C2251
:1047800041893546491C09B24181A06CA035825E41
:10479000002391422DDB0021418170683169543042
:1047A000FCF707FE616CF71D0860A17D02238907F5
:1047B000C90FF937002911D028D0E16B8A6852421D
:1047C000904220DA00988030816B0198FBF77EFFE1
:1047D00000B23880A17D890712D40CE0E16BCA6871
:1047E0005242904212DB89688842EBDAA06C818ADF
:1047F0004182EB76FEBD304601F038F9012006E03B
:1048000040423880F7E7C9688842EFDB0020E8764D
:10481000FEBD0000F1B584B00498049C406880346B
:1048200001467831009181680191E08A01214902B5
:104830008843E08204980025FF30013085800580A0
:10484000C58045808560C5600199086EE16B086090
:10485000E06B4577E06B0583019FE16BFF37013724
:10486000F86A8860E16B386BC860796B0098FBF779
:104870002DFF616CC880B96B0098FBF727FF616C56
:104880000881606C02210560606C8580E08A884345
:10489000E082E06B0571E06B4571019E8036F06C43
:1048A00001B20520C0020A31FBF740FCE16B08822F
:1048B000306D01B20520C0020A31FBF737FCE16B15
:1048C0004882396E0098FBF701FF5A4900F0D3FC8B
:1048D0000906000A0843E16C8860796E0098FBF7CE
:1048E000F5FE544900F0C7FC0906000A0843E16CD4
:1048F000C860206C4560206C0560316F0098FBF744
:10490000EBFE7D210004C900FBF710FC216C08655B
:10491000716F0098FBF7E0FE7D210004C900FBF7F2
:1049200005FC216C4865206C183001F072FAE06CCF
:1049300001F06FFA716A0520C0020A31FBF7F6FB3D
:10494000216C002288820498B0231A508030426380
:104950005D2020870199C0310291888C216C0887E5
:104960000299C88C216C4887206C00210164416445
:10497000B16E0098FBF7AAFE216C0863F16E0098F7
:10498000FBF7A4FE216C4863206CC563206C0561B5
:10499000206C8560206CC560206C8565206CC565C9
:1049A000206C403085840299206C098B4030C18492
:1049B0000299088CE16B488371680098FBF786FECA
:1049C00000B20290B1680098FBF780FE0199049A4A
:1049D0004031C98F16780BB202B230460299FEF709
:1049E0008DF8A06C05800199888CA16C4880A06C22
:1049F00085800199A26CFF314131088BD080088BF2
:104A0000498B4018A16C0881A06C4581A16C388D40
:104A10008881A06C4582A16CF88F8882A06CC582C9
:104A2000A16CB88F088304980078FEF7A7FE05B044
:104A3000F0BD000089410000F8B504460746803407
:104A40004268E06B256C018B1A23491C09B2018373
:104A5000E06BFE1DC35EF9367832994239DB0021E6
:104A600001831046796EFBF737FE2860216C0868D9
:104A7000002800DA40420860A17D890702D5216C38
:104A8000404208603846FDF73FFDA86A6860294645
:104A90003878162240312B68FFF7B6F9E06B407F7B
:104AA000012805D1002028646864E16B0220487762
:104AB000387800F045FE002802D0E16B03204877EB
:104AC000AA6869682846891A3030E963FFF7F4FC60
:104AD000B080387800F0F2FCF080B168E36B8A12A5
:104AE000801A10229A5E42438818B060801270804B
:104AF0000421F068715E8212891AE36B12229A5EB9
:104B00004A438018F06080123080F8BDF8B5054641
:104B10007830009068688768284601F093F82C4642
:104B20008034064600281BD02846FFF773FE208BF2
:104B3000400528460AD5FDF7D9F82846FDF770FA52
:104B4000208B012189028843208301E0FDF7D6F8FC
:104B5000208B082108432083E08A09020843E08271
:104B6000284600F015FE2846FFF78CFC787F30358C
:104B7000012800D002202873E08AC00B03D0012155
:104B8000009801F0D9F93046F8BD704700B5FCF740
:104B9000CDFB00BD0748016A0422114301620648AB
:104BA000C178491CC1708188491C8180C188491C19
:104BB000C180704700060140F00200207047704736
:104BC00070470029016803D00122D207114301E098
:104BD000490049080160704770B505463C480C46DD
:104BE000854202D10121102010E03A48854202D1CD
:104BF000012120200AE03848854202D101214020CD
:104C000004E03648854203D101218020FFF718FCDB
:104C100020782179400709070843E16EC906084357
:104C2000216F89060843217A49060843217B09063A
:104C30000843218AC9050843A18A09050843218B35
:104C4000C9040843A18B89040843218C4904084303
:104C5000A18C09040843A16A09030843E16AC90257
:104C60000843216B89020843616B49020843A16B29
:104C700009020843E16B09010843216CC90008439C
:104C8000616C89000843A16C49000843E16C08434A
:104C90002860206D6860A06DE860E06D2861206E7E
:104CA0006861606EA861A06EE861606FA16F4002EC
:104CB00009020843E16F8034C90108432168890073
:104CC0000843616849000843A1680843686270BDF1
:104CD00000060140000701400008014000090140B2
:104CE0000021016041608160C160016141618161B9
:104CF000C161016241628162C1620163416381639A
:104D0000C163016441648164C16401654165816579
:104D1000C165016641668166C16601678167416759
:104D2000C1678030016041608160704770B50D4D92
:104D30000024E878022806D3EC70FEF7EFFC00F0C0
:104D400031F8FEF767F9A888142800D3AC80E8880A
:104D50007D21C900884200D3EC80A878002800D0CB
:104D6000AC7070BDF002002070B50B4C0948A06219
:104D700001214803FFF754FB0848FBF7DFFA084D11
:104D800028800648001DFBF7D9FA688001481030DA
:104D9000A06270BD837A000080000040D014000043
:104DA0000000002010B5064C204601F06DF92046A9
:104DB00000F0CCF800F008FB00F010FB10BD000084
:104DC0008805002010B5044600F0D8FBE0720020F2
:104DD000A072204601F0F6FA10BD70470648016A3D
:104DE000C906016A01D5102203E0890603D5016ACC
:104DF000202211430162704700110140F8B50546B9
:104E000027480C46854202D10121880304E0254849
:104E1000854203D10121C803FFF712FB0026224877
:104E20002168FBF76DF9214F009004E0B11C761C5E
:104E30000098FBF765F9B842F8D81D498E61401E0D
:104E4000C1B2A9600004000E6860E079012802D0B8
:104E5000022822D000200021637922795B001A43C6
:104E6000A379C9009B000B431A4300010243207A37
:104E700040010243607A80010243A07AC0010243EC
:104E80002A60607C217C400008436862A089286118
:104E9000E07BA861A07BE861F8BD01200146DBE76B
:104EA000001001400011014000D8B805FFFF0000CC
:104EB000800000404B21C901016000210171417156
:104EC0008171C1710172417281728181817301743A
:104ED0004174704700B585B06846FFF7EBFFE120ED
:104EE0004002009000200190022069468873024829
:104EF000FFF784FF05B000BD0010014010B5024669
:104F00008032D38A074C2343A410A3436400D38286
:104F1000002901D0234300E0A343D3826030C0784E
:104F2000907610BD0180000010B504462030407F0F
:104F3000800701D5832000E08120A072204601F087
:104F400041FA204600F01CFB208310BDF8B5054651
:104F5000044640680127FF300130818E20343943F8
:104F6000818669681C22FF3120463531FBF765F9DF
:104F700068680026FF300130818EB9438186A269BE
:104F8000002A05D12088810702D4617F490702D514
:104F90000321217703E04006C00F00D12677207F50
:104FA000002817D0012819D002282FD0032852D06A
:104FB000267768682946FF300130878368681822A1
:104FC000FF3008311D30FBF738F96868FF300130D9
:104FD0008683F8BD20784006C00F34E0607FC106AC
:104FE0000CD5C007C00F09D02846FFF79DFF2078D9
:104FF0004007C00FDDD002202077DAE7AE722846E6
:1050000001F0E0F9284600F03BFA4DE000F0B0F97D
:10501000002805D0607F20210843410849006177BE
:10502000607FC10603D5C007C017401C0FD02846BB
:1050300000F0A4FAE872AE72284601F0C3F92088A5
:105040008108384688430028B3D02777B1E728463F
:10505000FFF76AFFADE7617F480701D4002A03D05C
:105060002846FFF7AFFEA4E722889007C30F284623
:105070004030002B1CD093083A469A4316D0027C4D
:10508000012A01D0090794D5418A491C89B241827D
:10509000828A91428DD342822020A872284601F054
:1050A00091F9284600F06AFAE87282E7468280E7C2
:1050B0004682CAE710B5A4B06846FFF711FE00208B
:1050C0000B49149111900C90109019900B9049106D
:1050D00005900420074C169117911A9069462046B6
:1050E000FFF77AFD01212046FFF76BFD24B010BDCC
:1050F00080BB00000006014070B54668044680345D
:10510000B568606E00210180606EFF354180013519
:1051100078363046296FFBF7E5FA616D48803046F6
:10512000A96FFBF7DFFA616D888070BD704710B51D
:105130000446406881687830FF310131C96FFBF760
:10514000D1FA1421615E00B2814201DB012010BD61
:10515000002010BD10B5114C03202061606110A02B
:10516000A0612046A830E061802020620021A16279
:105170006162E1620AA020660C4860661020A066A9
:105180002167E16661670AA1E01DFBF77AF809A1D2
:105190002046FBF776F82020A07110BDE00D00201E
:1051A0005465726D696E616C00000000080F00208C
:1051B0005254540053454747455200008268002A24
:1051C00006D00169C068814204D8101A401802E074
:1051D00000207047081A401E7047F7B5054682B098
:1051E00000200090EC6817462869A04201D9061BF0
:1051F00002E0A968201A0E1AA868761E001BB042A9
:1052000000D80646BE4200D33E46686832460019C2
:105210000399FBF712F80098BF1B801900900398C0
:10522000A41980190390A868A04200D10024EC6062
:10523000002FD9D1009805B0F0BDF7B50446C76876
:105240008068E168C51B606816464018B54205D9FC
:105250000199FAF7F2FFB819E060FEBD2A460199FC
:10526000FAF7EBFF0199761B606849193246FAF7A5
:10527000E4FFE660FEBDF0B404148BB2264682B2B1
:105280005E430D141046371458433604801900212C
:10529000794116466E433714360480197941264603
:1052A0006E438919F0BC7047F0B4040C8BB22646EB
:1052B00082B25E430D0C1046370C584336048019F9
:1052C0000021794116466E43370C36048019794126
:1052D00026466E438919F0BC704730B47446641E8C
:1052E0002578641CAB4200D21D46635D5B00E31869
:1052F00030BC1847002805DBC106C90E01208840D4
:10530000014908607047000000E100E08307FF22C8
:10531000DB0E9A408907090E9940002808DB8308B4
:1053200009489B001818036893430B4303607047B8
:105330000007000F0838830804489B001818C36949
:1053400093430B43C361704700E400E000ED00E0CD
:1053500002E008C8121F08C1002AFAD1704770473E
:10536000002001E001C1121F002AFBD1704700009C
:1053700003480078022801D00020704701207047C0
:105380001600002010B5FCF726F8112802DA2021BB
:10539000081A10BD0F2010BD0A48017880290ED1CF
:1053A00041780A290BD18178052908D1C1780129D2
:1053B00005D18179012902D1C079012800D00020CE
:1053C0007047000000FE01000348007F022801D062
:1053D0000020704701207047A8050020F0B5254A3D
:1053E000254C11464E881778711C8DB22349002335
:1053F0000978002F04D0012F12D0022F37D124E0DA
:10540000432902D0542904D008E044200EE0538000
:10541000F0BD002E02D001201070F8E72370F6E7EF
:10542000542902D0592906D021E0532020705580FC
:10543000642DECD2F0BD002E19D0002802D17D20C1
:105440008001508002201070F0BD592902D01370E5
:105450002370F0BD002802D05380642005E07D2039
:10546000800155808542F4D365202070F0BD137013
:105470005380EDE7160000200110002000100020EE
:1054800000207047002801D0002070470148806844
:1054900070470000C4000020002801D000207047A1
:1054A00000487047C4000020E421484302494018E6
:1054B0006030007D70470000180F002010B50E4AC4
:1054C00001018C18E4210D4A414389186031497C5F
:1054D000002902D0FBF70CF900E06088E08001B2FF
:1054E000E068C213891A0822A25E51430818E060DE
:1054F000C01300B210BD0000DC100020180F002007
:1055000010B5014602228A5E80897D215043C90080
:10551000FAF70CFE80B210BDE4214843034940185D
:10552000803040694068000C70470000180F002070
:10553000E421484302494018806E00B270470000E1
:10554000180F0020024800686421081A00B2704752
:10555000400C01400348006819214901081A00B2B3
:1055600070470000400C0140882148430249401820
:10557000008C00B2704700006802002000207047D5
:10558000C82070472C21484301494018704700004B
:105590007464000022214843014940188088704704
:1055A00084100020408C0349884201D101207047BB
:1055B0000020704704080000222148430249401897
:1055C0002030407870470000841000200120704790
:1055D000002801D0002070470048704700030020D9
:1055E00070B5064600F03CF80446304600F038F846
:1055F00025464543304600F053F80446304600F057
:105600004FF844432819FDF70DFA0449484304496B
:105610008013884200DD084600B270BD825A000047
:10562000FF7F0000882148430A4910B5401808212F
:105630000A22415E825E494352438818FDF7F2F91F
:105640000549484305498013884200DD084600B2F9
:1056500010BD000068020020825A0000FF7F000099
:10566000E4214843024941187620085E7047000053
:10567000180F0020E4214843084936224018A02191
:1056800009580223825ECB5E5A433823C35E002052
:10569000085E43439818C01300B27047180F0020EB
:1056A000E4214843024941187820085E7047000011
:1056B000180F0020408C002801D0002070470120E6
:1056C000704700002C21484301494018806870470A
:1056D0005810002010B5827981889207920F91406E
:1056E0000222825E4C0005491046FFF7C4FD2246A7
:1056F000E317FAF72FFD80B210BD000040420F0003
:10570000FF21513148430349401881689E20085EBB
:1057100070470000C4000020882148430249411816
:105720000220085E7047000068020020882148437C
:10573000024941180420085E7047000068020020FA
:10574000E4214843024940186030407C7047000023
:10575000180F0020E4214843024940188030406B74
:1057600080697047180F002088214843024941187A
:105770001220085E7047000068020020882148431C
:10578000024941181020085E70470000680200209E
:1057900010B50446406881687830896EFAF79CFF3E
:1057A00001468034206C8068002800DA40420122E3
:1057B00092028842E08A01DC104300E09043E082DC
:1057C00010BDFEB5054678301C210190FAF74EFD5C
:1057D000302168180090FAF749FD69680120C0314E
:1057E00008816968284624220C30C831FAF725FD63
:1057F00069680020C0310881FF2069681D30405A67
:10580000002806D12846FF31182260301D31FAF7F2
:1058100014FD284600F088FA284600F02FFA28895F
:105820002C46803400280AD0E08AC00405D5A07E2A
:10583000002804D0E87A002801D1A97AA176287A34
:105840008007208B04D50121C9020843208305E08D
:10585000010503D501210903084320832846FDF7EC
:10586000BFFB0A21002806D0E08A400501D56177F8
:1058700001E009206077607F2E4620770427A0365C
:105880000300FFF72AFD0B07D4D4D4152537738600
:105890009AA5D4002846FDF767F9002817D02846B6
:1058A000FFF745FC0028F9D0284600F00CFB1FE06C
:1058B0002846FFF72BF9002809D02846FDF79BFB67
:1058C000002801D00520A6E0284600F0FCFAAFE051
:1058D0002846FBF713FD2846FDF78DFB002807D06F
:1058E000E06B4079042804D10020B076062092E0D5
:1058F00067779DE0B07E0300FFF7EFFC06044520CC
:105900001C272E45A07DC006C00F11D02846FEF7EB
:105910003BF8F07E012802D0022802D033E00320B9
:1059200018E02420285E616CFAF74FFF022011E096
:1059300004200FE02846FEF70CF822E02846FDF789
:10594000F1FFE08A4005F3D41DE0A07D4006C00FC2
:1059500009D00520B07616E02846FDF7B9FFA07DF6
:105960000006C00F0FD0072060770CE0E08AC0056A
:10597000C00F06D02846FDF721FFE08A8005C00F42
:1059800001D00820F0E72846FDF735FB00288BD032
:105990004EE02846FDF754FF2846FDF72CFB002873
:1059A00002D0208BC00B43D0208CE0832420285EC3
:1059B000616CFAF70AFF09202DE02846FDF71CFF6D
:1059C000E08A400500D56FE72846FDF714FB2FE07D
:1059D0002846FDF753FF2846FFF7A9FB002827D0EC
:1059E0002846FDF7FDFA00280DD0208BC104C90F11
:1059F0001ED00105C90F14D0E98D09290DD00098DA
:105A00000921818514E0E08A810411D5C1040FD4F5
:105A10000005C00FD7D160770AE00121C902884391
:105A200020832846FBF7A2FC00210098E9E7617774
:105A3000284600F05BFB69680120C03188856868F2
:105A40003022EC300099FAF7F8FB69680020C03189
:105A50008885FF2168683531095AC90705D1FF30AB
:105A60001C2235300199FAF7E8FBFEBD8030016C4D
:105A70000A698A60016C0A699202CA60016C8A68CC
:105A80004A60006C8168816270470000F8B50F4F72
:105A90000024FF20513026464643F519014628468A
:105AA000FAF7E4FB0948E101803808186860FF2034
:105AB000F530074960434018A8600648005D641C43
:105AC0002406B855240EE4D0F8BD0000C400002020
:105AD00008FE0100A0640000F8B5FF211131484321
