:020000040000FA
:1000000008030020D9000000E7000000E90000001C
:1000100000000000000000000000000000000000E0
:10002000000000000000000000000000EB000000E5
:100030000000000000000000ED000000A10600002C
:10004000490800004B0800004D0800004F08000060
:1000500055020000570200000D0500005902000083
:10006000AB060000A5040000190500001502000001
:10007000F10000000F050000AD06000017020000AF
:10008000F100000011050000F1000000F100000087
:10009000F10000000000000000000000000000006F
:1000A0000000000000000000000000000000000050
:1000B0000000000000000000000000000000000040
:1000C0000448854600F094F800480047D509000030
:1000D000C046C04608030020064880F3088806484A
:1000E000804706480047FEE7FEE7FEE7FEE7FEE73B
:1000F000FEE7000008030020A3060000C100000086
:10010000F0B51FB40646002082B005464024019198
:1001100000901BE0019922460F46304600F056F849
:10012000049A059B801A994110D31046194622461D
:1001300000F03CF8361A8F41019722460120002139
:10014000009F00F033F838184D4100902046641E9F
:100150000028DFDC019B00982946324607B0F0BD3D
:10016000F8B500242546002904DA0E4601240021B2
:100170004042B141002B04DA1E46002352420125C1
:10018000B341FFF7BDFF8C4617461E46AC4203D075
:10019000002540428D41AC46002C02D0002657423B
:1001A0009E4161463A46334601B0F0BD10B5202A63
:1001B00004DB0146203A9140002010BD91402023ED
:1001C0009C1A0346E3401943904010BD10B5202A05
:1001D00004DB0846203AD040002110BD0B46D34036
:1001E000D0402024A21A91400843194610BD0000B7
:1001F000064C0125064E05E0E36807CC2B430C3C7A
:1002000098471034B442F7D3FFF75EFFF4090000BB
:10021000140A00007047704710B50B480B4908637B
:10022000C805406BC9130843C9034863012000F0A7
:100230008DF9642000F01CFA03480449086304485F
:1002400008600020086310BD837A00008000004031
:10025000FF010000704770477047F0B50B46002261
:1002600000240025002100BF65E0012696403446A9
:100270001E6826403546A5425CD11E79002E0CD161
:10028000016801269640314301604168012696408D
:100290000F46B743394641602DE01E79012E0BD140
:1002A000016896400F46B743394601604168012610
:1002B0009640314341601EE01E79022E0ED1016846
:1002C000012696400F46B743394601604168012632
:1002D00096400F46B743394641600CE01E79032E25
:1002E00009D1016801269640314301604168012629
:1002F0009640314341605E79012E04D101699640F8
:100300003143016109E05E79002E06D101690126C1
:1003100096400F46B7433946016181699E68012EB8
:1003200002D19640314304E0012696400F46B74380
:1003300039468161521C102A97D3F0BD30B50C4666
:10034000230000F085FA10090F171E252B333A41C0
:10035000474F565D636B7279016A394D29408B189E
:1003600003626AE0016A364DE13D294013015B18E2
:10037000036262E0016A334D294013025B18036295
:100380005BE0036A1905090D13035B18036254E06F
:10039000416A2B4D29408B1843624EE0416A284D3B
:1003A000E13D294013015B18436246E0416A254D57
:1003B000294013025B1843623FE0436A1905090DA7
:1003C00013035B18436238E0816A1D4D29408B1886
:1003D000836232E0816A1A4DE13D294013015B18C6
:1003E00083622AE0816A174D294013025B188362F9
:1003F00023E0836A1905090D13035B1883621CE06F
:10040000C16A0F4D29408B18C36216E0C16A0C4DBA
:10041000E13D294013015B18C3620EE0C16A094D3A
:10042000294013025B18C36207E0C36A1905090D6E
:1004300013035B18C36200E000BF00BF30BD0000C3
:10044000F0FF0000FFF00000002101600171417128
:10045000816070470EB56846FFF7F6FF00216846D9
:100460000171402000906846417169460C48FFF7D1
:10047000F4FE012168460171802000900021684649
:10048000417169460648FFF7E8FE04220621044848
:10049000FFF754FF042207210148FFF74FFF0EBD6D
:1004A000002001407047000010B572B6134814498F
:1004B000086314480068C912084312490860FFF72E
:1004C000C9FF00F0A3F9642000F0D2F800210E204B
:1004D00000F0F8F90E20002809DB00BF00BFC206BB
:1004E000D20E01219140084A116000BF00BF00BF39
:1004F000012000F069F862B610BD0000837A0000A8
:10050000800000400004004000E100E070477047B8
:1005100010B500F069F810BD70470000094A0A4B99
:100520001A63002904D01A46D2690243DA6104E052
:10053000054AD2698243044BDA610022024B1A63F6
:1005400070470000837A00008000004010B5044628
:10055000012C33D11A481B490863C805806B03215D
:1005600009028843A1078863642000F08DF8A00782
:10057000806B21020843890588630846806BA0438D
:100580008863642000F080F8A007806B03210902D3
:100590008843A1078863642000F076F8A007806B89
:1005A000032109020843A1078863642000F06CF866
:1005B000112000F05BF900200249086310BD000023
:1005C000837A00008000004010B50446012C07D15A
:1005D0000021112000F0B2F9112000F063F902E0CF
:1005E000112000F04FF910BD112000F04BF911203F
:1005F00000F03CF91848194948630846406A402110
:100600008843164948620846006A0C21884313490A
:10061000086200204863124812490863FF20C8623C
:1006200008460068891588430E490860C805406B74
:10063000C9138843C903486300200A49C862086394
:1006400000BFBFF34F8F08480849C860BFF34F8F02
:1006500000BF00BF00BFFDE7ADDE0000401C014051
:10066000837A0000800000400400FA0500ED00E0FD
:1006700008B50021009103E000BF0099491C0091DA
:1006800000998142F8D308BD08B50021009103E02C
:1006900000BF0099491C009100998142F8D308BD20
:1006A000704710B5FFF7B8FD10BD704710B5114881
:1006B000C069C007C00F002802D001200D49C861E1
:1006C0000C48C06902210840002811D002200949C5
:1006D000C8610846C06808490870064800F082F8FA
:1006E00004462146034800F080F80448FFF7C0FFA5
:1006F00010BD0000002C014000000020FF2F000072
:10070000F0B587B005460C463148854204D1012139
:100710001020FFF703FF06E02E48854203D1012198
:100720002020FFF7FBFE20680246002301902A48A4
:100730001946FFF715FDFF220132002303910290B5
:10074000FFF70EFD05902068024600230390224823
:100750001946FFF705FD014605980002081A401EDC
:1007600004901E481E490863032088610020086326
:100770000498A86005986860E079012802D10127F3
:10078000002607E0E079022802D10127012601E0D6
:10079000002700262079617949000843A179890062
:1007A0000843F100084339010843217A490108430D
:1007B000617A890108432860A07B4000617B08437F
:1007C000286260892861207BA86107B0F0BD000025
:1007D00000280140002C014000366E01837A0000A1
:1007E000800000400146C8687047C16070474B21D7
:1007F000C90101600021017141718171C1710172F2
:100800004172418101734173817370471FB568461E
:10081000FFF7EDFF4B204002009000216846017178
:10082000417101218171C1710021417381730321E3
:10083000017369460348FFF763FFFF200149C86160
:100840001FBD0000002C0140704770477047704783
:1008500030B47446641E2578641CAB4204D3635DD7
:100860005B00E31830BC18471D46F8E7002805DB9D
:10087000C206D20E01219140014A1160704700006A
:1008800080E200E0002809DBC206D20E012191407F
:10089000034A1160BFF34F8FBFF36F8F70470000A3
:1008A00080E100E0002809DB00BF00BFC206D20ED5
:1008B00001219140024A116000BF00BF7047000053
:1008C00000E100E010B5002819DB1A4A03231B02DF
:1008D000D21883089B00D2588307DC0EFF23A34065
:1008E0009A438B071B0E8407E40EA3401A43114B57
:1008F000032424021B198408A4001A5118E00E4A8C
:1009000003071B0F083B9B089B00D2588307DC0E94
:10091000FF23A3409A438B071B0E8407E40EA340DA
:100920001A43054B0407240F083CA408A4001A51DD
:1009300010BD000000E100E01CED00E010B5002853
:1009400019DB1A4A03231B02D21883089B00D258D2
:100950008307DC0EFF23A3409A438B071B0E8407FB
:10096000E40EA3401A43114B032424021B198408EC
:10097000A4001A5118E00E4A03071B0F083B9B08FE
:100980009B00D2588307DC0EFF23A3409A438B07BA
:100990001B0E8407E40EA3401A43054B0407240FE3
:1009A000083CA408A4001A5110BD000000E100E0BA
:1009B0001CED00E002E008C8121F08C1002AFAD1AD
:1009C00070477047002001E001C1121F002AFBD1CF
:1009D00070470000FFF768FD06E05A210348FFF763
:1009E00004FF0348FFF744FEF7E70000002C014036
:1009F000FFFFFF00140A00000000002004000000B8
:100A0000B4090000180A00000400002004030000DC
:080A1000C40900000000000011
:04000005000000C136
:00000001FF
