:020000040000FA
:1000000000030020D9000000E7000000E900000024
:1000100000000000000000000000000000000000E0
:10002000000000000000000000000000EB000000E5
:100030000000000000000000ED000000F9030000D7
:1000400007040000090400000B0400000D04000078
:100050006101000063010000A101000065010000D2
:100060000304000067010000CF020000250100002A
:10007000F1000000A30100000504000027010000BA
:10008000F1000000C7020000F1000000F1000000D4
:10009000F10000000000000000000000000000006F
:1000A0000000000000000000000000000000000050
:1000B0000000000000000000000000000000000040
:1000C0000448854600F01CF8004800477F04000003
:1000D000C046C04600030020064880F30888064852
:1000E000804706480047FEE7FEE7FEE7FEE7FEE73B
:1000F000FEE7000000030020FB030000C100000039
:10010000064C0125064E05E0E36807CC2B430C3C6A
:1001100098471034B442F7D3FFF7D6FF900400009D
:10012000A00400007047704770B50B4C094D256363
:10013000E005416BC21311434163012000F0C8F890
:10014000642000F041F9256304482060002020630A
:1001500070BD0000837A000080000040FF010000B5
:10016000704770477047704710B572B609480A4C1F
:1001700020630A480168C2121143016000F081F84F
:10018000642000F021F900202063012000F0D0F865
:1001900062B610BD837A0000800000400004004079
:1001A0007047704730B5214D1F4A2A63EC05236A1A
:1001B000626B002806D001280FD0022819D003282E
:1001C00022D02CE0980880000B68034310460422DC
:1001D000904349688A00024321E00C208343086869
:1001E000800003431046082290434968CA00024336
:1001F00015E0302083430868000103431020824348
:100200004868000102430AE0C02083430868800177
:10021000034310462022904349684A010243236267
:1002200062630020286330BD837A000080000040B4
:1002300010B5104B0E4A1A63DA050024002914D0B9
:10024000002806D0012807D0022808D0032809D0AA
:100250000CE00120906209E00220906206E0032099
:10026000906203E00420906200E094621C6310BD81
:10027000837A00008000004003210160002141607A
:1002800070471CB56846FFF7F7FF012401940094FE
:1002900069460020FFF786FF01940094694601201B
:1002A000FFF780FF0194009469460220FFF77AFF70
:1002B0000194009469460320FFF774FF0121032095
:1002C000FFF7B6FF1CBD10B500F046F810BD704733
:1002D00070B5012827D1154E13483063F405A06B83
:1002E00003252D02A843A063642000F079F8A06BD9
:1002F000A1150843A063A06B40084000A0636420E0
:1003000000F06EF8A06BA843A063642000F068F8CA
:10031000A06B2843A063642000F062F8112000F075
:1003200077F80020306370BD837A000080000040C1
:1003300010B5012803D0112000F076F810BD054952
:100340000868FF22120290430860112000F07CF838
:1003500010BD000010E400E0112000F065F811204D
:1003600000F056F8134812494163416A4022914314
:100370004162016A0C2291430162002141630F48EE
:100380000D4A0263FF22C262026883159A4302602B
:10039000C205536BC413A3435363C1620163BFF32C
:1003A0004F8F08490648C860BFF34F8F00BFFDE775
:1003B000ADDE0000401C0140837A00008000004058
:1003C0000400FA0500ED00E008B50021009103E00B
:1003D00000BF0099491C009100998142F8D308BDE3
:1003E00008B50021009103E000BF0099491C00916D
:1003F00000998142F8D308BD704710B5FFF794FE0D
:1004000010BD7047704770477047704770470000D5
:10041000002805DBC106C90E01208840014908609B
:100420007047000080E200E0002809DBC106C90E29
:100430000120884003490860BFF34F8FBFF36F8FDF
:100440007047000080E100E0002805DBC106C90E0E
:1004500001208840014908607047000000E100E089
:1004600002E008C8121F08C1002AFAD1704770477D
:10047000002001E001C1121F002AFBD17047FFF7E5
:1004800073FE012424042046FFF79EFFFBE70000D3
:10049000A004000000000020000300007004000021
:04000005000000C136
:00000001FF
