:020000040000FA
:1000000008030020D9000000E7000000E90000001C
:1000100000000000000000000000000000000000E0
:10002000000000000000000000000000EB000000E5
:100030000000000000000000ED000000FF060000CE
:100040000D0700002107000023070000250700001E
:10005000690100006B010000490600000902000070
:1000600009070000F9050000FD0600002501000059
:10007000F1000000790600000B07000039010000C4
:10008000F1000000F1000000F1000000F1000000AC
:10009000F10000000000000000000000000000006F
:1000A0000000000000000000000000000000000050
:1000B0000000000000000000000000000000000040
:1000C0000448854600F01CF800480047550700002A
:1000D000C046C04608030020064880F3088806484A
:1000E000804706480047FEE7FEE7FEE7FEE7FEE73B
:1000F000FEE700000803002001070000C100000027
:10010000064C0125064E05E0E36807CC2B430C3C6A
:1001100098471034B442F7D3FFF7D6FF900700009A
:10012000B00700000348406B0321084301494863BE
:1001300070470000801401407047000007480849DC
:100140000863C805406BC9130843C90348630448E2
:10015000006804490843024908607047837A000038
:1001600080000040FF01000070477047F0B5024674
:100170000B46002000240025002100BF27E00126B7
:10018000864034461E6826403546002D1ED007287E
:100190000CD8116847000326BE400F46B7433946C6
:1001A0001E794700BE40314311600FE0516806469A
:1001B000083E77000326BE400F46B74339461E79F6
:1001C0000746083F7F00BE4031435160401C102865
:1001D000D5D3F0BD01468868704781607047002123
:1001E00001600171704700001CB56846FFF7F7FF1A
:1001F000012000900220694608710248FFF7B6FF0F
:100200001CBD00000021014010B50848FFF7E2FFC7
:10021000C007C00F002807D04021054800F015FA9C
:1002200001210248FFF7D9FF10BD00000021014065
:1002300000200140F0B50B460022002400250021DB
:1002400000BF60E00126964034461E6826403546D1
:10025000A54257D11E79002E0CD101680126964087
:10026000314301604168012696400F46B743394645
:10027000416018E01E79012E0BD1016896400F46AF
:10028000B7433946016041680126964031434160D9
:1002900009E01E79022E06D14168012696400F46DC
:1002A000B743394641605E79012E04D10169964019
:1002B0003143016119E05E79022E05D141690126C1
:1002C00096403143416110E05E79002E0DD1016905
:1002D000012696400F46B743394601614169012620
:1002E00096400F46B7433946416181699E68012EA9
:1002F00002D19640314304E0012696400F46B743B1
:1003000039468161521C102A9CD3F0BD10B50446B9
:10031000002C02D001201E4908701D4800780028DA
:1003200025D00121C9021B4800F0C8F8002806D0DA
:1003300001210903174800F0C1F8002817D10A204D
:1003400000F000FA0020124908700121C90211488A
:1003500000F0B4F8002801D1012010BD01210903EB
:100360000C4800F0ABF8002810D10220F5E701217D
:10037000C902084800F0A2F8012807D10103054886
:1003800000F09CF8012801D1014908700020E4E741
:10039000000000208020014070B505460024012D9A
:1003A00006D0022D11D0032D1CD0042D0CD142E01B
:1003B0004021404800F09FF880213E4800F09BF823
:1003C00008213C4800F08EF872E04021394800F0E6
:1003D00089F88021374800F085F80821354800F079
:1003E0008AF865E000240FE04021324800F083F8ED
:1003F0008021304800F07FF808212E4800F072F884
:100400002D4800F09FF9641CFA2CEDDB00240FE06E
:100410004021284800F066F88021264800F062F864
:100420000821244800F067F8234800F08BF9641C89
:10043000FA2CEDDB3CE040211E4800F05CF8802106
:100440001C4800F04FF808211A4800F054F8002426
:1004500003E0194800F076F9641C642CF9DB802174
:10046000144800F048F84021124800F03BF80821F9
:10047000104800F040F8002403E00F4800F062F953
:10048000641C642CF9DB08210A4800F02BF8402199
:10049000084800F027F88021064800F023F80024DF
:1004A00003E0054800F04EF9641C642CF9DB00BF42
:1004B00000BF70BD00200140FFFF00000246002089
:1004C00093680B40002B01D0012000E00020704712
:1004D00002460020D3680B40002B01D0012000E031
:1004E0000020704730B504460D46002229462046BC
:1004F00000F010F830BD30B504460D460122294603
:10050000204600F007F830BD002101600171417103
:100510008160704710B51346C268002B03D01446A3
:100520000C43224602E014468C432246C26010BDB2
:100530000EB56846FFF7E8FF6846FFF7E5FF0021C4
:10054000684601710120C002009068464171694609
:100550002848FFF76FFE6846FFF7D6FF0021684680
:1005600001710120000300906846417169462148ED
:10057000FFF760FE6846FFF7C7FF0121684601717B
:100580004020009000216846417169461948803832
:10059000FFF750FE6846FFF7B7FF0121684601717B
:1005A00080200090002168464171694611488038DA
:1005B000FFF740FE6846FFF7A7FF0121684601717B
:1005C000082000900021684641716946094880383A
:1005D000FFF730FE6846FFF797FF0021684601717C
:1005E0000120009068464171694602488038FFF753
:1005F00021FE0EBD802001407047000010B572B68C
:100600000D480E4908630E480068C91208430C499A
:100610000860FFF78DFFFFF7E7FD0720012181400C
:1006200042099200074BD218116000BF012100F06F
:1006300029F862B610BD0000837A000080000040F7
:100640000004004000E100E0704770B504460D462C
:1006500029462046FFF73CFF0646002E05D02946D6
:100660002046FFF73FFF002070BD29462046FFF7D8
:1006700042FF0120F8E7000003200149C8637047EA
:10068000001C014010B5002819DA1A4A03071B0F95
:10069000083B9B089B00D2588307DC0EFF23A34036
:1006A0009A438B071B0E8407E40EA3401A43114B99
:1006B0000407240F083CA408A4001A5118E00E4AAD
:1006C00003231B02D21883089B00D2588307DC0E39
:1006D000FF23A3409A438B071B0E8407E40EA3401D
:1006E0001A43054B032424021B198408A4001A5141
:1006F00010BD00001CED00E000E100E07047704715
:1007000000B5FFF71BFD00BD704770470348806BC5
:10071000042108430149886370470000C018014064
:1007200070477047704702E008C8121F08C1002ACE
:10073000FAD170477047002001E001C1121F002A62
:10074000FBD17047002101E000BF491C8142FBD36F
:10075000704700000024FFF751FF0220FFF71CFE46
:1007600013E00020FFF7D2FDC4B2012C02D0022C0E
:100770000AD104E080210548FFF7BDFE04E0802196
:100780000248FFF7AFFE00BF00BFEAE700200140CC
:10079000B007000000000020040000002607000051
:1007A000B407000004000020040300003607000026
:0407B0000100000044
:04000005000000C136
:00000001FF
