:020000040000FA
:1000000018030020D9000000E7000000E90000000C
:1000100000000000000000000000000000000000E0
:10002000000000000000000000000000EB000000E5
:100030000000000000000000ED000000510600007C
:100040004108000043080000450800004708000080
:100050007502000077020000A90500007902000087
:100060005D06000059050000250600004102000061
:10007000F1000000AB050000D906000043020000BB
:10008000F1000000F1000000F1000000F1000000AC
:10009000F10000000000000000000000000000006F
:1000A0000000000000000000000000000000000050
:1000B0000000000000000000000000000000000040
:1000C0000448854600F09AF8004800479D0A000061
:1000D000C046C04618030020064880F3088806483A
:1000E000804706480047FEE7FEE7FEE7FEE7FEE73B
:1000F000FEE700001803002053060000C1000000C6
:10010000F8B500242546002904DA0E460124002112
:100110004042B141002B04DA1E4600235242012521
:10012000B34100F029F88C4617461E46AC4203D076
:10013000002540428D41AC46002C02D0002657429B
:100140009E4161463A46334601B0F0BD30B50B469C
:10015000014600202022012409E00D46D5409D42A1
:1001600005D31D469540491B254695404019154627
:10017000521E002DF1DC30BDF0B51FB40646002044
:1001800082B005464024019100901BE0019922466F
:100190000F46304600F020F8049A059B801A9941DA
:1001A00010D310461946224600F03AF8361A8F410D
:1001B0000197224601200021009F00F031F83818F5
:1001C0004D4100902046641E0028DFDC019B009812
:1001D0002946324607B0F0BD10B5202A04DB084698
:1001E000203AD040002110BD0B46D340D0402024FF
:1001F000A21A91400843194610BD0000064C012583
:10020000064E05E0E36807CC2B430C3C98471034BE
:10021000B442F7D3FFF758FFEC0A00000C0B0000C4
:1002200010B5202A04DB0146203A9140002010BD81
:10023000914020239C1A0346E3401943904010BD8F
:1002400070477047074808490863C805406B07496D
:100250000843890748630448006805490843024980
:1002600008607047837A0000800000400180000031
:10027000FF010000704770477047F0B50B46002241
:1002800000240025002100BF60E00126964034468E
:100290001E6826403546A54257D11E79002E0CD146
:1002A000016801269640314301604168012696406D
:1002B0000F46B7433946416018E01E79012E0BD135
:1002C000016896400F46B7433946016041680126F0
:1002D00096403143416009E01E79022E06D1416803
:1002E000012696400F46B743394641605E79012E9C
:1002F00004D1016996403143016119E05E79022E13
:1003000005D14169012696403143416110E05E7993
:10031000002E0DD10169012696400F46B74339469C
:1003200001614169012696400F46B7433946416154
:1003300081699E68012E02D19640314304E0012676
:1003400096400F46B74339468161521C102A9CD310
:10035000F0BD000010B50446002C02D001201E495B
:1003600008701D480078002825D00121C9021B48CB
:1003700000F0BCF8002806D001210903174800F05E
:10038000B5F8002817D10A2000F06EFB00201249B2
:1003900008700121C902114800F0A8F8002801D115
:1003A000012010BD012109030C4800F09FF800282E
:1003B00010D10220F5E70121C902084800F096F8A3
:1003C000012807D10103054800F090F8012801D168
:1003D000014908700020E4E70C0000208020014063
:1003E00030B50C46230000F079FA10090F171E25CE
:1003F0002B333A41474F565D636B7279016A394D31
:1004000029408B1803626AE0016A364DE13D2940BC
:1004100013015B18036262E0016A334D2940130245
:100420005B1803625BE0036A1905090D13035B188F
:10043000036254E0416A2B4D29408B1843624EE021
:10044000416A284DE13D294013015B18436246E0B3
:10045000416A254D294013025B1843623FE0436A1D
:100460001905090D13035B18436238E0816A1D4DBD
:1004700029408B18836232E0816A1A4DE13D2940A0
:1004800013015B1883622AE0816A174D2940130229
:100490005B18836223E0836A1905090D13035B1857
:1004A00083621CE0C16A0F4D29408B18C36216E0BD
:1004B000C16A0C4DE13D294013015B18C3620EE097
:1004C000C16A094D294013025B18C36207E0C36A81
:1004D0001905090D13035B18C36200E000BF00BFDC
:1004E00030BD0000F0FF0000FFF0000002460020D9
:1004F00093680B40002B01D0012000E000207047E2
:100500000021016001714171816070470EB568463C
:10051000FFF7F6FF0021684601710320C00200903A
:100520006846417169460B48FFF7A7FE00216846FF
:1005300001710120C0030090684641716946054879
:100540008038FFF79AFE04220F2102488038FFF717
:1005500047FF0EBD802001407047000010B572B605
:100560000D480E4908630E480068C91208430C493B
:100570000860FFF7CBFF00F047F908200121814018
:1005800042099200074BD218116000BF032100F00E
:100590000DF862B610BD0000837A000080000040B4
:1005A0000004004000E100E07047704710B50028EB
:1005B00019DA1A4A03071B0F083B9B089B00D25805
:1005C0008307DC0EFF23A3409A438B071B0E84078F
:1005D000E40EA3401A43114B0407240F083CA4085F
:1005E000A4001A5118E00E4A03231B02D2188308F4
:1005F0009B00D2588307DC0EFF23A3409A438B074E
:100600001B0E8407E40EA3401A43054B0324240267
:100610001B198408A4001A5110BD00001CED00E055
:1006200000E100E070470000074A084B1A63002908
:1006300004D01A46D2690243DA6104E0034AD2695F
:100640008243024BDA617047837A000080000040E9
:10065000704700B5FFF7F6FD00BD00000EB5194864
:10066000C069C007C00F00280ED001201549C8611D
:100670000020694608710120C00300901248FFF76E
:10068000FCFD0020114908700E48C0690221084095
:10069000002815D002200B49C8610846C0680C49E3
:1006A0000870012069460871C00300900648FFF7F2
:1006B000E4FD074800780349C86000200549087038
:1006C0000EBD000000280140002001400D00002068
:1006D000000000200E00002070470000F0B587B039
:1006E00005460C463A48854204D101211020FFF707
:1006F0009BFF06E03748854203D101212020FFF708
:1007000093FF0027206802460023019032481946D3
:10071000FFF7F6FC03910290781C0246002301903B
:100720000298FFF7EDFC064612E07F1C20680246A7
:100730000023019028481946FFF7E2FC039102903C
:10074000781C0246002301900298FFF7D9FC064668
:1007500022488642E9D822488761761EF0B2A86016
:10076000FF2000023040000A6860E079012803D1D0
:1007700004900020059009E0E079022803D10120CF
:100780000490059002E000200490059020796179A2
:1007900049000843A179890008430599C900084325
:1007A000049909010843217A49010843617A8901C2
:1007B0000843A17AC90108432860E07B4000217CFE
:1007C00008432862A0892861A07BA86107B0F0BD1A
:1007D00000280140002C014000D8B805FFFF0000B0
:1007E00080000040C16070474B21C90101600021B9
:1007F000017141718171C171017241728172818196
:100800008173C1730174704700B585B06846FFF706
:10081000EBFF4B20400200900021684601714171BE
:100820008171C1710321817369460448FFF756FF46
:10083000FF200249C86105B000BD0000002801404A
:100840007047704770477047FEB5044601216846FF
:100850000171C8030090002168464171694614483F
:10086000FFF70BFDFF20000220400512E6B2012039
:10087000104908701048C56000BF0E480078002875
:10088000FBD1012168460171C80300900021684630
:10089000417169460648FFF7F0FC012005490870E0
:1008A0000548C66000BF034800780028FBD1FEBDA4
:1008B000002001400D000020002801400FB410B5B9
:1008C00003A9044B044A029800F026F810BC08BCA7
:1008D00004B01847790A00001000002030B47446B4
:1008E000641E2578641CAB4204D3635D5B00E3188F
:1008F00030BC18471D46F8E702E008C8121F08C1BF
:10090000002AFAD170477047002001E001C1121F90
:10091000002AFBD170470000FFB58DB004460025CA
:1009200006E025280AD0109A0F999047641C6D1C88
:1009300020780028F5D1284611B0F0BD002701210C
:10094000484A009700E00743641C23780846203B90
:1009500098401042F7D120782E2817D10420074361
:100960006078641C2A280CD10E98641C02C800917F
:100970000E900BE000990A22514330394018641C54
:1009800000902078014630390929F3D920780028D1
:10099000D1D0642808D0692806D075281ED0109AB6
:1009A0000F9990476D1C5BE00A200E99019001C9D8
:1009B0000E91002802DA40422D2102E0390504D5CB
:1009C0002B216A461172012103E0F90704D020218E
:1009D000F7E70BAE0B910DE00021FAE70A200E9924
:1009E000019001C90E91F7E70199FFF7AFFB303194
:1009F000761E31700028F7D103A8801B20300190AB
:100A0000780701D5009801E0012000900199884203
:100A100001DD401A00E000200027009006E002A857
:100A2000109AC05D0F9990476D1C7F1C0B988742F0
:100A3000F5DB04E0109A30200F9990476D1C009967
:100A4000481E00900029F5DC05E03078109A761CED
:100A50000F9990476D1C0199481E01900029F4DC04
:100A6000641C65E709280100002101E000BF491C62
:100A70008142FBD37047000070B504460D46E1B2D9
:100A80000448FFF7AFFE00BF034800780028FBD101
:100A9000204670BD002801400D0000200024FFF713
:100AA0005DFD16E00020FFF755FCC4B2012C02D01A
:100AB000022C09D103E00748FFF7C6FE04E0382105
:100AC00005A0FFF7FBFE00BF00BF01200004FFF7F9
:100AD000CBFFE7E73412000048656C6C6F77207736
:100AE0006F7264203D202564200A0D000C0B00006D
:100AF0000000002014000000F8080000200B000097
:100B00001400002004030000080900000000000099
:100B100000000000000000000101000000000000D3
:04000005000000C136
:00000001FF
