:020000040000FA
:1000000010030020D9000000E7000000E900000014
:1000100000000000000000000000000000000000E0
:10002000000000000000000000000000EB000000E5
:100030000000000000000000ED000000610700006B
:100040006F070000710700007307000075070000CC
:1000500065010000670100001D0400007D01000033
:100060006B070000B50300005D04000025010000DF
:10007000F1000000490400006D07000027010000A6
:100080007907000055040000F1000000F1000000B5
:10009000F10000000000000000000000000000006F
:1000A0000000000000000000000000000000000050
:1000B0000000000000000000000000000000000040
:1000C0000448854600F01CF800480047010900007C
:1000D000C046C04610030020064880F30888064842
:1000E000804706480047FEE7FEE7FEE7FEE7FEE73B
:1000F000FEE700001003002063070000C1000000BD
:10010000064C0125064E05E0E36807CC2B430C3C6A
:1001100098471034B442F7D3FFF7D6FF4C090000DC
:100120006C0900007047704710B50B480B49086315
:10013000C805406BC9130843C9034863012000F098
:10014000FBF9642000F0A8FA034804490863044856
:1001500008600020086310BD837A00008000004022
:10016000FF0100007047704710B500F0A9FA00F0D9
:1001700077F900F0D1F900F0CFFA10BD7047F0B573
:100180000B46002200240025002100BF65E0012667
:10019000964034461E6826403546A5425CD11E79FD
:1001A000002E0CD101680126964031430160416860
:1001B000012696400F46B743394641602DE01E792F
:1001C000012E0BD1016896400F46B74339460160B6
:1001D000416801269640314341601EE01E79022E9F
:1001E0000ED10168012696400F46B743394601609B
:1001F0004168012696400F46B743394641600CE0FE
:100200001E79032E09D10168012696403143016011
:10021000416801269640314341605E79012E04D148
:10022000016996403143016109E05E79002E06D1F3
:100230000169012696400F46B7433946016181693D
:100240009E68012E02D19640314304E0012696407B
:100250000F46B74339468161521C102A97D3F0BD2F
:1002600010B50446002C02D001201E4908701D481C
:100270000078002825D00121C9021B4800F036F87B
:10028000002806D001210903174800F02FF80028A4
:1002900017D1642000F000FA0020124908700121F3
:1002A000C902114800F022F8002801D1012010BD38
:1002B000012109030C4800F019F8002810D1022090
:1002C000F5E70121C902084800F010F8012807D11C
:1002D0000103054800F00AF8012801D1014908701E
:1002E0000020E4E7010000208020014002460020B9
:1002F00093680B40002B01D0012000E000207047E4
:1003000002460020D3680B40002B01D0012000E002
:100310000020704730B504460D460022294620468D
:1003200000F010F830BD30B504460D4601222946D4
:10033000204600F007F830BD0021016001714171D5
:1003400081607047002A03D0C3680B43C36002E09A
:10035000C3688B43C36070470EB56846FFF7ECFF78
:100360006846FFF7E9FF002168460171012000900F
:1003700069460F48FFF703FF6846FFF7DDFF0121DD
:10038000684601714020009069460948FFF7F7FE72
:100390006846FFF7D1FF0021684601710320C002C3
:1003A0000090694602488030FFF7E9FE0EBD00006C
:1003B000002001407047000010B572B61348144980
:1003C000086314480068C912084312490860FFF71F
:1003D000C3FF642000F060F91020002809DB00BF93
:1003E00000BFC206D20E012191400B4A116000BF2E
:1003F00000BF00BF0021102000F0FAF900200449DE
:100400000863012000F0D6F862B610BD837A0000C0
:10041000800000400004004000E100E0704770B53B
:1004200004460D4629462046FFF76AFF0646002E81
:1004300004D029462046FFF76DFF03E029462046F9
:10044000FFF771FF70BD000003200149C8637047CA
:10045000001C014010B500F0BDF810BD7047000051
:1004600010B5002000F0A4F9012000F0A1F902204D
:1004700000F09EF9032000F09BF9042000F098F9A9
:10048000052000F095F9062000F092F90A2000F00E
:100490008FF9072000F08CF9092000F089F9082075
:1004A00000F086F90E2000F083F90C2000F080F9AE
:1004B0000F2000F07DF90B2000F07AF90D2000F0FC
:1004C00077F9122000F074F9132000F071F914206C
:1004D00000F06EF9112000F06BF90448044908633C
:1004E000044808620020086330BF10BD837A000012
:1004F00080000040ADDE0000054A5168054A044B0B
:100500001A63820011431A46516000221A63704731
:1005100080000040837A000010B500BF05480078D5
:10052000002805D0002003490870FFF799FFF5E780
:1005300010BD00000000002010B50446012C33D18E
:100540001A481B490863C805806B032109028843C8
:10055000A1078863642000F0A6F8A007806B210241
:100560000843890588630846806BA043886364203C
:1005700000F099F8A007806B032109028843A107C6
:100580008863642000F08FF8A007806B03210902C4
:100590000843A1078863642000F085F8112000F06B
:1005A000FBF800200249086310BD0000837A0000B8
:1005B0008000004010B50446012C07D10021112015
:1005C00000F052F9112000F003F902E0112000F0D0
:1005D000EFF810BD112000F0EBF8112000F0DCF86E
:1005E0001848194948630846406A4021884316491B
:1005F00048620846006A0C218843134908620020BB
:100600004863124812490863FF20C8620846006820
:10061000891588430E490860C805406BC913884393
:10062000C903486300200A49C862086300BFBFF3DA
:100630004F8F08480849C860BFF34F8F00BF00BF05
:1006400000BFFDE7ADDE0000401C0140837A0000E2
:10065000800000400400FA0500ED00E010B5012A1A
:1006600005D10C4B5B6903430A4C636104E0094B01
:100670005B698343074C6361012905D1054B1B6905
:100680000343044C236104E0024B1B698343014C88
:10069000236110BD00210140002101E000BF491C81
:1006A0008142FBD3704708B50021009103E000BFF1
:1006B0000099491C009100998142F8D308BD0000BF
:1006C00010B5124812490863C805406B114908600B
:1006D00001208007806B48600D4800688860FF201B
:1006E00002300B4908600520000281054863112093
:1006F00000F05EF801208007806B01210843890724
:10070000886300200249086310BD0000837A00005E
:10071000800000400400002010B50E480E49086318
:100720000E480068C9054863C820FFF7BCFF0B48A6
:100730004068012189078863112000F02DF81120FD
:1007400000F046F805488068034908600020086307
:1007500010BD0000837A00008000004004000020EB
:10076000704710B5FFF7E0FC10BD70477047704749
:10077000704770477047000010B501210448FFF72B
:10078000B5FD002802D101200249087010BD00000B
:100790000020014000000020002805DBC206D20E28
:1007A00001219140014A11607047000080E200E0A1
:1007B000002809DBC206D20E01219140034A1160D4
:1007C000BFF34F8FBFF36F8F7047000080E100E0F1
:1007D000002809DB00BF00BFC206D20E01219140F4
:1007E000024A116000BF00BF7047000000E100E056
:1007F00010B5002819DB1A4A03231B02D2188308FC
:100800009B00D2588307DC0EFF23A3409A438B073B
:100810001B0E8407E40EA3401A43114B0324240249
:100820001B198408A4001A5118E00E4A03071B0F75
:10083000083B9B089B00D2588307DC0EFF23A34094
:100840009A438B071B0E8407E40EA3401A43054B03
:100850000407240F083CA408A4001A5110BD00008E
:1008600000E100E01CED00E010B5002819DB1A4A99
:1008700003231B02D21883089B00D2588307DC0E87
:10088000FF23A3409A438B071B0E8407E40EA3406B
:100890001A43114B032424021B198408A4001A5183
:1008A00018E00E4A03071B0F083B9B089B00D25819
:1008B0008307DC0EFF23A3409A438B071B0E84079C
:1008C000E40EA3401A43054B0407240F083CA40878
:1008D000A4001A5110BD000000E100E01CED00E092
:1008E00002E008C8121F08C1002AFAD170477047F9
:1008F000002001E001C1121F002AFBD17047000057
:100900000024FFF759FD0520FFF7F6FD01221146EF
:100910001046FFF7A3FE00BF0020FFF7A1FCC4B202
:10092000012C02D0022C08D102E0FFF71DFC04E0EC
:1009300040210448FFF773FD00BF00BF0248FFF7E6
:10094000ABFEE9E700200140FFFF00006C0900005A
:100950000000002004000000E00800007009000012
:10096000040000200C030000F0080000000100005B
:04000005000000C136
:00000001FF
