:020000040000FA
:10000000D80E0020D5000000E300000027140000F7
:1000100000000000000000000000000000000000E0
:10002000000000000000000000000000E7000000E9
:100030000000000000000000E9000000952600001C
:10004000F127000025280000ED000000ED00000071
:10005000ED000000ED000000ED00000025140000A0
:10006000ED0000006B09000019030000ED00000026
:10007000ED000000ED0000000000000000000000A6
:100080000000000000000000000000000000000070
:100090000000000000000000000000000000000060
:1000A0000000000000000000000000000000000050
:1000B0000000000000000000000000000000000040
:1000C0000348854600F004F9004800470D2A000067
:1000D000D80E0020064880F3088806488047064866
:1000E0000047FEE7FEE7FEE7FEE7FEE7FEE700006B
:1000F000D80E002099260000C1000000F0B51FB402
:100100000646002082B005464024019100901BE085
:10011000019922460F46304600F0C8F8049A059B24
:10012000801A994110D310461946224600F054F81F
:10013000361A8F410197224601200021009F00F0CE
:100140004BF838184D4100902046641E0028DFDC33
:10015000019B00982946324607B0F0BDF8B500244F
:100160002546002904DA0E46012400214042B1410F
:10017000002B04DA1E46002352420125B341FFF74B
:10018000BDFF8C4617461E46AC4203D000254042B8
:100190008D41AC46002C02D0002657429E4161465C
:1001A0003A46334601B0F0BD30B5434351435C1885
:1001B000010C130C0D465D432C1980B292B205461A
:1001C000554351430A0C09044D1962415843010C2F
:1001D00000044019514130BD10B5202A04DB01460E
:1001E000203A9140002010BD914020239C1A0346E4
:1001F000E3401943904010BDD2B201E00270401CB0
:10020000491EFBD270470022F6E710B513460A4696
:1002100004461946FFF7F0FF204610BD70B50446AE
:10022000002903D000202022012310E0002801D063
:100230000020C043C046C0460DE02546D5408D4253
:1002400005D30D469540641B1D4695404019154643
:10025000521E002DF1DC214670BD000070B5002556
:1002600004462E46002911D0002C01DA0125444213
:10027000002901DA012649422046FFF7CFFFB542A7
:1002800000D04042002D00D0494270BD002C02DA5F
:100290000121C90702E0002C00DD03490846C046E1
:1002A000C046214670BD0000FFFFFF7F10B5202A29
:1002B00004DB0846203AD040002110BD0B46D34055
:1002C000D0402024A21A91400843194610BD0000D6
:1002D000064C0125064E05E0E36807CC2B430C3C99
:1002E00098471034B442F7D3FFF7EEFEB85C000035
:1002F000D85C000003460B439B0703D009E008C904
:10030000121F08C0042AFAD203E00B780370401CC5
:10031000491C521EF9D27047F0B583B02B4DA86925
:10032000032102910843A861294CE0682946543909
:1003300009884180294650390988818029464439F5
:100340000988C1816669216B20462C308847606B23
:10035000018A204F798012220092825EBA80142393
:10036000C05EF8803981101A1B494143C80B78815F
:10037000207A00280AD000202072E1680E22895ECF
:1003800000F0F4FA217A481E814101E00121217236
:100390000024204605F046F9B278082A00D971E118
:1003A000900001A108588746530400009B040000F8
:1003B00085060000DD030000DD030000DD03000012
:1003C000DD030000B3040000A70500005404014051
:1003D000F001002044020020E749000001920020C3
:1003E00005F048F9B86978613D466835001429463A
:1003F00002F01AFA6820385E0821795E02464A4304
:100400000A23FB5E0226AD5F1E466E43B218D20B76
:100410007A8269434343581AC00B38823878542192
:100420004143F74E7118097A002900D006E102F025
:1004300033FA002800D1C4E01020385E0C21795E28
:10044000081A38650099795E0E22BA5E541A7C63E8
:10045000BAE02A20305EF24B996B89894143080B40
:10046000414214465A6C91801081D0805080118096
:10047000518198694189F24A118081899180C188AE
:10048000118101899181018A1182C189918201883A
:100490001184408890842246F4E00192002005F007
:1004A000F1F8DF48007A00289CD1002001F0BAFC66
:1004B00098E701922A20325ED948816B00918989A0
:1004C0004A43120B13B28B4200DB0A465342416C83
:1004D0008B800A81CA804A800B804B8183695D8949
:1004E000F14A15809D899580DD8815811D8995814A
:1004F0001D8A1582DD8995821D8815845B88938409
:100500002823C454BC62FC623C637C63BC63FC6310
:100510003C64056A2B683B63036C5E893604FE62AB
:100520001E897C64BC64FC643C657C65BC65FC65C0
:100530003604BE62AE884C203E52E8884E25785381
:10054000D8880004B86498883B4660335C80000417
:10055000786460203C523846683044806820D34B31
:100560003B527C66FC603C617C61BC61FC613C622E
:100570007C620098808940080881C8804880404299
:10058000488188800880C74BDC70106B6421081A92
:10059000996C088019204001126B801A488020460F
:1005A00001F042FB6DE0B08DC1494018012869D8C7
:1005B000BC4EF078002800D157E13069BD49491C94
:1005C0006DE13C657C6320464C21795A7A6D821A34
:1005D0004A431101FA6D51184E22BA5A42438A1801
:1005E000FA655821795A09048A187B6C9A4202DC10
:1005F000BB6C9A4202DA591AF9651A46110C60224C
:10060000B9527865788E6043B96B611A3A8E4A4365
:1006100011013A6C511809183964B88F0004411857
:10062000BA6A914202DCFA6A914202DA101A38641C
:100630001146080C62217852BC6338783946603123
:100640003D4664352A4600F077FA002420462946C4
:1006500001F04AFEB0694189934A118081899180F5
:10066000C188118101899181018A1182C189918298
:10067000018811844088908439461031204601F069
:100680007BFC019A2824874D2A55E868296D496A20
:1006900088476969087B012814D12878864A135C49
:1006A0005B1C1354DAB2022A1AD3095D002904D163
:1006B000286D8169012088472878292101226A5400
:1006C00002210BE0085D002803D1286D816900201C
:1006D000884729200221295428780021764A11547C
:1006E0000026304602F03AF9744D288078886880F8
:1006F000734B1878002822D102981861586171490B
:1007000099617148D861802018620020986258620F
:10071000D86219666D495966102199661867D866BE
:1007200098725421597219725221D97158676849C7
:1007300007221846FFF7DEFD614B20209871EFF38A
:100740001082012181F31088586C0228029223D074
:10075000012847D0002800D082E0986B002800D103
:100760007EE01A6CD96B8A4200D81218CB43D2189B
:10077000042A534A74D3461A506B4018052E61D38D
:100780002A680270130EC370130C83704C4B120A4C
:1007900042700D1DDD6363E0DC6B042704E0DC6365
:1007A000BF1BAD19002F5BD0186CE143A04202D9EA
:1007B0004618986B02E04118986B0E18596B001B95
:1007C000864200D306460819BE4200D33E4629465B
:1007D0003246FFF78FFD3419394B986B8442DED1D6
:1007E0000024DCE7986B00280CD0196CDC6BA1426C
:1007F00000D80918E2438E18032E04D9042602E01B
:10080000F0010020DC6B071B586B0019BE4209D2B7
:100810002A493246FFF76EFD35192948C5631FE0A6
:10082000F001002029463A46FFF764FDE919F51B5F
:10083000234C606B2A46FFF75DFD2046E5630FE021
:100840000007014029463246FFF754FDA91904204C
:10085000851B1B48406B2A46FFF74CFD184BDD6398
:10086000029880F3108803B0F0BD72B62C600120AE
:10087000C0022968014329602046154600F0D4FDD6
:10088000306D006A8047204602F070F8B080204644
:1008900002F072F82A46F07062B630690549418468
:1008A000F0E6C046F001002000070140FF7F000095
:1008B000FFF7FFFF03080000CC020020100000201B
:1008C000BC050020AF5C000064080020E4080020A4
:1008D000A85C00007047000002490A8842808988AD
:1008E000818070470004014001490988C182704736
:1008F0001804014001490988C18170471004014072
:1009000002894A43408902411046704710B5CA68BF
:100910000004831A1B119A18CA600B69C01A40128E
:10092000C01808610D4B04141840101A18404A6989
:10093000801A00118018486106228A5EA2420ADDF0
:1009400008228A5EC3170014C0185840904202DA89
:100950000120887210BD0020887210BD0000FFFFCA
:100960000004C8600861486170477047E422424350
:10097000A4488018C422805842680B049B1A5B105C
:100980009A18426001225206E94B1A6059600180B0
:100990004180996881607047F0B585B004460001D8
:1009A000604908588189C089C003FFF737FC5E4958
:1009B000884200D3084661015C4A5118049188833B
:1009C000E42060438F490E183069C117584A00234C
:1009D0000193FFF7E9FB74686268D317FFF7BEFB6A
:1009E000054602946069010DC21712035118EF17F2
:1009F00000032A463B46FFF7B1FB04460096F66823
:100A000000F0A8F90C22112801D3104600E0401F85
:100A1000049948820C28039202DB019B184601E0EE
:100A2000101A019B80B20441049804827D20C20008
:100A300028463946FFF7B8FBF3173246FFF78EFB1F
:100A40000546C6170298C068010DC2171203511857
:100A500000032A463346FFF781FB044600F07AF98B
:100A6000112807D303990846049FF8820C2807DA57
:100A7000081A06E0401F0399049FF8820C28F7DB50
:100A8000019880B20441BC8202980069010DC2172E
:100A90001203511800032A463346FFF75FFB044652
:100AA00000F058F9112807D303990846019D78836F
:100AB0000C2807DA081A06E0401F019D0399788385
:100AC0000C28F7DB284680B204413C83009C206957
:100AD000C117184A2B46FFF767FBE268D317FFF7E9
:100AE0003DFB024602988068010DC3171B0359188D
:100AF000D3170003FFF732FB044600F02BF911284F
:100B000005D303990846F8810C2806DA04E0401F53
:100B10000399F8810C2800DA0D1AA8B20441BC81AF
:100B200005B0F0BDA80A0020FF7F0000B80A002031
:100B30002B3E000010270000F0B587B0059202257B
:100B40004A5F13465343098809B20C464C43E318E5
:100B5000A54E3361E42343432A4CE7189423FB5802
:100B60001B6803939823FB581B6802937369402406
:100B70003B53FA8639874000234C205EC4243E59FB
:100B80000495745F444360000514788E3C46383405
:100B900036371BB2AB420DDDED030196924E356048
:100BA0007360B368019E9BB25A43D20B3A8059439B
:100BB000C90B21800299484303994018001406ADDF
:100BC000294601F031FE0498285EB268398809B2DE
:100BD00051438901091403464B43248824B25443EA
:100BE000A20112142C8824B2254655435B19DB0B55
:100BF000059D6B8050434C43201AC00B288007B0E2
:100C0000F0BDC046980900200E000020B0B50028B5
:100C100013D4002927D4884238DAC003724A1060FE
:100C200008B250609068C009C005800D4149085A5B
:100C300001218903091A08B2B0BD44423B4A6A4BFC
:100C4000002932D48C4241DAE003186008B25860BF
:100C50009868C009104040003649085A01218903AC
:100C6000411808B2B0BD4A420321890382423BDDEC
:100C7000C0035D4B186010B258609868C009C00589
:100C8000800D2C4A105A411808B2B0BD00283BD044
:100C9000C903554A116000B250609068C009C00590
:100CA000800D2449095A08B2B0BD4D4281422FDA65
:100CB000E003186028B258609868C00910404000EE
:100CC0001C49085A1D49091A08B2B0BDC80318606A
:100CD00020B258609868C009104040001549085A71
:100CE0001549091A08B2B0BD0028EDD0D1033E4A1B
:100CF000116000B250609068C009C005800D0D49B8
:100D0000085A414208B2B0BD481E81418803B0BDB7
:100D1000E803186020B258609868C009104040008D
:100D20000449085A0449414008B2B0BDFF0100001F
:100D3000200B0140885A00000080FFFF00C0FFFF29
:100D4000704700000248016810220A4302607047A1
:100D50009407014000281BD041080143880808433C
:100D600001090143080A0843010C0143C843410833
:100D7000084A0A40801A0849820808400A40801838
:100D8000010940180549014005484843000E7047D5
:100D90002020704755555555333333330F0F0F0F00
:100DA0000101010110B54289C16803694A43CB1AA8
:100DB00004895C4323018469E3189A188261838A59
:100DC0001B049A180468A24202DC4468A24202DAB8
:100DD000E21A826122460161101410BD024A1060BD
:100DE0005160906800B27047200B01401449214ABD
:100DF0000A6103280ED0022819D001281CD11148FD
:100E00000088114A024392B20A600C22024390B257
:100E1000486011E00B4800880B4A02430423134347
:100E20009AB20A600822024390B2486004E0054882
:100E30000088064A02430A60002008617047C046E5
:100E4000A0070140F8080020080C00000C08000072
:100E50000749084A8A600A68012802D00648024009
:100E600001E0402002430A60044888607047C046A1
:100E7000A8070140ADDE0000BFFF0000FECA000071
:100E8000F0B581B0E8202A490A5800201080EC22F1
:100E90008A58D080508010804E687822B25A312310
:100EA000D9000091B7687958514378367388194151
:100EB000D4241F4D2C59218000997D18E96C514391
:100EC00019416181296D37894F4371890F41E7606D
:100ED0002062E96BE161F821154E71580880296B99
:100EE000514319412182696B514319416161A96BD9
:100EF00051431941A161A96D51431941E184DC219C
:100F00007158086048608860C86008614861E021E5
:100F10007158888048800880F42171580880FC212D
:100F200071580881C88088804880088001B0F0BD71
:100F3000D8020020F0B593B0E42141431191FD485F
:100F4000401845680646EC69E1170F9164220C923F
:100F5000002312932046FFF727F9AA6AD317FFF759
:100F6000FDF830610D962A6A686AC117D317FFF73A
:100F70001BF907460E91F04A20460F99129BFFF786
:100F800013F93A460E9BFFF7E9F8F0606F68109589
:100F900038460C9E3146FFF761F90F906C8B09942F
:100FA00040042146FFF75AF90D9D6886B808F917E5
:100FB000890709186643B8073246129C2346FFF793
:100FC000CDF8000B28862E46109DA868C11719225F
:100FD00052042346FFF7E8F8EA680E92D3170A9303
:100FE000FFF7BCF8099F3A462346FFF7B7F80121FF
:100FF0000591C903081ABC2171580891B82171588C
:101000000791CC49119A89580B91C02171581191BF
:1010100070610F98C117F94A2346FFF7C5F83A46A1
:101020002346FFF79BF8C1172A69D317FFF7BCF8CF
:101030000E9A0A9BFFF792F80446FFF78BFE2021D9
:101040000F2611280F9101D3304600E0081A0D9F9A
:101050001C21091A2122B9540F3880B20441BC6105
:10106000688BEA68D3171299FFF79EF804460D467D
:101070003869C117E24A0723FFF796F8FA68D317D1
:10108000FFF76CF822462B46FFF768F80446FFF797
:1010900061FE112801D20F990E1A0B9B1E2012908F
:1010A000801B222178540F3EB0B20441FC613946C6
:1010B0000C313C461034119E48361A88C320450036
:1010C000002A0E940A91099655D00868C117002687
:1010D00004963346FFF768F8024602900B460191EA
:1010E0001099C8680E46C117FFF75EF8420FC90095
:1010F0008918C000226806925543EB1700932A46D0
:10110000FFF72CF80446B4217F58388003903269E9
:10111000D31702980199FFF747F8420FC9008918C1
:10112000C0002A46009BFFF719F80290B880A5B2CC
:101130000B9840880A22049E31463346FFF734F864
:10114000019000912A463346FFF72EF8109A548BEF
:1011500022463346FEF7D2FF05467880029880B2D9
:101160003146019A009BFFF71FF822463346039E43
:10117000FEF7C4FF2CE0109A508BD268D3170E46AE
:101180000021FFF711F832680692D3170493FFF796
:101190000BF8BA3524686543EB172A46FEF7DEFFE5
:1011A0000646B4203F583E80BE8010988268D31710
:1011B00006980499FEF7F8FFC20C4903891840030A
:1011C000904A06946243D317FEF7C8FF788005461D
:1011D00007994D810E81F8800898458106810D9808
:1011E0000068C18B3981008C7881109C60680A2668
:1011F0003146FFF733F805460698C117824A0023A7
:101200000793FEF7D1FF62696A43D317FEF7A6FF83
:10121000B8612421119D2846FEF7F5FF4821099861
:10122000FEF7F1FF0C99296129817D20C0002880FB
:10123000A9800A980568089675432846FFF78AFD35
:101240000F27112801D3384601E00F99081A099E8B
:10125000079C1299091A71800F3880B205413580B8
:101260000E9805682846FFF775FD112801D338460A
:1012700001E00F99081A1299091AF1800F3880B20B
:101280000541B580109845682846FFF763FD112891
:1012900001D3384601E00F99081A1299091A718191
:1012A0000F3880B2054135810A9D2868C1170E9A12
:1012B0001268D317FEF778FF0C9A2346FEF774FFE7
:1012C000524A2346FEF74AFF0446FFF743FD112822
:1012D00001D3384601E00F99081A059A089B129924
:1012E000091AB1820F3880B20441119884652868C8
:1012F0004343940720461946FEF7B0FF0546FFF723
:1013000029FD112801D3384601E00F99081A1299D6
:10131000091AF1840F3880B20541B5840E9801682E
:101320002046FEF79BFF0546FFF714FD112805D365
:10133000384605E09809002000E1F5050F99081AE4
:101340001299091A71850F3880B2054135851098B8
:1013500041682046FEF782FF0546FFF7FBFC112897
:1013600001D3384601E00F99081A1199883111917B
:101370001299091AF1850F3880B20541B585244DBF
:101380002846FFF7E7FC112801D3384601E00F9902
:10139000081A1299091A119A11800F3880B2C540A3
:1013A000F5870E9801682046FEF758FF0446FFF7C0
:1013B000D1FC112801D30B9D02E00F990F1A0B9D50
:1013C0001298C01B119988800F3FB8B204414C801D
:1013D000296924363046FFF793FA80210D9C60502E
:1013E00069693046FFF78CFA84216050A96930465C
:1013F000FFF786FA8821605013B0F0BD10C90000D5
:10140000000020A1850B0000F0BE1B038E1600001B
:101410002B1A090002490968C906C90F01707047F3
:101420009407014070477047F0B597B022214143BF
:10143000C24C671821230022FA540301C04DED5815
:10144000AE896652012179802C7C15463C75E424D6
:101450004443BC480419C82020580A9090202058C2
:10146000099038460830059038460A3004903846CE
:101470000C30039038460E30029038461030019000
:101480003846123000902046D03008902046DC309C
:101490000D902646CC36AA48C018083013901194F7
:1014A0009034079438462130069038461430149012
:1014B000F81C16900E97BA1CC8020F90A64CA74FA6
:1014C0000C921096012905D010E111786D1C0129AC
:1014D00000D00BE116980078062800D906E1401CE0
:1014E0001699087013980068002242810281C28018
:1014F00082804280159202800878401E052812954D
:101500000CD8C0467844007940008744020A11177D
:101510001D23139800680E99098820E0139800682D
:101520001EE0139800680E9909880181C18017E0B8
:10153000139800680E990988C18011E0139800681B
:101540000E99098801810AE0139800680E990988AC
:10155000018105E0139800680E990988C1804180D7
:10156000418849420180C1884942818001894942BC
:1015700041810D9800683168496988477448784905
:1015800008600D46703D73482860704808603068F8
:10159000816901200B908847159820601198006898
:1015A000006B21688142FCD31498007801281FD079
:1015B00013980068159E46810681C6808680468005
:1015C00006800D9800681099096849698847604845
:1015D000634A10605F482860104678380921C94383
:1015E00001605A4810602660109E2068C828FCD30D
:1015F0003846183801680F9A11430160394614398A
:10160000514A0A603A68D207FCD03B680322134370
:101610003B6003680F9D2B4303604B4808603868AC
:10162000C007FCD03868104338603068816935469F
:10163000159E304688472660089800682968096822
:101640008847149800780128464900D046490A9EE8
:10165000716030468847B068418A099A5180018A92
:101660001180808A90801698007807990A681188FE
:10167000149B1B78012B05D142000E9B9A18D18038
:10168000109E1EE0431E052B109E129D1AD85288F4
:101690007B441B795B009F44020406090C10059AE9
:1016A0000EE0049A0CE003990A800AE002990A808D
:1016B00007E089184942019A02E089184942009AD4
:1016C0001180129D11990968496B22688A42FCD3E6
:1016D00006280C9A0AD115991170169801700E9867
:1016E00000F048F80C9A06980B990170042D00D868
:1016F000EBE6D820119B1858808D1C4988420AD0EF
:101700001B49884213D1942019580E9880881A6872
:10171000128F801A06E0942019580E9880881A6853
:10172000128F801800044860186617B0F0BD94202E
:1017300018584068186617B0F0BDC04674090020FC
:10174000A80A002098090020A55A0000CDAB00008F
:10175000ADDE0000FFFF0000100301406C040140FB
:10176000B0070140B9220000CF22000001080000AC
:1017700002080000F0B583B0044640892189227D2B
:10178000012A07D10A1A608A218A091AE089A389E5
:10179000181A06E04218208A618A0918A089E3898C
:1017A000181813B20293DB13D2185A4017B202B2C0
:1017B0000192D2138018504006B201250222BE4287
:1017C000284600DB104600920BB2DA13891851400C
:1017D00009B28E4219DAB94228461ADAB1421CDA45
:1017E000022D1DD0012D2ED1019AD01A1F4941433F
:1017F000C9139818029A5200101A1D4A4243D01376
:10180000FFF704FAA08003B0F0BD0546B9422846B0
:10181000E4DB0098401CB142E2DB0546022DE1D139
:10182000029A981A11494143C91301984000C01AFD
:10183000801A0F4A4243D013FFF7E8F90D494018C8
:10184000A08003B0F0BD029A019D501B074941439F
:10185000C91350195A00101A054A4243D013FFF712
:10186000D5F905494018A08003B0F0BDE749000054
:10187000ABAA000055550000ABAAFFFFB0B53F4A28
:10188000012190420A4600DC002292034B03D31848
:101890001C465C436400A04200DB1A460B03D318CD
:1018A0001C465C436400A04200DB1A46CB02D318FE
:1018B0009CB264436400A04200DB1A468B02D3183A
:1018C0009CB264436400A04200DB1A464B02D3186A
:1018D0009CB264436400A04200DB1A460B02D3189A
:1018E0009CB264436400A04200DB1A461346803376
:1018F0009CB264436400A04200DB1A4613464033A6
:101900009CB264436400A04200DB1A4613462033B5
:101910009CB264436400A04200DB1A4613461033B5
:101920009CB264436400A04200DB1A4613460833AD
:101930009CB264436400A04200DB1A46131D9CB2B3
:1019400064436400A04200DB1A46931C9CB26443CB
:101950006400A04200DB1A46531C9CB26443C94396
:101960004C432418E51764196C4095B26D434D4300
:101970002818844200DB134618B2B0BDFFFFFF1FDA
:10198000F0B583B00192029104460001124900258E
:101990000D5414276743114AD5510E18F560591C90
:1019A0006D48FEF75BFC3081F5800198B0800298AD
:1019B00070800A48C0196100094A525A0281094AD6
:1019C000515A4181E4216143B74A51580C22895E42
:1019D0004942416003B0F0BD440900206009002085
:1019E0004009002002000020F0B581B072B62649FF
:1019F000F04808600A4601263502244B196829433D
:101A00001960002717601346214C66612660211F6C
:101A100008220A60214624390F60214620390F60D0
:101A200021461C390F601860184A1068402188430D
:101A300010602846A43003F0CFFE20612846A03075
:101A400003F0CAFEE060F60210498E604868486004
:101A50000D480760FF20A0612068304320602046C9
:101A600014384321C901016020461038353505601E
:101A7000D3480849018000F037F9206830432060DE
:101A800062B601B0F0BDC046A800004010000040A2
:101A90005404014088FA000070B5542141432C4A97
:101AA000511828230022CA54882343432948C018C8
:101AB0008262C262026342638263C26302640C6A2E
:101AC000236803630B6C5D892D04C5621D89426424
:101AD0008264C264026542658265C2652D048562C6
:101AE000A5884C268553E4884E254453DC8824047D
:101AF00084649B880446603462801B0443646023D2
:101B0000C252034668335A806823134CC45242665B
:101B1000C260026142618261C26102624262CA7055
:101B2000486C8A6B928952080281C280428052427C
:101B30004281828002800948026864239A1A896C73
:101B40000A80192252010068101A488070BDC046F0
:101B5000F001002044020020FF7F00003007014018
:101B6000F0B583B022214143E4224243D24B9C187A
:101B7000A668B7892A4D6F526D18FF21023169801E
:101B8000317C29759A58126B264608367F00012948
:101B90001BD10001234908580821415E5118408992
:101BA0000818019039B2FFF719F9E88281B202945E
:101BB000BCB26143019A511A0BB232682646029CAC
:101BC0009289934211DA484215E039B21046FFF784
:101BD00005F9411CE98278432168096B401A316894
:101BE000898908182883BEB206E02B461633401CAC
:101BF00018805000401A28832068446B39B2204670
:101C0000FFF7ECF8688381B27143611AA983090474
:101C1000012902DB1A35401C288003B0F0BDC04604
:101C200074090020A80A0020F0B581B00646E4211E
:101C30004143D04A5118B82000900C58B423CD58D5
:101C40002B681A4A1A4F84C4236000232361A3819E
:101C5000BC2408596D6884C00560036183814B62B0
:101C60008B629820085842684A6602608B65CB6593
:101C700040200B5271200B54CB67CB630C20704378
:101C80000C4A1018C42288501C2070430A4A1218AB
:101C90000A510A4A1018009A88507131CB708B7023
:101CA0004B7001B0F0BDC046980900200000FF7FD6
:101CB00000000180540900202409002008090020A8
:101CC0004189084A118081899180C18811810189E7
:101CD0009181018A1182C189918201881184408891
:101CE0009084704700070140F0B581B02F488568A7
:101CF0002F483049C160016810220A430260002465
:101D0000C4602D492D480861E88803260640304606
:101D1000C4302B4FF8650220285E0090C117294A75
:101D20002346FEF741FAAA885200B2402346FEF746
:101D300015FA81B2396179611421091A89B23960C1
:101D400019214901081A80B27860BC60FC601E4805
:101D50003865FF200230184E3060012070601B484B
:101D6000B0608020F0601A487865A88900994843DF
:101D70007D21C900FEF772FA80B238637863154896
:101D8000B865BC62FC62BC61FC613C66BC663C67D9
:101D9000BC67FC67104838627866F86678670F4859
:101DA000306130680E49088001B0F0BD1C00002091
:101DB0009C000040837A0000A0070140ADDE0000D7
:101DC0002007014040420F000C0C0000931500005A
:101DD00010100000FF1F0000FFFF0000FECA0000FF
:101DE000F8080020B0B505462C2108466843314A62
:101DF00014182046FEF707FAE4206843F54908184E
:101E00004068408B054908607D20C0004860032081
:101E100020850348606288682084B0BD200B0140A3
:101E200008000500B0B52C214143224A5118E42294
:101E30004243F64882184020105A88820B690004F9
:101E4000C01A8C8C2041C01808612223CC5E20234C
:101E5000CD5E0B462233AC4208DA98201058006859
:101E6000621C1A808A6910188861B0BDB4241259A6
:101E70009269CC698D692C1B0D8D2C41CD6964193B
:101E8000CC6100241C808C6100145043CA69002A74
:101E900000DA4042C0134860020C0004CB68DC1733
:101EA000C01AA241D206400980181818C860001450
:101EB0008860B0BD7C0A002098090020F0B5E421BC
:101EC0004143EC484018816E7222845C982283580A
:101ED000002C0AD07422012585548C2200268650BD
:101EE000712285541A685A6000E05A688823C558E0
:101EF000D61793197340AB4201DA002500E00125A3
:101F00007426855580254559002A2E4608DA6E42EA
:101F1000AB42174607DA8C268751002C08D108E01F
:101F2000AB421746F7DB37468C268751002C00D092
:101F3000F0BDCE178C1974404A437121465C0146AE
:101F40007131002E0AD0002A05D4AB4203DD842271
:101F500080588442ECDC00200870F0BD002AE7D4F1
:101F6000AB42E5DB842280588442E1DB012008702B
:101F7000F0BDC04698090020F0B591B00A46E421B2
:101F80004143CC4843584518E020285C002872D0D3
:101F90000D93BC2028580C90B82028580A904A204D
:101FA0001090295E0891A86D07904E200B90285E36
:101FB00006904420285E05902120285603906869E9
:101FC0000190A8690290E8690F904827EE5FA86E1B
:101FD0000090E96D2223E8560E9010465022099297
:101FE000AA5E4623EB5E0224045F0494EC5304884B
:101FF000109FEC539A1A0F9842430E980241019C8D
:102000006143C8131018009F7E43F113029B59438C
:10201000039A1141401AE86506980599081A0F9924
:1020200048430E99084107996143C9130818089954
:102030007943C913594311414018A8650499411ABD
:102040000A98C160FEF7AEFE0B9968521098285EA0
:10205000E96D091A0C98C160FEF7A4FE099968524F
:1020600029464E319822AA581268002A06D40988B7
:1020700009B2494205E07A20285A07E0098840421F
:1020800009B2FEF7C3FD7A2168520D9BE96F8A0AF7
:10209000801A02B2988B42435118E96789010914EA
:1020A000B422AB585A894A43AC6A1219D4B2AC6212
:1020B00012126C6A12196A621B894B43191393132B
:1020C000C9187223EB5C002B1CD12B4624332C4601
:1020D00028347126AE5D002E06D129467C310022BF
:1020E0000A601A60226011467326AE5D002E09D088
:1020F0002E4673360027276037708C242C59A40392
:10210000121B1A607622AB5AEC8EAC524422AB52B0
:102110007822AB5A2C8FAC524622AB528C22AA5852
:102120005118A9666A8E4A432B6ED2182A669423E8
:10213000EB585A6001229202121A92B26B6E53430C
:10214000484318188012686698216958086011B0D1
:10215000F0BDC046B0B50C460001BD490D5C002D78
:1021600000D0B0BD0818012101700421415E4D422C
:10217000002B284600D40846002B04D4C917FEF7CC
:102180002BF803C4B0BDE917FEF726F803C4B0BDB1
:10219000E4224243AA48801841607047E423434345
:1021A000A748C018A823C250A42281507047C04637
:1021B000E4224243A2488018942281507047C046CE
:1021C000E42343439E48C018A023C2509C22815060
:1021D0007047C04698090020E4224243984880187E
:1021E000B42281507047C046E42343439448C0184A
:1021F000DC23C250D02281507047C046E4224243C3
:102200008F488018CC2281507047C0469809002022
:10221000E42343438A48C018D423C250D8228150B3
:102220007047C046E4224243854881507047C0460B
:10223000E422424382488018982281507047C04669
:10224000E42343437E48C018AC23C25090228150FF
:102250007047C046E422424379488018C02281502A
:102260007047C046E422424375488018B02281502E
:102270007047C0469809002000016F4A1018C160DD
:102280007047C046E42242436D488018C8228150FE
:102290007047C0460001684B181842608160704763
:1022A0000201654B9950E4224243654880188160E1
:1022B0007047C04698090020806881894288531A77
:1022C000038283889A1A8282C91A41827047806881
:1022D0004188C288511A0182828803899A1A4282EF
:1022E0008918494281827047F0B587B04A885242C6
:1022F0004A8013B24F4A5A4309880EB2B103521AA8
:10230000D117490C5118CF133CB2F119494209B207
:1023100000900201484B9D589A1805929268B44269
:10232000069209DA8C420B4632460EDC8E42324669
:1023300000DC0A463B4608E08E420B463A4604DC87
:102340008C423A4600DC0A463346019718B20292A4
:1023500012B21018C20F80184010091A09B20122D7
:102360009303CA180C210495695E4A43D5138FB2B2
:10237000AF423C4602DBD21795432C46069A0394A3
:102380001481019A121A12B2D2184A43D513AF42DD
:102390003C4602DBD21795432C46069AD480321A6B
:1023A00012B2D2184A43D513AF423E4602DBD217CF
:1023B00095432E46069D6E80029A101A00B2C018F0
:1023C00048434100081487423A4602DBC917884354
:1023D000024610B20499098809B28842039B1CDDA9
:1023E000C903164A1160506090684343DB0B2B8190
:1023F0004443E40BEC804643F60B6E80E421009AE4
:1024000051430F4A511836228A5E4243D20BCA8684
:1024100038228A5E4243D00B088758426881604266
:10242000A880704228806020C01B059949680880F8
:1024300007B0F0BD2691FFFFA80A0020200B014045
:10244000980900200001024A1018C903C1607047B2
:1024500044090020F0B58FB08B4A5768BB68012053
:10246000000200241450101844608460C4601146B7
:10247000154696314A78FD200B9002404A70BC21E7
:1024800006916D586C772C830E93196E2960252167
:10249000C900079158184168A9608168E9607821EE
:1024A0000C910997795AC2680A904A433B4678339F
:1024B0000D935B881A41C426734FBE59F28002699E
:1024C0004A431A413281B480346096217A5C0B9B76
:1024D0001A407A54AC800E9F84374C20395E0B979B
:1024E0000A310520C60230460596FDF7B7FE688220
:1024F0004820395E0A313046FDF7B0FE28820C983C
:102500000999095A08910A9DE86B48430D994F882B
:1025100038410497C1175D4A2346FDF745FE090679
:10252000000A4018CC21584A5658F0600396A86B10
:10253000089948433841C117544A2346FDF734FEF1
:102540000906000A4018B060C0204F490D582C60A1
:102550006C600D990A8902920E9ED836B06950437C
:1025600049890191084100047D21CF003946FDF7DA
:1025700075FE2865F06902994843019908410004F5
:102580003946FDF76BFE6865AC62AC61EC6103989F
:102590000461046044600B98016A0A310598FDF7F4
:1025A0005DFEA882B020384F3C50B8205D213952E2
:1025B0003846B0304460B0892887F0896C642C6458
:1025C0006887306908994843049A10412863706904
:1025D000EC6348431041686364202C52AC65EC65A1
:1025E000AC60EC602C61D8200E9A105A643568807B
:1025F00006983858318941830C980999085A8421E2
:102600001646515841430D9A5288114109B27E2312
:10261000F35E0B9D6D68454315412AB23878FFF78C
:10262000AFF9C820385804808480B18C41800A9B5F
:10263000198EC18044814482079AB25A8281C48231
:10264000DA8A82829A8A02835A8E511801813878F6
:10265000002801D0042105E03A4611210901414337
:102660007918091D0A687C21535A4B218900594366
:102670007C325288D140064A002801D080001218CE
:1026800011600FB0F0BDC046D802002089410000A3
:10269000D00200207047000070B582B04B484C4912
:1026A0000160021F4B4B13604B4D00262E606E6085
:1026B000AE60EE602E616E61AE61EE61474A134618
:1026C000283B1E601346243B1E601346203B1E60C1
:1026D00013461C3B1E601346183B1E601346143BFA
:1026E0001E601346103B1E6013460C3B1E601346D3
:1026F000083B1E60131F1E60166056601660566011
:102700009660D66016615661354A166056609660CE
:10271000D660166156619661D661166256629662FF
:10272000D662166356639663D663166456642D4A62
:10273000166056609660D660166156619661D661E5
:10274000166256629662D662166456649664D664C1
:10275000166556659665D665166656669666D6669D
:10276000214A166056609660D660166156611F4A0F
:10277000166056609660D660166101603320C40012
:1027800020463C3003F028F8000C032809D32046EB
:1027900003F022F880B26861201D03F01DF880B2BA
:1027A000A8610120C00329680143296001960198AE
:1027B000632806D800BF0198401C01900198642846
:1027C000F8D367342C6702B070BDC046A800004043
:1027D000837A0000FF0F00001000004068040140F1
:1027E000000A014000080140800801400002014049
:1027F0000848016804220A43026007480178491C1E
:10280000017006480188491C018005480188491C5F
:102810000180704720050140FC08002000090020CD
:102820000409002070470000821180B2800BC0466E
:10283000784400794000874401200A14D0B2420055
:10284000144B9A5A4A80FF224240500012E0D0B204
:102850004200104B9A5A52424A80FF224240500096
:1028600013E0FF20904340000A4B185A4042488032
:10287000D0B24000185A08807047FF2090434000B3
:10288000044B185A4880D0B24000185A4042088081
:102890007047C04684580000E42141435A4840181C
:1028A0007421405C7047C046F0B5E4214143564A6C
:1028B000511871228A5C002A33D04200234B9B5E60
:1028C000C4240C590225645F5C4363001B14204C34
:1028D000A25E5A43120112144023C95E511A1423F6
:1028E00043431C4DEC18216162894A43E6689619FE
:1028F000626812049642174600DB3746EB581B0409
:102900009E421D4600DC3D46E56024894C43210182
:102910006918914200DB0A46994200DC1346190C03
:1029200003E001010C4A5118498800010A4A1018B5
:10293000C1800822825EC368DC1309B2091B5143BF
:10294000C918C160C80B00B2F0BDC0460E0000201F
:102950000C0000206009002044090020E4214143CC
:102960002948401894214058C0887047222141438B
:10297000054840188088704722214143024840188A
:102980002121405C7047C046740900200120704737
:10299000E42141431C4840187621405E7047C04600
:1029A000E4214143184840183621415EA022825854
:1029B0000223D35E4B433821405E118809B2414364
:1029C000C818C00B00B27047E42141430E484018BC
:1029D0007821405E7047C0462C2141430148401891
:1029E000806870477C0A0020E42141430648401873
:1029F0007121405C7047C046E421414302484018C1
:102A0000B4214058806970479809002000B5CBB0C8
:102A100015200101674C20460591FDF7F4FB66483F
:102A200066496160A06000262670FFF7AFFF0028AE
:102A300000D1A8E072B6624C6248206005460123CE
:102A40009A032046203801684692114301600F2006
:102A500080025D4908605D48401C19040A68024311
:102A60000A6025601902449127460C3F38680843E4
:102A7000386026602560386804224592104338602B
:102A800026602046103806605148E121816042608E
:102A90000660466206618661C6612A4625604D4928
:102AA0000868449D2843086026604B4C049363618A
:102AB0002360211F082042903B9108602046243863
:102AC00035900660204620383490066020461C3839
:102AD000329006603A4802603E4A106840212191D7
:102AE000884310602846A430319002F075FE2061C2
:102AF0002846A030309002F06FFEE0600498C102DA
:102B0000344A9160506850602D480660FF20419023
:102B1000A06120683D91084320602146143943207C
:102B20000390C0013A912F90086020461038353547
:102B3000399025950560294929480880FFF7D4F880
:102B40001F4A204810603868202143910843479766
:102B5000386016602348401C23493F900860234A90
:102B60004A608E60CE600E614E618E614598C8618C
:102B70000720089008620498C0070A684090024342
:102B80000A601B4803E0FEE7761C102E32D0049941
:102B9000B1400A04920EF7D0826D8A438265C26DFD
:102BA0000A43C265826E8A438266026F8A43026765
:102BB000EAE7C0461C000020087E000070010020EB
:102BC000A8000040837A0000040C0140FFFF0700CA
:102BD000000901401000004054040140200701405A
:102BE00088FAFFFFFF0F00000005014080BB0000D6
:102BF000A80701402049081F0668204A16400327FD
:102C00003B02F618066005681D4A15401C973E03F6
:102C1000AD1905601B4F3846E1300D680540E81CD2
:102C2000086008683840303008600868134D284054
:102C3000C018086008681040801908601248806851
:102C4000124B134A1A60134D29683D9E3143296087
:102C500000261E6029460C3909681A606A686A6095
:102C60003A46F0321A6063221B929200875EC8B225
:102C7000022813D010E0C0462C080140FFF00000ED
:102C8000FF0F00000FFF00001C000020A800004004
:102C9000837A000010000040012811D1449D28468D
:102CA000C03002F099FD044908802846C43002F083
:102CB00093FD0249088003E0F4080020F608002094
:102CC00038020349FDF7CAFAFF2804D302E0C046E0
:102CD000B80B000041980649098809B24143480AE7
:102CE00004490988081801B2FF2906DB04E0C04640
:102CF000F4080020F6080020419801B2002900DC09
:102D0000304680B2314FF86131488068314B324DE6
:102D10001D60396823229143407C0843049A510284
:102D20002491084338601E601D60386845998843C7
:102D300038601E601D602948443079680140284889
:102D4000081878601E601D603868469988433860AE
:102D50001E601D6050033968014339601E601D60AC
:102D60003746479E30684299084330601F601D48CF
:102D70000260FA2181600222C26007611C994160F1
:102D80001D603068104330601F601D6030684192E4
:102D9000104330601F601448144901601449C16039
:102DA00047601D60094A10683F9908431060449DC0
:102DB0002846C83002F010FD2846CC3002F00CFD49
:102DC0004897489863281CD814E0C046100000407B
:102DD0001C000020A8000040837A0000FF7F000054
:102DE0002819000000020140000301400002000118
:102DF000007C920000BF4898401C48904898642886
:102E0000F8D3FC488168FF26B14381608168FA4AA3
:102E10001140049DAB05C91881600A9631064368CC
:102E20008B4340990B43436001681140EA058918C0
:102E3000016001688022169211437F220E92914315
:102E40000160A802ED4908600D60ED490020469040
:102E50000870EC4E3070EC4F38469C30014618310B
:102E60000246503247923A460C323F9202462C328A
:102E7000B1643D463B46BA357564E44D3563E04F79
:102E80006C371D7875705D689B684093F0603261A7
:102E9000479A7261B1613F99F16137627562F5637A
:102EA0004099897BB1702946443131643035B5632E
:102EB000D74F3A69192314935D013B693C95EB1A8E
:102EC000B625D14F7B537063D24BF36464230793D1
:102ED0009A1A0283469F3846FFF7A4F9C84D29463F
:102EE00014313846FFF764F9294620313846FFF798
:102EF0009FF9A91C2A4608323846FFF7A1F929464E
:102F00000C312A4610323846FFF75AF92946283143
:102F10002A4644323846FFF741F92946603138469F
:102F2000FFF7A0F9F1693846FFF794F9316A38469E
:102F3000FFF752F9B16B3846FFF7B2F9F16B38463B
:102F4000FFF726F935462C3538462946FFF79AF91A
:102F500038462946FFF790F9716CB26C3846FFF796
:102F600099F9AD4D38462946FFF748F9B269F1683D
:102F70003846FFF739F9326971693846FFF748F981
:102F80003565A14EB0680A212691415E384602F0AF
:102F900065FB11201E900101A04D2846FDF733F975
:102FA000B72041009E484118FC221892A95059218F
:102FB00089004118F8220D92A950AD21490041180D
:102FC000F4220F92A95005994118F022A950A3218B
:102FD00049004118EC232C93E9504F2111918900AD
:102FE0004118E8230C93E95099212E91490041188A
:102FF000E4231A93E9500146FC31E0231793E9508A
:103000000146E431DC231593E95041218900069102
:103010004118D4232B93E950132109014118D023DF
:103020004093E9500146D031CC230193E950C821A7
:103030003F9168500146B831C4230293E9500146DC
:103040005031C0232D93E9502030BC212991685084
:1030500030466E602B46963319929A707668806877
:10306000962133916F5408992A93D970442128915D
:10307000415A3180014644314A687260CA68B26080
:103080000A69F2604A693261896971618188718374
:10309000016BF161416B3162816B7162C16BB16235
:1030A0002390016CF162584802F0F6FA68684268B1
:1030B0008668F0892199505217875787154647929D
:1030C0004198375EB1892091384648437D21279148
:1030D000C9003891FDF7C2F8E887F9173E91E24A36
:1030E0003846469D2B46FDF75FF8F3881C9A13403F
:1030F000B28852009A402B46FDF730F83690479937
:103100008887C9204000325A1F9230182290408888
:1031100020994618B018294637973A463E9BFDF746
:1031200043F8389A2B46FDF719F8209047994886BE
:103130001F9DAE4200D82E467019469E3146379FDD
:103140003A463E9BFDF730F8279A12013346FDF7C9
:1031500005F827903699091A47980186284631467E
:103160003A463E9D2B46FDF71FF8C049FDF776F81D
:103170000746229880883146379A2B46FDF714F887
:103180003899FDF76BF8209979180918479AD18674
:103190003699791A0818279940189086239E717DD0
:1031A00010200029014603D1B17C4A1E914109013A
:1031B0001A4B339D5A5D82430A435A55BF200990EA
:1031C0000240307DC007400E801858552A9D68780F
:1031D000FE2127910840B17D049A11404018687083
:1031E000707E9B211091585402281BD001281ED1BB
:1031F0001A3618E000E400E0FFFF00FF00E100E005
:1032000044020020F00100201C000020CF2200001A
:1032100020070140845A000058580000D8020020BE
:10322000E80300201B362998185831780177904D13
:10323000582128460091FCF7E6FF3C203E90469935
:1032400029548C488068C27F4792427E3892C38C52
:10325000827F467F3D272397E9553F27EE5550262D
:103260002296AA55542120916B52219B3899E954FA
:103270003E224799A9547F496960469D49957E49F8
:10328000499A8A4203D2499A521C4992F8E7008C23
:1032900047907A487A4988607A4AB0320868104084
:1032A00008607948886025602560052012903B9968
:1032B000086020683D9E3043206074483A99086059
:1032C0001C98399908604A954A987149884205D2F4
:1032D0004A98401C4A904A988842F9D34798002857
:1032E0002F4624D000252F4628466A4923316160A5
:1032F000A169C907FCD0A1691C9A1143A161216889
:10330000314321605321C943615E4722D243A25E0B
:103310002346503B1B8823464C3B1B882346443B9B
:103320001B886D18BF18401C47998842DDD35A4B43
:103330005A4919605A4E3068449A10433060469E8C
:103340001E6004986061206042983B9A1060359836
:10335000066034980660329806601960504A10681A
:10336000219988431060319802F036FA2061309834
:1033700002F032FAE0603D99494A9160506850602D
:10338000454806600A98A0612068084320603A9882
:103390002F9901603998259901604248424901807E
:1033A0003846479E3146FCF759FFA422314C139210
:1033B000A05228463146FCF751FFA2210B916052E2
:1033C0003A4C2078002821D10320206160613848E0
:1033D000A0613849E161169921620021A162616210
:1033E000E1622066344860661020A0662167E166CD
:1033F000A1722098607220725220E07161672F499B
:1034000007222046FCF776FF4398A071EFF3108067
:10341000012181F310882AA121632C496163249939
:10342000A16300262664E663666480F3108862B6B2
:10343000274A284B284C1D961078022801D201F00B
:1034400004FB1670254F7869818D481E082858D8CE
:103450003C78C0467844007940008744415B7683DD
:103460008D98A3AEB800C04640420F0018FCFFFF85
:10347000600500201C000020FFFF0600ADDE0000FC
:10348000A80701400FFF0000FECA000010820000E4
:10349000FFFF0700825A0000A8000040837A000066
:1034A000100000402007014088FA0000BC05002001
:1034B000AF5C000064080020E4080020A85C000065
:1034C0004A53636F70655F69326932006406002099
:1034D000FC0800200009002004090020F001002061
:1034E0003869428C012A00D184E02046FEF7D4FAE4
:1034F0002046FEF799FB2046FEF774FC386901214F
:1035000078E0FD48814274D13869428CFB4B9A4285
:1035100070D070E03869428C022A6BD02046FDF7EB
:1035200009FD2046FDF738FA204605994843F4493D
:10353000081880689E21405A002803D001B2204616
:1035400002F06AF83869419954E03869428C032ADC
:1035500050D02046FEF7A0FA2046FEF765FB3869FA
:103560001C9947E03869428C042A43D02046FEF774
:10357000F7FA386945993DE03869428C052A39D017
:10358000386DC169012088473869129932E038697D
:10359000428C062A2ED0386DC169022088473869CE
:1035A000062127E03869428C072A23D0386DC1698B
:1035B00003208847386908991CE03869428C082A3A
:1035C00018D0386D006A80473869429912E038692E
:1035D000428C092A0ED0386D806A8047F868396DB0
:1035E000496A8847F96838690978002903D10921AF
:1035F00000E03869418479698A8D002A00D14684C7
:1036000028224692BA5C439BC2544A68D74DEA606E
:10361000896869622921795C8170F968C9890181A9
:103620003C7888213D9161436D18E95E416069886D
:103630004182A9888182E988C1822046FFF7A8F9E2
:10364000396908822046FFF7BFF93969C881429875
:10365000285E404326994795695E49430818FEF75E
:103660000DF9C34948438013C249814200DC084632
:10367000396908832046FFF78BF906462046FFF795
:1036800087F93D46074677432046FFF79DF90646F2
:103690002046FFF799F97043C019FEF7EFF8B549D6
:1036A000B34A50438013814200DC084629694883AD
:1036B0002046FFF775F9296988834698285C012818
:1036C00004D12046FFF788F929694860E868007846
:1036D000C870479A508A8881108A488100263046EF
:1036E000FEF7ECFBE8692299415A2F783D9A7A431C
:1036F0009E4B9A18526A4A435030408802419E4875
:103700004243D117D013401848402C6C22213891E5
:10371000625E90424496479706DAE18CA78C228C31
:10372000E38B0026304612E04699615E891A801AC2
:10373000C003FCF793FD228CE18C8B1A1BB2434330
:10374000DE0BE38BA78CFC1A24B24443E00B181861
:1037500004B23DB2AC4200DC074638B21CB2A04213
:1037600000DB3B46901904B20DB2AC4200DC0146CE
:1037700008B214B2A042814C479800DB0A4699B2C5
:1037800092B201F061FF60698078012806D0774A23
:1037900011463C315832002001F0D2FFFA4802684D
:1037A000FA48007800281E9C00D10446F84E239861
:1037B000335C990600D5449C3794EE21194021438F
:1037C00036913154399272644D213A938C0071686C
:1037D0000D5B44950120479005430D530D1920368C
:1037E00085CD85C68DCD8DC60D462246E84B4499C4
:1037F0004798814329534720800044902918986BAB
:1038000000283B9430D01C983E9A98543A98400730
:1038100000245C813998D860D86C1861A868B822F7
:10382000805898645861184608300A4668C868C2CB
:1038300068C868C200220A80D6480078022839D0B9
:10384000012826D00028D44B42D1D44908784328F7
:1038500067D12898D24908701888401C81B2632922
:1038600000D802461A8097E035953A9C254645983F
:103870000540188C0227064634973E4027462DD136
:10388000002D2BD1054640065CD400243E981C54E4
:10389000C9E7C24908785428BF4A33D15320C049E8
:1038A00008701088401C81B26329419900D900201A
:1038B000108072E0B948007859283ED1002C00D120
:1038C000F2E00798B64908700020B349088063E029
:1038D0001A80B0480270B24802705DE03290032056
:1038E0003E9A9854002D359D92D1002E00D054E27E
:1038F00001203E9A985470E201080000020800007E
:103900001C0000201088097859293FD100283DD09B
:10391000002C02D1A348401C108041999D480170A1
:103920003BE018880978542900D0CBE0002800D16A
:10393000C8E0984847990170C6E00020984908708F
:10394000944928E032953E981D5C032D00D9A6E2EB
:10395000A80002A21058359D8746C0468339000052
:10396000A33E0000D53E0000813900004402002043
:10397000825A0000FF7F0000CC0C0000F001002004
:10398000B3E701203E9A985400244CE700201080B1
:10399000804908708249087041999E228248805A65
:1039A000002802D0401E804B9852982030907E4BC9
:1039B000185C00075C68319200D4ACE3D8257A48E3
:1039C000405F052801DA401C4790A068A234764A7F
:1039D000479B5353D27B002A05D0409A724B9A588A
:1039E00013780B4313704795228812B2D313D21861
:1039F0005A4092B2408C824216D2625ED313D218E1
:103A00005A4092B282420FD24599625ED313D218C5
:103A10005A4092B2824207D20622A25ED313D21833
:103A20005A4092B2824206D340985F490858427881
:103A30000123134343701E225B4EB05EC313C018B4
:103A4000584085B22B9973581B881CB273689B68C9
:103A5000A54211DC4399544D6D5EEE13AD197540CE
:103A6000ADB2A54208DC38994F4D6D5EEE13AD192D
:103A70007540ADB2A5422ADD19994B4C6458258892
:103A80002DB26E1C2680C72464001B5B9D4223DB85
:103A9000409845490858037801241C430470885E07
:103AA000C2138018504017E03B490888401C08802A
:103AB00080B23C498842419900D86EE76520384A77
:103AC00010706AE73648027041991A8065E71999C3
:103AD000354A5258002313803899334D6A5ED61305
:103AE000941943996A5ED313D7185F4015996A58A1
:103AF00017996D582B8819B203B28B4200DD2880CC
:103B0000744038B24199695E884200DD688024B211
:103B10004599695E8C421A9F00DDAC8055881499E6
:103B200089018D4210D8691C51805168994200D298
:103B3000536091688142479900D29060D068A0425A
:103B4000189B12D2D46010E0901C002101805368B1
:103B5000138293680181D46881814181C18053823D
:103B6000948241808180189B47990F48405E401E97
:103B7000042800D9C7E202A1085C40008744C0467F
:103B80001683BBEC3200C04608000020B8050020B8
:103B900060050020180000206C01002000000020BB
:103BA000040000203F1F0000D80200201420F84D20
:103BB0002B5E40982858E9591C9AD2016C68A46879
:103BC000A2182B9C2C59419D655FAB4200DB08E19C
:103BD000459D645FA34200DB13E14B885B1D4B8076
:103BE0000B8811E19C20F949085C082800D08AE282
:103BF000F649C85849688968F92252008A5C012A46
:103C000000D0F1E0239AD20089180622845E0B8846
:103C10009C4200DB77E2179BEC4DEB58A4B2641D8D
:103C2000C4802B9C2C591025645F1D882DB2A542A1
:103C300007DC419D5D5FA54203DC459D5B5FA342C0
:103C40000ADD409BE14EF3585C78419D2C435C704B
:103C50002B9BF3581C9C9C84299BDC4CE3585B7F7A
:103C6000002B00D04FE2805E4988884200DC4AE2A7
:103C70004098D64B18584178419A114341702B987F
:103C800018584599BBE09C20D049085C082800D012
:103C900039E22D98CD4B1858846818783D994143E6
:103CA000CB4840184299415E4943269A805E404382
:103CB00040182B995F582C9A9E5859688D68FDF7CB
:103CC000DDFDC44948438113C348884200DC0146F6
:103CD0000A98F230285C012800D0BCE073208000F4
:103CE0002B180620305E1A88904200DB0EE180B26D
:103CF000401DF08007E29C20B449085C082800D0F1
:103D000001E20C98B1490858496889681F221201DC
:103D10008A5C012A00D0AAE0772292008918012249
:103D20001202AA4CA25ED313D2185A4093B22B9A15
:103D3000A258269C145FA34200DBD7E0A34B1B696B
:103D4000DC171B196340D268934200DCCEE0028886
:103D5000521D028012B2CBE09C209C49085C0828CE
:103D600000D0D0E10D9899490858496889680A9AA5
:103D7000F4328A5C012A00D083E0159A934B9A585A
:103D800079239B00C91803881BB20C88A34200DB6F
:103D9000CFE09BB25B1D03802DE1329840071CD41D
:103DA00038460024380704D42298185C012800D033
:103DB00039E552201A5A521C1A52209D5D5B92B26C
:103DC000AA4200D22FE51D523998D86043985881F5
:103DD000D86C18613598806821E5522000241C5267
:103DE00021E50B885B1D0EE00021C1804098774CD7
:103DF00020584278FD23134043702B98205881842B
:103E000081E100234B800B8014881BB2A34205DBA9
:103E100000230B800378459C23430370419BCB5EBA
:103E20005488A34205DB00234B800378429C234344
:103E30000370D379002B05D100234B800378F7243E
:103E40001C4004709279002A00D05CE100220A80B4
:103E50000178FB2212E05D49409808580178EF2272
:103E60000A40027000207080308078844BE100218D
:103E700001804098554908580178DF220A400270B5
:103E800041E10021418001804098504C2058027847
:103E9000099B1A4002702B982058018533E10024B9
:103EA000F5E43798112800D0B2E4349C27408137DC
:103EB0009F723998D8603F981883D86C1861A868A9
:103EC000B8228058986458613298400700D5B6E00F
:103ED0000024A8E441480078022843D1DE20369C23
:103EE0000440203423981C54399A3DE0002202807B
:103EF00009888A4200DA06E10021018040983349AE
:103F000008580178439A11430170FCE0E017241827
:103F100009B27A698A424797399350DA0121398484
:103F2000318809B25A88914200DB8DE089B2491D7F
:103F3000A0E0179B254CE35800240480419D5E5F60
:103F40001D882DB2AF10BE424ADA204E409D7559F1
:103F50002E78219F3E432E702B9D1C4E75590126B5
:103F60002E8545E0399A369C11202040112811D128
:103F70003498044081349C72DA603F981883D86C7E
:103F80001861A868B822805898645861049C4AE473
:103F9000D80200202C4600255D81DA60D86C1861BB
:103FA000A068B82280589864586132984007049CF1
:103FB00000D538E401203E9A98542C4633E4BA697F
:103FC0008A424DDD002139844EE0C046D8020020EF
:103FD00044020020825A0000FF7F000018000020E9
:103FE000459FDF5FB610B742AFDBBE10AE42ACDC20
:103FF0009C805C801C802B9BDE4CE35826241B5F3E
:10400000148A9C4205DB548A9C4202DB928A9A42C3
:104010006CDA419BC25E09888A4203DA91B2491D7B
:10402000418070E0002141804098D24C20580178B6
:10403000219A114301702B982058038563E03E9824
:104040001C54049CFFF7EFFB00213180C949409AC2
:1040500089580A78102313430B70012179840AE0F0
:10406000398C012900D15BE73188491F0AB2002A47
:1040700000DC0021318044403D94BE4C2078FEF7A6
:10408000BBFC3A9025782846FEF782FC0746284676
:10409000FEF77EFC04467C432846FEF795FC074667
:1040A0002846FEF791FC78430019FDF7E7FBB2497B
:1040B00048438013B149814200DC084600B23A9976
:1040C0004843C013479CE169414308123D9981422E
:1040D00009DD419BF05E39994988884209DA80B24E
:1040E000401D70800FE0002070800CE000214180B6
:1040F00009E0002070809F4E4098305801781022CF
:104100000A430270638440989A49085800880881DD
:10411000002048814C6847940025964FBD67FD6795
:104120003E467836B560F56035617561B5613846F3
:10413000303030213A902591FCF765F80120349019
:104140003F9960522046C8300C371CC81CC71CC899
:104150001CC71CC81CC7479C3F9825524498205A2E
:10416000002808D144982018824960311CC81CC11D
:104170001CC81CC1479C23465C3362217D48405CBF
:10418000A2687F283D963991389211DC002831D001
:10419000202823D0402821D13399764D685C279A76
:1041A000104068542A9A507811990840103037E02E
:1041B00080282BD0812800D1EFE183280ED11098E0
:1041C000349A6C4D2A543399685C104368542A9A87
:1041D00050781F210140C031517022E03399654D64
:1041E000685C279A104068542A9A507811990840C0
:1041F000203015E033995F4E705C279A1040705460
:104200002A9A50780E99084050700CE03399594D15
:10421000685C279A104068542A9A50781699084387
:1042200050701B982D5C9A202F95524E3290355429
:104230004698305E616E4143249398890141B020D5
:10424000379030583690800A3746B0377A684692B1
:1042500092058018081AC117B8221F92B25ED317B0
:10426000FBF7A2FF05462D983058C26833469612D8
:104270001B699C1B868A6643B21894123594369C3F
:104280002C193C4D379EAC513A4D299EAE59389D64
:10429000AD7E38963577359D8560C2603790036175
:1042A0004698414179608A05A10A50184690D7176F
:1042B00047998E68449C35196A68D3173946FBF7CD
:1042C00073FF3259D61784184E41AA68D317469DFA
:1042D00028463946FBF768FF2A463B46FBF764FF52
:1042E000642200252B46FBF739FF20187141214E2F
:1042F0000905000B4018A8217050318900292E9C17
:1043000046950FD09720305CC20605D52F9A002A1B
:1043100005D0F27A002A02D1B27A329BF2548A078F
:1043200000D5D6E0305D020702D51022104330558B
:104330009723F05C102702463A40114300D0CCE0AE
:1043400044939D23F15C9C22B1540A2900D933E1A6
:104350004900C0467944898849008F4411002D01E5
:104360002D012D01310143016001C001E001C300B5
:10437000D100C046D8020020825A0000FF7F000012
:10438000369301F017F84790002858D0FEF762F8EE
:10439000305D400753D51A98305800254580058078
:1043A00071687C2038900E5A172212018B689C5835
:1043B00074437C3149880C41A14F2B983F587C8035
:1043C0009A18926872430A41BA80FCF759FD9C48DA
:1043D000409942589A48416888681580984A0C9BD1
:1043E000D2589580964A2C9BD2589580944A199B16
:1043F000D2589580924B1A9C1B599D801581389AF2
:104400008A5A5D239B00C45854437C3149880C412F
:104410008B4E2B9FF659F480C0188068504308419A
:104420003081874E0F98305885802E9AB05CFB21E2
:104430000140B154309AB05C42990843B0543220E4
:104440000021359131541398305A5A22B0522D9888
:1044500030588068389070688222815A3791169956
:104460003546465A44996A5C54B20123002C1C46D6
:1044700000D4022481683E9FEC55896E4E433799E3
:104480000E41389CE11764184C40B44200DD359B66
:104490009900FB231A405118449AA9540521E98731
:1044A000479900292E463D9F00D180E21421715E7C
:1044B0005F22920083687C309A5803885343408877
:1044C000034118B2884200DD71E245983699705474
:1044D0005DE0315D429A1143315541070DD49C2175
:1044E000584A7252319AB15A002939D0491EB152F4
:1044F000090435D0FB21084034E09C205249315258
:104500003399705C279A104070542B98345861206E
:10451000800047998B68181847901B2540983158A0
:1045200032460E783007800F449400D142E11420C7
:10453000175E4298205E874200DA37E10620205E4F
:10454000874200DD32E11A98175845983C5E47983B
:104550000088844200DB26E1A0B2401CB88029E13B
:10456000459908433D9F02213E9AB15497217054CA
:10457000322175547821725A429B1A4372527563E4
:10458000B563400700D412E29D2045993154309A1A
:10459000B05C16990843B05409E21098349A284D3B
:1045A0002A543399685C104368542A9A50781F2122
:1045B00001408031517034E62698F0543D9FF6E179
:1045C00036934798876800F0F5FE0028479000D1A1
:1045D00071E2FDF73FFF305D400700D590E2FCF748
:1045E0004FFCDFE23F98305802214791415E8EB286
:1045F000002E389C01D1022262712279002A369362
:1046000000D15BE24490028813B298B20028129F56
:1046100000D15FE3B04200D058E306275AE3BA273F
:10462000F05D052801D900F0B3FE40007844808891
:10463000400087440B00AD06A703C303E003E70374
:10464000D8020020090900000A0A00003398305CF3
:10465000C00601D400F063FE3F9830584189491CE0
:1046600041810C22825E09B2914201DA00F07EFEA5
:10467000369347998968479100224281029AB3583C
:1046800024990C88326962434C8822411A60339B1A
:10469000F35C9B0701D500F0FCFD3899CB685B42C9
:1046A0009A42369B01DA00F061FE38998B689A4293
:1046B00001DA00F03BFE1F9847990858249A918B25
:1046C0004143D08B0141012000023152379A1069D9
:1046D0009062810250609060D16000F0F2FDC107ED
:1046E0003D9F01D100F079FD369300203799886213
:1046F00048603F997158459A8A5E53239B00479CB6
:10470000A468E5180623CB5E9A4200DB9AE2521CAD
:104710008A8001997158249CA38B6A689EE2369323
:10472000389A108B401C10831A21515E00B28842C7
:1047300001DA00F0A2FC4698108324998D8C706EEB
:104740006843C98C0B460841C11742184A40379C40
:1047500022603398305C800701D552422260359246
:10476000479886681798305EDE494843401847905E
:1047700038980068684318416168CA178918514021
:104780008142349300DB6EE2306F68431841C117F9
:10479000479AD3174493449BFBF706FD0906000A8A
:1047A000401874366EE2F32006400E701A981058C6
:1047B000469A82802D010E78B00730D047988489C0
:1047C000C94884422BD0C948199A87584598385E01
:1047D000A04203DA80B2401CB88020E03046419C01
:1047E000204009D0FD2006400E70C04A2E9E905DEC
:1047F0001024044394550E78F00704D1BB48199A4D
:104800008658469807E0279806400E70B748199AD0
:10481000865846983080B0803089401C30815B19C2
:104820000D78E806B14E3D9F1BD51C8CAE488442E6
:1048300017D02C9AB6584598305EA04204DA80B260
:10484000401CB080A94E0CE0EF2005400D70469C46
:1048500044980462A54EB0580481C480848044808A
:1048600004800878800617D5DC8D9F48844213D0D9
:104870000C9AB5584598285EA04203DA80B2401CD5
:10488000A88009E0409830580478DF25254005705D
:10489000B058469A828002800D78680618D5DC8E62
:1048A0009148844213D032460D9836584598305E70
:1048B000A04203DA80B2401CB08007E009980540AE
:1048C0000D700D981058469C8480048016460D7813
:1048D00068B200281FD530460F9AB6580B9A805EF2
:1048E0001C78479A126A121B12B2824201DA469869
:1048F00006E04598325E9888824204DA90B2401C05
:10490000B0807A4E07E00E9805400D70774E0F98F4
:104910003058469A82804A78900719D59C8F724801
:10492000844215D0189D73594598185EA04203DA49
:1049300080B2401C98800BE0FD2002404A704699EE
:104940004498818470590181C180818041800180B7
:1049500097203056002801D4419934913E99349AD9
:104960007254B17B491E4A424A41D1007822B35A5F
:10497000429CA3435918419B1943B1523221469A94
:1049800072541399715A5A22B1521299F18771686F
:104990007C228A5A5F239B008C68E35853437C3106
:1049A00049880B4119B21422B25E91425BDD308915
:1049B000B8612420315E7068209A825A4A430146C9
:1049C00054314B881A41BA601422B25E8B885A4324
:1049D000CC8822417A602622B25E5A432241FA6094
:1049E00032690B89534349890B413B619721715CC3
:1049F000459A8A437823F45A289DAC43A218C900EB
:104A0000219C21405118439A1143F1523999715C0C
:104A1000B9700146EC313A9E3CCE3CC13CCE3CC123
:104A20003CCE3CC12C99469A42523B9D415BC90702
:104A30001D9E2F4A2F4B304C07D140190ECF0EC070
:104A40001ECF1EC02C4C2B4B294A1888142800D38B
:104A50001E803C98C7302188814201D8FEF7ECFCCB
:104A60002680FEF7E9FC318900290ED1C0B2102161
:104A700001400AD125990140202998D1000700D58D
:104A800082E59D204699315491E72E98305CC1060D
:104A90008DD5010704D45C21469A7252EF2106E0BD
:104AA000F18D092919D15C21469A7252E7210840FB
:104AB0002E9970547BE74498305C7CE05C210522A1
:104AC0000A4E725202213E9AB1540C49E1800121F2
:104AD0002171002101803D9F16E15C2009213152A6
:104AE00065E7C04689410000FFFF0000D8020020B2
:104AF000FC0800200009002004090020CC0400006C
:104B00001A983058002646800680F84841687C2074
:104B10003790085A172212018B689C5844437C3105
:104B200049880C41F14D38972B9FED596C809A18AC
:104B3000926842430A41AA80FCF7A2F9FD484099D5
:104B40004258FC48416888681680FA4A0C9BD25843
:104B50009680F84A2C9BD2589680F64A199BD258D8
:104B60009680F44B1A9C1B599E801681379A8A5A5C
:104B70005D239B00C45854437C3149880C41ED4D62
:104B8000ED59389FEC80C018806850430841288157
:104B90002E9AE8480F9940588680E64EB05CFB217B
:104BA0000140B154309AB05C42990843B054449AE1
:104BB000B05C0843B0542D9971588968CA178B1896
:104BC00053407168169A8A5A8C68A46E5443803197
:104BD00049880C4101220021A342134600DD0B4607
:104BE0009B00459CA043C018449BF05440B2022354
:104BF000002800D41A463E9C32553222B1541399F3
:104C0000715A5A22B152797F01293D9F00D10B463A
:104C100033550521F187002804D57822B35A429CE8
:104C20002343B352479A002A00D1C0E6002800D49B
:104C3000ADE43398305C0122024000D1A7E43698FD
:104C40003154B4E6429BCB5E9A42249C00DB06E1E1
:104C5000521C8A8001997158A38BAA685A43E38B2E
:104C60001A410A6004E1E036306968431841C1170F
:104C7000479AD3174493449BFBF796FA0906000A18
:104C800040181436389020623068359EA66145433E
:104C900034980541EB17479844992A46FBF784FA64
:104CA00033460906000A42186262A06AB0423146E1
:104CB0002646A04C469D00D150E13899002900D1EC
:104CC000F3E0834200DA13E10A4612E14C00A3420A
:104CD000089F05D10124974E3E9D74555C2437539F
:104CE0001C9C6143994204DD0121924E3E9BF1548C
:104CF00005E000D09AE08F4E3E99479A7254411CCD
:104D0000449801803D9F389C60790228479C12D1CD
:104D1000F08D002820460CD1FDF79CFB479C309A73
:104D2000B05C16990843B054299830588249818064
:104D30001C983E997454032800D080E23E98345465
:104D40003098305CC10700D179E2C0280AD3F18DD8
:104D5000002907D1706800F09FFC309AB05C23995D
:104D60000840B054810700D590E0F18D420600D58F
:104D700040E2012900D05FE25C21002272522199B9
:104D800008433DE236933F983558029C3159242020
:104D9000305EFBF7BBFD3059817A002900D132E249
:104DA0001621695E1822AA5E9142369B00DB33E22F
:104DB00000228272481CE882449C98E201203899C3
:104DC0004877379F3969B9628A027960B960FA60B9
:104DD000449C315DFB220A4032553E99705432208A
:104DE00006213154429AF2547820315A11437A689C
:104DF0003152B263CCE23398305C40065CD4089800
:104E0000F054C5E21C460120009970543E9970543C
:104E10003220429A32547820315A11433152339819
:104E2000305C464B81074AD51A4649E0389C607988
:104E30000128404E00D1F7E100283D9F00D063E7F4
:104E40003E98479931545C2000213152E180F18D28
:104E5000002900D058E7429931520120EAE1449CF0
:104E6000325D0223134333558880019971580A68D3
:104E70000B69934200D17EE147958D68002D16D0D5
:104E80009A4247DACC684D682E1B45E083210840E2
:104E9000032800D0D3E13F983058002101802998A1
:104EA0003058012189024160C9E1379E53E04860D2
:104EB0000A611646479D5FE11298F05568E25A1E56
:104EC0005C2172529A1CF38D934209D1089A2346B1
:104ED000325500227252169908433399705457E2A2
:104EE0000E99084033997054234651E2D8020020AD
:104EF00052423799C9698918CB17CA185A4093B2D8
:104F0000002900DA5B42379EF361002918DA110CA0
:104F1000494216E04C686619F41737196740BDB26C
:104F2000002E00DA6D424D60002E00DB10E13C0CDB
:104F300064420EE1D80200200203000002080000D3
:104F4000090C359B0918379A9162834200DB09E10D
:104F50009942379E02DAF561B36219467160207892
:104F6000403616223146FDF7F5F829982058417F42
:104F7000012903D13560756002214177FA4C207810
:104F8000FDF732FD002803D0299820581C9941775D
:104F9000379C6068A168451AE563E917228F0023F2
:104FA00028463591FBF700F9C20C49038E184003DF
:104FB000216C626C38914318A36434925641E664C4
:104FC000226B900AD11789050818479291054493DE
:104FD000CA1A0246B24116DAA164E064002DF44E0A
:104FE0002846479D47D5628F00233599FBF7DCF8AB
:104FF000020E090289180002389A80182064349839
:105000004141616437E0636B980AD9178905081834
:105010009905449A521A3246824117DA4793A1649D
:10502000E064012D0FDB628F002328463599FBF7E2
:10503000BBF8020E090289180002389A8018206411
:10504000349841416164DA4E479D14E0628F002339
:1050500028463599FBF7A8F8020E090289180002C4
:10506000389A801820643498414161644498800DD6
:10507000B1024518CE4E069835523078FDF714FC33
:1050800083214900705229997158CA5F2123DB009E
:10509000F458A512401B50430019F050069AB25E16
:1050A000039B9B00F458A512521B1225495F5143E4
:1050B0000919F150800A812252004790B0528A0AA1
:1050C00001210B02F2522D9830588468E5176419BB
:1050D0006C4075683346169EAE5BAF68BF6E774313
:1050E00080356D882F41BC420C4600DD469CA400F3
:1050F0002A9F7D78459EB5432D197D70479CDC869F
:105100009A8640683E9A9954986332200621195431
:105110007820195A429A114319523398185CC007E3
:105120001E463D9F08D068B2002805D51C982A99D4
:105130000856002800D43AE4A020305A3199705221
:105140002420305E02997158FBF70AFC09209CE08C
:10515000340C3D9F479DE6180E619A4207DA96424D
:1051600007DB09E09942379E00DDF4E6F6E6964259
:1051700002DD48600A611646832040008C4A1652C0
:105180008120400016522120C000310489111150A5
:10519000107831B21646FDF755F93398305C400669
:1051A00004D430782968090400F044FA01213E98BB
:1051B000315432201C9A3254449C325D1046459B37
:1051C000184330557823F45A429D2C43F452090277
:1051D000715871639107369B01D54299F154339907
:1051E000715CC90700D1DFE040B2002801D5FFF7AC
:1051F000DEFBD9E0002922D15C210022725220433B
:10520000309970541BE00020E882449C305DFB2103
:1052100001403155369B6AE01221695E01295ADB53
:10522000481E6882449C62E0F08D00283D9F00D0BB
:105230006AE54798607167E55C20012131523221AF
:105240000020705401212A9B5A5645990A435A70EE
:1052500029997158CB885A2433537823F45A429DA4
:105260002C43F452339BF35CDB070DD0002A0BD5A3
:105270004979042901D0FFF79AFB0621369AB154E7
:10528000BA217054FFF793FB459836997054FFF795
:105290008EFB38998B685B429A42379B42DA1F98A3
:1052A00047990858249A918B4143D08B0141484239
:1052B0000121090270521869986281025860986051
:1052C000D960369B01203E997054322170540A985F
:1052D0000430F05352E000218172E9822D98305859
:1052E00001604160449C305D4599084330555C2025
:1052F0000021315201203E9AB0543220089A325493
:105300001398305A5A22B052299830584177782051
:10531000315A429A11433152305D400738D5459891
:10532000F05535E0C9688A42369B1FDA818A41828E
:10533000449ABB200225355401203E9970543221F5
:105340007054B05CFB210140B1547820315A429A2C
:10535000114331522420305E02997158FBF700FB53
:10536000F555369B14E0C046D8020020BB20002132
:10537000315401203E99705432217054449AB05CEB
:10538000FB210140B1547820315A429A11433152E5
:105390003398305CC0073D9F06D001202A990856FB
:1053A000002801D5FFF703FB4598F054FFF7EFF80D
:1053B000D8020020F0B58DB09826944FB85D30210A
:1053C0000140302924D1F98D002921D1796848681C
:1053D000896844228A5A02808A8842830A46443273
:1053E00053684360D36883601369C3605369036182
:1053F000926942610A6BC2614A6B02628A6B4262C5
:10540000CA6B8262096CC162B95DCE200840B85592
:10541000C1070DD1F98DC20600D5AAE0022900D03E
:10542000B0E05C2100227A5210210843B855E9E02F
:10543000810600D5E6E09924395D03230A460C93E2
:105440001A40032A00D086E0FA8D002A00D082E0BC
:1054500005960794786847688568E88940217852FE
:1054600000243C877C8702202E5EA9890B91304660
:1054700048437D210491C9000A91FAF7EFFEF887AD
:10548000F1170991624A30462346FAF78DFEEB8800
:105490000C9A1340AA8852009A402346FAF75EFEFF
:1054A0000890B887C92040002A5A01922818039012
:1054B00040880B994518A818214606963246099B44
:1054C000FAF772FE0A9A2346FAF748FE0B97029003
:1054D00078860198854200D80546014628180D4671
:1054E0002146069E3246099F3B46FAF75DFE049A26
:1054F00012012346FAF732FE04900899091A0B9814
:1055000001862846214632463B46FAF74DFE414980
:10551000FAF7A4FE054603988088214632463B46AA
:10552000FAF742FE0A99FAF799FE029969180918E2
:105530000B9AD1860899691A081804994018908620
:10554000079C324F385DFC2101403955059EBA5DFC
:10555000FB201040B855420718D4FA8DCB0732D142
:105560005C20032A38D100223A52012001433955E8
:1055700048E0002946D15C2100227A5201210843EB
:10558000B8553FE05C20022139523BE05C24002505
:105590003D53890736D4C02809D3F98D002906D197
:1055A000786800F079F8B95D3D200840B85581076A
:1055B00015D4F98D42061CD4012921D13D53402137
:1055C0000843B8551EE0002A1CD15C2100227A5203
:1055D00004210843B85515E00C99395212E041B244
:1055E00000290FD407210840C11F484248410DB08F
:1055F000F0BD002906D13D5302210843B85501E012
:105600000120385300200DB0F0BDC046D802002064
:1056100040420F0018FCFFFF40016E4A10188183C2
:105620007047C046E422424369488018E022815412
:105630007047C046E42242436548801801669422C0
:105640008058016041607047E42343436048C018BC
:10565000B423C058428101817047C046034A914239
:1056600000DB11464000024A1152704755550000B8
:105670000E000020E42141435548401872210022C9
:1056800042547047E421414351484018FF21023100
:10569000722281527047C04670B57821415A8468A1
:1056A0002646A0362822B25E4A430A2151430246CA
:1056B000783252881141326A456850202952EA6492
:1056C000F069A864706A6864206E6865606EA86599
:1056D000E06EE865A0202158A08848437D21C900DC
:1056E000FAF7BCFD01B20A310520C002FAF7B6FD97
:1056F00060216852308962216852AA20205A6421B0
:105700006852B08966216852AE20205A68216852DA
:10571000308A6A216852B220205A6C216852512086
:10572000800021188988228812B251436967A52117
:105730004900615A5143A96720587C21685270BDC5
:10574000F0B582B00191E4234343214CE31898243F
:105750001C59646840011F4D2C5028189C255E5927
:1057600002210091775E8780368836B2C680102588
:10577000455F6543418A0D411421415E7943C78AE3
:1057800039416143C90B49190C25475F7743C689E5
:105790003741C91911800421415E425F4A43C189E2
:1057A0000A410621415E1825455F4D43418B0D415D
:1057B0006543E90B511AC4229A58009BD25E1C2300
:1057C000C05E5043C00B08180199088002B0F0BDBC
:1057D00098090020B80A0020014689088900FF20A6
:1057E0009130814202D31348814207D9932080002F
:1057F00081421CD34B20C000814218D801200004F4
:1058000000680123DB0218435B0118605920000681
:10581000586018464160C2689520000658601846D6
:1058200000685B1198435B011860104670470020C8
:10583000FCE70000FF01000002E008C8121F08C1D9
:10584000002AFAD170477047002001E001C1121F01
:10585000002AFBD170470000D9080000F5080000BD
:10586000E9080000D5080000410D0000C11C00003F
:10587000510E0000ED0D0000E919000015140000A4
:10588000450D00000000C90092015B022403ED03F6
:10589000B6047F0548061107D907A2086B09330A29
:1058A000FB0AC40B8C0C540D1C0EE40EAB0F7310D2
:1058B0003A110112C8128F1355141C15E215A816BF
:1058C0006E173318F918BE19831A471B0C1CD01C0D
:1058D000931D571E1A1FDD1F9F2062212422E522DF
:1058E000A72367242825E825A82668272728E52850
:1058F000A429622A1F2BDC2B992C552D112ECC2E7E
:10590000872F4230FC30B5316E322733DF33973486
:105910004E350436BA3670372538D9388D39403A85
:10592000F33AA53B573C083DB83D683E173FC63F9C
:1059300074402141CE417A422643D1437B442445E1
:10594000CD4575461D47C4476A480F49B449584A72
:10595000FB4A9E4B404CE14C814D214EC04E5E4F68
:10596000FB4F98503451CF51695203539B533354DA
:10597000CA546055F6558A561E57B1574358D458E5
:105980006459F459825A105B9D5B295CB45C3E5D9E
:10599000C85D505ED75E5E5FE45F6860EC606F611B
:1059A000F1617262F2627163EF636C64E964646571
:1059B000DE655766D0664767BD673268A7681A69B3
:1059C0008C69FD696E6ADD6A4B6BB86B246C8F6CF9
:1059D000F96C626DCA6D316E976EFB6E5F6FC26F50
:1059E00023708370E37041719E71FA715572AF72CA
:1059F00008735F73B6730B746074B3740575567572
:105A0000A675F47542768E76D97623776C77B4775F
:105A1000FB7740788578C8780A794A798A79C97994
:105A2000067A427A7D7AB77AEF7A277B5D7B927B22
:105A3000C67BF97B2A7C5A7C897CB77CE47C0F7D11
:105A40003A7D637D8A7DB17DD67DFB7D1E7E3F7E66
:105A5000607E7F7E9D7EBA7ED67EF07E0A7F227F2C
:105A6000387F4E7F627F757F877F987FA77FB57F66
:105A7000C27FCE7FD97FE27FEA7FF17FF67FFA7F18
:105A8000FE7FFF7FE92200000000290051007A001C
:105A9000A300CC00F4001D0146016F019701C00175
:105AA000E90111023A0262028B02B402DC02050330
:105AB0002D0356037E03A703CF03F70320044804F6
:105AC00070049904C104E9041105390561058905CB
:105AD000B105D9050106290651067806A006C806B3
