:020000040000FA
:10000000F0140020D9000000E7000000C524000023
:1000100000000000000000000000000000000000E0
:10002000000000000000000000000000EB000000E5
:100030000000000000000000ED000000AF420000E2
:10004000B9420000E1420000E3420000E542000046
:10005000F1000000F1000000F10000005F3A000034
:10006000F100000085230000FF440000014500006E
:100070003D170000B707000079030000510400009D
:10008000F1000000F1000000F1000000F1000000AC
:100090005D3A000051480000F73C0000D1340000F8
:1000A00097070000000000000000000000000000B2
:1000B0000000000000000000000000000000000040
:1000C0000448854600F016F9004800473552000004
:1000D000C046C046F0140020064880F30888064851
:1000E000804706480047FEE7FEE7FEE7FEE7FEE73B
:1000F000FEE70000F0140020B1420000C100000043
:1001000030B50B46014600202022012409E00D46AF
:10011000D5409D4205D31D469540491B2546954037
:1001200040191546521E002DF1DC30BD70B500247B
:100130002546002801DA01244042002901DA012580
:100140004942FFF7DDFFAC4200D04042002C00D016
:10015000494270BDF8B500242546002904DA0E4650
:10016000012400214042B141002B04DA1E46002345
:1001700052420125B34100F08DF88C4617461E46C9
:10018000AC4203D0002540428D41AC46002C02D049
:10019000002657429E4161463A46334601B0F0BDC3
:1001A000F0B51FB486B00020009001900290069830
:1001B000069980B204900798090C020400141143B8
:1001C00007900027089D099806913E463C460390FB
:1001D0000398A9B20204000C039004982D0C154357
:1001E00048430021224600F018F8C7197141103425
:1001F0000E46402CECDB3846029A00F00EF8009ACE
:10020000019B801800905941029801911030029092
:100210004028CCDB00980BB0F0BD10B5202A04DBE1
:100220000146203A9140002010BD914020239C1AA5
:100230000346E3401943904010BD03460B439B0720
:1002400003D009E008C9121F08C0042AFAD203E04B
:100250000B780370401C491C521EF9D27047D2B271
:1002600001E00270401C491EFBD270470022F6E7F5
:1002700010B513460A4604461946FFF7F0FF20461C
:1002800010BD03460A780270401C491C002AF9D1AF
:1002900018467047F0B51FB40646002082B00546E8
:1002A0004024019100901BE0019922460F46304600
:1002B00000F032F8049A059B801A994110D3104639
:1002C00019462246FFF7A9FF361A8F4101972246A9
:1002D00001200021009FFFF7A0FF38184D4100903A
:1002E0002046641E0028DFDC019B00982946324628
:1002F00007B0F0BD064C0125064E05E0E36807CCCB
:100300002B430C3C98471034B442F7D3FFF7DCFE84
:10031000C85C0000E85C000010B5202A04DB084639
:10032000203AD040002110BD0B46D340D0402024BD
:10033000A21A91400843194610BD000010B50C499F
:100340000968491E4A1E9141CA02012149040B68ED
:10035000084C23409A180A60592212064A604860E5
:10036000C868952212064A600A6822400A6010BDD9
:10037000A0000040FFF7FFFF70B51B484169032252
:1003800011434161194CE088401CE080184D002069
:10039000286100F08FF9286920802088608004207F
:1003A000205E0221615E884202DA0220205E01E0C6
:1003B0000420205EA080002004F04CFC0B4C08348C
:1003C0002080002004F03AFC6080002004F01AFD38
:1003D000A080002004F020FDE080082221460120BA
:1003E00003F0F4FA70BD0000800401400400002016
:1003F0000003014010B588B0684600F035F90020D0
:100400006A465080D080108150819081D081012136
:10041000118290801180082151829082D082508375
:1004200090830A4CD0831146204600F0B5F87F2116
:10043000204600F0AEF800F047F804484030416B29
:10044000C2141143416308B010BD00000004014014
:10045000044841690322114341610349C888401C93
:10046000C8807047800501400400002010B588B0A6
:10047000684600F0F9F800206A465080D08010816C
:1004800050819081D08101211182908011800421BE
:1004900051829082D082508390830A4CD08311463F
:1004A000204600F079F87F21204600F072F800F035
:1004B0000BF804484030416BC2141143416308B04B
:1004C00010BD00000005014010B5254C002301229D
:1004D0001946204600F048F8002302220121204658
:1004E00000F042F8002301220221204600F03CF8EF
:1004F000002302220321204600F036F800230C22BC
:100500000421204600F030F8002303220521204674
:1005100000F02AF8002307220621204600F024F8E4
:1005200000230F220721204600F01EF80D4C002367
:100530000D221946204600F017F800230D22012154
:10054000204600F011F800230C220221204600F082
:100550000BF800230B220321204600F005F810BD04
:10056000000401400005014010B5012B03D1446E89
:100570008B401C4344660B079B0F8907090F9B00A8
:100580001818036D0F248C40A3438A401A43026558
:1005900010BD80304161704770B50C4605460121A1
:1005A000084603F0A9FB2188608801432846803073
:1005B0000161E18AA28A090212011143628A114390
:1005C0002966218AA967A188E2880903920211435A
:1005D000228912021143628912011143A289D200B9
:1005E0001143E28911436967618B4164A18B816486
:1005F000E18BC164A1204001FFF7A0FE124C2060F6
:100600001248FFF79BFE60601048001DFFF796FE42
:10061000A0600E480830FFF791FEE0600B480C30F8
:10062000FFF78CFE0A4C206008481030FFF786FE6A
:10063000606006481430FFF781FEA0600348183060
:10064000FFF77CFEE06070BD8004014024140000D0
:1006500080050140012902D102490148C863704761
:10066000A55A0000400401400021018041808180A2
:10067000C180018141818181C18101820122428247
:100680008282C282018370477047000002490A6873
:1006900042804968818070470004014001498969AE
:1006A000C18270470004014001490969C181704756
:1006B0000004014010B506480649C0680A68428037
:1006C0004A6882800969C181002001F097F810BD55
:1006D0001402002000040140028880784A4302414D
:1006E000104670470289807A4A430241104670479B
:1006F000828880794A4302411046704714211D4A7E
:1007000041438918E4221C4B424310B4D218C4233D
:100710009C580223E35E194C4000245E6343184C4E
:10072000DB13205E1BB2584340230013D35E00B29C
:10073000C31A0B614C89088863430204CC6888881B
:10074000E3180004CB60934201DD134602E08342CC
:1007500000DA0346CB600C6909894C432101591822
:10076000914201DD104602E0814200DB084610BCE8
:1007700000147047A8100020180F0020420000202D
:100780004000002010B504F09DFC10BD0004C860BE
:10079000086148617047704710B5002805D00128EE
:1007A00005D0022806D1800202E0402000E080202F
:1007B00003F0A2FA10BD7047F0B54E4C4C49A1624F
:1007C000E3055969427811435961996902464032FB
:1007D0001588AD0329439961818CC58C09032D01CE
:1007E000294305892D0229434589AD002943057810
:1007F000ED01294355882943DD692943D9615D6AA3
:10080000D17CC77EC9020D4301462031CE7DF60161
:10081000BF013E4335435D620023A362537D9C02CA
:100820004B7E5B021C43437F1B021C43137D9B00DA
:100830001C430B7E5B001C43037F1C432E4B1C6040
:100840000479456C24062D052C43856C2D042C431E
:10085000856A2D032C43C56A2D022C43C5682D01E2
:100860002C4305692C43957CED042C438D7DED02D2
:100870002C43857EED002C439C60148A957D9289E3
:10088000A4026D022C4312021443428ED20114437F
:10089000828E920114438A7E52011443028E120109
:1008A0001443C28AD2001443028B92001443827F05
:1008B00052001443828A1443DC60CA7E0C7FD2014A
:1008C000A40122434C7FC07F640122438C7FC0007F
:1008D0002401224302430878800002434878400004
:1008E0000243887802431A6103205860F0BD00007B
:1008F000837A0000800000400002014010B55C21B6
:10090000FFF7B4FC10BD00B597B06846FFF7F6FFDF
:100910000121042003F000FA00206B46019058707A
:100920000121197004221A815981988218839877BD
:1009300018770222039204929876D8769884DA8403
:1009400058771886988608AB997618760A920B9293
:100950009975D9756846FFF72FFF01210846FFF703
:100960001BFF17B000BD0000E42250430A4A0B04ED
:1009700080188030406C018042689B1A5B109A1886
:10098000426041800122054952060A620222825ECB
:100990004A62896A81607047180F00200030014068
:1009A000F1B588B00898E4214843FE4946183068FC
:1009B0000190304680307568816B0691C16B05915E
:1009C000006C0490AA6A3446D317039302920C3445
:1009D0006421E86903F0E1FF039B029AFFF7BAFB89
:1009E0006060696A286A03F0D8FF03910290EE49BB
:1009F000E86903F0D2FF039B029AFFF7ABFB20608C
:100A00006A8B642042436868D317C1178708890737
:100A100039438007FFF79EFB0905000B0843A084BC
:100A200064216868FFF782FB4004698BFFF77EFB57
:100A3000E084EA680292D317039319214904A86855
:100A400003F0ABFF039B029AFFF784FB6A8B002342
:100A5000FFF780FB0121C903081AA06064216868C0
:100A6000FFF764FBD14903F098FF6A8B0023FFF77F
:100A700071FBEA680292D3170393296903F08DFF93
:100A8000039B029AFFF766FB009004F00DF8024604
:100A900000990F3A1141E1601C21081A6075206825
:100AA0000290C01703906068C14AC1170723FFF77F
:100AB00077FB039B029AFFF74DFB03910290E868D6
:100AC0006A8BC1170023FFF76BFB02460B460399A5
:100AD0000298FFF73FFB009003F0E6FF0246009903
:100AE0000F3A114121611E21081AA0750198E421D5
:100AF000028808984843AB4940188C300090002A7F
:100B000053D020680023C117FFF74AFBEA68D317C8
:100B1000FFF746FB420FC9001143FF23626887338A
:100B20005A43C000D317FFF715FB00990291896A59
:100B300080B2088001996F8B498803F047FF0A2231
:100B40000023FFF72DFB3A460023FFF703FB029932
:100B50000023896A48802068019AC1171288FFF72C
:100B60001FFB2A69D317FFF71BFB420FC900114374
:100B7000FF23626887335A43C000D317FFF7EAFAAE
:100B8000029980B2896A88806A8B019903924988A8
:100B900003F01CFF0A220023FFF702FB0023039A45
:100BA000FFF7D8FA0299896A49E0E8686A8BC117A9
:100BB0000023FFF7F5FA2268D317FFF7F1FA0923AC
:100BC00062689B015A43D317FFF7C4FA009A029256
:100BD000916A0880A868216803F0DFFEC20C49030F
:100BE0001143744B626840035A43D317FFF7B2FABC
:100BF000029A0023916A4880E8686A8BC117FFF760
:100C0000CFFA2268D317FFF7CBFA092362689B015A
:100C10005A43D317FFF79EFA029A916A8880A86810
:100C2000216803F0BAFEC20C49031143614B6268AC
:100C300040035A43D317FFF78DFA029A916AC8808E
:100C4000009FB86A018806980181B86A41880698B1
:100C50004181B86A018805980181B86A4188059880
:100C600041813068C18BB86A01813068018CB86AF3
:100C700041810A216868FFF759FA024668694E49BE
:100C80004243D31700931646606803F086FE32464F
:100C9000009BFFF75FFA0146B86A642381610498FC
:100CA0000499483000900020086048608860C8605F
:100CB00048618861C8610862009A0E461060506001
:100CC0009060D060106150619061D06110626C36AC
:100CD00030607060B060F06030617061B061F06190
:100CE00030627D228B80D2000A800B810B612768E5
:100CF0000A204743384603F0D7FE01460F38074124
:100D0000009807801E20411A009841806768384685
:100D100003F0CAFE01460F380741009887801E2065
:100D2000411A0098C1806F68384603F0BDFE014645
:100D30000F380741009807811E20411A0098418111
:100D40006168206803F029FE64220023FFF728FA77
:100D50001A4A0023FFF7FEF9074603F0A5FE0146F5
:100D60003A460F380241009802611E20411A00984D
:100D7000818221680A2041434007FFF7D7F90746DF
:100D800003F092FE01460F3807411E20411A3780BA
:100D90007180012080076168FFF7C8F9074603F0FA
:100DA00083FE0DE0180F002000E1F50510C90000DA
:100DB000000020A1850B0000F0BE1B038E16000072
:100DC00001460F3807411E20411AB780F1800120EB
:100DD00080076968FFF7AAF9054603F065FE01463A
:100DE0000F38054135811E20411A174D7181284663
:100DF00003F05AFE01460F38C5401E207583401A85
:100E0000B083012080076168FFF790F9054603F081
:100E10004BFE01460F390D411E21F583081A30841F
:100E2000019801693046FFF75DFC606701984169F0
:100E30003046FFF757FCA067019881693046FFF7FD
:100E400051FCE06709B0F0BD2B1A0900F0B5E421B0
:100E50004E4A41438E184E4A41018C184D490001BB
:100E6000401800687568C289818983B0D0030C3648
:100E7000FFF75CF94849884200DB0846A0836A68AE
:100E80004649D31700931746706803F086FD3A462B
:100E9000009BFFF75FF932687D21D3170746C90031
:100EA0000193009203F079FD019B009AFFF752F93C
:100EB00000906869FB17C117020D09031143000375
:100EC0003A46FFF747F9074603F0EEFD1B21081AE3
:100ED00000B260820C2802DA0C21081A074127822E
:100EE000E868C117020D09031143009A0003D317E4
:100EF0000193FFF72FF9074603F0D6FD1B21081ACF
:100F000000B2E0820C2802DA0C21081A0741A782FD
:100F10002869019BC117020D090311430003009AC0
:100F2000FFF718F9074603F0BFFD1B21081A00B2AE
:100F300060830C2802DA0C21081A074127833268E3
:100F40001749D31700931746706803F026FD3A46F9
:100F5000009BFFF7FFF8AB68D9171A0D090311437F
:100F60001D030246C3172846FFF7F4F8054603F0B1
:100F70009BFD1B21081A00B2E0810C2802DA0C212B
:100F8000081A0541A58103B0F0BD0000180F00202C
:100F9000BC10002048100020FF7F00002B3E000006
:100FA00010270000F0B4E4232D4C43431C192346C2
:100FB00080340C33646C4D885D8500254D5F9D85C4
:100FC0002A21595E6D4349434D1926490D63264E2A
:100FD00002254000655F305EDF8C4543E8131D4607
:100FE0008035EE68AD6836682D687E4375194E6BA6
:100FF00000B236B29E8686420EDDC00308624E62A3
:10100000886A2A269E5F80B24643F6135E852C26A8
:101010009E5F4643F01398850868042630430860B5
:10102000280C48602A255D5FA0684543AC122C253A
:101030005D5F24B24543A81203B24869096900B252
:1010400009B205460E4665435E43AD1BED13614391
:10105000584308181580C0135080F0BC704700003A
:10106000180F00200030014042000020F8B54C1C51
:101070006410A646CA030CB20092A446684A694BA3
:101080004C42002868DB451C6F10C50306B20029DE
:1010900032DB88421BDB002812D00098C019106296
:1010A0005662906AC1094900CA185288595A4006C6
:1010B000521A400E42434032D009081800B2F8BD1F
:1010C000002902D001208003F8BD0020F8BD704641
:1010D0002818106260465062906AC1094900CA1817
:1010E0005288595A4006521A400E42434032D009A3
:1010F00008180121890390E0A04216DB002812D0D5
:10110000E003C01910625662906AC1094900CA180A
:101110005288595A4006521A400E42434032D00972
:1011200008184042CAE74048F8BD601C4010281823
:10113000106220B25062906AC1094900CA185288F0
:10114000595A4006521A400E42434032D0090818FC
:1011500001218903401AB1E701254042ED0300292E
:101160002EDB884215DB441C0099641009191162BA
:1011700000B25062906AC1094900CA185288595A8F
:101180004006521A400E42434032D0090818281A2D
:1011900094E7C10370460818106260465062906A76
:1011A000C1094900CA185288595A4006521A400EBD
:1011B00042434032D00908180121890340187DE7D5
:1011C000A04215DB411CE40349106118116200B212
:1011D0005062906AC1094900CA185288595A40069B
:1011E000521A400E42434032D0090818401B65E7AE
:1011F000C103601C40100818106220B25062906A4F
:10120000C1094900CA185288595A4006521A400E5C
:1012100042434032D00908180349081A4EE700003B
:1012200000300140A85A000000C0FFFF10B501794E
:10123000214C002918D001292FD002292CD10023BC
:10124000012219462046FFF78FF900231A46012193
:101250002046FFF789F90023012202212046FFF7EB
:1012600083F900231A4613E0002301221946204681
:10127000FFF77AF90023022201212046FFF774F9D3
:101280000023012202212046FFF76EF900230222EB
:1012900003212046FFF768F910BD002302221946FA
:1012A0002046FFF761F900231A4601212046FFF787
:1012B0005BF900230222D0E70004014070B5054627
:1012C000064604463035783602F0AEFD8034E08ABA
:1012D000012189020843E082E06B0121C088688512
:1012E0000020A870304604F033F970BD10B50D4AE7
:1012F0000B4890620020C043506200245462D11316
:10130000C8034162816AC0239943816281680904EC
:10131000FCD4642002F02BFD03481060946210BDE1
:10132000837A000080000040FF1100008030018BB4
:101330000122120391430183704700000248416972
:101340001022114341617047800C014010B503F039
:10135000B5FB002806D0FFF715FA03F0ADFC002816
:1013600000D0012010BD028880784A430241104617
:1013700070470289807A4A430241104670470269E9
:10138000007D4A43024110467047828880794A4373
:101390000241104670472021020C01D01021104656
:1013A000020A01D010460839020901D01046091F6F
:1013B000820801D01046891E420801D0881E70475D
:1013C000081A704730B5DC31002306C9C35E002B14
:1013D00000DA5B421CB20223C35E002B00DA5B42E0
:1013E0000425455F1BB2002D00DA6D4228B20025AE
:1013F000555FA54200DA14800225555F9D4200DA50
:1014000053800425555F854200DA90804A8819256B
:10141000AD01AA420ED8521C4A804A68A24200D2AC
:101420004C608A689A4200D28B60CA68824200D2BD
:10143000C86030BD88880882088948828889888287
:10144000002048608860C860488030BD08B5002032
:10145000009007480099491C00918142FAD300206E
:1014600003F0ACFB81689C30098C00F003F808BDE8
:10147000FFFF0600F0B585B00E46044672B6374849
:101480003749086036480025C038056045608560EA
:10149000C56005614561324AFF20803A10613148DC
:1014A0000860284601F0FAFF2F4FBD63BD6304209A
:1014B0003861786BF914084378632C480495049AD2
:1014C000521C04928242FAD3294838610095019552
:1014D000029503950495244D0498403D28E0012190
:1014E0002846FFF7B7F8204840304169C907FCD0CB
:1014F0004169032211434161786B0121C90208430C
:1015000078632868009900B24018009068680199D3
:1015100000B240180190A868029900B240180290E9
:10152000E868039900B2401803900498401C0490A6
:10153000B042D4D3FEF75EFF31460098FEF7F6FDC9
:10154000E08031460198FEF7F1FD20813146029896
:10155000FEF7ECFD608105B0F0BD0000ADDE0000DF
:10156000C00C0140FECA000040040140FFFF07001C
:101570002130000010B5C26801690389511A59432E
:101580004389090153435918836959188161838A32
:101590001C04036861188B4202DB43688B4202DD46
:1015A00019461B1B836109140261084610BD10B562
:1015B000002805D0012802D1400202F09DFB10BD99
:1015C00001200003F9E70000F8B50C46324F31491D
:1015D000B962FE057269811D01238B409A437261D5
:1015E000726923788B401A4372612B4D403D00286D
:1015F00002D0012824D04AE07069400606D5274869
:10160000FEF79CFEE8622548001F0AE07069800929
:10161000C00709D121480838FEF790FEE8621F484C
:101620000C38FEF78BFEA862E869E17808430221D6
:10163000615609010843E861F0696178C90224E054
:101640007069000607D515481030FEF777FE68630D
:1016500012480C300AE07069C009C00709D10F4870
:101660000830FEF76BFE6863A3204001FEF766FEBC
:10167000286302202056E178000309020843E96943
:101680000843E861F0696178C9030843F0610448E0
:10169000B862F8BD837A0000800000405C1400004E
:1016A000FFFF00000905090D044A002803D00128A6
:1016B00000D1516270471162704700004000004045
:1016C00010B50421FEF7D2FD10BD000038B5684604
:1016D000FFF7F6FF002003F067FAFF258D35455F21
:1016E00001206946087000204870C8708870FFF7B4
:1016F0006BFF69460878012802D0002803D003E078
:101700004B24240100E00B4C28032146FEF70EFD7C
:101710000949884201DD084602E0002800DA00207D
:1017200001460020FFF7BEFF01210020FFF73FFF29
:1017300038BD0000F2120000FF0F0000704710B526
:101740000121480402F0E8FA10BD0000024A1062CC
:101750005162906A00B27047003001401CB5194BCD
:10176000174919601849174AFF24403A240209888A
:10177000012804D002280BD003280DD01DE0134807
:1017800008431062506A20406C4620800C200CE018
:101790000F480143116210E00C48001D084310621D
:1017A000506A20406C46208008200143A180208898
:1017B000A1880843208020885062002018601CBD4A
:1017C000ADDE0000C00C014014000020080C000039
:1017D0000C080000084A07491160074940234039B6
:1017E0000028086B04D0184308630020106070477D
:1017F0009843F9E7ADDE0000C00C0140F1B584B0BC
:101800000498542148439549441804988821484332
:101810009349451828466830029060690190204637
:101820002C302E4600900836216BAF1C884700985C
:101830008068008A388000988068408A78800098A4
:1018400081681420085EB8800221795E081A8549F3
:1018500048430014708038883080207A002808D0EF
:1018600000202072E0680E21415E0498FFF77CF8AA
:1018700001E001202072217A049803F047FE0198CC
:101880005421877804983B0048437449401820301D
:10189000009003F0B4F80805B5B51D1D1D1D8EB5EB
:1018A00001992A20085EA16B898948430001010C37
:1018B000606C02F043FAA06900F0B4FDA169002059
:1018C0000871216DA069096988476748206397E01E
:1018D000012F02D0049803F043FEA86963496861B0
:1018E0000A6804231A430A60000C48604B692846C2
:1018F00040300190024603850869002300B25085FC
:10190000029A0221D35E715E0022B25E59434243C5
:10191000881AC0132882029900200022305E8A5E55
:1019200002215043029A0223715ED35E4B4A59430F
:101930004018C01368822878542141438918097AD5
:1019400000291AD103F042F900282ED00C211022D0
:10195000695EAA5E891A29650E211222695EAA5E55
:10196000891A696328464430FFF704FE019E3084DB
:1019700028462830FFF7FEFD70842A466432287816
:101980001646111FFFF70EFB3146049802F068F867
:10199000A06900F047FD216DA069096988472946C3
:1019A0001031049801F0E6FD2AE000206863286504
:1019B000D8E701992A20085EA16B8A895043001359
:1019C00000B2824201DC0C20085E81B2606C02F041
:1019D000B5F9A06900F026FDA16900200871009802
:1019E0000121017302214173216DA06909698847B2
:1019F0001D482063049800F091FE049800F0EEFF6B
:101A0000009D2F72216DE068496A88476069184E11
:101A1000017B012904D02030007A002813D016E081
:101A20002178725C521CD2B27254022A14D3203034
:101A3000007A002803D1206D8169012088470120A8
:101A40006872022006E0206D81690020884702202C
:101A5000687200202178705405B0F0BD1402002097
:101A600068020020CE930000913C0000003001404D
:101A70001A000020F8B50446406825468035297EC6
:101A800083689C3009076CD52646C0361821715EE4
:101A9000052901DA491C00E001213183E17B00299D
:101AA00004D0296D02270A883A430A800622825E02
:101AB000002A00DA5242598C8A4214DA0822825EE5
:101AC000002A00DA52428A420DDA0A22825E002A95
:101AD00000DA52428A4206DA0C22825E002A00DADA
:101AE00052428A4205DB286DFF22018801321143F0
:101AF000018020461E302146074600F033F821467B
:101B00003846FFF75FFC1820305E030002F077FFD5
:101B1000062304080F161D23204600F007FB1AE0D9
:101B2000287F082817D1204600F040FA13E0287FCC
:101B3000082810D1204600F044F80CE0287F08283F
:101B400009D1204600F0D0F805E0287F082802D10E
:101B5000204600F0A4FA286D008820810020E07261
:101B6000A072F8BD30B54A680023C35E9568002BAB
:101B700000DA5B4280314A6D0024145F0A6FA34291
:101B80000DDC0223C35E002B00DA5B42A34206DCBD
:101B90000423C35E002B00DA5B42A3420EDD00206B
:101BA000105EFF35431C13808135EA89904204DBC7
:101BB000086D012201881143018030BD0020108092
:101BC00030BDF0B54168FF248B680246F1348032A5
:101BD000E45C0025916E012C06D00D80106D202252
:101BE000018891430180F0BDFF260136345E002C50
:101BF00000DA6442566D0A27F75FBC420ADA0069D0
:101C0000002800DA4042F468A04203DD0888401D45
:101C1000088000E00D80FF330020C133085E9B8BFD
:101C20009842E0DB0D80106D202201881143D9E736
:101C300010B5044602F0F2FD204600F001F810BD98
:101C4000F8B50446406885680746FF357837813522
:101C50003846A968FEF740FD8034616D0026088093
:101C6000A06E06803846696DFEF736FD616D4881CD
:101C70003846A96DFEF736FD616DC860E06E0680DE
:101C8000E06E4680E06EC6803846A96BFEF724FD04
:101C9000616D08823846E96BFEF71EFD616D486193
:101CA0003846296CFEF718FD616D8861616D686CBE
:101CB000C861606D4684606D0684A06F06803846FA
:101CC000296EFEF709FD616DC8841821E06DFEF7ED
:101CD000CDFA0621206EFEF7C9FA606F0A21068050
:101CE000E06FFEF7C3FAF8BDF0B5014640688031F9
:101CF0008068FF25F4352D5CCC6D0B6E8A6F402714
:101D00000026012D08D016805680086D0288BA433F
:101D10000280486D0685F0BDFF30C1300025864643
:101D2000555F808C854202DA6D1D15801AE01680A1
:101D30000020185E022584465D5F8010A84207DC03
:101D4000A81004255D5FA84202DCAD10654506DDE4
:101D50000D6D288838432880486D012505851E8033
:101D60005E809E80486D2623258AC35E9D4205DBEA
:101D7000608A984202DBA08A984211DA02207346F8
:101D8000105E9B8C984202DA401D5080F0BD568058
:101D9000086D02883A430280496D02200885F0BD33
:101DA0005680F0BDF8B5044641688034256D8E68D4
:101DB0002988676D4A0701D40A071AD51422825E62
:101DC0000820385E824211DB0620385E82420DDC3C
:101DD000636EFF2204208532185E925B904202DA25
:101DE000401C988005E00C2081432980616E002012
:101DF00088802888810701D4C10726D0FF2191312E
:101E00008A5B57498A4220D0236F0421595E914250
:101E100002DA491C998018E0810706D5022188431F
:101E20002880208BC902084320832888C10705D059
:101E3000400840002880216F00200880206F018921
:101E4000491C0181216F002088802988C80617D588
:101E5000FF20D130825B4248824211D0E36E0420E1
:101E6000185E904202DA401C988009E010208143FD
:101E700029800020788438840A21E06EFEF7F6F984
:101E80002878800617D5FF20DF30825B34488242F5
:101E900011D0A16E0420085E904202DA401C8880B6
:101EA00009E0206D2022018891430180A16E00206D
:101EB0008880A16E08802988480615D5FF20E73064
:101EC000835B274883420FD0A26F0420105E9842A4
:101ED00002DA401C908007E0402081432980A16FF6
:101EE00000208880A16F08802B8818061BD53146FA
:101EF000FF31FF228131B132888C925D801A22221B
:101F0000A25E00B282420BDC626F0420105E898EFA
:101F1000884202DA401C908005E0802083432B80B9
:101F2000616F002088802B8898050CD5FF36C1365C
:101F3000B28D0B48824206D0E16F0420085E9042C9
:101F400002DA401C8880F8BD0120400283432B80C8
:101F50000020B8840A21E06FFEF788F9F8BD000080
:101F6000FFFF000070B5044646688034216D0020F4
:101F7000B5680880A16EFF358880E16E01358880E4
:101F8000216F78368880216F0881616E8880616F4B
:101F900088803046696FFEF7ABFB616DC8803046C4
:101FA000E96FFEF7A5FB616D088170BDF1B582B0E8
:101FB0000298029E406880368768306C756D806834
:101FC000F46E002800DA404201900298007802F096
:101FD0009FFEFF21F231C95D012908D0306D10212B
:101FE00002888A43028000206884208038E006212D
:101FF000FF37615EC1370097BA89914202DA491D05
:10200000E180FEBD6A690121824201DA298404E08F
:10201000AA69824201DD00202884288C012821D071
:102020002088401F00B22080002801DA0020208094
:102030000298007802F004FF07460298007802F048
:1020400045FE4743E969F81341430812019981426B
:1020500023DD00990220205EC989884213DA401DE1
:102060006080FEBD009A0020205ED289904201DA95
:10207000401DDCE700202080306D102302881A43C9
:1020800002806984D4E700206080306D10220188CE
:102090001143018002206884FEBD0020E0E7F0B516
:1020A00001464068FF2480688031F334245C0125B8
:1020B0000B6ECA6F6D02012C08D00023D380086D0F
:1020C0000288AA430280486D8384F0BDFF30062455
:1020D000C130145F068DB442F7DA641DD4804F6DB1
:1020E000002610249E5F3C5FA64207DC02269E5F0E
:1020F000A64203DC04269E5FA64206DD0B6D1C880B
:102100002C431C804C6D0323A384CB6B5B7F002B83
:10211000DBD10623D35E408D8342D6DD086D028875
:102120002A430280496D04208884F0BDF0B54168DF
:10213000044680348B68226D616E646D142502261E
:10214000455FA65F0020AE4203DC0C88641D0C8056
:1021500009E00426A65FAE4203DD4C88641D4C8076
:1021600001E008804880FF33002481330C5F1E8823
:102170000425B44203DB088014882C431480022415
:102180000C5F5F880826BC4203DB48801488344318
:102190001480DC79002C03D148801488B443148067
:1021A0009B79002B03D108801088A8431080F0BDD4
:1021B00010B5FEF7F5FB10BD70B50D4604460121C4
:1021C000C80201F0A9FD6868002805D001286068F0
:1021D000296809D0884308E06068296888436060FE
:1021E00020682968084304E0084360602068296883
:1021F00088432060A86800282069296801D0084326
:1022000000E088432061E8680028A069296801D0BF
:10221000084300E08843A06128690028E069296834
:1022200001D0084300E08843E06170BDF0B5324F53
:102230001601150214030B0002F0E1FB10090D1347
:10224000181E22282D33373D42484C52571D016A33
:10225000394089180EE0016A274AE13A11407118A5
:1022600008E0016A254A1140691803E0016A09057E
:10227000090D61180162F0BD416A394089180EE00C
:10228000416A1D4AE13A1140711808E0416A1B4A4F
:102290001140691803E0416A0905090D611841629E
:1022A000F0BD816A394089180EE0816A124AE13A2C
:1022B0001140711808E0816A104A1140691803E062
:1022C000816A0905090D61188162F0BDC16A394052
:1022D00089180EE0C16A084AE13A1140711808E015
:1022E000C16A064A1140691803E0C16A0905090D6F
:1022F0006118C162F0BD0000F0FF0000FFF00000B7
:102300000021016041608160C1600161704700008F
:1023100010B586B06846FFF7F3FF154C0322042181
:102320002046FFF783FF032205212046FFF77EFFAB
:10233000032206212046FFF779FF032207212046CA
:10234000FFF774FF032208212046FFF76FFF0322E7
:1023500009212046FFF76AFF012101913F21090170
:10236000009169462046FFF727FF06B010BD000028
:10237000400D014002494969C906C90F0170704703
:10238000800C0140704710B50146082001F0C4FCE4
:1023900010BD00008179828809040A43C179037A5B
:1023A00009051B0619430A43417A09070A43817A42
:1023B00049070A43C17A89070A4303490A6000684A
:1023C000C8600020486070470003014006498180D2
:1023D000002181710122C271027242727D228172DA
:1023E000D2000260C1727047FF0300000EB568465C
:1023F000FFF7ECFF012040026A46908000209071B8
:10240000D0710121117251729172D0720448009002
:102410006846FFF7BFFF0120FFF7B5FF0EBD0000C4
:10242000007C9200084942890A6082894A60C28819
:102430008A600289CA60028A0A61C2894A61028886
:102440000A63408848637047000C0140F8B50446B1
:102450004068803407468568E020465F1848761C4F
:102460004643E06B783701683846FEF73BF9014692
:10247000206C4068002800DA4042814200DC803550
:102480003846296FFEF72EF9314602F086FA090622
:10249000000A0843216C08623846696FFEF722F98A
:1024A000314602F07AFA0906000A0843216C4862B4
:1024B000206C01688161206C183002F095FFF8BD36
:1024C000894100007047000010B572B62248234CC5
:1024D000A062A06821140843A060C80001688200BF
:1024E0001143016000F062F8FFF729F902F084F867
:1024F000FDF780FFFDF7BAFFFFF70AFF00F0A7FD29
:1025000002F06AF9FFF7E2F800F0AAFFFEF7FBF924
:10251000FFF76CFF01F0BAFF642001F028FC0221F4
:10252000002002F085FA0221092002F081FA01213F
:102530000E2002F07DFA01210F2002F079FA01212C
:10254000102002F075FA0E2002F066FA002002F068
:1025500063FA0020A06210BD837A00008000004072
:102560000346002010B4012189030246401800B23E
:102570000446444364009C4201DD401A00B2521CF0
:10258000491092B20E2AF1D3411C09B20A464A43BD
:1025900054001A1B00D5E21A0446444364001B1B76
:1025A0009A4200DA084610BC704700000F2002492A
:1025B000800248607047000000170140F8B50546EA
:1025C00004468034208B29460C31002702060091F6
:1025D000002A0DDA40060BD5084602F0E1FB002880
:1025E00006D0686802F0E4FF208BC2218843208374
:1025F000208B81071BD42E464006303600280ADB8C
:10260000E88D012802D00120B08513E00020B085BC
:10261000208B402108E0009802F0C2FB002809D07E
:102620000020B085208B02210843208302E00006B1
:1026300000D401273846F8BDF8B50F4605461349C2
:10264000000144181646591C1148FDF76FFD01465C
:10265000002020706780A680E08021810D49E06025
:102660006A008B5A14212E460B4C4E4331190B81B4
:102670000A4B9A5A4A81A051E420454308480C224B
:102680004059825E50424860F8BD0000DC100020D6
:10269000FF7F00003C000020A81000203E0000202A
:1026A000180F002070B5064602F0E8FD050014D0B2
:1026B000304601F041FC34468034208B40050CD577
:1026C0003046FFF7B5FA3046FFF74CFC208B01216E
:1026D00089028843082108432083304602F0CEFB5C
:1026E000304601F033FB284670BD000010B572B6CD
:1026F000FDF780FEFDF7BAFE00F0A9FC0548426B2D
:10270000C1140A4342630448426B0A43426362B6FF
:1027100010BD00004004014040050140F1B582B009
:1027200002985421484332490026441802988821CF
:1027300048432F4954314518282006552F1828465C
:10274000443000901C213846FDF790FD206A1C2182
:1027500000883881206A40887881206C4089000494
:102760007860206C0089000438600098FDF77EFDD9
:10277000206A224A818800980181206AC1880098D5
:102780004181206CC088010400984160206C8088E1
:1027900001040098016028464030468406846E613A
:1027A000AE61EE614685134901856E822E826E62AE
:1027B0002E62EE81AE818684C684E670A06B616C69
:1027C000808940084880616CC880616C0881616CB8
:1027D00040420880616C8880616C4881029806499B
:1027E000C0000E5040188280204600F088F9FEBDDF
:1027F00014020020FF7F00001C0000208202000065
:10280000F8B5E4212B4A41438D1822212A4A41433D
:102810008C182A49000141180120A070E070A868B6
:10282000007C2075A86880892080400006B2207D49
:10283000012821D028683146006BFEF787FFE0822F
:1028400029687043098E081AA9688989081A2083A3
:10285000E08A401CE08228683146456B2846FEF736
:1028600075FF60837043281A00B2A083002802DD40
:10287000608B401C6083F8BD08680821415E408978
:1028800008182968096B471831463846FEF75EFF7D
:10289000E082A9687043381A898900B2814206DC57
:1028A000401A081A2083E08A401CE082D3E74042A5
:1028B0002083D0E7180F002084100020481000204B
:1028C00010B502F07FFC10BD10B51F4C0020214652
:1028D0002070543108701D490878607088680A4675
:1028E000807BA070B4320846A2619C30E06050301A
:1028F000606124382061BC38E06148686062144837
:1029000020632046921D426401468269C031826480
:102910000162416A30318163416AC16344310164BB
:10292000C168416300F0EBF80A48E064002000F061
:102930003DFF0948206505480A218068415E002066
:1029400002F0FAFD10BD000014020020C4000020B7
:10295000913C0000A45A0000745A0000F8B50546E6
:1029600004468034208B29460C31002782060091D2
:10297000002A0FDAC0060DD5084602F011FA002829
:1029800008D0686802F038FF208B30218843400867
:1029900040002083208BC10704D0800600D401278B
:1029A0003846F8BD2E46C006303600280ADBE88DD2
:1029B000022802D00220B085F2E70020B085208BEB
:1029C000102108E0009802F0EBF90028E8D0002080
:1029D000B085208B012108432083E1E7F0B4E42196
:1029E000204A41438E18314680360C31B446B36BD1
:1029F000F26B0E4680361C4FB56A7C425F601C60ED
:102A00005760146000249C6194619C8294822F889A
:102A10001F816F885F81AB881381EB8853818C6144
:102A2000CC61F2680D4652688A65F2686035536879
:102A30001360CC640C650C638C866C710C672C7213
:102A40001C210A4AAC714143EC718A186646B26394
:102A5000074A8918F1630C214843064940187064FD
:102A6000F0BC7047180F0020000001800410002007
:102A7000201000203C100020FEB506460020344601
:102A800080340190208B31460C3182050091002A60
:102A90000EDAC0050CD5084602F082F9002807D0EE
:102AA000706802F029FF208BC121890088432083B0
:102AB000208B3546410700273035002917DBC0053C
:102AC0000AD4F08D032802D00320A88515E0AF8535
:102AD000FF21208B013107E0009802F061F9002806
:102AE0000BD0AF85208B04210843208305E0AF8500
:102AF000208B800501D4012001900198FEBD10B506
:102B0000044602F0B1F8A16C088002F0B5F8A16C9F
:102B1000488010BD10B502F05FFB10BD018900298F
:102B200003D18030C08AC00401D501207047002045
:102B300070478030C08AC10703D0C00B01D001208C
:102B4000704700207047000010B5074C21468031C7
:102B5000C88B002801D0401EC8832046FEF78AFF9C
:102B6000204602F0A4F910BD000300200849428964
:102B70000A6082894A60C2888A600289CA60028AC1
:102B80000A61C2894A6102880A63408848637047C3
:102B9000000C0140F8B504460121880201F0BCF8A0
:102BA000FE48FD490160204620304279817992003B
:102BB00011430279C378D2001B011A431143827872
:102BC00052011143E27F92011143A27FD2011143CE
:102BD000427800781202114340020143607F800274
:102BE0000143207FC0020143EC488038C163EB48B9
:102BF000A18EC0380163E18E4163218F8163618FB3
:102C0000C163E648218880380160618841602146BF
:102C10006031CA7C887C120110430A7D4B7D5201D1
:102C20009B011A4310438A7D12021043CA7D12038E
:102C300010430A7E520310434A7E92031043D74A40
:102C4000803A5063D548A28F80380262E28F426298
:102C500022464032138883625388C362CF48D04EE5
:102C6000403846612046A030C57883786D002B43FC
:102C7000057A477AAD00FF003D432B43857A2D014D
:102C80002B43C57A6D012B43057BAD012B43457B5F
:102C9000ED012B430579AD022B434579ED022B4322
:102CA00085792D032B43C5796D032B43857BAD03BC
:102CB0002B43BA4D403D2B60057CC37B6D002B43FD
:102CC000457D877DAD00FF003D432B43C57D2D0134
:102CD0002B43057E6D012B43457EAD012B43857E45
:102CE000ED012B43457CAD022B43857CED022B434C
:102CF000C57C2D032B43057D6D032B43C57EAD03A2
:102D00002B43A64D403DAB60037F1D01437F5B011C
:102D10001D43837F9B011D43C37FDB011D4323466E
:102D2000C0339F783F023D43DF787F023D439B4F96
:102D3000403F3D61994D803D2E619688AE61D688B9
:102D4000EE611E882E631E7E5D7E76003543DE7D3D
:102D50009F7DB600FF003E4335435E7D360135431F
:102D60001E7D76013543DE7CB60135439E7CF6013F
:102D700035435E7C360235431E7C76023543DE7B6E
:102D8000B60235439E7BF60235435E7B3603354300
:102D90001E7B76033543DE7AB60335439E7AF6030F
:102DA00035437E4E403EB5615E791D7976003543F0
:102DB0009E79DF79B600FF003E4335431E7A5B7A89
:102DC000360135435B011D43744B403BDD61557A51
:102DD000137A6D002B434D780E78AD00F600354325
:102DE0002B43557D2D012B43157D6D012B430D7B11
:102DF000AD012B43258DED012B43957A2D022B43FD
:102E0000D57A6D022B43CD78AD022B438D78ED0240
:102E10002B43D57D2D032B43957D6D032B434D7B9C
:102E2000AD032B43658DED032B435C4D403D2B6281
:102E3000557B137B6D002B434D790E79AD00F60069
:102E400035432B43557E2D012B43157E6D012B43BE
:102E50008D7BAD012B43A58DED012B43957B2D0281
:102E60002B43D57B6D022B43CD79AD022B438D795E
:102E7000ED022B43D57E2D032B43957E6D032B4313
:102E8000CD7BAD032B43E58DED032B43434D403DFF
:102E90006B62557C137C6D002B434D7A0E7AAD002E
:102EA000F60035432B43557F2D012B43157F6D01D4
:102EB0002B430D7CAD012B43258EED012B43957CDF
:102EC0002D022B43D57C6D022B43CD7AAD022B43D3
:102ED0008D7AED022B43D57F927F2D032B43520336
:102EE00013434A7C92031343628ED20313432B4A4B
:102EF000403A9362294AA388C03A1360E38853603A
:102F0000238993606389D360A3891361E389536143
:102F1000238A9361638AD361A38A1362E38A53622B
:102F2000238B9362638BD3628034CA7F23789200B1
:102F3000DB001A438B7E1B011A43CB7E5B011A43D5
:102F40006378DB011A434B7F1B021A438B7F097F97
:102F50009B021A43C9030A43104940390A63E179C5
:102F6000227A8900D2001143A27812011143E2783B
:102F700052011143627AD201114362791202114364
:102F8000A279920211432279D2031143034A403AB3
:102F90005163E17AA27A05E0ADDE0000C00C014089
:102FA000FFFF000052001143627B237B9200DB0095
:102FB0001A431143E27B12011143A27B52011143D8
:102FC000627C92011143227CD2011143E27C120205
:102FD0001143A27C52021143627D92021143227D71
:102FE000D2021143154A9163E27DA17D5200114343
:102FF000227E637E9200DB001A431143A27E1201FF
:103000001143E27E52011143227F92011143627FFC
:10301000D2011143A27F12021143E27F52021143F7
:103020000278407892021143C00201430348C16311
:103030000248034940300160F8BD0000800C0140A7
:10304000FECA000010B5E421FDF710F910BD70B5FF
:10305000BAB0002001F0A8FD064601F0B1FE04461A
:10306000304601F0DFFD0546B0798607B60F6846A9
:10307000FFF7E8FF08AB9E7101225A710C2030ABBC
:1030800018705870901E38906B46DA771C800021BB
:103090001985598599859D87DD87597708AB5970C2
:1030A00010AB998018AB9974DA741975282059758A
:1030B000001B6B469886641EDC8610AB1A72597230
:1030C0009A72D9721A73597318AB19735973997329
:1030D00020AB9972DA7219735A739973DA7328AB49
:1030E0009970D970997320AB9A75DA751A765A76F9
:1030F0009A76DA7618AB997628AB197718AB5A77A7
:10310000D977D97628AB597718AB9A7720AB197055
:103110005A7018AB1A776846FFF73CFD02F09AF92F
:103120003AB070BD70B5044605784069818D20695C
:1031300002290ED001291FD0032928D0042931D01B
:10314000404A914236D1428C4B1C9A4232D0428442
:1031500071E0428C022A6DD02846FFF729F82846F4
:10316000FDF774FE284601F041FE010002D028461A
:1031700002F0B6F902205AE0428C012A5AD02846C1
:10318000FFF7CCFA2846FFF729FC01204FE0428CDC
:10319000032A4FD02846FFF7C1FA2846FFF71EFC46
:1031A000032044E0428C042A44D02846FFF728FB41
:1031B00004203CE0052908D006290FD0072916D0A5
:1031C00008291DD0092923D034E0428C052A31D0AA
:1031D000206DC16901208847052028E0428C062A1D
:1031E00028D0206DC1690220884706201FE0428C4C
:1031F000072A1FD0206DC16903208847072016E0E9
:10320000428C082A16D0206D006A804708200EE004
:10321000428C092A0ED0206D806A8047216DE068BB
:10322000496A8847E0680078002804D109202169AC
:10323000488400E041846069808D002801D12169C3
:10324000488470BD0108000010B5154C2046FFF7FA
:1032500069FF204640691349C288CA8182888A81F1
:1032600080684862204620302269417A9170017A54
:10327000206920300170204602F072FA002000F030
:1032800029F9204602F0E4FA60698078012806D026
:10329000044A0020583211461C3902F09FFB10BD31
:1032A0001402002068020020F8B5064601F006FD71
:1032B0004468A0687834816E2046FDF713FA094906
:1032C000B5004851074FFF212D313F1D002E2046EC
:1032D00003D0FDF70DFA7851F8BDFDF709FA386013
:1032E000F8BD00002400002070B501460346803080
:1032F000C28B012430317833A402002A14D0521E2C
:103300001204120C0546C2830ED0C28AA243EA827E
:10331000022008730020C88088808860887001219E
:10332000184602F015F970BDC28A2243C282EFE747
:1033300070B50446064605463034783600F00EFF78
:10334000284601F09BFDE91DF93148880988E08095
:10335000A1808035286C01214068A0600120207385
:103360000620A070304602F0F3F870BDF8B50646AE
:103370008036F18A0446490807464900054630343C
:103380007837F182FEF70EFDF08AC00B01D00120E4
:1033900000E002202073B08C60850520E0810020D1
:1033A000A0700121384602F0A3F8A87B012804D0C0
:1033B0000021384602F0CCF8F8BD0121F9E7000001
:1033C00030B5234D214AAA62EC052269636A0028C0
:1033D00006D001280DD0022816D0032820D02AE0DC
:1033E00090084A6880000243042083438868800074
:1033F00008E00C2082434868800002430820834391
:103400008868C000034316E01046302290434A68A3
:10341000120102431846102398438B681B0109E0F0
:10342000C020824348688001024318462023984305
:103430008B685B010343032000028243086800029B
:103440001043206163620020A86230BD837A0000CF
:1034500080000040032101604160002181607047CD
:103460000EB56846FFF7F6FF002001F09DFB407C9B
:103470000021009101210291019069460020FFF78F
:103480009FFF69460120FFF79BFF69460220FFF777
:1034900097FF69460320FFF793FF0EBD0B4B0A49C8
:1034A00019600A49402240390028086B07D01043B0
:1034B0000863486B104348630020186070479043CE
:1034C0000863486B9043F6E7ADDE0000C00C014096
:1034D00070470000E421F0B44843254940180546F0
:1034E0008C35876EEA680C30002F00DA7F42014687
:1034F00060318B79002B06D001230B721468546065
:1035000000242C604B715368002B01DB1C4600E04B
:103510005C42466FA64204DC002B00DA76422E6045
:1035200000E02B60C36FA34201DC012300E0002315
:103530000B728B79002B18D14B795268002BC36D1D
:1035400009D0534305D4426FA24202DA806FB842D9
:103550000BDB002008E0534307D4426FA24204DC97
:10356000806FB84201DC01204871F0BC7047000058
:10357000180F00208C46F0B5E4214143E423674A4C
:103580005843664B8918C5182E46E0220C46525CFB
:103590000C360C344C3580360F6887B0002A66D064
:1035A0008031886B0190C86B009038200222205E29
:1035B000AA5E831A2269A07D534306900341E16C01
:1035C000A06805904143C813C1183E23E35EE06D37
:1035D00004904343E068DB1303905843637D0293F8
:1035E0001841401886463A200423205EEB5E61466F
:1035F000C31A53430698226D0341059849884243F4
:10360000D013C2183C23E35E049843430398DB13B2
:103610005843029BA187614609881841E187101A27
:10362000206570463C21E064615E411A0198C160EA
:103630000198FDF79FFF68803E21615E206D411A71
:103640000098C1600098FDF795FFA880F1680968AF
:10365000002906DB0222AA5E5142FDF707FDE8853C
:1036600005E00221695E4042FDF700FDE885206F1C
:10367000E98D8212891ABA8B09B24A4380182067F1
:10368000B16A8012498900B2E26941435118E1618F
:10369000A26909125118A161217FE161B16A09890A
:1036A00041430813A169891341182046603082798B
:1036B000002A11D14279002A03D1A2612267114662
:1036C000E261C279002A07D03368A2699B03D21A4B
:1036D000A2610022E261C27130684018E065E18CAD
:1036E0004843616D40186065B1684860B88B01213E
:1036F000E26D8902091A4243A06D89B2484310184D
:103700008012A065F1680860688D2087A88D6087A9
:10371000608D6885A08DA88507B0F0BD180F0020CA
:1037200070B50D460C49000144182078002811D1CD
:103730000A48002B205E06DA4042C117FCF76DFDF7
:103740006960286004E0C117FCF767FD69602860C4
:103750000120207070BD0000DC100020040000007B
:10376000E4225043014A801841607047180F00203E
:10377000E4235843024BC018803082624162704794
:10378000180F0020E4225043024A80188030416123
:1037900070470000180F0020E4235843024BC01864
:1037A00080300262C1617047180F002070B5064674
:1037B00088202F49704345185420704354394418C9
:1037C0003046216C00F07EF8294614313046FFF770
:1037D000D9FF29462031304600F07CF82A460832CD
:1037E000A91C304600F080F82A461032111F3046DE
:1037F000FFF7D2FF2A462946443228313046FFF7E8
:10380000B7FF29466031304600F082F83046E16962
:1038100000F074F83046216A00F02CF83046A16BB5
:1038200000F09AF83046E16BFFF79AFF21462C3101
:103830000D46304600F07EF82946304600F072F81A
:103840003046A26C616C00F07FF8304601F02CFA33
:103850000146304600F022F83046A269E16800F0E7
:1038600013F830462269616900F022F870BD00004B
:1038700068020020E4225043024A801880304163ED
:1038800070470000180F0020E4235843024BC01873
:103890008030C26501657047180F0020E422504354
:1038A000024A80188030C16470470000180F002061
:1038B000E4235843024BC01880304265816570474D
:1038C000180F0020E4225043014A115070470000B5
:1038D000180F0020E4225043024A80188030816192
:1038E00070470000180F0020E4235843024BC01813
:1038F0008030C26201617047180F0020E4225043FB
:10390000024A80188030016470470000180F0020C0
:10391000E4225043024A801880300163704700005F
:10392000180F0020024A00018018C1607047000093
:1039300048100020E4225043024A801880308164FD
:1039400070470000180F0020030102481818426059
:103950008160704748100020E422044B4243D21893
:103960009160034A0001115070470000180F0020B9
:1039700048100020F8B5044613481D460078164646
:103980000F46002801D100F077FF0F48032C17D213
:10399000EFF31081012282F310881822624310187D
:1039A0001830002C05D00760466085600022026157
:1039B000C260069A4261C8B280F310880020F8BD48
:1039C0000020C043F8BD0000E00D0020F8B5074618
:1039D0000A48154600780E46002801D100F04CFF39
:1039E000EFF31084012080F310882A4631463846D0
:1039F00000F006F8E1B281F31088F8BDE00D002078
:103A000070B50E4618214843134914464518E86A14
:103A10001835002804D001280FD0022805D113E062
:103A2000284600F05DFFA04201D2002411E02246AA
:103A30003146284600F093FF0BE0284600F050FF87
:103A4000A042F4D20446F2E73146284600F057FF80
:103A50000446204670BD0000E00D0020704770470E
:103A6000F0B5834A000182184D8894686D422DB2EA
:103A7000D36810684D8000268E5F7E494D43B103A8
:103A800069184942CD176D0C6918C9130FB2F119A5
:103A90004942BC460DB266450FDCAE420ADCB64672
:103AA000AC4503DC01275F702F4617E002275F70EB
:103AB000674613E0AE4603210FE0AC450ADCE6465C
:103AC000AE4203DC04275F702F4607E005275F70D6
:103AD000374603E0AE463746062159707146C9198C
:103AE000CF0F79184910761A67467F1A691A09B2FA
:103AF0008E46012136B28903858971184D43E91339
:103B000015683FB2AD898D4201DA294602E00029ED
:103B100000DA002189B261808C4639460127BF0353
:103B20008589C9194D43E9131568AD898D4201DABC
:103B3000294602E0002900DA00218EB2E6807146B3
:103B40008589C9194D43E9131568AD898D4201DA9C
:103B5000294602E0002900DA0021218165466D42F4
:103B600025807542A580494261815E784249434D76
:103B7000072E20D237007F443F79FF19BF441B0333
:103B80001C3744506B00596021890688B14203D22A
:103B90005168808808800BE0E48846880C1B24B2BA
:103BA000A64204DAC088401A5168088000E05D60CF
:103BB000516800200871F0BD31495960E1880588DD
:103BC000A94203D25168808808800CE02489458886
:103BD0000C1B24B2A54204DAC088401A5168088040
:103BE00001E028485860516802200871F0BD24495E
:103BF0005960E1880588A942E4D3648845880C1B94
:103C000024B2A542EDDAE7E7596021890688B1427E
:103C1000BED3648846880C1B24B2A642C7DAC1E72B
:103C20001949596061880588A94203D25168808882
:103C300008800CE0248945880C1B24B2A54204DAD4
:103C4000C088401A5168088001E0104858605168E7
:103C500001200871F0BD0C49596061880588A942AE
:103C6000E4D3E48845880C1B24B2A542EDDAE7E7EB
:103C700048100020DA6E0000913C0000F13C00008A
:103C8000B13C0000F33C0000D13C0000F53C0000DA
:103C90008168CA884B88D21A0A8281680A898B880F
:103CA000D21A4A828068018A891849428182704703
:103CB0008168CA884B88D21A0A8281684A898B88AF
:103CC000D21A8A828068018A8918494241827047E3
:103CD00081680A894B88D21A4A8281684A898B880E
:103CE000D21A8A828068418A8918494201827047C3
:103CF0007047704770477047064B054A9A62DA056D
:103D00000029516A01D0014300E0814351627047AC
:103D1000837A000080000040074A064B9362012925
:103D2000D16904D08143D161002090627047014382
:103D3000F9E70000837A0000800000404180C180E4
:103D400001814942018081804181704701463031C3
:103D50008030C28AD20B01D0012200E002220A7315
:103D6000808C48850520C88100208870704708B580
:103D700000210091814202D200BF491CF9E708BD31
:103D8000F0B501680446C81785B08A0A800510435B
:103D90008B050293039060680023C117820A89058E
:103DA0001143800501910090E0682289C7170546FC
:103DB0003946FCF7F5F9C20C490311434203206967
:103DC0006669121804907141A261E161029B039837
:103DD0009B1A884106DA03990298E161A061002DDF
:103DE0000ADB18E00098019B101A994104DA009848
:103DF000E361A061002D0EDD28466289002339466B
:103E0000FCF7CEF9020E09021143049A00021018C1
:103E10004E4166612061217FA0698902800D0843BF
:103E200000B205B0F0BD0000F8B504460646803487
:103E3000A06C4088002802D1E16B02204871E06B41
:103E400035460279052100273035002A09D0A26CB9
:103E5000D05F00280ED00221515E88420CD106208E
:103E60000EE001220271E26B3248D080A06C078024
:103E7000A98519E0A98504E04900884203D10720FB
:103E8000A88501202873A16C02228A5E0020085EAA
:103E90005300D218904203DA401C0880012004E04D
:103EA000904204D1401C0880022028730EE0E06B91
:103EB0004179002902D0012911D007E0AF85022005
:103EC0002873E06BC780F08D002804D0E06B407948
:103ED000022809D019E00820A885012027E0F18DEB
:103EE000002926D102214171F08D00280BD13046E6
:103EF00000F022F8304601F002FBE16B032048712C
:103F0000E16B0220087102202873E06B40790328DE
:103F10000FD102202873304601F09AF9002808D00A
:103F2000E06B0771A06C0780E06BC7800420E16B39
:103F30004871F8BDCC040000F1B584B00498049C2D
:103F40004068803401467831009181680191E08AAF
:103F5000012149028843E08204980025FF300130A6
:103F600085800580C58045808560C5600199086EA3
:103F7000E16B0860E06B4577E06B0583019FE16BC7
:103F8000FF370137F86A8860E16B386BC860796B7E
:103F90000098FCF7A1FB616CC880B96B0098FCF736
:103FA0009BFB616C0881606C02210560606C858000
:103FB000E08A8843E082E06B0571E06B4571019E09
:103FC0008036F06C01B20520C0020A31FCF7AEF871
:103FD000E16B0882306D01B20520C0020A31FCF7A6
:103FE000A5F8E16B4882396E0098FCF775FB5A49D9
:103FF00000F0D3FC0906000A0843E16C8860796E82
:104000000098FCF769FB544900F0C7FC0906000A58
:104010000843E16CC860206C4560206C0560316F1E
:104020000098FCF75FFB7D210004C900FCF77EF8D7
:10403000216C0865716F0098FCF754FB7D2100042A
:10404000C900FCF773F8216C4865206C183001F04A
:10405000FCF9E06C01F0F9F9716A0520C0020A313F
:10406000FCF764F8216C002288820498B0231A506F
:10407000803042635D2020870199C0310291888C95
:10408000216C08870299C88C216C4887206C00211C
:1040900001644164B16E0098FCF71EFB216C08635B
:1040A000F16E0098FCF718FB216C4863206CC56327
:1040B000206C0561206C8560206CC560206C856576
:1040C000206CC565206C403085840299206C098B7A
:1040D0004030C1840299088CE16B48837168009874
:1040E000FCF7FAFA00B20290B1680098FCF7F4FA13
:1040F0000199049A4031C98F16780BB202B230464A
:104100000299FEF799FAA06C05800199888CA16C40
:104110004880A06C85800199A26CFF314131088BE9
:10412000D080088B498B4018A16C0881A06C458118
:10413000A16C388D8881A06C4582A16CF88F888233
:10414000A06CC582A16CB88F088304980078FFF733
:10415000ABF805B0F0BD000089410000F8B5044699
:10416000074680344268E06B256C018B1A23491C9A
:1041700009B20183E06BFE1DC35EF93678329942C5
:1041800039DB002101831046796EFCF7ABFA286019
:10419000216C0868002800DA40420860A17D890788
:1041A00002D5216C404208603846FEF74FF9A86AF4
:1041B000686029463878162240312B68FFF7B0FA3C
:1041C000E06B407F012805D1002028646864E16B22
:1041D00002204877387800F029FE002802D0E16BF1
:1041E00003204877AA6869682846891A3030E9634D
:1041F000FFF7C6FDB080387800F0F2FCF080B168BF
:10420000E36B8A12801A10229A5E42438818B060CB
:10421000801270800421F068715E8212891AE36B4B
:1042200012229A5E4A438018F06080123080F8BDF6
:10423000F8B505467830009068688768284601F030
:104240001DF82C468034064600281BD02846FFF770
:1042500073FE208B400528460AD5FDF7E9FC284669
:10426000FDF780FE208B012189028843208301E035
:10427000FDF7E6FC208B082108432083E08A090231
:104280000843E082284600F0F9FD2846FFF75EFD6E
:10429000787F3035012800D002202873E08AC00BD7
:1042A00003D00121009801F053F93046F8BD704762
:1042B00000B5FDF71BF800BD0748016A0422114351
:1042C00001620648C178491CC1708188491C8180FF
:1042D000C188491CC180704700060140F0020020DF
:1042E0007047704770470029016803D00122D20748
:1042F000114301E0490049080160704770B5054667
:104300003C480C46854202D10121102010E03A4879
:10431000854202D1012120200AE03848854202D19D
:104320000121402004E03648854203D1012180204C
:10433000FFF7F2FC20782179400709070843E16E76
:10434000C9060843216F89060843217A49060843B4
:10435000217B09060843218AC9050843A18A09056A
:104360000843218BC9040843A18B89040843218C8D
:1043700049040843A18C09040843A16A09030843BE
:10438000E16AC9020843216B89020843616B490253
:104390000843A16B09020843E16B09010843216C42
:1043A000C9000843616C89000843A16C49000843B7
:1043B000E16C08432860206D6860A06DE860E06DE6
:1043C0002861206E6861606EA861A06EE861606F10
:1043D000A16F400209020843E16F8034C90108431C
:1043E000216889000843616849000843A1680843BF
:1043F000686270BD000601400007014000080140EE
:10440000000901400021016041608160C1600161DB
:1044100041618161C161016241628162C162016386
:1044200041638163C163016441648164C164016566
:1044300041658165C165016641668166C166016746
:1044400081674167C167803001604160816070476A
:1044500070B50D4D0024E878022806D3EC70FEF705
:10446000F3FE00F031F8FEF76FFBA888142800D3A4
:10447000AC80E8887D21C900884200D3EC80A87810
:10448000002800D0AC7070BDF002002070B50B4C5D
:104490000948A06201214803FFF72EFC0848FBF7FA
:1044A0004DFF084D28800648001DFBF747FF688038
:1044B00001481030A06270BD837A00008000004087
:1044C000D01400000000002010B5064C204601F07A
:1044D000DBF8204600F0CCF800F008FB00F010FB01
:1044E00010BD00008805002010B5044600F0D8FB80
:1044F000E0720020A072204601F064FA10BD7047FF
:104500000648016AC906016A01D5102203E089063E
:1045100003D5016A20221143016270470011014056
:10452000F8B5054627480C46854202D1012188038B
:1045300004E02548854203D10121C803FFF7ECFBC5
:10454000002622482168FBF7DBFD214F009004E0A4
:10455000B11C761C0098FBF7D3FDB842F8D81D4972
:104560008E61401EC1B2A9600004000E6860E0794F
:10457000012802D0022822D000200021637922796C
:104580005B001A43A379C9009B000B431A43000147
:104590000243207A40010243607A80010243A07AFC
:1045A000C00102432A60607C217C400008436862AD
:1045B000A0892861E07BA861A07BE861F8BD0120AB
:1045C0000146DBE7001001400011014000D8B805AA
:1045D000FFFF0000800000404B21C9010160002165
:1045E000017141718171C171017241728172818168
:1045F000817301744174704700B585B06846FFF758
:10460000EBFFE1204002009000200190022069466B
:1046100088730248FFF784FF05B000BD0010014019
:1046200010B502468032D38A074C2343A410A3431B
:104630006400D382002901D0234300E0A343D38246
:104640006030C078907610BD0180000010B504463F
:104650002030407F800701D5832000E08120A072B8
:10466000204601F0AFF9204600F01CFB208310BD6E
:10467000F8B50546044640680127FF300130818EB9
:1046800020343943818669681C22FF312046353148
:10469000FBF7D3FD68680026FF300130818EB943F7
:1046A0008186A269002A05D12088810702D4617F12
:1046B000490702D50321217703E04006C00F00D14E
:1046C0002677207F002817D0012819D002282FD064
:1046D000032852D0267768682946FF300130878347
:1046E00068681822FF3008311D30FBF7A6FD6868A6
:1046F000FF3001308683F8BD20784006C00F34E0DB
:10470000607FC1060CD5C007C00F09D02846FFF74F
:104710009DFF20784007C00FDDD002202077DAE728
:10472000AE72284601F04EF9284600F03BFA4DE003
:1047300000F0B0F9002805D0607F2021084341082F
:1047400049006177607FC10603D5C007C017401CD0
:104750000FD0284600F0A4FAE872AE72284601F0A5
:1047600031F920888108384688430028B3D027775C
:10477000B1E72846FFF76AFFADE7617F480701D43C
:10478000002A03D02846FFF7AFFEA4E7228890074F
:10479000C30F28464030002B1CD093083A469A435A
:1047A00016D0027C012A01D0090794D5418A491C00
:1047B00089B24182828A91428DD342822020A8729E
:1047C000284601F0FFF8284600F06AFAE87282E70E
:1047D000468280E74682CAE710B5A4B06846FFF774
:1047E00011FE00200B49149111900C90109019901B
:1047F0000B90491005900420074C169117911A90C0
:1048000069462046FFF77AFD01212046FFF76BFD40
:1048100024B010BD80BB00000006014070B54668A2
:1048200004468034B568606E00210180606EFF35FB
:104830004180013578363046296FFBF759FF616DAD
:1048400048803046A96FFBF753FF616D888070BDCB
:10485000704710B50446406881687830FF310131F7
:10486000C96FFBF745FF1421615E00B2814201DB95
:10487000012010BD002010BD10B5114C0320206197
:10488000606110A0A0612046A830E0618020206215
:104890000021A1626162E1620AA020660C486066A4
:1048A0001020A0662167E16661670AA1E01DFBF7A1
:1048B000E8FC09A12046FBF7E4FC2020A07110BD14
:1048C000E00D00205465726D696E616C000000009F
:1048D000080F0020525454005345474745520000EA
:1048E0008268002A06D00169C068814204D8101A83
:1048F000401802E000207047081A401E7047F7B5C4
:10490000054682B000200090EC6817462869A04256
:1049100001D9061B02E0A968201A0E1AA868761EA3
:10492000001BB04200D80646BE4200D33E4668682F
:10493000324600190399FBF780FC0098BF1B8019D1
:1049400000900398A41980190390A868A04200D190
:104950000024EC60002FD9D1009805B0F0BDF7B568
:104960000446C7688068E168C51B60681646401841
:10497000B54205D90199FBF760FCB819E060FEBDAE
:104980002A460199FBF759FC0199761B6068491981
:104990003246FBF752FCE660FEBDF0B404148BB265
:1049A000264682B25E430D1410463714584336042F
:1049B00080190021794116466E4337143604801958
:1049C000794126466E438919F0BC7047F0B4040C57
:1049D0008BB2264682B25E430D0C1046370C58430C
:1049E000360480190021794116466E43370C36048F
:1049F0008019794126466E438919F0BC704730B45E
:104A00007446641E2578641CAB4200D21D46635D6B
:104A10005B00E31830BC1847002805DBC106C90E4F
:104A200001208840014908607047000000E100E073
:104A30008307FF22DB0E9A408907090E9940002860
:104A400008DB830809489B001818036893430B434D
:104A5000036070470007000F0838830804489B0074
:104A60001818C36993430B43C361704700E400E027
:104A700000ED00E002E008C8121F08C1002AFAD1C8
:104A800070477047002001E001C1121F002AFBD1CE
:104A90007047000003480078022801D000207047CA
:104AA000012070471600002010B5FCF774FC112897
:104AB00002DA2021081A10BD0F2010BD0A48017823
:104AC00080290ED141780A290BD18178052908D196
:104AD000C178012905D18179012902D1C079012844
:104AE00000D000207047000000FE01000348007F56
:104AF000022801D00020704701207047A80500203F
:104B0000F0B5254A254C11464E881778711C8DB298
:104B1000234900230978002F04D0012F12D0022F3F
:104B200037D124E0432902D0542904D008E044209E
:104B30000EE05380F0BD002E02D001201070F8E787
:104B40002370F6E7542902D0592906D021E05320DA
:104B500020705580642DECD2F0BD002E19D00028B5
:104B600002D17D208001508002201070F0BD5929B3
:104B700002D013702370F0BD002802D0538064204F
:104B800005E07D20800155808542F4D365202070AA
:104B9000F0BD13705380EDE71600002001100020D7
:104BA0000010002000207047002801D0002070472E
:104BB0000148806870470000C4000020002801D030
:104BC0000020704700487047C4000020E42148439B
:104BD000024940186030007D70470000180F002027
:104BE00010B50E4A01018C18E4210D4A4143891881
:104BF0006031497C002902D0FBF780FD00E060882D
:104C0000E08001B2E068C213891A0822A25E514313
:104C10000818E060C01300B210BD0000DC100020D6
:104C2000180F002010B5014602228A5E80897D217E
:104C30005043C900FBF77AFA80B210BDE421484323
:104C400003494018803040694068000C70470000FC
:104C5000180F0020E421484302494018806E00B23A
:104C600070470000180F0020024800686421081AED
:104C700000B27047400C0140034800681921490107
:104C8000081A00B270470000400C014088214843D8
:104C900002494018008C00B27047000068020020F2
:104CA00000207047C82070472C2148430149401814
:104CB00070470000745A000001207047002801D09E
:104CC00000207047004870470003002070B506467A
:104CD00000F03CF80446304600F038F825464543DD
:104CE000304600F053F80446304600F04FF8444395
:104CF0002819FDF735FC04494843044980138842CC
:104D000000DD084600B270BD825A0000FF7F00003F
:104D1000882148430A4910B5401808210A22415EFB
:104D2000825E494352438818FDF71AFC05494843FF
:104D300005498013884200DD084600B210BD00001E
:104D400068020020825A0000FF7F0000E4214843EF
:104D5000024941187620085E70470000180F0020B5
:104D6000E4214843084936224018A021095802236B
:104D7000825ECB5E5A433823C35E0020085E434305
:104D80009818C01300B27047180F0020E421484360
:104D9000024941187820085E70470000180F002073
:104DA000408C002801D0002070470120704700008F
:104DB0002C21484301494018806870475810002052
:104DC00010B5827981889207920F91400222825E0B
:104DD0004C0005491046FFF7E0FD2246E317FBF7BC
:104DE000B9F980B210BD000040420F00FF215131DF
:104DF00048430349401881689E20085E70470000C0
:104E0000C400002088214843024941180220085E5E
:104E10007047000068020020882148430249411879
:104E20000420085E7047000068020020E421484327
:104E3000024940186030407C70470000180F002085
:104E4000E4214843024940188030406B8069704734
:104E5000180F002088214843024941181220085E9B
:104E60007047000068020020882148430249411829
:104E70001020085E704700006802002010B504464C
:104E8000406881687830896EFBF72CFC01468034DD
:104E9000206C8068002800DA404201229202884299
:104EA000E08A01DC104300E09043E08210BDFEB5D3
:104EB000054678301C210190FBF7D8F9302168189D
:104EC0000090FBF7D3F969680120C0310881696857
:104ED000284624220C30C831FBF7AFF96868002758
:104EE000C0300781FF2069681D30405A002806D174
:104EF0002846FF31182260301D31FBF79EF9284605
:104F000000F02EFA284600F0D5F928892C46803486
:104F100000280AD0E08AC00405D5A07E002804D06D
:104F2000E87A002801D1A97AA176287A8007208B17
:104F300004D50121C9020843208305E0010503D5FA
:104F400001210903084320832846FDF7E7FD0A21D4
:104F5000002806D0E08A400501D5617701E00920EC
:104F60006077607F207704260300FFF748FD0B077A
:104F70008C8C8C1525353B3E535D8C002846FDF707
:104F800091FB002817D02846FFF763FC00287BD050
:104F9000284600F0B4FA1DE02846FFF749F900283A
:104FA00072D02846FDF7C5FD002801D005202FE06E
:104FB000284600F0A4FA67E02846FCF77FF9284667
:104FC000FDF7B7FD002805D0E06B407904285BD1E0
:104FD00007201DE0667757E02846FDF7AAFD002868
:104FE000D6D051E008206077F6E72846FEF7A0F912
:104FF0002846FDF79EFD002802D0208BC00B43D031
:10500000208CE0832420285E616CFBF7BFFB092025
:10501000607739E02846FEF767F9E08A4005B7D4A3
:105020002846FDF786FD2FE02846FEF79FF9284623
:10503000FFF70FFC002827D02846FDF76FFD00285A
:105040000DD0208BC104C90F1ED00105C90F14D08B
:10505000E98D09290DD000980921818514E0E08AA5
:10506000810411D5C1040FD40005C00F90D167771A
:105070000AE00121C902884320832846FCF756F93B
:105080000098878500E06177284600F02FFB69686B
:105090000120C031888568683022EC300099FBF728
:1050A000CCF86868FF21C030878568683531095AB7
:1050B000C90705D1FF301C2235300199FBF7BDF837
:1050C000FEBD0000F8B50F4F0024FF2051302646EA
:1050D0004643F51901462846FBF7C8F80948E1019F
:1050E000803808186860FF20F53007496043401891
:1050F000A8600648005D641C2406B855240EE4D060
:10510000F8BD0000C400002008FE0100A05A000005
:10511000F8B5FF2111314843294902224618344687
:105120008034218B4023914380221143194304236F
:10513000994303231B0219434908490020231943BB
:105140001027394308239943D3001943E38A706831
:105150009343032285685203E3829143218300F045
:105160004BFB706800F024FA706800F0C5FB687DA6
:10517000002802D1A87C002802D0E08A384301E050
:10518000E08AB843E08240218843297DC907490E5F
:105190000843FF21E08201318843A97DC907C90D79
:1051A0000843E082687EE076012802D1E16BA87EA8
:1051B0000877E07E022802D1E16BE87E0877F8BD2F
:1051C0000003002010B500F04FF9040002D00020C9
:1051D000FFF79EFF204610BD70B5154C58212046A4
:1051E000FBF744F8002528462570FFF7E7FC6060D0
:1051F00020462030057761688968497FC1776168FA
:1052000089688A7F214640310A7462689268D28C2C
:105210008A8262689268527E0A706168FD2289689B
:10522000C97F8177417F11404177012070BD000027
:1052300088050020FCF78AF8002808D072B6FDF730
:1052400043F900F097F962B6FFF702F9FCE7FEE7D1
:1052500010B5024614468034217E0020C9070AD0CA
:105260001046FDF7ABF9002805D0208BC10703D00D
:10527000800701D5012010BD002010BD10B50446E7
:10528000FDF76CFB002812D02046FDF7F5FB002847
:105290000DD02046FDF792F9002808D08034208BED
:1052A000C10705D0810703D5400701D5012010BDF6
:1052B000002010BDF8B5436804469E680096054678
:1052C000024680340169206C0C320161206CC66892
:1052D000B712C91B878A4F43F119C160206C89122C
:1052E00081601C211846515E5430FCF748F829466D
:1052F00080314F6B0E6BBA05B10A1143401A174942
:10530000615EFFF74AFB30184F41B02148518035AC
:105310006F63820A009EB9050A43FF3615460136BF
:105320002946706AFFF739FB2A46EB17FAF738FF70
:1053300064220023FAF70EFF009107462946306ADF
:10534000FFF72BFB009AC019F3695141DA171818BF
:105350004A411105000B0843A062F8BD3800000067
:10536000F8B54168024660328D68012391781B03CD
:1053700004465E00803480291AD006DC00290FD054
:10538000202907D0402905D124E00127812916D002
:10539000832917D0E08A4004400C984330431EE034
:1053A000E08A400840004004400CE082002004E015
:1053B000E08A0121C903084311E0A07606E0E77600
:1053C000002101E0E7760121FFF72AF9E16BA87ED1
:1053D0000877F8BDE08A4004400C1843B043400809
:1053E0004000E082D078E8E7F0B504690168002564
:1053F0008C4226D082680026002A20D0A14204DBFD
:1054000043689A180125426003E0C3684268D21AD3
:105410004260002A01DB134600E05342002A02DB0F
:105420001F14E41901E01F14E41B9BB20461002A5D
:1054300000DA5B424360002D04D08C4201DD4660FF
:105440000161F0BD8C42FADBF0BD00210160016119
:10545000416070470248006A0249088070470000B6
:10546000800C014014000020F8B51C4DFF210127DD
:10547000002628461131FAF7F9FE2C4680342046E2
:1054800090302E70014626772031E163303121645F
:1054900068316164A0641831E164603121652C39A0
:1054A00061652039E16518312166363161660A315E
:1054B000A1660A31E1660A3121670A3161670A3162
:1054C000FF306F30A167E0673046FFF777FB686019
:1054D000002800D100273846F8BD00000003002056
:1054E000024A40018018818370470000BC100020F0
:1054F000028802239A4349000A43028070478030A1
:10550000018B80221143018370470000E422504345
:10551000024A8018E030017070470000180F002028
:10552000E4235843034BC0188030436B1981406B10
:1055300042817047180F0020034A914200DB114658
:10554000024A4000115270475555000042000020A9
:10555000028808239A43C9000A430280704700006A
:10556000E4225043024A0021801860308174704761
:10557000180F002008B5FDF7A7F9FDF7A1F9FDF711
:10558000C9FAFBF763FF002001230090DB02034A06
:1055900003A10120FEF7EEF908BD0000E0050020A0
:1055A0004A53636F70655F693269326932693200EC
:1055B00070B50446A1686568C03189884435298082
:1055C000A1687830C031C9886980A1688031898F2D
:1055D000A980A1688031C98FE980A168C03109889C
:1055E0002981A168C03149886981A268C821515EBA
:1055F0000A225143FBF770F8A881A068A021006E31
:105600002861A068406E6861A068C06EA861A0684B
:105610000A5880887D215043C900FAF787FD01B2FE
:105620000520C0020A31FAF781FDA883A068FF2196
:105630008030008DE883A06849318030408D288417
:10564000A06800228030808D6884A0688030C08D82
:10565000A884A0688030008EE884A0688030408EE6
:105660002885A068095A825E51432963A068FF21FA
:105670004B310022095A825E51436963A068FF30B2
:105680000130406C288770BD30B5164A012351782F
:10569000002400290AD09188134D491C09B2918039
:1056A000A94204DB117800290DD014709480916810
:1056B000416414782030EF22417F002C05D0102463
:1056C0002143194304E01370F0E7114049084900F1
:1056D0004177C9B28B0603D511404908490041778B
:1056E00030BD00002C00002010270000F8B54768EE
:1056F0000446064614210546415E543778340C367C
:105700003846FBF742FE60601A21715E3846FBF7AF
:105710003CFEE0601821715E3846FBF724FEA06075
:1057200038467168FBF725FE20612889A061622058
:10573000405DA0708035E88A0121800A814320887D
:105740000422904389000843E98A40220905C90FD1
:105750009043890108432021884308432080F8BDF5
:1057600070B5057804462846FFF790FA216948602D
:10577000E0682169C089088188201E496843401873
:105780002269418851822269818891822169C08879
:10579000C8822846FFF7DAFA216908822846FFF70F
:1057A000F5FA2169C8812846FFF7B2FA2169088312
:1057B0002846FFF78BFA216948832846FFF7D0FA7D
:1057C000216988832820005D012804D12846FFF73D
:1057D000EFFA21694860E06821690078C8702846BE
:1057E000FFF738FB216988812846FFF73DFB2169D7
:1057F000488170BD68020020826841684032127999
:105800000A708268403252794A708268926C4A60AB
:105810008268126D8A608268526DCA608268926D79
:105820000A618268D26D4A61826892884A8382687E
:10583000126BCA618268526B0A628268926B4A621A
:105840008268D26B8A628068006CC8627047000010
:10585000FEB50546007888212C6C4843244928224F
:105860002226A25EA65F4118921BE8690092A28CD4
:10587000E38B4830D21A12B20192E28C238C496A2F
:10588000D21A17B2FBF775FD1A494843C01300D569
:105890004042B0420CDB801BC0030099FAF746FC83
:1058A00001994143C9137843C01309B200B201E022
:1058B000002108461E23E35E2022A25E59180EB284
:1058C000101801B22420205EB04200DB3046834233
:1058D00000DD18462623E35E8B4200DA19468A4231
:1058E00000DD11468AB281B22878FFF719FEFEBDAD
:1058F00068020020CC0C0000F8B5074644688068B8
:105900003034807B2074B868C07B6074B868FFF75F
:1059100057FAA081B868FFF785F9E081B8680346B7
:105920008189FF308130828A8E18428AB24201DB3F
:10593000114600E0314650180221595EFFF72DF85C
:105940007D2212010023FAF705FC0546A089FF21FC
:10595000401B2080B8689331095A8A190221415EA0
:105960001046FFF71AF87D22D2000023FAF7F2FB67
:105970006080FF21B86893310A5A0221415E1046C7
:10598000FFF70BF87D22D2000023FAF7E3FB06466F
:10599000BA68FF2097300221805A515EFEF7FDFF62
:1059A0007D22D2000023FAF7D5FB6188891B0918F4
:1059B000E180A289A91B891A0818A08000202081F3
:1059C0006081F8BD416889688031896B8164426C6F
:1059D000C260C26C0261416170470000F0B4234CA8
:1059E00043011B19E4246043214C10250019803029
:1059F000C469142764889C80C4692488DC80846915
:105A000064681C605D5F9E7C6543354104269E5F33
:105A1000DF5F7E439F7D3E417443E613AC1906254C
:105A20000C265D5F9E5F75439E7B35412C1914806B
:105A300004220C249A5E1C5F182562439C7B5D5FE8
:105A4000224106241C5F6C439D7E2C411D686543EA
:105A5000EC13121B446C0220205E1C241C5F60436C
:105A6000C01310180880F0BC70470000BC10002064
:105A7000180F00208D060000A90600009D060000FA
:105A8000890600002D1200006D2B0000D5170000C4
:105A90005D170000ED260000752300003D13000097
:105AA00000000000613A00000000290051007A0067
:105AB000A300CC00F4001D0146016F019701C00155
:105AC000E90111023A0262028B02B402DC02050310
:105AD0002D0356037E03A703CF03F70320044804D6
