:020000040000FA
:1000000000030020D9000000E7000000E900000024
:1000100000000000000000000000000000000000E0
:10002000000000000000000000000000EB000000E5
:100030000000000000000000ED000000C50400000A
:10004000D3040000D5040000D7040000D904000048
:10005000650100006701000019030000690100004C
:10006000CF040000D9020000F703000025010000C2
:10007000F10000003D030000D10400002701000052
:10008000F1000000F5030000F1000000F1000000A5
:10009000F10000000000000000000000000000006F
:1000A0000000000000000000000000000000000050
:1000B0000000000000000000000000000000000040
:1000C0000448854600F01CF800480047F904000089
:1000D000C046C04600030020064880F30888064852
:1000E000804706480047FEE7FEE7FEE7FEE7FEE73B
:1000F000FEE7000000030020C7040000C10000006C
:10010000064C0125064E05E0E36807CC2B430C3C6A
:1001100098471034B442F7D3FFF7D6FF0805000024
:10012000180500007047704710B50B480B4908636D
:10013000C805406BC9130843C9034863012000F098
:100140005BF9642000F0A6F90348044908630448F9
:1001500008600020086310BD837A00008000004022
:10016000FF010000704770477047F0B50B46002252
:1001700000240025002100BF65E00126964034469A
:100180001E6826403546A5425CD11E79002E0CD152
:10019000016801269640314301604168012696407E
:1001A0000F46B743394641602DE01E79012E0BD131
:1001B000016896400F46B743394601604168012601
:1001C0009640314341601EE01E79022E0ED1016837
:1001D000012696400F46B743394601604168012623
:1001E00096400F46B743394641600CE01E79032E16
:1001F00009D101680126964031430160416801261A
:100200009640314341605E79012E04D101699640E8
:100210003143016109E05E79002E06D101690126B2
:1002200096400F46B7433946016181699E68012EA9
:1002300002D19640314304E0012696400F46B74371
:1002400039468161521C102A97D3F0BD30B504465F
:100250000D4600222946204600F010F830BD30B58A
:1002600004460D4601222946204600F007F830BD1D
:10027000002101600171417181607047002A03D043
:10028000C3680B43C36002E0C3688B43C36070471D
:100290000EB56846FFF7ECFFC020009001216846CC
:1002A0000171002141710020029069460948FFF761
:1002B0005CFF6846FFF7DCFF0820009001216846DC
:1002C0000171002141710120029069460148FFF748
:1002D0004CFF0EBD002001407047000010B572B603
:1002E0000A480B4908630B480068C91208430949CA
:1002F0000860FFF7CDFF642000F0CCF8002004492F
:100300000863012000F0B6F862B610BD837A0000E1
:1003100080000040000400407047000010B5C0217C
:100320000148FFF793FF10BD0020014010B50821E0
:100330000148FFF794FF10BD002001407047000006
:10034000C206D20E01219140014A1160704700009F
:1003500080E200E0C206D20E01219140014A116004
:100360007047000080E100E0C206D20E01219140FA
:10037000014A11607047000000E100E010B500285C
:1003800019DA1A4A03071B0F083B9B089B00D25837
:100390008307DC0EFF23A3409A438B071B0E8407C1
:1003A000E40EA3401A43114B0407240F083CA40891
:1003B000A4001A5118E00E4A03231B02D218830826
:1003C0009B00D2588307DC0EFF23A3409A438B0780
:1003D0001B0E8407E40EA3401A43054B032424029A
:1003E0001B198408A4001A5110BD00001CED00E088
:1003F00000E100E07047704710B50446012C33D18E
:100400001A481B490863C805806B03210902884309
:10041000A1078863642000F049F8A007806B2102DF
:100420000843890588630846806BA043886364207D
:1004300000F03CF8A007806B032109028843A10764
:100440008863642000F032F8A007806B0321090262
:100450000843A1078863642000F028F81120FFF703
:100460006FFF00200249086310BD0000837A00007E
:100470008000004010B50446012C07D10021112056
:10048000FFF77CFF1120FFF76FFF02E01120FFF75D
:1004900061FF10BD08B50021009103E000BF009985
:1004A000491C009100998142F8D308BD08B500218C
:1004B000009103E000BF0099491C0091009981421E
:1004C000F8D308BD704710B5FFF72EFE10BD70477A
:1004D0007047704770477047704702E008C8121FA6
:1004E00008C1002AFAD170477047002001E001C11D
:1004F000121F002AFBD17047FFF7F0FE03E0FFF761
:100500000DFFFFF713FFFAE71805000000000020B9
:0805100000030000EA040000F2
:04000005000000C136
:00000001FF
